:1000000000800020BD010000E1100000AD100000E4
:10001000AD100000AD100000AD100000AD100000EC
:10002000AD100000AD100000AD100000E1100000A8
:10003000E1100000AD100000211C0000E51C0000D4
:10004000E1100000E1100000E1100000E1100000EC
:10005000E1100000E1100000E1100000E1100000DC
:10006000E1100000E1100000E1100000E1100000CC
:10007000E1100000E1100000E1100000E1100000BC
:10008000E1100000E1100000E1100000E1100000AC
:10009000E1100000E1100000E1100000E11000009C
:1000A000E1100000E1100000E1100000E11000008C
:1000B000E1100000E1100000E1100000E11000007C
:1000C000E1100000E1100000E1100000E11000006C
:1000D000E1100000E1100000E1100000E11000005C
:1000E000E1100000E1100000E1100000E11000004C
:1000F000E1100000D51D0000E1100000F11E00001D
:10010000E11000000D200000E1100000E1100000EF
:10011000E1100000E1100000E1100000E11000001B
:10012000E1100000E1100000E1100000E11000000B
:10013000E1100000E1100000E1100000E1100000FB
:10014000E1100000E1100000E1100000E1100000EB
:10015000190F00002D0F0000410F0000550F000087
:10016000E1100000C5130000E1100000E1100000E4
:10017000E1100000E1100000E1100000E1100000BB
:10018000E1100000E1100000E1100000E1100000AB
:10019000E1100000E1100000E1100000E11000009B
:1001A000E1100000E1100000E1100000E11000008B
:1001B000E1100000E1100000F10C0000564B4CF281
:1001C000205210B51A804DF628121A8000BF00BFC9
:1001D00000F08AFF514B4FF010621A60504A9A604B
:1001E000504ADA60504A136813F4807301BF4F49D4
:1001F0000B604FF4A85313604D4B4E491A7810070B
:1002000042BF1A7842F008021A704B4B2A221A7029
:100210004A4A4B4B8B4204D252F8040F43F8040B6A
:10022000F8E7484B484A0021934202D243F8041BA6
:10023000FAE7464A4648002350F8231042F82310B4
:1002400001336F2BF8D1434B434A802103F8011B44
:100250009342FBD1414B3D4A1A60414B8A221A70AE
:10026000A3F5805324225A70A0221A709A7991071C
:10027000FCD59A79D206FCD43A4A937903F00C0360
:10028000082B384BF9D105221A7143225A719A79F9
:100290009406FCD533498A79324B5006FBD5324A55
:1002A0004FF0817111600521516020221A709A79F6
:1002B00002F00C020C2AFAD12C4B2D4A1A602D4B5D
:1002C0002D4A1A6000225A60072243F8042C2B4A58
:1002D000C3F80C2D62B600F087FF144B1B68DA07D9
:1002E00005D5274800F008FF264B274A1A60274B00
:1002F0001B785B0609D5234C234B22689A4204D114
:100300001F4800F0F9FE0023236002F0D1F800F04E
:10031000F1FE00F029FEFEE70E200540308004408B
:10032000823F04000100002B10D0034014D0034092
:1003300002D007400810002000E00740B02B00006A
:10034000200B002008100020A81300200006002029
:100350000000000000E400E05FE400E008ED00E0E1
:1003600000500640004006404480044004800440A1
:10037000C010050014E000E03F190100000020203B
:10038000782CD25B1CE00340A5C3945A00F00740D0
:10039000FFFFFFFFFFFFFFFFFFFFFFFFFFFFFFFF6D
:1003A000FFFFFFFFFFFFFFFFFFFFFFFFFFFFFFFF5D
:1003B000FFFFFFFFFFFFFFFFFFFFFFFFFFFFFFFF4D
:1003C000FFFFFFFFFFFFFFFFFFFFFFFFFFFFFFFF3D
:1003D000FFFFFFFFFFFFFFFFFFFFFFFFFFFFFFFF2D
:1003E000FFFFFFFFFFFFFFFFFFFFFFFFFFFFFFFF1D
:1003F000FFFFFFFFFFFFFFFFFFFFFFFFFFFFFFFF0D
:10040000FFFFFFFFFFFFFFFFFFFFFFFFDEF9FFFF23
:1004100010B5054C237833B9044B13B10448AFF33E
:1004200000800123237010BD081000200000000090
:10043000AC2B0000084B10B51BB108490848AFF3BE
:1004400000800848036803B910BD074B002BFBD0A0
:10045000BDE81040184700BF000000000C1000204D
:10046000AC2B0000081000200000000010B504466E
:1004700000F030FD204610BD10B5044600F0F3FB3F
:10048000204610BD0F4B03600023417202610372CE
:10049000C3601946427A934204DA026942F8231093
:1004A0000133F7E7084A13680BB9106004E05A6992
:1004B0000AB11346FBE75861002343618380C38080
:1004C00083727047F4250000CC10002008B501218C
:1004D000062000F021FE8021044800F0ADFA044B14
:1004E000044ADA614FF400421A6208BD0082FF1F1D
:1004F000541000202D464A000E4B10B50121186003
:10050000052000F009FE0C4B9B6A012483F8804013
:100510000A2000F053FE00F031FE084B084A186034
:100520000849094800F08EFC084B1C70084B1C70F1
:1005300010BD00BF240B0020202A0000B4100020B2
:100540007FEE3600A9050000AC100020241000202A
:1005500094100020054B1B7833B9054B1B781BB951
:10056000044B1868FFF7C8BF704700BF2410002075
:1005700094100020240B002008B5074800F0AAFCC6
:10058000064B9B6A012283F80021054A002313626F
:10059000044A137008BD00BFAC100020202A0000E0
:1005A000541000202410002007B500F0E7FD114B87
:1005B0001B68C01A01F0A8FE0F4B196801F068FF14
:1005C00008B1FFF7D9FF0D4B196B012381F880307B
:1005D0000B4B1A6800920B4A009810601A6801923F
:1005E000019A121A022AF9D9012381F8003103B0C5
:1005F0005DF804FBB4100020240B0020202A00002A
:10060000001100205010002073B5244E244C254DBD
:10061000002211463046FFF735FF234B336004F1CB
:1006200024024FF48043012120463362FFF72AFF62
:100630001E4B23604FF0FF3305F118020121A36127
:1006400028461B4CFFF71EFF1A4B2B60284600F074
:1006500005F92660184E65602046002525726572F2
:10066000E560257400F0CDFA32461449204601F0C9
:100670008FFD00F083FD124B12491860124B134896
:100680001B680193124B019A1A6080233246056061
:10069000037101F07DFD02B070BD00BF5410002059
:1006A00028100020781000201826000000260000E6
:1006B000981000200C260000200B00207904000078
:1006C000B41000206D04000000110020AC100020C8
:1006D000501000202DE9F047846905462CB92146C9
:1006E00000F060FA00284AD14DE0631C4FF0000191
:1006F0000BD100F057FA0446002844D001460022EE
:10070000284600F03BFA204639E000F058FA064649
:10071000C8B3E86995F82070DFF870E0B11C06F501
:10072000817C4FEA1469C4F30F2309F10102984652
:10073000C3F5803A3EF919303EF9122003FB0AF363
:1007400008FB023331F9022F1B145343DB130B80D8
:1007500027B1E343984205D2044407E0A04204D203
:10076000241A03E04FF0FF3400E03C468C45D8D11A
:100770002846AC610022314600F000FA3046BDE860
:10078000F04700F0D3B9BDE8F08700BF1E28000095
:1007900010B5002100F006FA034690B172B609497F
:1007A000086808B90B6003E0074A146814B91360BD
:1007B00062B610BD0C60136062B6BDE8104000F078
:1007C000B5B910BDC8100020B810002038B5194BBD
:1007D0001A6811681A79184B1A70184A9142184908
:1007E000086836BF1346A2F5807303F580720C4685
:1007F00088B1051D35F9021B01F50041091123F8E7
:10080000021B9A42F6D800F091F90E4B1A6822604A
:1008100000221A6005E04FF4006123F8021B9A429F
:10082000FBD8094B1B781BB1084B4FF080421A6074
:1008300038BD00BFBC1000201F8000400005002014
:10084000C8100020B8100020C410002008E200E00A
:1008500010B5044600F0DAFA204610BD70B501214B
:100860004148424E00F07EFA414A136843F48053F7
:100870001360404B80221A70002440F60805348033
:100880000120083400F09AFCA3B2AB421CB2F6D1AE
:10089000394B3A481A683A4C3A4912F4800F4FD013
:1008A000394A156848F6A2722A4048F6A275AA424B
:1008B00046D1056840F22F32954241D12268012A83
:1008C0003ED10D6840F20112954239D1264C2F4A93
:1008D00023681A6002229A809A6040F20111A2F203
:1008E0000222D980DA604FF48071204A1A61D982DD
:1008F0000022D983062199839A829A61237903F190
:10090000804303F504331A70B0221A7000F0DCF94A
:100910001F4B227918701F4B1F481A7002F11001EB
:100920001E4B43F8210053119B0003F1604303F574
:10093000614302F01F02012101FA02F21A6070BD48
:100940001A6842F480021A600123236040F22F33B8
:1009500003600D4B48F6A3721A60114A1A6040F208
:1009600001130B60B2E700BFBC10002000C00C40B8
:100970002C80044021C00C403C80044004600340B3
:100980000C6003401060034000600340000400203E
:10099000C41000201B800040CD070000000600208E
:1009A000A28F0100024A0349034801F0F1BB00BFD6
:1009B000200B002051080000BC100020036A2DE924
:1009C000F04704467BB300F06BF8054658B3A169C5
:1009D000D4F81CE0D4F82090DFF858C0861C00F54D
:1009E00081780846070E7B1CC0F30F2A3CF917706C
:1009F0003CF91320CAF580337B430AFB023353FBD7
:100A000009F326F8023FB0457044EBD101EBCE115B
:100A1000A16120462946002200F0B0F82846BDE832
:100A2000F04700F083B8A369E26903EBC213A36146
:100A3000BDE8F0871C260000C029F0B528BFC02102
:100A400072B6144B144A186000231380134A01270E
:100A5000136053609360D360136153618B4203D181
:100A600000234FF482740BE05E0903F01F0407FAC1
:100A700004F552F826402C4342F826400133EDE7B6
:100A80008B4204D004FB030253800133F8E762B6C3
:100A9000F0BD00BFD4100020F6100020DC100020B4
:100AA00070B572B61C491D480A880C4600EB8203DB
:100AB00000F11806B34202D362B6002070BD1D4695
:100AC00055F8041B11B901322B46F3E7B1FA81F650
:100AD0004FF00045F54021EA0501196001B90132E6
:100AE00022800F4A118801318CB2148062B61B1A21
:100AF0009B10C6EB43134FF482725343094A03F52C
:100B0000FB5312681C330125D554D018064B1A88A4
:100B1000914288BF1C8070BDF6100020DC100020C0
:100B2000F8100020D4100020D0100020438872B6A6
:100B30000278012A02D9013A027016E05A110C48D3
:100B4000DB434FF0004103F01F0321FA03F350F899
:100B500022101943074B40F8221019888A4238BFE7
:100B60001A80054A1388013B138062B6704700BFA4
:100B7000DC100020F6100020F810002030B5C3680B
:100B80007BB1187A90420AD158685C7A006950F8B3
:100B9000245025B940F82410087801300870DB682B
:100BA000EEE730BD437A8B4288BF02694FF0000305
:100BB00086BF52F8210042F821301846704738B5F8
:100BC000437A8B4201D8002038BD036953F8214095
:100BD000002243F82120002CF5D02378012B0ED9D8
:100BE000FFF75EFF054628B14FF48072211D0430E7
:100BF00000F0C2F92378013B2370284638BD204617
:100C000038BD037C30B5002B2CD14368427A5B7A27
:100C10009A4227D872B60268D3682BB9D06011E027
:100C20001C68A24204D00B46D9680029F8D108E01C
:100C30005D684468A542F6D11C8903899C42F2D1C3
:100C40000FE0D8600023C360937A01339372026887
:100C50004168012313728A7A1A448A7242681372B5
:100C6000037462B630BD037C002B2BD04368427AFC
:100C70005B7A9A4226D872B60268D36813B3984258
:100C800004D1C368D36004E0984202D0DB68002B33
:100C9000FAD14368427A1B69002143F822100268A6
:100CA000937A013B937203689A7A02B91A72426886
:100CB000937A013B937243689A7A02B91A720023BD
:100CC000037462B67047FFFF074B1A7852B9074AA0
:100CD000D0211170A2F256324FF0804101201160F4
:100CE0001870704700207047D81000205EE400E0C4
:100CF000164AF8B51368164D43F080731360154A11
:100D0000136843F001031360134B2E681C688CB109
:100D1000237A6BB123682F681B68204698472A689E
:100D2000E388D21B120991B29A42A18088BFE18068
:100D30006469ECE72B68094A9B1B1B0999B2118077
:100D4000074A1088834288BF1180F8BDFCED00E09F
:100D5000041000E0001000E0CC100020FA10002089
:100D6000F410002030B572B6254C89B9016879B10C
:100D700003790F2B0CD822881A41D20708D503F12A
:100D8000007303F59063B1EB431F01D162B630BD30
:100D90002188002341FA03F212F0010227D1012534
:100DA0009D402943218062B6164DD9B201712C684D
:100DB00044F002042C6055F8044C03F1007344F035
:100DC000020445F8044C03F590630F4C5B01822547
:100DD0002560A176A1772176E17703601A605A60D9
:100DE0009A60DA601A615A619A61DA6130BD013342
:100DF000102BCFD162B600220260037130BD00BF5C
:100E0000FC100020408004400080004003790F2B3C
:100E100010D8094A137072B608490279012303FAFF
:100E200002F20B8823EA02030B8062B610230371DF
:100E300000230360704700BF1A800040FC100020B0
:100E40007047FFFF036830B523B100249C60012484
:100E5000DC6017E0194C236843F40003236000BFF3
:100E6000174B01241C6003F58073164C0360036864
:100E70009D683DB11033A3420360F8D9002303609D
:100E8000184630BD0468104B226023441B110F4DDF
:100E90000322A2600E4A45F8231001799954443385
:100EA0005A11920002F1604202F56142012003F002
:100EB0001F0300FA03F3136030BD00BF3C80044001
:100EC000007003403F710340008FFCBF280B0020DF
:100ED00044E400E0016830B5A1B10B4B0B441B1199
:100EE00003F144025511012402F01F0204FA02F238
:100EF000064C44F82520064A064C42F823400023BD
:100F00008B60036030BD00BF008FFCBF80E100E05C
:100F1000280B0020410E0000024B01221A60024BF8
:100F20001B6818470C710340280B0020024B01225C
:100F30001A60024B5B6818471C710340280B0020A5
:100F4000024B01221A60024B9B6818472C71034028
:100F5000280B0020024B01221A60024BDB68184765
:100F60003C710340280B002008B5FFF7AFFAFFF7EC
:100F7000F1FA00F0E7FDFAE7844641EA000313F0D6
:100F800003036DD1403A41D351F8043B40F8043B90
:100F900051F8043B40F8043B51F8043B40F8043B53
:100FA00051F8043B40F8043B51F8043B40F8043B43
:100FB00051F8043B40F8043B51F8043B40F8043B33
:100FC00051F8043B40F8043B51F8043B40F8043B23
:100FD00051F8043B40F8043B51F8043B40F8043B13
:100FE00051F8043B40F8043B51F8043B40F8043B03
:100FF00051F8043B40F8043B51F8043B40F8043BF3
:1010000051F8043B40F8043B403ABDD2303211D392
:1010100051F8043B40F8043B51F8043B40F8043BD2
:1010200051F8043B40F8043B51F8043B40F8043BC2
:10103000103AEDD20C3205D351F8043B40F8043B92
:10104000043AF9D2043208D0D2071CBF11F8013B90
:1010500000F8013B01D30B8803806046704700BF56
:10106000082A13D38B078DD010F003038AD0C3F165
:101070000403D21ADB071CBF11F8013B00F8013B47
:1010800080D331F8023B20F8023B7BE7043AD9D306
:10109000013A11F8013B00F8013BF9D20B780370DB
:1010A0004B7843708B7883706046704708B50B4D62
:1010B0002C462B68580301D500F084F923685905A4
:1010C00001D500F087FE23681A0501D500F010FF56
:1010D0002368DB04EDD500F099FFEAE73480044093
:1010E00008B5FFF7E3FFFFFF014B10221A8070479E
:1010F000002005407047FEE7044B054900221A60B6
:101100000A60044A106010221A60704714D003402D
:1011100004D0034000D00340212810B52BD8164A34
:1011200002EBC00301295B68144601D004290FD1EA
:1011300054F83020012082F880024FF4A2721A6025
:101140001A6804290CBF42F0200222F0200211E0AC
:1011500052F83000002280F8802211B94FF48072DA
:1011600008E0022902D140F2031203E0032908BF7C
:101170004FF481721A6010BD202A000072B60C4B29
:101180000C4A0D491B681268096862B6490102D50C
:10119000322B88BF0132C3F58C33482003F23F1352
:1011A000B3FBF0F34FF47A7000FB0230704700BFDE
:1011B00018E000E00011002004ED00E038B504461E
:1011C000FFF7DCFF054624B938BD013C0AD005F520
:1011D0007A75FFF7D3FF401BB0F57A7FF5D200F0A8
:1011E000B1FCF6E738BDFFFF214B4FF4000210B50C
:1011F0001A604FF080721A604FF000721A604FF060
:1012000080621A604FF000621A601A4B1A4A1B4C37
:10121000002048F6FF71186059602823136093601E
:1012200013619361136293621363936309222260D3
:1012300004F58054043420606160A360236144F8A5
:10124000042C04F5FE2420600D4801600D490B605C
:101250008B600D4B1A6000F051FD3220FFF7AEFF9E
:1012600000F0BCFB4FF4AF70BDE81040FFF7A6BF25
:1012700008E100E0048003400C800340008003404C
:1012800008800B400C800B4000800B40F0B50C4CEC
:101290000C4E23780C4D43F0020706EBC70283F097
:1012A000010350602A782370002A14BFC8208820C8
:1012B00082F0010240EA01412A7046F83710F0BD81
:1012C0006C1100200080FF1FE411002070B472B682
:1012D000174C184901231A1912F8012C12071DD5B1
:1012E0009A00144E51F832502DB906EB43130830D2
:1012F0005860114B09E042F0010251F832506DB9CB
:1013000006EBC203083058600C4B46F832300C4AEA
:101310001378013B137062B670BC70470133052B24
:10132000D9D162B6064B00221A7070BC00F0B6BB71
:10133000302B00000080FF1F88004000C8004000E4
:10134000DA110020431E032B10B532D8194A400190
:1013500040F01000104472B6174AD45C032C0BD82E
:10136000DFE804F018040207052414E00830022422
:1013700011E0083004240EE01048114A50F82340D0
:1013800014B940F8231002E052F82300416042F8FB
:1013900023100DE00324D45410F0080F01F10803CA
:1013A0000A88436014BFC823882343EA02430360CA
:1013B00062B610BD0080FF1F18110020B011002080
:1013C000C01100202DE9F74FA94B1C78E4B214F0AE
:1013D000040F1D461AD0A74B1B78A3B1A64A11785B
:1013E00001F0FF0321B1013BDBB2137003B900BE72
:1013F000A24A117801F0FF0329B1013BDBB213705F
:101400000BB900F07BFB9A4A0423137004F0080325
:1014100003F0FF02002B00F07182994B994C1B786E
:10142000DBB21F094FEA930640F0EC8104EBC603E0
:10143000596854F83630C3F38303013B0C2B00F298
:10144000DD81DFE813F09A019A01DB01DB01DB01AA
:10145000DB01DB01DB01B901DB01DB01DB010D009D
:101460000A68894D89484B682A6001216B60DFF862
:101470005082874B017092B240F2816044F836305E
:1014800082424FF00003C8F800302361A36117D8EF
:10149000B2F5D06F80F02781B2F5817F00F0D8805F
:1014A00006D8802A00F0C180822A00F0C28035E18F
:1014B00040F202339A4200F00781B2F5A06F1AE0C1
:1014C00042F22100824200F055810CD8B2F5086F3B
:1014D00000F0A580B2F5106F40F02081654AA97830
:1014E00011701E460AE042F221218A4200F00E816C
:1014F00042F221339A4200F015810FE1A219136ADA
:101500001F0603D5506A083800F0C8FA0836802E46
:10151000F4D1DFF8B0915F4F0026CA4659F8260093
:101520004FEA860B30B14268009200F0B7FA009A99
:101530001046F7E7584B594A4AF80B004BF803009E
:101540005BF8020040B141680192009100F0A6FAF8
:101550000099019A0846F5E7514B42F80B0023F831
:1015600016003B784F4A023B4BF80200032B07D88A
:10157000DFE803F002040204002300E001233B70D3
:101580000136042E07F10107C8D1474B474E404FA3
:1015900000221A704FF0010B9946454A0BEB0601E9
:1015A0005A4411F8011C920011F0080F11704FEA13
:1015B0008B0A24D000F054FA38B104EB4B120830F7
:1015C0003C4B506044F83A3006E099F8002044F86B
:1015D0003A00013289F8002000F042FA4AF0010294
:1015E00030B104EBC2010830486044F8327006E0C4
:1015F00044F8320099F80020013289F800204AF0BE
:1016000002010BF1010B4AF0030A0022BBF1050FA6
:1016100044F8312044F83A20BFD1134683E0154BFB
:10162000254E1B7833700B4680E0234E3370737069
:101630007BE0AA8802F07F02042A6FD81E4E920037
:10164000337073701D4B9B5C9C076ED531706CE0E2
:10165000AA8802F07F02042A60D86B88002B5DD133
:101660001649920011440A7822F0020239E000BFC4
:1016700080200740E31100206D110020E5110020BB
:10168000902007400080FF1FD0110020E4110020AF
:10169000C80040001811002008110020B0110020DF
:1016A00092130020C0110020DA110020302B00001E
:1016B00030C8011088004000DB110020C020074026
:1016C000041100205C110020AA8802F07F02042A85
:1016D00024D86B8813BBA549920011440A7842F0C4
:1016E00002020A701FE06A88A988A14B5E68AEB149
:1016F0001888904208D15888884205D1120A032AD6
:101700000CBF33781B8911E00C33EFE7994A11685D
:10171000994A1160994AA978117004E0934B0F22FD
:101720001A7027E000231E4600E00223EC889C424A
:1017300028BF1C46402C254628BF40253046294658
:10174000FFF7A4FD641B2E4403D1402D12D1254682
:1017500003E0402C254628BF402530462946FFF7A8
:1017600095FD641B2E4401D1402D03D1844BC8F854
:1017700000601C800122834B3FE0834B1A8842F2B9
:1017800021039A4214D1814A0023C85C9854013342
:10179000072BFAD17D4B1B68862B08BF7C4B4FF083
:1017A000000108BF0F22084608BF1A70FFF76EFD40
:1017B000784B44F8363021E0774F3E68A6B1DFF829
:1017C000C081B8F80040402C254628BF402530464F
:1017D0002946FFF75BFD601B80B2A8F8000008B93E
:1017E000402D00D170193860674B1A88B2F5A06F90
:1017F00004D100225A709A78684B1A70614B01220A
:101800001A7077E004EBC605013F6A6803F008032D
:10181000A2F10800FFB203F0FF0E002B36D000F05B
:101820003DF95F485F4A50F82710E9B14B6840F82E
:10183000273001F108036B60D35D032B0BD8DFE881
:1018400003F002040608032304E0022302E0052358
:1018500000E00423D35515F0080F0A8814BFC823ED
:10186000882343EA024343E0D35D032B07D8DFE834
:1018700003F041410204002306E0012304E015F0D7
:10188000080F14BF03230223D35533E054F8363036
:101890001B0C99B222F8081C23B3434B22F806EC28
:1018A00042F804EC53F82720DFF82CE112B943F892
:1018B000270002E05EF8273058603C4A4EF82700C7
:1018C00032F817300B4422F8173000F0C9F810B185
:1018D0000830686006E0364A44F836001378013371
:1018E000137007E0334A2B4B15F0080F08BF13465F
:1018F00044F83630304A0823137065E5E0071ED5FA
:1019000020492C482D4C02230B702D4B1A702D4B67
:10191000186098602C48D8601A619A615C60134B1B
:101920000D2018702948FF2303702B700274284A79
:101930001370284B9F221A7001230B7012E02106AE
:1019400004D50A4B0D221A7080232B70A20705D5EF
:101950001E4A1378DBB2137002232B70E30644BFD8
:1019600010232B7003B0BDE8F08F00BFC0200740EC
:10197000342B000000110020A4130020F0110020DF
:10198000D811002094200740D01100209C13002083
:101990006D110020C800400004110020982007406D
:1019A000B0110020181100205C11002092130020BB
:1019B000DA11002088004000802007401C11002020
:1019C0006C1100200080FF1F70110020882007404C
:1019D0008C200740842007400811002010B500F03B
:1019E0007BFB0023194819461950C4180833882B6B
:1019F000164A6160F8D116490B6843F480230B60E6
:101A0000144BC2F307211970C2F30741120E197566
:101A10001A76114AFF2313700021137202F8703CEA
:101A20000123137582F8801013710C4B70226FF430
:101A300050711A700B444FF400721A6003F1C043E6
:101A400003F5C82310221A7010BD00BF0080FF1FCD
:101A5000348004409C2007408020074049E400E097
:101A600010B572B60B480268B2FA82F10B2902DD9A
:101A700062B6002010BD4FF00043CB4022EA0302C3
:101A8000026062B6044C48234B43E0180022E25047
:101A9000426010BD380B0020BC0700200C4B4822D0
:101AA000C31AB3FBF2F30B2B11D80A4A127822B1F6
:101AB000094A12780AB1FFF709BC72B607494FF01C
:101AC000004222FA03F30A681A430A6062B67047BA
:101AD000BC070020DA110020E3110020380B0020A1
:101AE000044B9888044B1A681AB1138852889B1AC1
:101AF0001844704792130020EC11002038B50E4BAB
:101B00001B7803F0FF05ABB90C4C216831B14B8851
:101B10000B800420FFF716FC256038BDFFF7A0FFFF
:101B2000014620B10420BDE83840FFF70BBC044B50
:101B300001221A7038BD00BFE6110020E811002014
:101B4000E511002038B51E4C2378002B36D1012337
:101B50002370FFF7C5FF08B100F0F8FA00F02AF98A
:101B600008B100F0C7F800F0B3F908B100F0C3F80D
:101B700000F03CFA08B100F0BFF800232370EFF347
:101B80000583DBB9EFF3108272B60E4D286810B1F1
:101B90000D4C217811B18AB962B638BD012323708A
:101BA00043692B600BB1996101E008490B6002B9F0
:101BB00062B60025457783689847257038BD00BF19
:101BC000F111002004120020081200200012002051
:101BD000EFF3108072B6B0FA80F04009704700B1A0
:101BE00062B67047F8B50C4E0C4F0025FFF7F0FFBA
:101BF000346802466CB1636933600BB19D6100E0EB
:101C00003B601046FFF7EBFF6577A36820469847D7
:101C1000ECE7FFF7E4FFF8BDF4110020F811002015
:101C2000FFF7E0BF15490B6830B513B98360C36097
:101C300009E004681A68944207D20025121B8360E9
:101C4000C560D8601A60086015E002681C68996871
:101C5000121B026061B10C68A2420B46F5D2816092
:101C6000C968C160D860C168A21A88601A6002E0C1
:101C70008160C36098600223037530BDFC110020B1
:101C800070B5164D2C680026BCB1236813B1013B1A
:101C9000236012E0A26802B1D36020692A60036861
:101CA00026751B6822460021984763681BB1236094
:101CB0002046FFF7B7FF2C68E6E7FFF789FF084BE0
:101CC00000221C681A60FFF78AFF2CB1A568204625
:101CD000FFF7A8FF2C46F8E770BD00BFFC110020FD
:101CE0000C120020024A136801331360FFF7C8BFCB
:101CF00000110020704770477047FFFF10B5204B60
:101D00002048214960221A70E1225A701F4B204A54
:101D10001C78204B082C01D1012402E00A2C03D1AD
:101D200019240460132005E00C2C0CBF15243D245D
:101D300004601220086014601860174B17491B7864
:101D4000174A03B101230B601360164B164A19782A
:101D5000164B012901D880210BE0042901D88421E8
:101D600007E0082901D8852103E0102994BF8621C6
:101D70008721116019600E4B01221A7010BD00BF3F
:101D80000040074008B003400CB003403C0B00206B
:101D900008B00B400CB00B401112002020B00340E3
:101DA00020B00B403D0B002024B0034024B00B407A
:101DB00010120020054B1878054B1A78C0B2D3B228
:101DC000984238BF4030C01A704700BF9A120020B6
:101DD00019120020F0B534490B7913F0300F2FD0D1
:101DE00072B68B7D03F0FF0423B9CB7940234B748B
:101DF00062B625E062B62D482D4A037812782D4F41
:101E0000DBB2D2B20546581C4028CE7928BF00204C
:101E10009042F6B21CBF3E540346601E10F0FF0411
:101E2000F1D1D9B229702449096849B1934236BF2A
:101E3000C2F140029B1A9B18272BC4BF01230B70D1
:101E4000194AD178C9B20D061ED513791C061BD5C7
:101E50001A4B1B481D7803781A4EEDB2DBB2AB4229
:101E60000AD00133402B28BF00231479F45CE4B27C
:101E7000D471147D072CF2D9DBB203700A4B1A79A6
:101E8000100644BF7C22DA7049060CD5064B1A793D
:101E9000520608D50C4A002111700C4A126802B192
:101EA00011703C22DA70F0BD00A006409A120020AA
:101EB000191200205A12002014120020A012002033
:101EC0009B1200201A120020181200209C120020E1
:101ED000054B1878054B1A78C0B2D3B2984238BF78
:101EE0004030C01A704700BF12130020A912002012
:101EF000F0B534490B7913F0300F2FD072B68B7DCB
:101F000003F0FF0423B9CB7940234B7462B625E07C
:101F100062B62D482D4A037812782D4FDBB2D2B22B
:101F20000546581C4028CE7928BF00209042F6B2C2
:101F30001CBF3E540346601E10F0FF04F1D1D9B21D
:101F400029702449096849B1934236BFC2F1400261
:101F50009B1A9B18272BC4BF01230B70194AD178F9
:101F6000C9B20D061ED513791C061BD51A4B1B488A
:101F70001D7803781A4EEDB2DBB2AB420AD00133C2
:101F8000282B28BF00231479F45CE4B2D471147DAB
:101F9000072CF2D9DBB203700A4B1A79100644BF42
:101FA0007C22DA7049060CD5064B1A79520608D500
:101FB0000C4A002111700C4A126802B111703C22C7
:101FC000DA70F0BD00B0064012130020A912002004
:101FD000D2120020A4120020181300201313002096
:101FE000AA120020A812002014130020054B187814
:101FF000054B1A78C0B2D3B2984238BF4030C01AED
:10200000704700BF8A1300202113002010B5284B11
:102010001A79920620D52749DA790B7826480133B8
:1020200000783F2BC8BF0023834218BF2348D2B299
:102030001EBFC254DAB20A70214A116861B1214A46
:102040001278D2B2934236BFC2F140029B1A9B185B
:10205000272BC4BF01230B701549CA78D2B21406CE
:1020600016D50B79180613D5174B164C187823780C
:10207000DBB2984202D16C23CB7009E00133282BEC
:1020800028BF00231148C05CDBB2C0B2C871237006
:1020900051060CD5064B1A79520608D50C4A002178
:1020A00011700C4A126802B111702C22DA7010BD46
:1020B00000C006408A130020211300204A1300208C
:1020C0001C1300208B1300209013002022130020EB
:1020D000201300208C1300201FB572B6154B702200
:1020E0001A70154A412111700F2102F8011C80223B
:1020F0001A701A781206FCD5104B186862B6104B8D
:10210000984298BF0A2301AC98BF58430A2221463F
:1021100000F01DF80B4A0023E15C21B101330A2BCA
:1021200022F8021BF8D1084A01335B00137004B097
:1021300010BD00BF0000024007000240080002403E
:102140007F969800C80B0020C60B0020704730B562
:1021500003460020B3FBF2F402FB1433092B94BFB7
:1021600030333733DBB20B5423460CB10130F1E787
:102170000A1823465470C41AA34206DACC5C1578B8
:10218000CD5402F801490133F5E7084630BDFFFFA1
:102190000B460146184600F085B900BF80F00040AC
:1021A00002E000BF81F0004142001FBF5FEA41032F
:1021B00092EA030F7FEA226C7FEA236C6AD04FEA2F
:1021C0001262D2EB1363C1BFD21841404840414074
:1021D000B8BF5B42192B88BF704710F0004F40F426
:1021E000000020F07F4018BF404211F0004F41F442
:1021F000000121F07F4118BF494292EA030F3FD00E
:10220000A2F1010241FA03FC10EB0C00C3F1200320
:1022100001FA03F100F0004302D5494260EB4000AF
:10222000B0F5000F13D3B0F1807F06D340084FEA1A
:10223000310102F10102FE2A51D2B1F1004F40EB0F
:10224000C25008BF20F0010040EA03007047490077
:1022500040EB000010F4000FA2F10102EDD1B0FA42
:1022600080FCACF1080CB2EB0C0200FA0CF0AABF37
:1022700000EBC25052421843BCBFD04018437047D5
:1022800092F0000F81F4000106BF80F400000132DB
:10229000013BB5E74FEA41037FEA226C18BF7FEAB2
:1022A000236C21D092EA030F04D092F0000F08BFF4
:1022B0000846704790EA010F1CBF0020704712F0DB
:1022C0007F4F04D1400028BF40F00040704712F11A
:1022D00000723CBF00F50000704700F0004343F07F
:1022E000FE4040F4000070477FEA226216BF0846B5
:1022F0007FEA23630146420206BF5FEA412390EA78
:10230000010F40F4800070474FF0000304E000BF6D
:1023100010F0004348BF40425FEA000C08BF70471E
:1023200043F0964301464FF000001CE050EA0102E2
:1023300008BF70474FF000030AE000BF50EA0102F7
:1023400008BF704711F0004302D5404261EB4101E4
:102350005FEA010C02BF84460146002043F0B64309
:1023600008BFA3F18053A3F50003BCFA8CF2083A2E
:10237000A3EBC25310DB01FA02FC634400FA02FC37
:10238000C2F12002BCF1004F20FA02F243EB02003E
:1023900008BF20F00100704702F1200201FA02FCA0
:1023A000C2F1200250EA4C0021FA02F243EB020093
:1023B00008BF20EADC7070474FF0FF3C06E000BF2A
:1023C0004FF0010C02E000BF4FF0010C4DF804CDBE
:1023D0004FEA40024FEA41037FEA226C18BF7FEACE
:1023E000236C11D001B052EA530C18BF90EA010FD0
:1023F00058BFB2EB030088BFC81738BF6FEAE1705F
:1024000018BF40F0010070477FEA226C02D15FEAFA
:10241000402C05D17FEA236CE4D15FEA412CE1D066
:102420005DF8040B704700BF844608466146FFE72D
:102430000FB5FFF7C9FF002848BF10F1000F0FBD0F
:102440004DF808EDFFF7F4FF0CBF012000205DF808
:1024500008FB00BF4DF808EDFFF7EAFF34BF01208D
:1024600000205DF808FB00BF4DF808EDFFF7E0FF26
:1024700094BF012000205DF808FB00BF4DF808ED77
:10248000FFF7D2FF94BF012000205DF808FB00BFDA
:102490004DF808EDFFF7C8FF34BF012000205DF8BC
:1024A00008FB00BF13460A460146022000F028B888
:1024B00070B50F4E0F4D761BB61018BF002405D017
:1024C000013455F8043B9847A642F9D10A4E0B4D0A
:1024D000761B00F05BFBB61018BF002406D0013459
:1024E00055F8043B9847A642F9D170BD70BD00BFB6
:1024F000982B0000982B0000A82B0000982B0000C0
:102500002DE9F047254C2568D5F848410646884610
:1025100092469946C4B360681F2817DC431C76B105
:1025200004EB80050122C5F888A0D4F88811824008
:102530001143022EC4F88811C5F808911ED002304C
:10254000636044F820800020BDE8F087144B03B39B
:102550004FF4C870AFF300800446D0B1D5F84831CD
:10256000002780E88800C5F8484138460123C4F8B0
:102570008871C4F88C71002EE1D0D1E7D4F88C11A9
:102580000A43C4F88C21DAE705F5A674C5F848417A
:10259000C1E74FF0FF30BDE8F08700BF882B000097
:1025A00000000000024B13B1024800F005B870476C
:1025B00000000000C5250000002301461A46184609
:1025C000FFF79EBF38B5074D074C2C1BA41005D054
:1025D000013C55F8043D9847002CF9D1BDE838403E
:1025E00000F0E2BA0000000000000000000000005F
:1025F00000000000F71000000000000000000000D4
:10260000D506000000000000000000009107000057
:102610000000000000000000BD09000000002403CD
:1026200048066A098C0CAB0FC812E215F9180B1C8E
:102630001A1F2322282526281F2B112EFB30DF33BB
:10264000BA368C39563C173FCE417A441C47B449C0
:102650003F4CBF4E33519B53F5554258825AB35CA1
:10266000D75EEB60F162E864CF66A6686D6A236CA2
:10267000C96D5E6FE2705472B573047541766B7705
:10268000847889797C7A5C7B297CE37C897D1D7EDA
:102690009C7E097F617FA67FD87FF57FFF7FF57FD6
:1026A000D87FA67F617F097F9C7E1D7E897DE37C2C
:1026B000297C5C7B7C7A897984786B774176047598
:1026C000B5735472E2705E6FC96D236C6D6AA66853
:1026D000CF66E864F162EB60D75EB35C825A425821
:1026E000F5559B533351BF4E3F4CB4491C477A4478
:1026F000CE41173F563C8C39BA36DF33FB30112EB2
:102700001F2B2628282523221A1F0B1CF918E21537
:10271000C812AB0F8C0C6A09480624030000DCFCCD
:10272000B8F996F674F355F038ED1EEA07E7F5E3CD
:10273000E6E0DDDDD8DADAD7E1D4EFD105CF21CC80
:1027400046C974C6AAC3E9C032BE86BBE4B84CB65B
:10275000C1B341B1CDAE65AC0BAABEA77EA54DA35A
:1027600029A1159F0F9D189B31995A979395DD9339
:102770003792A2901E8FAC8D4B8CFC8ABF899588B6
:102780007C8777868485A484D7831D837782E381C1
:102790006481F7809F805A8028800B8001800B80A5
:1027A00028805A809F80F7806481E38177821D832F
:1027B000D783A484848577867C879588BF89FC8AA3
:1027C0004B8CAC8D1E8FA2903792DD9393955A97C8
:1027D0003199189B0F9D159F29A14DA37EA5BEA7DA
:1027E0000BAA65ACCDAE41B1C1B34CB6E4B886BB63
:1027F00032BEE9C0AAC374C646C921CC05CFEFD109
:10280000E1D4DAD7D8DADDDDE6E0F5E307E71EEA62
:1028100038ED55F074F396F6B8F9DCFC00000000D2
:10282000010004000B0013001E002C003C004E00B1
:1028300063007B009500B100D000F10014013A0163
:1028400063018E01BB01EA011D0251028802C1022F
:10285000FC023A037B03BD03020449049304DF0432
:102860002D057D05D00524067C06D50630078E078C
:10287000EE075008B4081A098309ED095A0AC90A73
:10288000390BAC0B210C980C100D8B0D080E860E1D
:10289000070F890F0D1093101B11A5113112BE12D5
:1028A0004D13DE13701404159A153216CB166517E6
:1028B00001189F183E19DF19811A251BCA1B711CAC
:1028C000181DC21D6C1E181FC51F73202321D42183
:1028D00086223923ED23A22458250F26C8268127D6
:1028E0003B28F628B2296F2A2D2BEC2BAB2C6B2D15
:1028F0002C2EED2EAF2F72303531F931BD328233AF
:1029000048340E35D4359B3662372938F138B93919
:10291000813A493B123CDB3CA43D6D3E363FFF3FD4
:10292000C84091415A422343EB43B4447C45454659
:102930000C47D4479C486349294AF04AB64B7B4C24
:10294000404D044EC84E8C4F4E501051D2519352B0
:1029500053531254D0548E554B560757C2577C5878
:102960003659EE59A55A5C5B115CC55C785D2A5EF0
:10297000DB5E8A5F3960E66091613C62E5628D638F
:102980003364D9647C651E66BF665F67FC679868C0
:102990003369CC69646AF96A8E6B206CB16C406DE6
:1029A000CD6D596EE26E6A6FF06F7570F770787169
:1029B000F6717372EE726673DD735274C574367598
:1029C000A47511767B76E4764A77AE7710787078C6
:1029D000CE7829798379DA792F7A817AD27A207B35
:1029E0006C7BB57BFC7B417C847CC47C027D3E7D22
:1029F000777DAE7DE27D147E447E717E9C7EC47EBA
:102A0000EA7E0E7F2F7F4E7F6A7F847F9B7FB07F21
:102A1000C37FD37FE17FEC7FF47FFB7FFE7FFF7F6F
:102A20004008FE4340A004404408FE4344A0044044
:102A30000018FE4300C004403000FE4330900440C4
:102A40003400FE43349004401C18FE431CC0044074
:102A50001018FE4310C004400818FE4308C004408C
:102A60000C18FE430CC004400C10FE430CB0044094
:102A70001010FE4310B004401810FE4318B004407C
:102A80001C10FE431CB004401410FE4314B004405C
:102A90000418FE4304C004400010FE4300B004408C
:102AA0000008FE4300A004400408FE4304A00440C4
:102AB0000C08FE430CA004400808FE4308A0044094
:102AC0001418FE4314C004401818FE4318C00440F4
:102AD0000410FE4304B004400810FE4308B0044054
:102AE0001400FE43149004404C08FE434CA00440E4
:102AF0000420FE4304D004402410FE4324B00440CC
:102B00002010FE4320B004402810FE4328B00440AB
:102B10002C10FE432CB004400020FE4300D00440A3
:102B20004808FE4348A004401000FE4310900440B3
:102B300000151915000100003E0B002012000000D6
:102B400000020000680B00204300000000030000AA
:102B5000C20B00200000000001030904500B0020FC
:102B60000000000002030904AC0B0020000000007C
:102B700003030904C60B0020000000000000000051
:102B80000000000000000000E00B0020F8B500BFCE
:102B9000F8BC08BC9E467047A5250000350400001F
:082BA00009060000A509000070
:042BA800F8B500BFBD
:082BAC00E4F5FF7F01000000C9
:102BB40000000000C0E1644C410E0000410E000022
:102BC400410E0000410E0000FFFFFFFF0A04120146
:102BD400010102000040C016830400020102030147
:102BE40018035400650065006E00730079006400EA
:102BF400750069006E006F0009024300020100C005
:102C0400320904000001020201000524001001053C
:102C1400240101010424020605240600010705829B
:102C24000310004009040100020A00000007050324
:102C3400024000000705840240000000160355000E
:102C440053004200200053006500720069006100D7
:102C54006C00040309040C030000000000000000E1
:102C64000000000000000000000000000000000060
:102C740000000000CC0E0020340F00209C0F002028
:102C84000000000000000000000000000000000040
:102C94000000000000000000000000000000000030
:102CA4000000000000000000000000000000000020
:102CB4000000000000000000000000000000000010
:102CC4000000000000000000000000000000000000
:102CD40000000000000000000000000000000000F0
:102CE40000000000000000000000000000000000E0
:102CF40000000000000000000000000000000000D0
:102D040000000000000000000000000000000000BF
:102D140000000000000000000100000000000000AE
:102D24000E33CDAB34126DE6ECDE05000B00000073
:102D3400000000000000000000000000000000008F
:102D4400000000000000000000000000000000007F
:102D5400000000000000000000000000000000006F
:102D6400000000000000000000000000000000005F
:00000001FF
