:1000000000800020BD010000FD160000C9160000A0
:10001000C9160000C9160000C9160000C916000064
:10002000C9160000C9160000C9160000FD16000020
:10003000FD160000C9160000992800005D29000087
:10004000FD160000FD160000FD160000FD16000064
:10005000FD160000FD160000FD160000FD16000054
:10006000FD160000FD160000FD160000FD16000044
:10007000FD160000FD160000FD160000FD16000034
:10008000FD160000FD160000FD160000FD16000024
:10009000FD160000FD160000FD160000FD16000014
:1000A000FD160000FD160000FD160000FD16000004
:1000B000FD160000FD160000FD160000FD160000F4
:1000C000FD160000FD160000FD160000FD160000E4
:1000D000FD160000FD160000FD160000FD160000D4
:1000E000FD160000FD160000FD160000FD160000C4
:1000F000FD1600004D2A0000FD160000692B0000CF
:10010000FD160000852C0000FD160000FD16000005
:10011000FD160000FD160000FD160000FD16000093
:10012000FD160000FD160000FD160000FD16000083
:10013000FD160000FD160000FD160000FD16000073
:10014000FD160000FD160000FD160000FD16000063
:100150008512000099120000AD120000C1120000CB
:10016000FD1600003D1D0000FD160000FD160000FC
:10017000FD160000FD160000FD160000FD16000033
:10018000FD160000FD160000FD160000FD16000023
:10019000FD160000FD160000FD160000FD16000013
:1001A000FD160000FD160000FD160000FD16000003
:1001B000FD160000FD1600005D100000564B4CF2CD
:1001C000205210B51A804DF628121A8000BF00BFC9
:1001D00001F098FA514B4FF010621A60504A9A6041
:1001E000504ADA60504A136813F4807301BF4F49D4
:1001F0000B604FF4A85313604D4B4E491A7810070B
:1002000042BF1A7842F008021A704B4B2A221A7029
:100210004A4A4B4B8B4204D252F8040F43F8040B6A
:10022000F8E7484B484A0021934202D243F8041BA6
:10023000FAE7464A4648002350F8231042F82310B4
:1002400001336F2BF8D1434B434A802103F8011B44
:100250009342FBD1414B3D4A1A60414B8A221A70AE
:10026000A3F5805324225A70A0221A709A7991071C
:10027000FCD59A79D206FCD43A4A937903F00C0360
:10028000082B384BF9D105221A7143225A719A79F9
:100290009406FCD533498A79324B5006FBD5324A55
:1002A0004FF0817111600521516020221A709A79F6
:1002B00002F00C020C2AFAD12C4B2D4A1A602D4B5D
:1002C0002D4A1A6000225A60072243F8042C2B4A58
:1002D000C3F80C2D62B601F015FC144B1B68DA074D
:1002E00005D5274801F096FB264B274A1A60274B75
:1002F0001B785B0609D5234C234B22689A4204D114
:100300001F4801F087FB0023236003F04DFD01F03F
:10031000FFF901F014F9FEE70E200540308004409B
:10032000823F04000100002B10D0034014D0034092
:1003300002D00740A015002000E00740C08900005F
:10034000200B0020A0150020C0190020000600206E
:100350000000000000E400E05FE400E008ED00E0E1
:1003600000500640004006404480044004800440A1
:10037000C010050014E000E03F190100000020203B
:100380002C35D25B1CE00340A5C3945A00F0074013
:10039000FFFFFFFFFFFFFFFFFFFFFFFFFFFFFFFF6D
:1003A000FFFFFFFFFFFFFFFFFFFFFFFFFFFFFFFF5D
:1003B000FFFFFFFFFFFFFFFFFFFFFFFFFFFFFFFF4D
:1003C000FFFFFFFFFFFFFFFFFFFFFFFFFFFFFFFF3D
:1003D000FFFFFFFFFFFFFFFFFFFFFFFFFFFFFFFF2D
:1003E000FFFFFFFFFFFFFFFFFFFFFFFFFFFFFFFF1D
:1003F000FFFFFFFFFFFFFFFFFFFFFFFFFFFFFFFF0D
:10040000FFFFFFFFFFFFFFFFFFFFFFFFDEF9FFFF23
:1004100010B5054C237833B9044B13B10448AFF33E
:1004200000800123237010BDA015002000000000F3
:10043000BC890000084B10B51BB108490848AFF350
:1004400000800848036803B910BD074B002BFBD0A0
:10045000BDE81040184700BF00000000A4150020B0
:10046000BC890000A01500200000000010B5044663
:1004700000F0E6FE204610BD10B5044600F0A9FDD0
:10048000204610BD38B5054600F024FF0446284636
:1004900000F040FF204438BD10B5044601F0FCFADE
:1004A0002368C01A10BDFFFF0F4B03600023417289
:1004B00002610372C3601946427A934204DA026908
:1004C00042F823100133F7E7084A13680BB91060AC
:1004D00004E05A690AB11346FBE7586100234361FF
:1004E0008380C3808372704718800000A8160020A4
:1004F00008B50121032001F09DFA0121062001F039
:1005000099FA0121084601F095FA8021044800F08B
:1005100049FC044B044ADA6100221A6208BD00BF9C
:100520000082FF1FCC1500208015203710B50C4627
:1005300003F0FAFB124B1870124B012105201C60CE
:1005400001F078FA104B9B6A012483F880400A205E
:1005500001F0C2FA01F0A0FA0C4B186001F09CFA0D
:100560000B4B0C4A1860002313700B4A0B49138085
:100570000B480C4A00F01CFE0B4B1C7010BD00BF5A
:10058000290B0020240B002054840000901600202A
:1005900084160020C5150020421600202107000007
:1005A000881600203F771B00BC1500202DE9F04184
:1005B000304B1C788EB0002C58D101F0A3FF0028DE
:1005C00054DD2D4B2D4F1A680192DDF804802C4E1E
:1005D0001D46C4F13201381901F0A2FF0444312C48
:1005E0000AD82B680093009BB268C8EB03039342C0
:1005F000EFD3234B01221A732249204805F02CFA2D
:1006000003F0B2FB03F056F81E490446002005F043
:1006100023FA03F0A9FB03F04DF802220546214618
:1006200002A800F015FF02A906A800F0FDFE2C218B
:1006300006A800F066FF0222064629460AA800F036
:1006400007FF0AA9304600F054FF01460C48FFF7A7
:1006500019FF0AA800F06EFE06A800F06BFE02A8C3
:1006600000F068FE29462046FFF760FF0EB0BDE8A7
:10067000F08100BFBC150020DC1600201016002001
:10068000400B00201C80000008B50A4800F0D8FD8F
:10069000094B0A489B6A012283F80021084B00227B
:1006A00004211A7001F098FF0648BDE8084000F0E8
:1006B00031BE00BF88160020548400001E80000058
:1006C000BC150020400B002010B58CB00A220C464F
:1006D0000146684600F08EFE214604A800F077FE31
:1006E000694608A800F0A0FE0B4B08A8197800F096
:1006F00008FF04A900F0FDFE01460848FFF7C2FE0E
:1007000008A800F017FE04A800F014FE684600F0E8
:1007100011FE0CB010BD00BF280B0020400B0020C4
:100720002DE9F04101F0B8F9794D7A4B7A4C186017
:100730002846FFF7B1FE794F2060794EDFF82C8212
:100740003846FFF7A9FE3378C8F8000083B90123C3
:10075000337001F0A1F9286001F09EF93860284655
:10076000FFF79AFE20603846FFF796FEC8F80000B3
:100770006C4A206813880133138003F0A5F86A4996
:1007800003F0AAF9694902F0EBFF694B196803F01D
:10079000ABFA98B13378674A01331278DBB29A42E8
:1007A000337003D2BDE8F041FFF76EBF01F074F97A
:1007B00028605748FFF770FE574B186020685E4D61
:1007C00003F082F8584903F087F9584902F0C8FF4E
:1007D0005A4903F089FA002864D04F4B186803F097
:1007E00073F8514903F078F9504902F0B9FF5449C0
:1007F00003F05CFA002855D0524A01231370524A84
:100800001370524A40F6CC411162AA6882F88030D7
:10081000206803F059F8444903F05EF9434902F0B7
:100820009FFF4B4903F060FA002858D03A4B1868F4
:1008300003F04AF83C4903F04FF93C4902F090FFBD
:10084000444903F033FA002849D0434A0123137086
:10085000AA6982F880302B6B012283F8802040F255
:100860004B442C48FFF718FEA042FAD92B6B2948BD
:10087000012283F80021FFF70FFE384B18601C6837
:10088000374B188803F020F8364902F069FF3649E3
:1008900003F022F903F048FAC1B22046BDE8F04166
:1008A000FFF712BF206803F00FF81F4903F014F997
:1008B0001E4902F055FF224903F016FA0028A7D07E
:1008C000204A1378002BA3D0002313701E4A137004
:1008D0001E4A1362AB68012283F8002198E7206862
:1008E00002F0F2FF104903F0F7F8104902F038FF68
:1008F000184903F0F9F90028ADD0174B1A78002AEF
:10090000A9D000221A70AB69012283F80021A2E766
:1009100084160020C81500204416002090160020E0
:10092000C51500204216002000007A440000C8418E
:10093000240B0020290B00205484000000702D4659
:1009400000603846C4150020C6150020CC150020D4
:1009500000483C4600D83D46BD1500200C1600203E
:10096000D61600205C8F82425C8F0243C0150020A7
:1009700070B5254E254C264D002211463046FFF716
:1009800093FD244B336004F124024FF48043012192
:1009900020463362FFF788FD1F4B23604FF0FF3383
:1009A00005F118020121A36128461C4CFFF77CFDCC
:1009B0001B4B2B60284600F007F92660194E656036
:1009C0002046002525726572E560257400F0CFFA97
:1009D00032461549204602F0F5F901F05DF8134B57
:1009E000186001F059F8124B186001F055F8114BDE
:1009F0001149186011488023037105603246BDE833
:100A0000704002F0DFB900BFCC150020481600206E
:100A1000F0150020448000002C800000701600209B
:100A200038800000200B0020790400009016002080
:100A300084160020C81500206D04000088160020D0
:100A40002DE9F047846905462CB9214600F060FA8B
:100A500000284AD14DE0631C4FF000010BD100F09B
:100A600057FA0446002844D001460022284600F0E8
:100A70003BFA204639E000F058FA0646C8B3E86968
:100A800095F82070DFF870E0B11C06F5817C4FEA24
:100A90001469C4F30F2309F101029846C3F5803AA3
:100AA0003EF919303EF9122003FB0AF308FB02332A
:100AB00031F9022F1B145343DB130B8027B1E3439F
:100AC000984205D2044407E0A04204D2241A03E06D
:100AD0004FF0FF3400E03C468C45D8D12846AC614D
:100AE0000022314600F000FA3046BDE8F04700F041
:100AF000D3B9BDE8F08700BF4A82000010B50021DD
:100B000000F006FA034690B172B60949086808B9C0
:100B10000B6003E0074A146814B9136062B610BD95
:100B20000C60136062B6BDE8104000F0B5B910BDAE
:100B3000A41600209416002038B5194B1A681168C5
:100B40001A79184B1A70184A91421849086836BF2A
:100B50001346A2F5807303F580720C4688B1051D1B
:100B600035F9021B01F50041091123F8021B9A42D5
:100B7000F6D800F091F90E4B1A68226000221A6034
:100B800005E04FF4006123F8021B9A42FBD8094BA1
:100B90001B781BB1084B4FF080421A6038BD00BF74
:100BA000981600201F80004000050020A416002099
:100BB00094160020A016002008E200E010B50446BC
:100BC00000F0DAFA204610BD70B501214148424ECE
:100BD00000F07EFA414A136843F480531360404B9F
:100BE00080221A70002440F6080534800120083461
:100BF00000F072FFA3B2AB421CB2F6D1394B3A48B7
:100C00001A683A4C3A4912F4800F4FD0394A1568A5
:100C100048F6A2722A4048F6A275AA4246D1056853
:100C200040F22F32954241D12268012A3ED10D680F
:100C300040F20112954239D1264C2F4A23681A609E
:100C400002229A809A6040F20111A2F20222D98017
:100C5000DA604FF48071204A1A61D9820022D98368
:100C6000062199839A829A61237903F1804303F5DF
:100C700004331A70B0221A7000F0DCF91F4B22798D
:100C800018701F4B1F481A7002F110011E4B43F8D9
:100C9000210053119B0003F1604303F5614302F00F
:100CA0001F02012101FA02F21A6070BD1A6842F4B3
:100CB00080021A600123236040F22F3303600D4B42
:100CC00048F6A3721A60114A1A6040F201130B60D1
:100CD000B2E700BF9816002000C00C402C800440F2
:100CE00021C00C403C800440046003400C60034081
:100CF000106003400060034000040020A0160020A4
:100D00001B800040390B000000060020A28F01006C
:100D1000024A0349034802F055B800BF200B0020E7
:100D2000BD0B000098160020036A2DE9F047044629
:100D30007BB300F06BF8054658B3A169D4F81CE00A
:100D4000D4F82090DFF858C0861C00F5817808465A
:100D5000070E7B1CC0F30F2A3CF917703CF91320D7
:100D6000CAF580337B430AFB023353FB09F326F8B1
:100D7000023FB0457044EBD101EBCE11A16120469A
:100D80002946002200F0B0F82846BDE8F04700F000
:100D900083B8A369E26903EBC213A361BDE8F087DE
:100DA00048800000C029F0B528BFC02172B6144B9E
:100DB000144A186000231380134A012713605360FC
:100DC0009360D360136153618B4203D100234FF4CE
:100DD00082740BE05E0903F01F0407FA04F552F871
:100DE00026402C4342F826400133EDE78B4204D0E5
:100DF00004FB030253800133F8E762B6F0BD00BF85
:100E0000B0160020D2160020B816002070B572B6B9
:100E10001C491D480A880C4600EB820300F11806A5
:100E2000B34202D362B6002070BD1D4655F8041BC4
:100E300011B901322B46F3E7B1FA81F64FF00045C4
:100E4000F54021EA0501196001B9013222800F4AFB
:100E5000118801318CB2148062B61B1A9B10C6EB4C
:100E600043134FF482725343094A03F5FB5312684C
:100E70001C330125D554D018064B1A88914288BFDF
:100E80001C8070BDD2160020B8160020D416002099
:100E9000B0160020AC160020438872B60278012AF2
:100EA00002D9013A027016E05A110C48DB434FF0A8
:100EB000004103F01F0321FA03F350F822101943F5
:100EC000074B40F8221019888A4238BF1A80054A19
:100ED0001388013B138062B6704700BFB81600202C
:100EE000D2160020D416002030B5C3687BB1187A22
:100EF00090420AD158685C7A006950F8245025B9AC
:100F000040F82410087801300870DB68EEE730BD47
:100F1000437A8B4288BF02694FF0000386BF52F8C4
:100F2000210042F821301846704738B5437A8B4289
:100F300001D8002038BD036953F82140002243F84E
:100F40002120002CF5D02378012B0ED9FFF75EFF6E
:100F5000054628B14FF48072211D043000F0F8FAE4
:100F60002378013B2370284638BD204638BD037CDA
:100F700030B5002B2CD14368427A5B7A9A4227D84D
:100F800072B60268D3682BB9D06011E01C68A24227
:100F900004D00B46D9680029F8D108E05D684468A0
:100FA000A542F6D11C8903899C42F2D10FE0D8609A
:100FB0000023C360937A013393720268416801236E
:100FC00013728A7A1A448A7242681372037462B680
:100FD00030BD037C002B2BD04368427A5B7A9A4267
:100FE00026D872B60268D36813B3984204D1C36896
:100FF000D36004E0984202D0DB68002BFAD143684A
:10100000427A1B69002143F822100268937A013B5F
:10101000937203689A7A02B91A724268937A013B12
:10102000937243689A7A02B91A720023037462B603
:101030007047FFFF074B1A7852B9074AD021117049
:10104000A2F256324FF080410120116018707047B3
:1010500000207047B41600205EE400E0164AF8B5A0
:101060001368164D43F080731360154A136843F0FC
:1010700001031360134B2E681C688CB1237A6BB18B
:1010800023682F681B68204698472A68E388D21B8C
:10109000120991B29A42A18088BFE1806469ECE7AD
:1010A0002B68094A9B1B1B0999B21180074A1088BB
:1010B000834288BF1180F8BDFCED00E0041000E021
:1010C000001000E0A8160020D6160020D016002040
:1010D00030B572B6254C89B9016879B103790F2B07
:1010E0000CD822881A41D20708D503F1007303F502
:1010F0009063B1EB431F01D162B630BD218800235C
:1011000041FA03F212F0010227D101259D40294343
:10111000218062B6164DD9B201712C6844F00204E8
:101120002C6055F8044C03F1007344F0020445F8B8
:10113000044C03F590630F4C5B0182252560A1767A
:10114000A1772176E17703601A605A609A60DA60CD
:101150001A615A619A61DA6130BD0133102BCFD127
:1011600062B600220260037130BD00BFD8160020B5
:10117000408004400080004003790F2B10D8094ABA
:10118000137072B608490279012303FA02F20B8840
:1011900023EA02030B8062B610230371002303606D
:1011A000704700BF1A800040D81600207047FFFF2C
:1011B000036830B523B100249C600124DC6017E093
:1011C000194C236843F40003236000BF174B01242C
:1011D0001C6003F58073164C036003689D683DB185
:1011E0001033A3420360F8D900230360184630BDD2
:1011F0000468104B226023441B110F4D0322A26090
:101200000E4A45F823100179995444335A1192003B
:1012100002F1604202F56142012003F01F0300FA6F
:1012200003F3136030BD00BF3C80044000700340F6
:101230003F710340008FFCBF2C0B002044E400E012
:10124000016830B5A1B10B4B0B441B1103F14402F3
:101250005511012402F01F0204FA02F2064C44F870
:101260002520064A064C42F8234000238B60036089
:1012700030BD00BF008FFCBF80E100E02C0B0020E0
:10128000AD110000024B01221A60024B1B68184787
:101290000C7103402C0B0020024B01221A60024B00
:1012A0005B6818471C7103402C0B0020024B012285
:1012B0001A60024B9B6818472C7103402C0B0020CE
:1012C000024B01221A60024BDB6818473C71034055
:1012D0002C0B00202DE9F04100258C688AB00746D0
:1012E00088462E4694B12B46212201A9404600F0A3
:1012F0000EF93B68202C22465B6828BF202201A9FA
:1013000038461544A41A98470644EBE730460AB01D
:10131000BDE8F08107B5064B1B88ADF804300368C3
:1013200002225B6801A9984703B05DF804FB00BF87
:101330004C84000010B50446006802F065FD2046AC
:1013400010BD38B504460D460068013103F09AF827
:1013500010B184E82100012038BD43688B4210B5EC
:10136000044606D2FFF7EDFF20B1A3680BB922684F
:101370001370012010BDF8B504460F46154622B97A
:10138000036803B11A7000230BE01146FFF7E5FF75
:10139000064640B9206810B102F036FD26600023F1
:1013A0006360A36004E0A5603946206803F074FA26
:1013B0002046F8BD38B5054608460C4603F0E0FA6D
:1013C000214602462846BDE83840FFF7D4BF13B592
:1013D0000446002323606360A36023730A22084647
:1013E00001A904F0B3FB01A92046FFF7E3FF204663
:1013F00002B010BD10B5044600238AB023606360BC
:10140000A3602373084601A900F0BBF901A9204697
:10141000FFF7D0FF20460AB010BD814203D08A6892
:101420000968FFF7A8BF704710B5002304460360A2
:10143000436083600373FFF7F0FF204610BD10B5D3
:10144000044611B1FFF7B6FF00E0A160204610BDD1
:1014500010B5044600238AB023606360A360237341
:1014600008466B46911C00F09DF901462046FFF7A7
:10147000E6FF20460AB010BD2DE9F84303688568F1
:101480008B4204460E46904606D85A19914203D222
:10149000C3EB0109012700E00027B8F1000F17D0C6
:1014A000454429462046FFF758FF88B1A0682368C5
:1014B0004FB1424603EB0901184400F049F8236894
:1014C00000225A5503E03146184403F0E5F9A560BF
:1014D0002046BDE8F88313B500238DF804100122DF
:1014E00001A904468DF80530FFF7C6FF204602B07B
:1014F00010BD10B58A6809680446FFF7BDFF204695
:1015000010BD10B50446FFF7E6FF204610BD70B5CC
:101510000E469AB191B185689D4202D800230B70A6
:1015200070BD541EED1A0168AC4228BF2C46194408
:101530002246304603F0E2FA0023335570BD08B569
:10154000FEF7D6FFFFF732F801F038F9FAE7FFFFB0
:10155000844641EA000313F003036DD1403A41D3BE
:1015600051F8043B40F8043B51F8043B40F8043B7D
:1015700051F8043B40F8043B51F8043B40F8043B6D
:1015800051F8043B40F8043B51F8043B40F8043B5D
:1015900051F8043B40F8043B51F8043B40F8043B4D
:1015A00051F8043B40F8043B51F8043B40F8043B3D
:1015B00051F8043B40F8043B51F8043B40F8043B2D
:1015C00051F8043B40F8043B51F8043B40F8043B1D
:1015D00051F8043B40F8043B51F8043B40F8043B0D
:1015E000403ABDD2303211D351F8043B40F8043BAD
:1015F00051F8043B40F8043B51F8043B40F8043BED
:1016000051F8043B40F8043B103AEDD20C3205D3BC
:1016100051F8043B40F8043B043AF9D2043208D0B4
:10162000D2071CBF11F8013B00F8013B01D30B8826
:1016300003806046704700BF082A13D38B078DD004
:1016400010F003038AD0C3F10403D21ADB071CBFD6
:1016500011F8013B00F8013B80D331F8023B20F840
:10166000023B7BE7043AD9D3013A11F8013B00F879
:10167000013BF9D20B7803704B7843708B78837001
:101680006046704701B5EAB1102A17DB00F0070386
:1016900033B1C3F10803D21A013B00F8011BFBDC94
:1016A000C9B241EA012141EA01418C46D308013B1C
:1016B000E0E8021CFBDC12F0070203D0013A00F85C
:1016C000011BFBDC01BD00BF08B50B4D2C462B6890
:1016D000580301D500F032FB2368590501D501F00C
:1016E000B5F923681A0501D501F03EFA2368DB0439
:1016F000EDD501F0C7FAEAE73480044008B5FFF7FA
:10170000E3FFFFFF014B10221A80704700200540C5
:101710007047FFFF094908B50B6868B16A4618446D
:10172000A2F58052904206D302F038FB0C230360EE
:101730004FF0FF3008BD0860184608BD3C0B002084
:10174000FEE730B503460020B3FBF2F402FB14338E
:10175000092B94BF30333733DBB20B5423460CB123
:101760000130F1E70A1823465470C41AA34206DA7E
:10177000CC5C1578CD5402F801490133F5E70846F1
:1017800030BD031E10B50C4603DBBDE81040FFF76B
:10179000D8BF2D2001F8010B5842FFF7D2FF204699
:1017A00010BDFFFF2DE9F04381EAE17985B00F46D6
:1017B000A9EBE1790146064615461C4602F09EFA61
:1017C00078B30021304602F071FA002814BF0420DB
:1017D00003204845B4BFC0EB09050025002F07DAF8
:1017E00060192023844202D004F8013BFAE7002567
:1017F00030464FF07E5363F31E00002102F056FA8C
:1018000010B12D232370013441234E226370E31C59
:101810002270A2705819202283423CD003F8012B79
:10182000FAE726F000487749404602F067FAA8BB7D
:101830004046744902F044FA804678BB00213046A5
:1018400002F034FA002814BF042003204845B4BF36
:10185000C0EB09054546002F07DA601920238442B2
:1018600002D004F8013BFAE700250021304602F0DF
:101870001DFA10B12D2323700134492323704E2308
:1018800046226370E31CA27058192022834202D0C2
:1018900003F8012BFAE700230370B0E002AB01AAC2
:1018A0002946304602F06AFA814665B9019B53B970
:1018B00090F80090544B554AB9F1340F94BF9146BB
:1018C000994601230193019B5B429D42BCBFDFF817
:1018D0003C916B424846B8BF019303F051F8019B1D
:1018E00098428046C8BF00F10108002B02D108F1E0
:1018F000010825E024DA1DB32B44984205F10208C3
:101900001ED9A946B9F1000F07DD3046404902F063
:101910002FF809F1FF390646F4E7002DACBF691B2B
:10192000294602AB03AA304602F028FA019B039A2B
:10193000691CD21A8A4208BF0133814608BF01934D
:10194000029808B108F10108C8EB0703002B04EB6B
:10195000080208DD1A44214623442026994203D078
:1019600001F8016BFAE7234610B12D2119700133FC
:101970000199002909D135B11946302001F8020B2F
:101980002E2058700B462E2522E0FCDA002DFAD0CE
:101990001D46302005F8020B2E265E702B46C91A14
:1019A00000255E1803D503F8010B0125F9E7002D8A
:1019B000E9D00196E7E7581C19F8011B197082421B
:1019C00009D001990139019109B9981C5D7003464C
:1019D0009A42F0D800E01346002F0DDA47447F42C8
:1019E000194620207A1A1A44002A02DD01F8010B58
:1019F000F8E7002FA8BFDB1900221A70204605B0B7
:101A0000BDE8F083FFFF7F7F508400004E8400001C
:101A100000002041044B054900221A600A60044A74
:101A2000106010221A60704714D0034004D00340A5
:101A300000D00340212810B52BD8164A02EBC00372
:101A400001295B68144601D004290FD154F83020D5
:101A5000012082F880024FF4A2721A601A680429E9
:101A60000CBF42F0200222F0200211E052F83000B8
:101A7000002280F8802211B94FF4807208E0022918
:101A800002D140F2031203E0032908BF4FF4817230
:101A90001A6010BD5484000072B60C4B0C4A0D49FC
:101AA0001B681268096862B6490102D5322B88BFEB
:101AB0000132C3F58C33482003F23F13B3FBF0F33C
:101AC0004FF47A7000FB0230704700BF18E000E06E
:101AD000DC16002004ED00E038B50446FFF7DCFF1B
:101AE000054624B938BD013C0AD005F57A75FFF7E3
:101AF000D3FF401BB0F57A7FF5D200F05FFEF6E72A
:101B000038BDFFFF214B4FF4000210B51A604FF0B3
:101B100080721A604FF000721A604FF080621A6093
:101B20004FF000621A601A4B1A4A1B4C002048F60C
:101B3000FF711860596028231360936013619361EB
:101B400013629362136393630922226004F5805445
:101B5000043420606160A360236144F8042C04F520
:101B6000FE2420600D4801600D490B608B600D4B19
:101B70001A6000F0FFFE3220FFF7AEFF00F0EAFB34
:101B80004FF4AF70BDE81040FFF7A6BF08E100E0DA
:101B9000048003400C8003400080034008800B4019
:101BA0000C800B4000800B40F0B50C4C0C4E2378A1
:101BB0000C4D43F0020706EBC70283F001035060AF
:101BC0002A782370002A14BFC820882082F00102DE
:101BD00040EA01412A7046F83710F0BD481700204E
:101BE0000080FF1FC0170020431E032B10B510D824
:101BF00072B6094A52F8230048B1416842F82310EE
:101C00000649048831F81320121B21F8132062B60C
:101C100010BD002010BD00BF38170020A8190020FB
:101C2000013803280AD872B6054B53F8203000203B
:101C300013B101305B68FBE762B670470020704764
:101C40008C17002070B472B6174C184901231A196A
:101C500012F8012C12071DD59A00144E51F832507B
:101C60002DB906EB431308305860114B09E042F0E0
:101C7000010251F832506DB906EBC20308305860CA
:101C80000C4B46F832300C4A1378013B137062B6A5
:101C900070BC70470133052BD9D162B6064B0022C8
:101CA0001A7070BC00F0CABB8C8500000080FF1F5A
:101CB00088004000C8004000B6170020431E032BD8
:101CC00010B532D8194A400140F01000104472B6E5
:101CD000174AD45C032C0BD8DFE804F01804020781
:101CE000052414E00830022411E0083004240EE03A
:101CF0001048114A50F8234014B940F8231002E06C
:101D000052F82300416042F823100DE00324D4541C
:101D100010F0080F01F108030A88436014BFC823BC
:101D2000882343EA0243036062B610BD0080FF1FB0
:101D3000F41600208C1700209C1700202DE9F74F87
:101D4000A94B1C78E4B214F0040F1D461AD0A74B1F
:101D50001B78A3B1A64A117801F0FF0321B1013B22
:101D6000DBB2137003B900BEA24A117801F0FF0381
:101D700029B1013BDBB213700BB900F0FBFC9A4AAE
:101D80000423137004F0080303F0FF02002B00F09B
:101D90007182994B994C1B78DBB21F094FEA93066D
:101DA00040F0EC8104EBC603596854F83630C3F3B5
:101DB0008303013B0C2B00F2DD81DFE813F09A0175
:101DC0009A01DB01DB01DB01DB01DB01DB01B90196
:101DD000DB01DB01DB010D000A68894D89484B6896
:101DE0002A6001216B60DFF85082874B017092B24C
:101DF00040F2816044F8363082424FF00003C8F868
:101E000000302361A36117D8B2F5D06F80F027812D
:101E1000B2F5817F00F0D88006D8802A00F0C1801A
:101E2000822A00F0C28035E140F202339A4200F08B
:101E30000781B2F5A06F1AE042F22100824200F061
:101E400055810CD8B2F5086F00F0A580B2F5106F7F
:101E500040F02081654AA97811701E460AE042F2DE
:101E600021218A4200F00E8142F221339A4200F091
:101E700015810FE1A219136A1F0603D5506A0838AD
:101E800000F0DCFA0836802EF4D1DFF8B0915F4F15
:101E90000026CA4659F826004FEA860B30B1426840
:101EA000009200F0CBFA009A1046F7E7584B594AD7
:101EB0004AF80B004BF803005BF8020040B14168A0
:101EC0000192009100F0BAFA0099019A0846F5E7EC
:101ED000514B42F80B0023F816003B784F4A023B67
:101EE0004BF80200032B07D8DFE803F002040204DA
:101EF000002300E001233B700136042E07F10107A7
:101F0000C8D1474B474E404F00221A704FF0010B8B
:101F10009946454A0BEB06015A4411F8011C920000
:101F200011F0080F11704FEA8B0A24D000F068FA04
:101F300038B104EB4B1208303C4B506044F83A3057
:101F400006E099F8002044F83A00013289F80020B0
:101F500000F056FA4AF0010230B104EBC201083039
:101F6000486044F8327006E044F8320099F80020E6
:101F7000013289F800204AF002010BF1010B4AF00E
:101F8000030A0022BBF1050F44F8312044F83A203F
:101F9000BFD1134683E0154B254E1B7833700B469B
:101FA00080E0234E337073707BE0AA8802F07F02DA
:101FB000042A6FD81E4E9200337073701D4B9B5CC9
:101FC0009C076ED531706CE0AA8802F07F02042A6B
:101FD00060D86B88002B5DD11649920011440A78B5
:101FE00022F0020239E000BF80200740BF17002026
:101FF00049170020C1170020902007400080FF1FD4
:10200000AC170020C0170020C8004000F4160020C4
:10201000E41600208C170020A81900209C1700202F
:10202000B61700208C85000030C8011088004000E1
:10203000B7170020C0200740E01600203817002006
:10204000AA8802F07F02042A24D86B8813BBA54912
:10205000920011440A7842F002020A701FE06A8876
:10206000A988A14B5E68AEB11888904208D1588803
:10207000884205D1120A032A0CBF33781B8911E06C
:102080000C33EFE7994A1168994A1160994AA97887
:10209000117004E0934B0F221A7027E000231E46B4
:1020A00000E00223EC889C4228BF1C46402C2546B9
:1020B00028BF402530462946FFF776FD641B2E4495
:1020C00003D1402D12D1254603E0402C254628BFE0
:1020D000402530462946FFF767FD641B2E4401D199
:1020E000402D03D1844BC8F800601C800122834B33
:1020F0003FE0834B1A8842F221039A4214D1814A6D
:102100000023C85C98540133072BFAD17D4B1B6820
:10211000862B08BF7C4B4FF0000108BF0F220846FA
:1021200008BF1A70FFF740FD784B44F8363021E0C5
:10213000774F3E68A6B1DFF8C081B8F80040402C68
:10214000254628BF402530462946FFF72DFD601B58
:1021500080B2A8F8000008B9402D00D1701938608D
:10216000674B1A88B2F5A06F04D100225A709A7892
:10217000684B1A70614B01221A7077E004EBC605B8
:10218000013F6A6803F00803A2F10800FFB203F000
:10219000FF0E002B36D000F051F95F485F4A50F82F
:1021A0002710E9B14B6840F8273001F108036B6054
:1021B000D35D032B0BD8DFE803F0020406080323EA
:1021C00004E0022302E0052300E00423D35515F0C8
:1021D000080F0A8814BFC823882343EA024343E058
:1021E000D35D032B07D8DFE803F04141020400234D
:1021F00006E0012304E015F0080F14BF03230223B7
:10220000D35533E054F836301B0C99B222F8081C31
:1022100023B3434B22F806EC42F804EC53F8272092
:10222000DFF82CE112B943F8270002E05EF827300E
:1022300058603C4A4EF8270032F817300B4422F819
:10224000173000F0DDF810B10830686006E0364A5B
:1022500044F8360013780133137007E0334A2B4BF0
:1022600015F0080F08BF134644F83630304A0823EB
:10227000137065E5E0071ED520492C482D4C02233C
:102280000B702D4B1A702D4B186098602C48D8603D
:102290001A619A615C60134B0D2018702948FF2366
:1022A00003702B700274284A1370284B9F221A70F7
:1022B00001230B7012E0210604D50A4B0D221A707F
:1022C00080232B70A20705D51E4A1378DBB213704A
:1022D00002232B70E30644BF10232B7003B0BDE82C
:1022E000F08F00BFC020074090850000DC16002062
:1022F000B8190020D0170020B41700209420074000
:10230000AC170020B019002049170020C800400079
:10231000E0160020982007408C170020F4160020BB
:1023200038170020A8190020B617002088004000A8
:1023300080200740F8160020481700200080FF1F6B
:102340004C170020882007408C200740842007403D
:10235000E416002010B500F0FBFC002319481946D4
:102360001950C4180833882B164A6160F8D11649F1
:102370000B6843F480230B60144BC2F307211970E0
:10238000C2F30741120E19751A76114AFF23137012
:102390000021137202F8703C0123137582F880103B
:1023A00013710C4B70226FF450711A700B444FF480
:1023B00000721A6003F1C04303F5C82310221A709B
:1023C00010BD00BF0080FF1F348004409C200740E8
:1023D0008020074049E400E000F0E6B800F076B85D
:1023E00000F04EB800F08EB800F096B900F070B969
:1023F0000846114600F0F0B8084600F05DB9704795
:1024000010B572B60B480268B2FA82F10B2902DDF0
:1024100062B6002010BD4FF00043CB4022EA030219
:10242000026062B6044C48234B43E0180022E2509D
:10243000426010BD500B0020BC0700200C4B48220E
:10244000C31AB3FBF2F30B2B11D80A4A127822B14C
:10245000094A12780AB1FFF7F5BB72B607494FF087
:10246000004222FA03F30A681A430A6062B6704710
:10247000BC070020B6170020BF170020500B00201B
:1024800010B5104C23686BB1206843885A1C034474
:102490001C7A03889A4212D3FFF7D0FF094B00221F
:1024A0001A600DE0084B1B7813B94FF0FF3010BDD8
:1024B0000320FFF799FB20600028E5D1F5E7428073
:1024C000204610BDCC170020BF17002010B50B4CC4
:1024D000236813B122686AB902E0094B1B7813B96B
:1024E0004FF0FF3010BD0320FFF77EFB2060002877
:1024F000F0D1F5E753881344187A10BDCC170020AB
:10250000BF170020044B9888044B1A681AB113882F
:1025100052889B1A18447047A8190020CC17002035
:102520002DE9F84FDFF87890DFF878B080460E4656
:102530000027CA4686B39BF800306BB3D9F8003049
:1025400053B90320FFF750FBCAF8000020B30388FB
:1025500013B9FFF773FFF4E7DAF800502B466988E8
:1025600033F8084B641AB44228BF34462246194453
:102570004046FEF7EDFF6B88A0442744361B1C4401
:102580002B88A4B2A3426C80D4D82846FFF756FF0C
:102590000023C9F80030CDE73846BDE8F88F00BF0A
:1025A000CC170020BF17002010B5094B1B786BB16A
:1025B000084C206818B1FFF741FF00232360032077
:1025C000FFF712FB10B1FFF739FFF8E710BD00BFAE
:1025D000BF170020CC1700202DE9F84F314DDFF850
:1025E000D490012382460C462B700E464F46002E97
:1025F00053D0D9F800303BBBDFF8B0B048F6014803
:10260000294B1B7803F0FF010BB9297015E004205A
:10261000FFF706FB072807D801232B70FFF7F0FE12
:10262000386088B91F4B1870B8F1010802D09BF8C8
:10263000003033B11D4B01221A704FF0FF30BDE85E
:10264000F88F00F0BBF8DBE7184B002119703968F0
:102650004B88C3F14000B04228BF304603EB000E68
:102660000B44A1F802E0361A07330AEB0008C24512
:1026700004D01AF8010B03F8010FF8E74B883F2B41
:1026800006D940230B800420FFF718FB00233B6092
:10269000074B05221A70C246A9E72E702046BDE8F6
:1026A000F88F00BFC2170020BF170020C8170020F6
:1026B000C1170020C417002007B502AB012103F8A1
:1026C000010D1846FFF788FF03B05DF804FBFFFF1C
:1026D00038B50E4C0E4D012323702B687BB90D4B82
:1026E0001B7813B90020207038BD0420FFF798FA3A
:1026F0000728F7D8FFF784FE28600028F2D02B685F
:10270000588800232370C0F1400038BDC217002054
:10271000C4170020BF1700202DE9F041114B1B7892
:10272000F3B1114F114B3C68114D01261E709846B4
:102730004CB1002663882E70214623800420FFF7C9
:10274000BDFA3E6009E0FFF75BFE014620B10420C0
:102750002C70FFF7B3FA00E02E70002388F80030E9
:10276000BDE8F081BF170020C4170020C217002069
:10277000C117002038B50E4B1B7803F0FF05ABB92D
:102780000C4C216831B14B880B800420FFF796FA7E
:10279000256038BDFFF734FE014620B10420BDE8B6
:1027A0003840FFF78BBA044B01221A7038BD00BFC6
:1027B000C2170020C4170020C117002038B51E4CD6
:1027C0002378002B36D101232370FFF79BFE08B13D
:1027D000FFF715FE00F02AF908B100F0C7F800F085
:1027E000B3F908B100F0C3F800F03CFA08B100F00A
:1027F000BFF800232370EFF30583DBB9EFF31082FA
:1028000072B60E4D286810B10D4C217811B18AB9FD
:1028100062B638BD0123237043692B600BB1996107
:1028200001E008490B6002B962B60025457783686C
:102830009847257038BD00BFD1170020E41700204D
:10284000E8170020E0170020EFF3108072B6B0FA0E
:1028500080F04009704700B162B67047F8B50C4E81
:102860000C4F0025FFF7F0FF346802466CB1636936
:1028700033600BB19D6100E03B601046FFF7EBFF5A
:102880006577A36820469847ECE7FFF7E4FFF8BDBB
:10289000D4170020D8170020FFF7E0BF15490B68B8
:1028A00030B513B98360C36009E004681A689442C4
:1028B00007D20025121B8360C560D8601A600860CB
:1028C00015E002681C689968121B026061B10C680F
:1028D000A2420B46F5D28160C968C160D860C16868
:1028E000A21A88601A6002E08160C36098600223C7
:1028F000037530BDDC17002070B5164D2C6800261E
:10290000BCB1236813B1013B236012E0A26802B19D
:10291000D36020692A60036826751B68224600215F
:10292000984763681BB123602046FFF7B7FF2C6808
:10293000E6E7FFF789FF084B00221C681A60FFF7E3
:102940008AFF2CB1A5682046FFF7A8FF2C46F8E7C0
:1029500070BD00BFDC170020EC170020024A13688E
:1029600001331360FFF7C8BFDC16002070477047C3
:102970007047FFFF10B5204B2048214960221A7094
:10298000E1225A701F4B204A1C78204B082C01D1A1
:10299000012402E00A2C03D119240460132005E06D
:1029A0000C2C0CBF15243D24046012200860146018
:1029B0001860174B17491B78174A03B101230B60A6
:1029C0001360164B164A1978164B012901D880213D
:1029D0000BE0042901D8842107E0082901D88521CA
:1029E00003E0102994BF86218721116019600E4BE6
:1029F00001221A7010BD00BF0040074008B003401C
:102A00000CB00340540B002008B00B400CB00B403E
:102A1000F117002020B0034020B00B40550B0020E0
:102A200024B0034024B00B40F0170020054B187869
:102A3000054B1A78C0B2D3B2984238BF4030C01AA2
:102A4000704700BF7A180020F9170020F0B534490C
:102A50000B7913F0300F2FD072B68B7D03F0FF048B
:102A600023B9CB7940234B7462B625E062B62D487A
:102A70002D4A037812782D4FDBB2D2B20546581C8E
:102A80004028CE7928BF00209042F6B21CBF3E54A9
:102A90000346601E10F0FF04F1D1D9B22970244919
:102AA000096849B1934236BFC2F140029B1A9B1894
:102AB000272BC4BF01230B70194AD178C9B20D0668
:102AC0001ED513791C061BD51A4B1B481D7803789D
:102AD0001A4EEDB2DBB2AB420AD00133402B28BF15
:102AE00000231479F45CE4B2D471147D072CF2D97C
:102AF000DBB203700A4B1A79100644BF7C22DA70ED
:102B000049060CD5064B1A79520608D50C4A002105
:102B100011700C4A126802B111703C22DA70F0BDDB
:102B200000A006407A180020F91700203A1800206B
:102B3000F4170020801800207B180020FA170020CE
:102B4000F81700207C180020054B1878054B1A78E0
:102B5000C0B2D3B2984238BF4030C01A704700BFED
:102B6000F218002089180020F0B534490B7913F0D1
:102B7000300F2FD072B68B7D03F0FF0423B9CB79D1
:102B800040234B7462B625E062B62D482D4A037887
:102B900012782D4FDBB2D2B20546581C4028CE79B0
:102BA00028BF00209042F6B21CBF3E540346601E70
:102BB00010F0FF04F1D1D9B229702449096849B154
:102BC000934236BFC2F140029B1A9B18272BC4BF09
:102BD00001230B70194AD178C9B20D061ED513799D
:102BE0001C061BD51A4B1B481D7803781A4EEDB2F4
:102BF000DBB2AB420AD00133282B28BF0023147963
:102C0000F45CE4B2D471147D072CF2D9DBB203700A
:102C10000A4B1A79100644BF7C22DA7049060CD59B
:102C2000064B1A79520608D50C4A002111700C4A3D
:102C3000126802B111703C22DA70F0BD00B006409B
:102C4000F218002089180020B218002084180020F3
:102C5000F8180020F31800208A1800208818002097
:102C6000F4180020054B1878054B1A78C0B2D3B27F
:102C7000984238BF4030C01A704700BF6A19002020
:102C80000119002010B5284B1A79920620D5274942
:102C9000DA790B782648013300783F2BC8BF002330
:102CA000834218BF2348D2B21EBFC254DAB20A70A0
:102CB000214A116861B1214A1278D2B2934236BFDB
:102CC000C2F140029B1A9B18272BC4BF01230B7033
:102CD0001549CA78D2B2140616D50B79180613D541
:102CE000174B164C18782378DBB2984202D16C232C
:102CF000CB7009E00133282B28BF00231148C05CAA
:102D0000DBB2C0B2C871237051060CD5064B1A79DC
:102D1000520608D50C4A002111700C4A126802B103
:102D200011702C22DA7010BD00C006406A19002014
:102D3000011900202A190020FC1800206B1900201E
:102D40007019002002190020001900206C190020C1
:102D50001FB572B6154B70221A70154A41211170B9
:102D60000F2102F8011C80221A701A781206FCD575
:102D7000104B186862B6104B984298BF0A2301ACFA
:102D800098BF58430A222146FEF7DBFC0B4A00237A
:102D9000E15C21B101330A2B22F8021BF8D1084A69
:102DA00001335B00137004B010BD00BF000002408F
:102DB00007000240080002407F969800E00B0020C8
:102DC000DE0B00200B460146184600F0D1BF00BFC5
:102DD00081F0004102E000BF83F0004330B54FEACC
:102DE00041044FEA430594EA050F08BF90EA020F39
:102DF0001FBF54EA000C55EA020C7FEA645C7FEACC
:102E0000655C00F0E2804FEA5454D4EB5555B8BFEE
:102E10006D420CDD2C4480EA020281EA030382EA5F
:102E2000000083EA010180EA020281EA0303362DF1
:102E300088BF30BD11F0004F4FEA01314FF4801CC4
:102E40004CEA113102D0404261EB410113F0004FD6
:102E50004FEA03334CEA133302D0524263EB43038D
:102E600094EA050F00F0A780A4F10104D5F1200E2B
:102E70000DDB02FA0EFC22FA05F2801841F1000186
:102E800003FA0EF2801843FA05F359410EE0A5F15A
:102E900020050EF1200E012A03FA0EFC28BF4CF08B
:102EA000020C43FA05F3C01851EBE37101F0004541
:102EB00007D54FF0000EDCF1000C7EEB00006EEB4E
:102EC0000101B1F5801F1BD3B1F5001F0CD34908D8
:102ED0005FEA30004FEA3C0C04F101044FEA44522F
:102EE00012F5800F80F09A80BCF1004F08BF5FEAB6
:102EF000500C50F1000041EB045141EA050130BD96
:102F00005FEA4C0C404141EB010111F4801FA4F138
:102F10000104E9D191F0000F04BF01460020B1FA8D
:102F200081F308BF2033A3F10B03B3F120020CDAC5
:102F30000C3208DD02F1140CC2F10C0201FA0CF0A3
:102F400021FA02F10CE002F11402D8BFC2F1200C08
:102F500001FA02F120FA0CFCDCBF41EA0C019040BE
:102F6000E41AA2BF01EB0451294330BD6FEA040407
:102F70001F3C1CDA0C340EDC04F11404C4F12002F2
:102F800020FA04F001FA02F340EA030021FA04F304
:102F900045EA030130BDC4F10C04C4F1200220FA5B
:102FA00002F001FA04F340EA0300294630BD21FA99
:102FB00004F0294630BD94F0000F83F4801306BF5F
:102FC00081F480110134013D4EE77FEA645C18BF53
:102FD0007FEA655C29D094EA050F08BF90EA020FEA
:102FE00005D054EA000C04BF1946104630BD91EAE2
:102FF000030F1EBF0021002030BD5FEA545C05D1E5
:103000004000494128BF41F0004130BD14F5800423
:103010003CBF01F5801130BD01F0004545F0FE4197
:1030200041F470014FF0000030BD7FEA645C1ABFCC
:10303000194610467FEA655C1CBF0B46024650EA03
:10304000013406BF52EA033591EA030F41F400212F
:1030500030BD00BF90F0000F04BF0021704730B5B5
:103060004FF4806404F132044FF000054FF000018A
:1030700050E700BF90F0000F04BF0021704730B54B
:103080004FF4806404F1320410F0004548BF404220
:103090004FF000013EE700BF42004FEAE2014FEA75
:1030A00031014FEA02701FBF12F07F4393F07F4F50
:1030B00081F06051704792F0000F14BF93F07F4F82
:1030C000704730B54FF4607401F0004521F00041C5
:1030D00020E700BF50EA010208BF704730B54FF04B
:1030E00000050AE050EA010208BF704730B511F050
:1030F000004502D5404261EB41014FF4806404F188
:1031000032045FEA915C3FF4DCAE4FF003025FEA09
:10311000DC0C18BF03325FEADC0C18BF033202EB91
:10312000DC02C2F1200300FA03FC20FA02F001FAEB
:1031300003FE40EA0E0021FA02F11444C1E600BF8A
:1031400070B54FF0FF0C4CF4E06C1CEA11541DBF3D
:103150001CEA135594EA0C0F95EA0C0F00F0DEF808
:103160002C4481EA030621EA4C5123EA4C5350EAED
:10317000013518BF52EA033541F4801143F480133E
:1031800038D0A0FB02CE4FF00005E1FB02E506F0CF
:103190000042E0FB03E54FF00006E1FB03569CF024
:1031A000000F18BF4EF0010EA4F1FF04B6F5007F2A
:1031B00064F5407404D25FEA4E0E6D4146EB06069C
:1031C00042EAC62141EA55514FEAC52040EA5E5025
:1031D0004FEACE2EB4F1FD0C88BFBCF5E06F1ED8CF
:1031E000BEF1004F08BF5FEA500E50F1000041EB06
:1031F000045170BD06F0004646EA010140EA0200B3
:1032000081EA0301B4EB5C04C2BFD4EB0C0541EAD4
:10321000045170BD41F480114FF0000E013C00F3E9
:10322000AB8014F1360FDEBF002001F0004170BD0D
:10323000C4F10004203C35DA0C341BDC04F1140426
:10324000C4F1200500FA05F320FA04F001FA05F2B2
:1032500040EA020001F0004221F0004110EBD3707F
:1032600021FA04F642EB06015EEA430E08BF20EAAB
:10327000D37070BDC4F10C04C4F1200500FA04F34E
:1032800020FA05F001FA04F240EA020001F00041E0
:1032900010EBD37041F100015EEA430E08BF20EA53
:1032A000D37070BDC4F1200500FA05F24EEA020E9B
:1032B00020FA04F301FA05F243EA020321FA04F0CA
:1032C00001F0004121FA04F220EA020000EBD37081
:1032D0005EEA430E08BF20EAD37070BD94F0000F81
:1032E0000FD101F00046400041EB010111F4801FB5
:1032F00008BF013CF7D041EA060195F0000F18BF66
:10330000704703F00046520043EB030313F4801FA1
:1033100008BF013DF7D043EA0603704794EA0C0F5B
:103320000CEA135518BF95EA0C0F0CD050EA410671
:1033300018BF52EA4306D1D181EA030101F00041EE
:103340004FF0000070BD50EA410606BF1046194616
:1033500052EA430619D094EA0C0F02D150EA013622
:1033600013D195EA0C0F05D152EA03361CBF104663
:1033700019460AD181EA030101F0004141F0FE4102
:1033800041F470014FF0000070BD41F0FE4141F486
:10339000780170BD70B54FF0FF0C4CF4E06C1CEA86
:1033A00011541DBF1CEA135594EA0C0F95EA0C0F3B
:1033B00000F0A7F8A4EB050481EA030E52EA0335F6
:1033C0004FEA013100F088804FEA03334FF0805517
:1033D00045EA131343EA12634FEA022245EA111544
:1033E00045EA10654FEA00260EF000419D4208BFF5
:1033F000964244F1FD0404F5407402D25B084FEAA2
:103400003202B61A65EB03055B084FEA32024FF44D
:1034100080104FF4002CB6EB020E75EB030E22BFAA
:10342000B61A754640EA0C005B084FEA3202B6EB6A
:10343000020E75EB030E22BFB61A754640EA5C0019
:103440005B084FEA3202B6EB020E75EB030E22BFA9
:10345000B61A754640EA9C005B084FEA3202B6EBAA
:10346000020E75EB030E22BFB61A754640EADC0069
:1034700055EA060E18D04FEA051545EA16754FEACB
:1034800006164FEAC30343EA52734FEAC2025FEAE9
:103490001C1CC0D111F4801F0BD141EA00014FF078
:1034A00000004FF0004CB6E711F4801F04BF014349
:1034B0000020B4F1FD0C88BFBCF5E06F3FF6AFAE65
:1034C000B5EB030C04BFB6EB020C5FEA500C50F1F5
:1034D000000041EB045170BD0EF0004E4EEA113178
:1034E00014EB5C04C2BFD4EB0C0541EA045170BD7F
:1034F00041F480114FF0000E013C90E645EA060EC3
:103500008DE60CEA135594EA0C0F08BF95EA0C0FF0
:103510003FF43BAF94EA0C0F0AD150EA01347FF438
:1035200034AF95EA0C0F7FF425AF104619462CE70F
:1035300095EA0C0F06D152EA03353FF4FDAE104672
:10354000194622E750EA410618BF52EA43067FF4C3
:10355000C5AE50EA41047FF40DAF52EA43057FF453
:10356000EBAE12E74FF0FF3C06E000BF4FF0010C5E
:1035700002E000BF4FF0010C4DF804CD4FEA410CC2
:103580007FEA6C5C4FEA430C18BF7FEA6C5C1BD08F
:1035900001B050EA410C0CBF52EA430C91EA030F10
:1035A00002BF90EA020F0020704710F1000F91EA6D
:1035B000030F58BF994208BF90422CBFD8176FEA3B
:1035C000E37040F0010070474FEA410C7FEA6C5C09
:1035D00002D150EA013C07D14FEA430C7FEA6C5C10
:1035E000D6D152EA033CD3D05DF8040B704700BF3C
:1035F0008446104662468C461946634600E000BF8A
:1036000001B5FFF7B7FF002848BF10F1000F01BD5B
:103610004DF808EDFFF7F4FF0CBF012000205DF826
:1036200008FB00BF4DF808EDFFF7EAFF34BF0120AB
:1036300000205DF808FB00BF4DF808EDFFF7E0FF44
:1036400094BF012000205DF808FB00BF4DF808ED95
:10365000FFF7CEFF94BF012000205DF808FB00BFFC
:103660004DF808EDFFF7C4FF34BF012000205DF8DE
:1036700008FB00BF4A0011D212F5001211D20DD57D
:103680006FF47873B3EB62520ED44FEAC12343F068
:10369000004343EA505323FA02F070474FF0000012
:1036A000704750EA013002D14FF0FF3070474FF0C1
:1036B000000070474FEA4102B2F1E04324BFB3F586
:1036C000001CDCF1FE5C0DD901F0004C4FEAC00299
:1036D0004CEA5070B2F1004F40EB830008BF20F07D
:1036E0000100704711F0804F21D113F13872BCBF37
:1036F00001F00040704741F480114FEA5252C2F18C
:103700001802C2F1200C10FA0CF320FA02F018BFD4
:1037100040F001004FEAC1234FEAD32303FA0CFC27
:1037200040EA0C0023FA02F34FEA4303CCE77FEAB6
:10373000625307D150EA01331EBF4FF0FE4040F400
:103740004000704701F0004040F0FE4040F40000AF
:10375000704700BF80F0004002E000BF81F00041F0
:1037600042001FBF5FEA410392EA030F7FEA226C27
:103770007FEA236C6AD04FEA1262D2EB1363C1BFB7
:10378000D218414048404140B8BF5B42192B88BF26
:10379000704710F0004F40F4000020F07F4018BF49
:1037A000404211F0004F41F4000121F07F4118BF69
:1037B000494292EA030F3FD0A2F1010241FA03FC11
:1037C00010EB0C00C3F1200301FA03F100F00043F9
:1037D00002D5494260EB4000B0F5000F13D3B0F1C1
:1037E000807F06D340084FEA310102F10102FE2A30
:1037F00051D2B1F1004F40EBC25008BF20F00100A0
:1038000040EA03007047490040EB000010F4000F4D
:10381000A2F10102EDD1B0FA80FCACF1080CB2EBE0
:103820000C0200FA0CF0AABF00EBC250524218433F
:10383000BCBFD0401843704792F0000F81F40001E4
:1038400006BF80F400000132013BB5E74FEA4103B7
:103850007FEA226C18BF7FEA236C21D092EA030F23
:1038600004D092F0000F08BF0846704790EA010F9D
:103870001CBF0020704712F07F4F04D1400028BFCA
:1038800040F00040704712F100723CBF00F50000AC
:10389000704700F0004343F0FE4040F400007047E2
:1038A0007FEA226216BF08467FEA2363014642028E
:1038B00006BF5FEA412390EA010F40F480007047A1
:1038C0004FF0000304E000BF10F0004348BF404247
:1038D0005FEA000C08BF704743F0964301464FF083
:1038E00000001CE050EA010208BF70474FF00003DF
:1038F0000AE000BF50EA010208BF704711F0004320
:1039000002D5404261EB41015FEA010C02BF8446EF
:103910000146002043F0B64308BFA3F18053A3F54E
:103920000003BCFA8CF2083AA3EBC25310DB01FA95
:1039300002FC634400FA02FCC2F12002BCF1004F19
:1039400020FA02F243EB020008BF20F001007047AA
:1039500002F1200201FA02FCC2F1200250EA4C00FE
:1039600021FA02F243EB020008BF20EADC70704744
:103970004FF0FF0C1CEAD0521EBF1CEAD15392EA52
:103980000C0F93EA0C0F6FD01A4480EA010C40022E
:1039900018BF5FEA41211ED04FF0006343EA501088
:1039A00043EA5111A0FB01310CF00040B1F5000FCA
:1039B0003EBF490041EAD3715B0040EA010062F179
:1039C0007F02FD2A1DD8B3F1004F40EBC25008BF63
:1039D00020F00100704790F0000F0CF0004C08BF81
:1039E00049024CEA502040EA51207F3AC2BFD2F14E
:1039F000FF0340EAC250704740F400004FF000035C
:103A0000013A5DDC12F1190FDCBF00F00040704795
:103A1000C2F10002410021FA02F1C2F1200200FAD3
:103A200002FC5FEA310040F1000053EA4C0308BF9A
:103A300020EADC70704792F0000F00F0004C02BFEB
:103A4000400010F4000F013AF9D040EA0C0093F066
:103A5000000F01F0004C02BF490011F4000F013BC0
:103A6000F9D041EA0C018FE70CEAD15392EA0C0F2E
:103A700018BF93EA0C0F0AD030F0004C18BF31F099
:103A8000004CD8D180EA010000F00040704790F06F
:103A9000000F17BF90F0004F084691F0000F91F013
:103AA000004F14D092EA0C0F01D142020FD193EAD9
:103AB0000C0F03D14B0218BF084608D180EA010061
:103AC00000F0004040F0FE4040F40000704740F03D
:103AD000FE4040F4400070474FF0FF0C1CEAD0520B
:103AE0001EBF1CEAD15392EA0C0F93EA0C0F69D067
:103AF000A2EB030280EA010C49024FEA402037D0D2
:103B00004FF0805343EA111143EA10130CF00040C8
:103B10008B4238BF5B0042F17D024FF4000C8B42B8
:103B200024BF5B1A40EA0C00B3EB510F24BFA3EB98
:103B3000510340EA5C00B3EB910F24BFA3EB910368
:103B400040EA9C00B3EBD10F24BFA3EBD10340EAC2
:103B5000DC001B0118BF5FEA1C1CE0D1FD2A3FF608
:103B600050AF8B4240EBC25008BF20F001007047BD
:103B70000CF0004C4CEA50207F32C2BFD2F1FF0360
:103B800040EAC250704740F400004FF00003013A91
:103B900037E792F0000F00F0004C02BF400010F435
:103BA000000F013AF9D040EA0C0093F0000F01F049
:103BB000004C02BF490011F4000F013BF9D041EA6B
:103BC0000C0195E70CEAD15392EA0C0F08D142029E
:103BD0007FF47DAF93EA0C0F7FF470AF084676E771
:103BE00093EA0C0F04D14B023FF44CAF08466EE74A
:103BF00030F0004C18BF31F0004CCAD130F0004218
:103C00007FF45CAF31F000437FF43CAF5FE700BF6F
:103C10004FF0FF3C06E000BF4FF0010C02E000BF98
:103C20004FF0010C4DF804CD4FEA40024FEA41033A
:103C30007FEA226C18BF7FEA236C11D001B052EAF0
:103C4000530C18BF90EA010F58BFB2EB030088BFB6
:103C5000C81738BF6FEAE17018BF40F00100704725
:103C60007FEA226C02D15FEA402C05D17FEA236C07
:103C7000E4D15FEA412CE1D05DF8040B704700BF4E
:103C8000844608466146FFE70FB5FFF7C9FF0028E5
:103C900048BF10F1000F0FBD4DF808EDFFF7F4FF1E
:103CA0000CBF012000205DF808FB00BF4DF808EDB7
:103CB000FFF7EAFF34BF012000205DF808FB00BFDA
:103CC0004DF808EDFFF7E0FF94BF012000205DF8FC
:103CD00008FB00BF4DF808EDFFF7D2FF94BF0120AD
:103CE00000205DF808FB00BF4DF808EDFFF7C8FFA6
:103CF00034BF012000205DF808FB00BF4FEA4002FE
:103D00004FEA41037FEA226C02D15FEA402C08D1DE
:103D10007FEA236C02D15FEA412C02D14FF0000010
:103D200070474FF00100704742000ED2B2F1FE4FD3
:103D30000BD34FF09E03B3EB126209D44FEA00237A
:103D400043F0004323FA02F070474FF00000704741
:103D500012F1610F01D1420202D14FF0FF307047E2
:103D60004FF00000704700BF002101F063BE00BFAC
:103D700013460A460146022001F0F8BEF0B583B0B2
:103D800016461F460D460024FFF786F90097334676
:103D90002A46019401F04CFF03B0F0BD014B1868B6
:103DA000704700BF2010002070B50F4E0F4D761BDE
:103DB000B61018BF002405D0013455F8043B9847CD
:103DC000A642F9D10A4E0B4D761B04F0E7FDB61062
:103DD00018BF002406D0013455F8043B9847A6428A
:103DE000F9D170BD70BD00BFA8890000A88900008E
:103DF000B8890000A8890000024B0146186800F04D
:103E00000BB800BF20100020024B0146186801F0DB
:103E1000E7BF00BF201000202DE9F04F01F10B0596
:103E2000162D83B0064640F29F8035F0070500F15D
:103E3000BF80A94200F2BC8000F020FBB5F5FC7FFA
:103E4000C0F09C826B0A00F0BA80042B00F28381E0
:103E5000A80900F1390E4FEA4E033830C44F07EB82
:103E60008303A3F108015C68A14207D1ACE0002AFA
:103E700080F2AC80E468A14200F0A680636823F081
:103E800003035A1B0F2AF2DDB9493C6901F1080E00
:103E9000744500F0B381636823F003035A1B0F2AB3
:103EA00000F39981002AC1F814E0C1F810E080F213
:103EB0009E80B3F5007F80F06781DB0803F1010C81
:103EC00001229B1002FA03F34A6851F83C80C4F8BF
:103ED000088001EBCC091A43A9F10803E3604A60AA
:103EE00041F83C40C8F80C40831001249C409442A7
:103EF00000F28A80144206D120F0030064001442CC
:103F000000F10400FAD007EBC009CC468046DCF88B
:103F10000C108C4507D173E1002A80F28181C968B9
:103F20008C4500F06D814B6823F003035A1B0F2A68
:103F3000F2DD0C46D1F80CC054F8088F4B1945F04F
:103F400001054D6042F00101C8F80CC03046CCF8C4
:103F500008807B613B61C3F80CE0C3F808E059605E
:103F60009A5000F08DFA1FE0102921D800F086FA4F
:103F70001025062302207E4F07EB8303A3F10802DE
:103F80005C68944200F045816368E168A56823F0AD
:103F90000303234430465A68E96042F001028D6011
:103FA0005A6000F06DFA0834204603B0BDE8F08F87
:103FB00000240C232046336003B0BDE8F08F80233B
:103FC0004FF0400E3F2049E770465DE72344E1682B
:103FD0005A68A56842F00102E96030468D605A6077
:103FE00000F04EFA0834204603B0BDE8F08F2344B9
:103FF00030465A6842F001025A6000F041FA083433
:10400000204603B0BDE8F08FBC68636823F0030866
:10401000A84504D3C5EB08030F2B00F38C80554B48
:10402000DFF860911A68D9F8003001332A4404EBB4
:10403000080A00F0608102F580520F3222F47F629C
:1040400022F00F0211463046019200F013FCB0F14D
:10405000FF3F8346019A00F05881824500F2FC80C0
:10406000454B1968DA451144196000F05381D9F8BD
:104070000000DFF810E101301BBFCAEB0B0A51440E
:10408000CEF800B019601BF0070100F01781C1F1F4
:104090000800C1F58051834408315A44C2F30B0231
:1040A000C2EB010949463046019300F0E3FB431C93
:1040B000019B00F03F81CBEB00024A4442F0010239
:1040C0001968C7F808B04944BC42CBF8042019600D
:1040D000DFF8A49016D0B8F10F0F40F2FD806268AF
:1040E000A8F10C0323F00703E01802F001024FF0DF
:1040F000050E1A430F2B6260C0F804E0C0F808E018
:1041000000F21C811D4BBC681A68914288BF19607F
:104110001B4B1A689142626888BF196022F0030243
:104120009542A2EB050301D80F2B04DC304600F0CA
:10413000A7F9002438E7621943F0010345F00105AF
:1041400065603046BA60536000F09AF90834204642
:1041500003B0BDE8F08F142B71D9542B00F2A4806A
:10416000280B00F16F0E4FEA4E036E3076E600BF6B
:10417000901100207C19002080190020781900205F
:10418000741900209C1500205A0A042A5ED9142AAA
:1041900000F2B38002F15C0149005B3207EB810C55
:1041A00057F82110DFF8DC81ACF1080C8C4500F0E9
:1041B00088804A6822F00302934202D289688C45C3
:1041C000F7D1D1F80CC07A68C4F80CC0A160CCF863
:1041D0000840CC6088E6631942F0010745F001050C
:1041E000656030464B610B61C3F80CE0C3F808E032
:1041F0005F609A50083400F043F9D5E64A6873E6E8
:1042000008F1010818F0030F0CF1080C7FF47FAEE1
:1042100030E0DC68A34208BF02303FF435AEB3E6BD
:104220000B440C465A68C96854F8085F42F0010212
:104230005A603046E9608D6000F022F9B4E603F17F
:104240005C0E03F15B004FEA4E0307E69A0902F1A8
:10425000390149003832A1E7BC424A4B3FF400AF74
:104260009C68626822F003025AE759F808399945B8
:1042700040F0828010F0030F00F1FF30F5D17B6831
:1042800023EA04037B6064009C423FF6BDAE002C31
:104290003FF4BAAE1C4240467FF435AE64001C4287
:1042A00000F10400FAD02EE6B3F5AA7F18D8E80B87
:1042B00000F1780E4FEA4E037730CFE54FF480518E
:1042C000EBE60121D8F80430921001FA02F21A4309
:1042D000C8F80420614677E70123CBF8043025E7CE
:1042E00040F25452934220D8A80C00F17D0E4FEAC0
:1042F0004E037C30B2E51032A4E6542A26D81A0BBD
:1043000002F16F0149006E3248E7BC68626822F032
:10431000030205E7CAF30B0000287FF4A8AE42446D
:10432000BB6842F001025A60ECE6FE234FF07F0EBC
:104330007E2093E501224FF00009C1E604F1080157
:10434000304601F04DFDD9F80010DBE6B2F5AA7F4A
:1043500005D8DA0B02F17801490077321EE740F206
:1043600054518A4205D89A0C02F17D0149007C32F1
:1043700014E7FE217E2211E77B6884E7E808431CEE
:104380005B00F8E59011002082B049B15AB16BB1E1
:1043900013780B601278101C18BF012002B0704710
:1043A00001A9002AF3D1104602B070476FF0010056
:1043B000F4E700BF8842F0B50DD98B1898420AD2B5
:1043C0008118002A51D09A1A13F8014D01F8014DB5
:1043D0009342F9D1F0BD0F2A48D941EA00039B0767
:1043E00046D100F1100401F11003154653F8106C8A
:1043F00044F8106C53F80C6C44F80C6C53F8086CCF
:1044000044F8086C103D53F8046C44F8046C0F2D0C
:1044100003F1100304F11004E8D8A2F1100323F013
:104420000F0302F00F0E1033BEF1030F19440344C3
:1044300021D91E1F0D467446043C55F8047B46F8EE
:10444000047F032CF8D8AEF1040424F003040434F0
:104450002344214402F0030262B1013B0A4411F8F3
:10446000014B03F8014F8A42F9D1F0BD0346F3E74F
:104470000346F2E7F0BD7246EEE700BF704700BFAB
:10448000704700BF024B0A460146186800F002B8A8
:10449000201000202DE9F04F174683B0002900F0CE
:1044A000C1800E46814607F10B05FFF7E7FF56F87E
:1044B00004EC162D2EF00304A6F1080840D81022B3
:1044C0001546AF4241D8944275DAC94B996808EB5A
:1044D00004008842416800F0D98021F001030344C0
:1044E0005B68DB077DD51EF0010F35D039464846A5
:1044F000FFF792FC0746E0B156F8043C23F00103B5
:104500004344A0F108029A4200F04481221F242A69
:1045100000F23181132A00F2048103463246116809
:1045200019605168596092689A603146484601F0B6
:1045300057FC4846FFF7A4FF384603B0BDE8F08FAC
:1045400025F00705002D2A46BBDA0C230020C9F808
:10455000003003B0BDE8F08F56F8083CC3EB080A02
:10456000DAF8043023F0030C04EB0C039342BDDBB8
:104570005746DAF80C1057F8080F221F242AC1609A
:10458000886000F21781132A40F212813168CAF85C
:1045900008107168CAF80C101B2A00F22B8108362B
:1045A0000AF110023168116071685160B168916060
:1045B0003E461C46D046631B0F2B1DD8D8F804304E
:1045C00003F0010323434444C8F80430636843F014
:1045D000010363604846FFF753FF304603B0BDE870
:1045E000F08F21F003012144914221DBC3688268EE
:1045F0000C46D3609A60DEE7D8F8042008EB05018A
:1046000002F00102154343F001020B44C8F80450C4
:104610004A605A6842F0010208315A60484601F087
:10462000DFFBD7E7114603B0BDE8F04FFFF7F4BB5F
:104630001EF0010F7FF45AAF56F8083CC3EB080A8E
:10464000DAF8043023F0030C01EB0C0E96458BDBFB
:10465000C36882685746D3609A6057F8081FDAF833
:104660000C30CB60221F242A996000F29980132A13
:1046700062D93368CAF808307368CAF80C301B2A4C
:1046800000F2A08008360AF1100356E021F0030B77
:10469000A34405F11000834559DA1EF0010F7FF4A1
:1046A00025AF56F8081CC1EB080ADAF8041021F00F
:1046B000030CE34458453FF757AF5746DAF80C1060
:1046C00057F8080F221F242AC160886000F2B480C6
:1046D000132A40F2A5803168CAF808107168CAF838
:1046E0000C101B2A00F2AF8008360AF11002316864
:1046F000116071685160B16891600AEB0501C5EB0A
:104700000B0242F0010299604A60DAF8043003F0CB
:1047100001031D434846CAF80450FFF7B1FE38466E
:104720005CE733680360736843601B2A27D800F195
:10473000080306F10802F2E63B4632681A60726826
:104740005A60B2689A603E467446D04633E708EB3A
:104750000501C5EB0B0B4BF0010299604A6056F85E
:10476000043C03F001031D43484646F8045CFFF790
:1047700087FE304632E73146FFF71CFED5E6B368C8
:104780008360F368C360242A28D000F1100306F187
:104790001002C4E650F8043C23F003031C440AE76B
:1047A000314638467446D046FFF704FE3E4602E7DF
:1047B0003A46F7E6314638461C46D046FFF7FAFD42
:1047C0003E46F8E6B368CAF81030F368CAF8143009
:1047D000242A1BD010360AF11803AEE733690361AF
:1047E0007369436106F1180200F1180397E600BFF0
:1047F00090110020B168CAF81010F168CAF81410BE
:10480000242A0FD010360AF11802CBE63369CAF811
:1048100018307369CAF81C3018360AF120038CE787
:104820003A4664E73269CAF818207269CAF81C204F
:1048300018360AF12002B5E6314638460193FFF7F3
:10484000B9FD019B59E7B168CAF81010F168CAF8C0
:104850001410242A03D010360AF1180247E73269EF
:10486000CAF818207269CAF81C2018360AF120020A
:104870003DE700BF38B5074C0023054608462360D6
:10488000FCF748FF431C00D038BD2368002BFBD049
:104890002B6038BDBC19002080EA0102844612F06A
:1048A000030F4FD111F0030F32D14DF8044D11F029
:1048B000040F51F8043B0BD0A3F101329A4312F0DC
:1048C000803F04BF4CF8043B51F8043B16D100BFB5
:1048D00051F8044BA3F101329A4312F0803FA4F146
:1048E00001320BD14CF8043BA24312F0803F04BFCD
:1048F00051F8043B4CF8044BEAD023460CF8013B3A
:1049000013F0FF0F4FEA3323F8D15DF8044B7047E3
:1049100011F0010F06D011F8012B0CF8012B002A21
:1049200008BF704711F0020FBFD031F8022B12F010
:10493000FF0F16BF2CF8022B8CF8002012F47F4FCB
:10494000B3D1704711F8012B0CF8012B002AF9D1D3
:10495000704700BFFFFFFFFFFFFFFFFFFFFFFFFFED
:10496000FFFFFFFFFFFFFFFFFFFFFFFFFFFFFFFF57
:10497000FFFFFFFFFFFFFFFFFFFFFFFFFFFFFFFF47
:1049800090F800F06DE9024520F007016FF0000C8F
:1049900010F0070491F820F040F049804FF0000437
:1049A0006FF00700D1E9002391F840F000F1080012
:1049B00082FA4CF2A4FA8CF283FA4CF3A2FA8CF34A
:1049C0004BBBD1E9022382FA4CF200F10800A4FAB1
:1049D0008CF283FA4CF3A2FA8CF3E3B9D1E9042305
:1049E00082FA4CF200F10800A4FA8CF283FA4CF33C
:1049F000A2FA8CF37BB9D1E9062301F1200182FAF6
:104A00004CF200F10800A4FA8CF283FA4CF3A2FAFB
:104A10008CF3002BC6D0002A04BF04301A4612BA09
:104A2000B2FA82F2FDE8024500EBD2007047D1E90C
:104A3000002304F00305C4F100004FEAC50514F09B
:104A4000040F91F840F00CFA05F562EA05021CBF6C
:104A500063EA050362464FF00004A9E7002A41D04B
:104A600040EA010313F00303F0B425D1032A23D94C
:104A700004680D68AC421FD1043A35D0A4F1013569
:104A800025EA040414F0803F31D1071D0D1D0DE00F
:104A900057F8043B0E68A3F10134B34224EA03043F
:104AA0000AD1043A20D014F0803F23D1032A2946AA
:104AB000384605F10405EBD803780C789C4202F1E6
:104AC000FF320CD182B114B916E06AB17BB110F893
:104AD000013F11F8014FA34202F1FF32F5D0181B3C
:104AE000F0BC7047104670471046F0BC704718463F
:104AF000F0BC70470020F3E72046F1E740EA0103ED
:104B00009B0770B42BD1032A29D90C4603462146B2
:104B100054F8046BA6F1013525EA060515F0803F2F
:104B200006D1043A032A43F8046B2146EFD8A2B118
:104B30000C781C70013A013301313CB16AB111F8B3
:104B4000014B03F8014B013A002CF7D12AB11A446A
:104B5000002103F8011B9A42FBD170BC7047034649
:104B6000E5E700BF2DE9F0410F46904602F0D4F88A
:104B700004460D46B8F1000F11D0C7F30A53C3F134
:104B80006B03002B0BDD1B0503F17F55002405F59E
:104B9000401522462B46FEF7D3FABDE8F0812046A9
:104BA0002946BDE8F08100BF2DE9F04F1D46A1B0B8
:104BB0000023834628460E4607921C9301F0ACFD65
:104BC0000024002382460068CDE90434FFF7D8FEB4
:104BD0001B9681463246144612F8017B2D2F00F2B7
:104BE000B180DFE807F017AFAFAFAFAFAFAFAF83C4
:104BF00083838383AFAFAFAFAFAFAFAFAFAFAFAF75
:104C0000AFAFAFAFAFAF83AFAFAFAFAFAFAFAFAFE0
:104C1000AF2DAF80079B4FF000094FF0000A53B152
:104C200000230893079B1E60089B23B149460AF1A5
:104C3000004389469A464846514621B0BDE8F08F68
:104C400000230893621C1B926778002FE2D0302F5C
:104C500014467BD000230A940993A7F13003092B53
:104C600000F2DB834FF00008204645464446082CFE
:104C7000C8BF08EB880805EB850300F1010007EBCE
:104C800043031B90C4BF07EB4807A7F13008077820
:104C9000D8BFA3F13005A7F13003092B04F10104BB
:104CA000E5D9DAF800104A46FFF7D8FE00B3002035
:104CB0003B4681460746A246652B00F0B280452B55
:104CC00000F0AF800022002C52D118B9099A002AB6
:104CD00000F0C7824FF000094FF0000A079B002B3D
:104CE000A2D01B9E9EE701230893ABE71B9272E7BD
:104CF0001B9B03EB09021B9213F809300746A246DF
:104D0000A3F13002092A00F27182411C1346002AE5
:104D100000F06E8601290F4418BF001905D100F07C
:104D200063BE4D00844200F0AE840134611E082948
:104D300005EB8501F5DD102CDCBF08EB88084FEA98
:104D40004808EFE70023302F089383D16378582B6E
:104D500000F04783782B00F0448301341B942778BC
:104D6000302FFAD0002FB5D001230A94099374E7AD
:104D7000102CA2EB07032846A1460C93A8BF4FF0C6
:104D80001009FEF767F9BAF1000F08BFA246B9F1A2
:104D9000090FCDE9040113DD494B03EBC90353E9C6
:104DA0001223FEF7CDF9064640460F46FEF752F9AC
:104DB00002460B4630463946FEF710F8CDE90401AD
:104DC0000F2C00F385800C9B002B27D040F3F3843D
:104DD0000C9B162B00F37084394F07EBC307D7E900
:104DE0000001DDE90423FEF7ABF981468A4675E749
:104DF0001BA8344901F0B8FB00283FF40BAF1B9B04
:104E00003149013B1BA81B9301F0AEFB10B91B9B62
:104E100001331B932D4B059300230493DDE9049A82
:104E20005CE7002C00F0D6811B9E731C1B937378EB
:104E30002B2B00F0D3822D2B00F00B824FF0000CB7
:104E4000A3F13002092A00F2C682302B05D11B9A49
:104E500001321B921378302BFAD0A3F13102082AC9
:104E60003FF630AF1B9A0D92511C303B1B910C93B7
:104E70005378A3F1300EBEF1090F0FD80C9A01310F
:104E80001B9102EB820203EB42020B78A3F1300E7E
:104E9000BEF1090FA2F13002F1D90C920D9A891AD4
:104EA000082900F301840C9A44F61F618A42A8BFC6
:104EB0000A46BCF1000F3FF406AF524203E700BFC1
:104EC00088880000F8850000FC8500000000F07F65
:104ED0000C9BC9EB04099944B9F1000F40F37A83A4
:104EE00019F00F010AD0B44B03EBC101D1E9000165
:104EF000DDE90423FEF724F9CDE9040139F00F06BA
:104F000040F00682002309930095234652460A99F1
:104F1000584601F073FC1090002800F0D9820C9ADA
:104F20000026002AC2F10003A8BF33460D9322EAEF
:104F3000E2730C933746B246109C5846616801F004
:104F4000EDFB8046002800F025832269023204F13F
:104F50000C0192000C30FCF7FBFADDE904341EA8CA
:104F60001DA9CDE90A341A460190234600915846FE
:104F700001F05EFF1C90002800F02F8401215846AC
:104F800001F0D6FC0746002800F004831D9A002A91
:104F9000C0F228810D9B0C9D9E1809981E9B874985
:104FA000121A1A44013A8A42C3F1360380F2E780AA
:104FB000891A1F29A3EB010300F31B8101228A40F8
:104FC0000F9200221192F4181D44099BA64232460A
:104FD0001D44A8BF2246AA42A8BF2A46002A02DDD5
:104FE000A41AAD1AB61A0D9BBBB139461A465846DB
:104FF00001F040FD0746002800F0CC8201461C9AD3
:10500000584601F09FFC002800F0C4820E901C99C5
:10501000584601F0A9FB0E9A1C92002C08DD22468E
:105020001C99584601F076FD1C90002800F0D583AD
:105030000C9B43B141460C9A584601F01BFD80463B
:10504000002800F0A782002D08DD41462A46584678
:1050500001F060FD8046002800F09C82002E08DDF3
:1050600039463246584601F055FD0746002800F003
:10507000918242461C99584601F0C4FD82460028A0
:1050800000F088820026C368C66039460E9301F09E
:1050900099FDB042C0F2B88300F00784394650460B
:1050A00001F022FF00224FF0804304460D46FEF738
:1050B000C3FA002868D00E9B002B00F0A280059B4D
:1050C0003F4D0F9699463E4B119300243D4E3E4B6B
:1050D0004A4616409E4200F0D181099B33B3B6F197
:1050E000D46F23D8DDF844900F98494630A3D3E914
:1050F0000023FEF7A1FAB0B10F984946FEF7BAFABD
:10510000002800F03583FDF7A5FF0F9011910E9B4D
:10511000002B40F028830F9B1493119B03F1004355
:105120001593DDE9144505F1D6639D1BDDE90A0100
:1051300001F0F2FD02460B4620462946FEF700F834
:10514000DDE90A23FDF74AFECDE904010C46099B7F
:1051500023B91C4B23409E4200F0DE811C99584627
:1051600001F002FB4146584601F0FEFA3946584626
:1051700001F0FAFA5146584601F0F6FADCE6002250
:10518000119201220F921EE7104B20462946002261
:10519000FDF7D6FF0E9B0F901191002B54D101F11A
:1051A000004312901393059BDDE9124599468DE764
:1051B0000000C0FFFFFFDF418888000002FCFFFF06
:1051C0000000F03F0000F07F0000E07F0000E03FC3
:1051D0004FF00109002842D1099B002B3FF41AAD82
:1051E000044621E60C9B0D9E9D1AD6E64FF0010960
:1051F00062E5BD4CA41A012202FA04F111910F924A
:10520000E1E6DDE90412002940F0C780C2F3130390
:105210009146002B40F0C7800022B44B204629461F
:10522000FEF700FA002840F06283B14B2046294681
:105230000022FDF785FF01F100430F9018901191B6
:105240001993DDE9184541E70F9A119BCDE9122327
:10525000A9E74FF0010CB31C1B93B378F0E50024D1
:10526000E2E5B9F1000F7FF4D5AC493B252B3FF6C1
:10527000D1AC01A252F823F0F14D0000154C000012
:10528000154C0000154C0000154C0000B5530000F3
:10529000154C0000154C0000154C0000154C00008A
:1052A000154C0000154C0000154C0000154C00007A
:1052B000154C0000154C0000154C0000154C00006A
:1052C000154C0000154C0000154C0000154C00005A
:1052D000154C0000154C0000154C0000154C00004A
:1052E000154C0000154C0000154C0000154C00003A
:1052F000154C0000154C0000F14D0000154C00004D
:10530000154C0000154C0000154C0000B553000072
:10531000B6F59A7F00F3DC803611012EDFF8F491A8
:1053200040F30283DDE9040100234F46984616F05E
:10533000010F08F101084FEA660604D0D7E90023FF
:10534000FDF7FEFE0123012E07F10807EFD1002B28
:1053500040F05C83059BA3F15473059309EBC808E7
:10536000DDE90423D8E90001FDF7EAFE21F000435E
:105370001B0D604A1B059342CDE9040100F2A88091
:10538000A2F58012934240F2BB825B4B059300234F
:1053900009934FF0FF330493B6E5DDE904120129C8
:1053A00000F0EA81914600230F93504B534D119327
:1053B00000248BE61BA8524901F0D6F800283FF4E0
:1053C00029AC1B9B1B78282B00F0FC824D4B0593CE
:1053D0000023049322E51B96002274E44FF0000C96
:1053E00039E7089A02951CAB01920093464A1DAB1F
:1053F0001BA9584600F030FE10F0070605463FF4A2
:1054000069AC062E40F07481013400231B944FF0E8
:1054100000094FF0000A089360E4DAF80010204613
:105420004A46FFF71BFB48B14FF0000A3B46D04607
:105430005546504657465446D1463DE41B9B03EB28
:1054400009021B9213F80930302B06D101321B924E
:105450001378302B00F10100F8D0A3F13102082AB3
:1054600040F29A814FF0000A652BD04655465746C8
:105470003FF4AEAE54464FF0010920E4A9F1547355
:105480000593DDE904231046194601F045FC024668
:105490000B4620462946FDF753FEDDE90423FDF7C0
:1054A0009DFC21F00043CDE904011B0D174ADDE905
:1054B0000A011B059342CDE9160140F2F8800E4B1C
:1054C000994264D00C4B05934FF0FF33049345E6AB
:1054D0000F4B0593002222230492DDE9049ACBF8B6
:1054E0000030FFF7FBBB00BFE2FBFFFF0000F03F17
:1054F0000000E03F0000A07CFFFFEF7F0000F0BF56
:10550000048600000000F8FF48860000FFFF9F7C33
:105510000000F07F608900000F9E119D30462946F3
:1055200002F04EFDFDF7A6FD0B4602462946304629
:10553000FDF752FC0E9B05460E46002B36D1049B10
:10554000002B33D1C4F3130484BBA5A3D3E90023F8
:10555000FEF768F800283FF401AE5646DDE9049AEC
:105560001C980146584601F0FFF84146584601F0A4
:10557000FBF83946584601F0F7F81099584601F003
:10558000F3F83146584601F0EFF8FFF7A7BB169B3A
:10559000013397D156461C98974B0593002222233E
:1055A0000492DDE9049ACBF80030DAE78EA3D3E960
:1055B000002328463146FEF735F80028CDD128468D
:1055C00031468BA3D3E90023FEF74AF800283FF4C5
:1055D000C5ADC2E73FF496ACC9F1000616F00F0264
:1055E0000AD0864B03EBC203DDE90401D3E90023B3
:1055F000FDF7D0FECDE9040136113FF483AC1F2E38
:1056000038DC16F0100300F0C2816A23002E0993E3
:1056100013DDDDE904017A4F0023F20704D5D7E951
:105620000023FDF78DFD0123761007F10807F4D163
:10563000002B40F0EE81099B9BB1DDE90412C2F31F
:105640000A53C3F16B03002B11460ADD1F2B40F3F5
:10565000A6810022342B049240F3D0814FF05C737A
:10566000059300220023DDE90401FDF7D1FF0028A6
:105670003FF44AAC2223CBF800304FF000094FF042
:10568000000AFFF72BBB1B990134082840F38D80DB
:10569000102CDCBF08EB880802EB480800204B1CEC
:1056A0001B934B78FFF72CBB44F61F6201E4059B6C
:1056B00003F1547405944AE50C9EC4F125039E42FF
:1056C0003FF706AC4D4DC4F10F0405EBC401341B8C
:1056D000DDE90423D1E9000105EBC405FDF730FD48
:1056E000D5E90023FDF72CFD81468A46FFF7F6BA7F
:1056F0001C9A3AB135211EA801F020FC58461C998D
:1057000001F032F8062E0BD8DFE806F0291D181339
:10571000041D29006FF0004305934FF0FF330493FD
:1057200029077FF57BAB059B43F000430593FFF70B
:1057300075BB314B059300230493F1E71E9B049343
:105740001F9B0593ECE71D9A1F9B1E99049102F283
:10575000334223F4801343EA02530593E0E7002326
:1057600005930493DCE70F9A119BCDE91423D8E449
:10577000244A11920F90CAE4DDE904129146002AEE
:105780007FF411AE56462223CBF800301C984FF020
:1057900000094FF0000AE4E61B9A0A920025303B0C
:1057A000471C1146AA46A846012405EB850503EBD4
:1057B0004505002073E70C9911F1160FFFF688AB31
:1057C0000E4AA2EBC102D2E90023DDE90401FDF794
:1057D000E1FD81468A46FFF781BA5646DCE600BF06
:1057E0009535A094FFFFCF3F9535A094FFFFDF3F95
:1057F00035E5AF350000E03F0000F07F888800000D
:10580000208600000000F03F0E9B5646DDE90A9A14
:105810007BBBDDE9041261BBC2F31303144643BB37
:1058200022F000431B0D1B05B3F1D66F21D973691C
:1058300013B93369012B1CDD31460122584601F0B2
:1058400069F93946064601F0BDF9002811DD099BCA
:10585000002B40F0AC80704B2340A3F580136FEA1F
:1058600013536FEA035305934FF0FF330493DDE9BD
:10587000049A099BBBB1694B179300231693DDE98A
:10588000162348465146FDF75BFC03460C4681460D
:105890008A46CDE9043431B9049B23B922231C98EC
:1058A000CBF800305DE61C985BE60E9B5646DDE9C2
:1058B0000A9A53B3DDE90445594BC5F313019942E4
:1058C0002A4646D0119B53B3059A1342D1D00E9B62
:1058D000099ADDE9040153B3FFF744F902460B4688
:1058E00048465146FDF77AFA81468A46C1E74D4B54
:1058F0004D4C11930023CDE918340E9B0F93A0E477
:1059000001F154730593FFF7FDBADDE90412C2F308
:1059100013031446002BD5D10029D3D197E70F9B51
:10592000049A1342A5D0D2E74FF0000812E5FFF722
:1059300019F902460B4648465146FDF74DFA00223A
:10594000002381468A46FDF763FE00287FF41BAFE3
:105950008FE7099B0499FBB12F4B2B40B3F1D46F18
:105960001AD81B0DC3F16B034FF0FF3000FA03F39D
:105970008B42A7D12D498A423DD0274B134003F5D6
:105980008013059300230493DDE9049A71E7002E48
:1059900009933FF73EAE64E64FF0FF33E8E74FF080
:1059A000FF3202FA03F3049A1A40049259E61A4BA2
:1059B0002340B3F1D66F3FF750AFB3F15C7F3FF7B1
:1059C0005AAFE0E61BA81EAA194900F0E5FD05281C
:1059D0007FF4FCAC1F9B43F0FF4343F4E0030593CB
:1059E0001E9B0493FFF71ABA20461B9901344CE61C
:1059F00008461B9953E60133BFD1CCE5203B4FF05D
:105A0000FF3202FA03F30B4005932AE6CDE90401C5
:105A1000A0E4CDE904010EE60000F07F000050395B
:105A2000FFFF0F000000E03F0000E0BFFFFFEF7F3F
:105A300008860000064B30B41C68064D636B0A46AE
:105A4000002B08BF2B460146204630BCFFF7ACB800
:105A50002010002024100020024B1A6801235C3221
:105A600000F002B820100020F0B420B307460D4625
:105A700017F8016B01E0A64216D015F8014B002C77
:105A8000F9D1EEB13E460C4616F8015B00E073B169
:105A900014F8013B9D42FAD15DB100233B701660C2
:105AA00006463046F0BC704763B13846DEE73746FD
:105AB000E8E72E46F3E710680028D7D10646F0E75E
:105AC0001660EEE7176006460370EAE7F0B5DFF808
:105AD00078E0164604460F46BEE80F008BB06D46D0
