:100000000C9453000C947B000C947B000C947B00AC
:100010000C947B000C947B000C947B000C947B0074
:100020000C947B000C947B000C947B000C947B0064
:100030000C947B000C947B000C947B000C947B0054
:100040000C9418030C947B000C9488030C946203AA
:100050000C947B000C947B000C947B000C947B0034
:100060000C947B000C947B004E414E494E495459F0
:10007000494E46CDCCCC3D0AD7233C17B7D1387773
:10008000CC2B329595E6241FB14F0A000020410089
:1000900000C84200401C4620BCBE4CCA1B0E5AAED3
:1000A000C59D7400500511241FBECFEFD8E0DEBF00
:1000B000CDBF11E0A0E0B1E0E2E9F4E102C00590BB
:1000C0000D92A432B107D9F722E0A4E2B1E001C059
:1000D0001D92A430B207E1F710E0C3E5D0E004C000
:1000E0002197FE010E949F05C235D107C9F70E94E2
:1000F000BA030C94470A0C940000E0916301F0915C
:1001000064010190F081E02D682F83E691E009946D
:100110003FB7F89480915F0190916001A0916101D7
:10012000B091620126B5A89B05C02F3F19F001963A
:10013000A11DB11D3FBFBA2FA92F982F8827820F6D
:10014000911DA11DB11DBC01CD0142E0660F771FBD
:10015000881F991F4A95D1F708958F929F92AF9269
:10016000BF92CF92DF92EF92FF926B017C010E94CF
:1001700088004B015C01C114D104E104F104F1F0E9
:100180000E948800DC01CB0188199909AA09BB09E2
:10019000883E9340A105B10570F321E0C21AD10851
:1001A000E108F10888EE880E83E0981EA11CB11CBE
:1001B000C114D104E104F10419F7DDCFFF90EF90F1
:1001C000DF90CF90BF90AF909F908F900895CF9287
:1001D000DF92EF92FF920F931F93CF93DF936C0107
:1001E0007A018B01C0E0D0E0CE15DF0589F0D8019F
:1001F0006D918D01D601ED91FC910190F081E02D82
:10020000C6010995892B11F47E0102C02196ECCF1D
:10021000C701DF91CF911F910F91FF90EF90DF9079
:10022000CF900895089580E090E00895FC01538DEB
:10023000448D252F30E0842F90E0821B930B5417C0
:1002400010F0CF96089501970895FC01918D828D4D
:10025000981761F0828DDF01A80FB11D5D968C911A
:10026000928D9F5F9F73928F90E008958FEF9FEF25
:100270000895FC01918D828D981731F0828DE80FE1
:10028000F11D858D90E008958FEF9FEF0895FC019B
:10029000918D228D892F90E0805C9F4F821B910968
:1002A0008F739927089583E691E00E94470121E02A
:1002B000892B09F420E0822F0895FC01848DDF0151
:1002C000A80FB11DA35ABF4F2C91848D90E00196C9
:1002D0008F739927848FA689B7892C93A089B189B8
:1002E0008C9180648C93938D848D981306C00288C2
:1002F000F389E02D80818F7D80830895EF92FF92B6
:100300000F931F93CF93DF93EC0181E0888F9B8D38
:100310008C8D981305C0E889F989808185FD24C0FA
:10032000F62E0B8D10E00F5F1F4F0F731127E02E7D
:100330008C8DE8120CC00FB607FCFACFE889F9895A
:10034000808185FFF5CFCE010E945D01F1CF8B8DBD
:10035000FE01E80FF11DE35AFF4FF0820B8FEA898F
:10036000FB898081806207C0EE89FF896083E8890C
:10037000F98980818064808381E090E0DF91CF9172
:100380001F910F91FF90EF900895CF93DF93EC01B1
:10039000888D8823C9F0EA89FB89808185FD05C0A5
:1003A000A889B9898C9186FD0FC00FB607FCF5CFDF
:1003B000808185FFF2CFA889B9898C9185FFEDCF27
:1003C000CE010E945D01E7CFDF91CF91089580E0DB
:1003D00090E0892B29F00E94530181110C940000B8
:1003E0000895009769F0FC0101900020E9F731972A
:1003F000AF01481B590BBC0183E691E00C94E70068
:1004000080E090E008958F929F92AF92BF920F93F9
:100410001F93CF93DF93CDB7DEB7A1970FB6F894B4
:10042000DEBF0FBECDBF19A2423008F44AE08E01F4
:100430000F5D1F4F842E912CA12CB12CA50194018E
:100440000E947D05E62FB901CA0101501109EA3069
:1004500014F4E05D01C0E95CD801EC93232B242B5C
:10046000252B61F7C8010E94F101A1960FB6F894FF
:10047000DEBF0FBECDBFDF91CF911F910F91BF9017
:10048000AF909F908F9008954F925F926F927F925E
:100490008F929F92AF92BF92CF92DF92EF92FF9294
:1004A000CF93DF936B017C01B42E9B01AC010E94C2
:1004B0001707882319F082E191E01AC0260137015D
:1004C000E89477F82FEF3FEF4FE75FE7C301B20102
:1004D0000E941707811110C02FEF3FEF4FE75FE732
:1004E000C301B2010E94CF08181634F486E191E0EE
:1004F0000E94F101EC0185C02FEF3FEF4FE75FE471
:10050000C701B6010E94120718161CF48AE191E097
:10051000EFCF2FEF3FEF4FE75FECC701B6010E942F
:10052000CF0887FDF3CF20E030E0A901C701B60175
:100530000E94CF0887FF09C08DE20E947D00EC0178
:10054000F7FAF094F7F8F09402C0C0E0D0E0A12CE4
:1005500060E070E080E09FE3AB1440F420E030E026
:1005600040E251E40E941206A394F6CF9B01AC0135
:10057000C701B6010E94A6052B013C010E948B0613
:100580006B017C010E94D4089B01AC01C301B20144
:100590000E94A5052B013C014AE0C701B6010E945B
:1005A0000302C80FD91FBB2029F08EE20E947D00F4
:1005B000C80FD91FFB2CFF2021F120E030E040E2E2
:1005C00051E4C301B2010E9435092B013C010E9494
:1005D0008B064B01A12CB12C4AE0C501B4010E944D
:1005E0000302C80FD91FC501B4010E94D4089B01A2
:1005F000AC01C301B2010E94A5052B013C01FA9494
:10060000DACF8EE191E00E94F1018C0F9D1FDF9106
:10061000CF91FF90EF90DF90CF90BF90AF909F90E1
:100620008F907F906F905F904F9008950E941C076D
:100630001F920F920FB60F9211242F933F938F9317
:100640009F93AF93BF9380915B0190915C01A091C8
:100650005D01B0915E0130915A0123E0230F2D37E7
:1006600020F40196A11DB11D05C026E8230F0296B6
:10067000A11DB11D20935A0180935B0190935C01F1
:10068000A0935D01B0935E0180915F019091600144
:10069000A0916101B09162010196A11DB11D8093ED
:1006A0005F0190936001A0936101B0936201BF91DB
:1006B000AF919F918F913F912F910F900FBE0F900F
:1006C0001F9018951F920F920FB60F9211242F931F
:1006D0003F934F935F936F937F938F939F93AF93CA
:1006E000BF93EF93FF9383E691E00E945D01FF913A
:1006F000EF91BF91AF919F918F917F916F915F919A
:100700004F913F912F910F900FBE0F901F90189512
:100710001F920F920FB60F9211242F938F939F93D6
:10072000EF93FF93E0917301F09174018081E09168
:100730007901F0917A0182FD12C0908180917C0153
:100740008F5F8F7320917D01821751F0E0917C01C2
:10075000F0E0ED59FE4F958F80937C0101C08081C0
:10076000FF91EF919F918F912F910F900FBE0F905E
:100770001F901895CF93DF93CDB7DEB72C970FB6A8
:10078000F894DEBF0FBECDBF789484B5826084BD7F
:1007900084B5816084BD85B5826085BD85B5816085
:1007A00085BD80916E00816080936E001092810003
:1007B00080918100826080938100809181008160BE
:1007C000809381008091800081608093800080917F
:1007D000B10084608093B1008091B000816080930B
:1007E000B00080917A00846080937A0080917A00D2
:1007F000826080937A0080917A00816080937A0091
:1008000080917A00806880937A001092C100569A95
:10081000549AE0917301F091740182E08083E09139
:100820006F01F09170011082E0917101F0917201FD
:1008300080E1808310927B01E0917701F091780153
:1008400086E08083E0917501F0917601808180617E
:100850008083E0917501F0917601808188608083CA
:10086000E0917501F0917601808180688083E0914C
:100870007501F091760180818F7D80838BE8282E31
:100880003324339483E691E00E9447011816190639
:100890000CF003C160E070E0CB010E94AD0008E203
:1008A00011E02FB7F89480915B0190915C01A091C9
:1008B0005D01B0915E012FBF80936B0190936C013D
:1008C000A0936D01B0936E01E0916301F09164011A
:1008D0000284F385E02D83E691E0099597FD4BC0F6
:1008E000F80181938F01F1E00A351F07D1F661E22B
:1008F00071E088E291E00E942507909327018093A0
:1009000026010E9421076B017C0161E271E080E019
:1009100090E00E94250790932501809324010E9476
:1009200021074B015C0120E030E040E752E4C701C1
:10093000B6010E94350920E030E04AE754E40E9405
:100940003509A50194010E9412060E94BA060E9470
:1009500084066B017C0197FF34C08DE20E947D000C
:1009600088279927DC018C199D09AE09BF094AE047
:10097000BC01CD0127C02FB7F89480915B01909105
:100980005C01A0915D01B0915E012FBF40916B01B0
:1009900050916C0160916D0170916E01841B950BFB
:1009A000A60BB70B409167015091680160916901F6
:1009B00070916A0184179507A607B70708F484CFDA
:1009C00096CF4AE00E9403028EE191E00E94F1017D
:1009D00042E050E0C501B4010E9444025E9A5C9876
:1009E00064EF71E080E090E00E94AD000E9488001A
:1009F0000E94D4086D837E838F839887412C512C6D
:100A000032014C145D046E047F040CF045C00E945A
:100A100088000E94D40869877A878B879C875C9AB4
:100A2000C1010197F1F75C980E9488000E94D408E8
:100A300069837A838B839C832D813E814F81588586
:100A40000E94A50520E034E244E759E40E94120622
:100A50004AE050E00E94440229853A854B855C8536
:100A600069817A818B819C810E94A50520E030E01C
:100A70004AE754E40E9412069B01AC01C501B4018F
:100A80000E94A5050E948B060E94AD008FEF481AB8
:100A9000580A680A780AB5CF5E980E94E701F2CE3C
:100AA000E3E6F1E01382128288EE93E0A0E0B0E08A
:100AB00084839583A683B78384E091E091838083C8
:100AC00085EC90E09587848784EC90E09787868713
:100AD00080EC90E0918B808B81EC90E0938B828B0B
:100AE00082EC90E0958B848B86EC90E0978B868BE4
:100AF000118E128E138E148E0895A1E21A2EAA1B47
:100B0000BB1BFD010DC0AA1FBB1FEE1FFF1FA217BD
:100B1000B307E407F50720F0A21BB30BE40BF50BBA
:100B2000661F771F881F991F1A9469F76095709543
:100B3000809590959B01AC01BD01CF010895EE0F0A
:100B4000FF1F0590F491E02D09945058BB27AA2768
:100B50000E94BD050C94BC090E94AE0938F00E94A9
:100B6000B50920F039F49F3F19F426F40C94AB0931
:100B70000EF4E095E7FB0C94A509E92F0E94CD093E
:100B800058F3BA17620773078407950720F079F4C2
:100B9000A6F50C94EF090EF4E0950B2EBA2FA02DBC
:100BA0000B01B90190010C01CA01A0011124FF271A
:100BB000591B99F0593F50F4503E68F11A16F04015
:100BC000A22F232F342F4427585FF3CF4695379514
:100BD0002795A795F0405395C9F77EF41F16BA0BD9
:100BE000620B730B840BBAF09150A1F0FF0FBB1F87
:100BF000661F771F881FC2F70EC0BA0F621F731FD0
:100C0000841F48F4879577956795B795F7959E3F2C
:100C100008F0B0CF9395880F08F09927EE0F9795BD
:100C2000879508950E9426060C94BC090E94B50978
:100C300058F00E94AE0940F029F45F3F29F00C946F
:100C4000A50951110C94F0090C94AB090E94CD092F
:100C500068F39923B1F3552391F3951B550BBB27EB
:100C6000AA2762177307840738F09F5F5F4F220F30
:100C7000331F441FAA1FA9F335D00E2E3AF0E0E827
:100C800032D091505040E695001CCAF72BD0FE2F71
:100C900029D0660F771F881FBB1F26173707480705
:100CA000AB07B0E809F0BB0B802DBF01FF279358BD
:100CB0005F4F3AF09E3F510578F00C94A5090C94D3
:100CC000F0095F3FE4F3983ED4F3869577956795F6
:100CD000B795F7959F5FC9F7880F911D96958795F2
:100CE00097F90895E1E0660F771F881FBB1F621711
:100CF00073078407BA0720F0621B730B840BBA0BCF
:100D0000EE1F88F7E09508950E948B066894B11154
:100D10000C94F00908950E94D50988F09F5798F027
:100D2000B92F9927B751B0F0E1F0660F771F881FF0
:100D3000991F1AF0BA95C9F714C0B13091F00E940A
:100D4000EF09B1E008950C94EF09672F782F8827F9
:100D5000B85F39F0B93FCCF3869577956795B39531
:100D6000D9F73EF490958095709561957F4F8F4FA0
:100D70009F4F08950E94FA0690F09F3748F4911112
:100D800016F00C94F00960E070E080E89FEB0895A5
:100D900026F41B16611D711D811D0C94D1060C9447
:100DA000EC06882371F4772321F09850872B762F57
:100DB00007C0662311F499270DC09051862B70E06F
:100DC00060E02AF09A95660F771F881FDAF7880F80
:100DD0009695879597F908959F3F31F0915020F4AB
:100DE000879577956795B795880F911D9695879507
:100DF00097F908950E94D509A0F0BEE7B91788F4C5
:100E0000BB279F3860F41616B11D672F782F8827EF
:100E1000985FF7CF869577956795B11D939596392D
:100E2000C8F308950E94110908F48FEF08950E94F5
:100E30001109880B990B089581E090E0F8940C94C7
:100E4000470A662777270C94510740E052E00E943A
:100E50002A070895FA01A191B081009719F410971B
:100E6000E1F0CD01DC01CD010D90002011F4C001B5
:100E700013C0FB012191222319F02015D9F7F3CFDC
:100E8000FB012191201519F41E92119606C0222310
:100E9000C1F70D900020A1F7D001FA01A193B08312
:100EA0000895A0E0B0E0E7E5F7E00C94050AEC0156
:100EB0007B016115710519F0DB018D939C938E0107
:100EC0000F5F1F4F7880872D90E00E94AE08892B1E
:100ED00011F0E801F4CFBDE27B1205C00F5F1F4F98
:100EE0007980C1E008C0EBE27E1204C08E010E5F83
:100EF0001F4F7980C0E06801F1E0CF1AD10843E0CC
:100F000050E060E770E0C6010E94B708892BF1F459
:100F1000680122E0C20ED11C45E050E06BE670E0B3
:100F2000C6010E94B708892B21F4680187E0C80E2A
:100F3000D11CE114F10419F0D701CD92DC92C1115A
:100F4000FFC060E070E080E89FE703C143E050E04D
:100F500068E670E0C6010E94B708892B51F4E114DD
:100F6000F10409F4F2C00E5F1F4FF70111830083F3
:100F7000ECC0680160E070E0CB0100E010E0F60139
:100F8000D0EDD70DDA3058F52C2F2260622E2C2FA1
:100F90002870C2FF05C0211128C00F5F1F4F25C058
:100FA000222311F001501109A5E0B0E09B01AC0132
:100FB0000E94F6094B015C01880C991CAA1CBB1C01
:100FC000C501B4016D0F711D811D911D6839A9E91D
:100FD0007A078A07A9E19A0740F0C66005C0DE3F9C
:100FE00051F4C3FD44C0C8606C2EBFEFCB1ADB0ABE
:100FF0007080C62DC4CF2D2F2F7D2531C1F54081A6
:101000004D3211F4C06106C04B3221F0319621E01F
:1010100030E006C03296D60111964C9122E030E0C5
:10102000A0EDA40FAA3018F0E21BF30B20C040E0A3
:1010300050E04038BCE05B075CF49A01220F331F9C
:10104000220F331F420F531F440F551F4A0F511DCC
:101050003196DF0111972C91A0EDA20FAA3048F331
:10106000C4FF03C0519541955109040F151FC1FFDD
:1010700007C0E114F10421F03197D701ED93FC93FF
:101080000E94D408C370C33019F06B017C0106C004
:101090006B017C01F7FAF094F7F8F09420E030E06F
:1010A000A901C701B6010E94CF08882309F445C0F1
:1010B00017FF06C0119501951109C7E8D0E002C0DD
:1010C000CFE9D0E05E01B8E1AB1AB1084601BE2D10
:1010D000AF2D90E2E92EF12C0E151F0584F0FE01D4
:1010E0002591359145915491B4018B2F9A2F0E94EF
:1010F00035094B01B82FA92F0E191F09EDCF2497E1
:10110000F594E794CA15DB0539F76401EB2EFA2E46
:101110008E2D880F8F2D881F8F3F49F020E030E003
:10112000A901C701B6010E94CF08811106C082E261
:1011300090E09093030280930202C701B60109C0B8
:1011400060E070E080E89FEF04C060E070E080EC59
:101150009FE7CDB7DEB7EEE00C94210A91110C9415
:10116000A209803219F089508550C8F70895FB0113
:10117000DC014150504088F08D9181341CF08B355A
:101180000CF4805E659161341CF06B350CF4605E8C
:10119000861B611171F3990B0895881BFCCF0E9487
:1011A000110908F481E00895E89409C097FB3EF422
:1011B00090958095709561957F4F8F4F9F4F9923A4
:1011C000A9F0F92F96E9BB279395F6958795779522
:1011D0006795B795F111F8CFFAF4BB0F11F460FFE2
:1011E0001BC06F5F7F4F8F4F9F4F16C0882311F03A
:1011F00096E911C0772321F09EE8872F762F05C04E
:10120000662371F096E8862F70E060E02AF09A95E8
:10121000660F771F881FDAF7880F9695879597F9DD
:101220000895990F0008550FAA0BE0E8FEEF161677
:101230001706E807F907C0F012161306E407F507CA
:1012400098F0621B730B840B950B39F40A2661F03E
:10125000232B242B252B21F408950A2609F4A140E1
:10126000A6958FEF811D811D08950E9448090C9459
:10127000BC090E94AE0938F00E94B50920F0952300
:1012800011F00C94A5090C94AB0911240C94F009ED
:101290000E94CD0970F3959FC1F3950F50E0551F43
:1012A000629FF001729FBB27F00DB11D639FAA27BB
:1012B000F00DB11DAA1F649F6627B00DA11D661F0A
:1012C000829F2227B00DA11D621F739FB00DA11D2B
:1012D000621F839FA00D611D221F749F3327A00DE5
:1012E000611D231F849F600D211D822F762F6A2F81
:1012F00011249F5750409AF0F1F088234AF0EE0FE6
:10130000FF1FBB1F661F771F881F91505040A9F712
:101310009E3F510580F00C94A5090C94F0095F3FA5
:10132000E4F3983ED4F3869577956795B795F7954E
:10133000E7959F5FC1F7FE2B880F911D96958795C6
:1013400097F9089599278827089597F99F6780E866
:1013500070E060E008959FEF80EC089500240A9407
:101360001616170618060906089500240A94121680
:101370001306140605060895092E0394000C11F4B3
:10138000882352F0BB0F40F4BF2B11F460FF04C060
:101390006F5F7F4F8F4F9F4F089557FD9058440FB9
:1013A000551F59F05F3F71F04795880F97FB991FC4
:1013B00061F09F3F79F08795089512161306140681
:1013C000551FF2CF4695F1DF08C01616170618060E
:1013D000991FF1CF86957105610508940895E894E9
:1013E000BB2766277727CB0197F908950E94380A13
:1013F000A59F900DB49F900DA49F800D911D112469
:1014000008952F923F924F925F926F927F928F92A8
:101410009F92AF92BF92CF92DF92EF92FF920F9383
:101420001F93CF93DF93CDB7DEB7CA1BDB0B0FB68D
:10143000F894DEBF0FBECDBF09942A88398848884A
:101440005F846E847D848C849B84AA84B984C884E0
:10145000DF80EE80FD800C811B81AA81B981CE0FD7
:10146000D11D0FB6F894DEBF0FBECDBFED010895BC
:10147000A29FB001B39FC001A39F700D811D1124D5
:10148000911DB29F700D811D1124911D0895F89436
:02149000FFCF8C
:10149200000000007E01E7001601C5014701250199
:1014A20039016E616E00696E66006F7666000D0A24
:0414B200002C00000A
:00000001FF
