:1000000000800020BD0100005D1A0000291A0000D8
:10001000291A0000291A0000291A0000291A0000D4
:10002000291A0000291A0000291A00005D1A000090
:100030005D1A0000291A0000C91300008D14000089
:100040005D1A00005D1A00005D1A00005D1A0000D4
:100050005D1A00005D1A00005D1A00005D1A0000C4
:100060005D1A00005D1A00005D1A00005D1A0000B4
:100070005D1A00005D1A00005D1A00005D1A0000A4
:100080005D1A00005D1A00005D1A00005D1A000094
:100090005D1A00005D1A00005D1A00005D1A000084
:1000A0005D1A00005D1A00005D1A00005D1A000074
:1000B0005D1A00005D1A00005D1A00005D1A000064
:1000C0005D1A00005D1A00005D1A00005D1A000054
:1000D0005D1A00005D1A00005D1A00005D1A000044
:1000E0005D1A00005D1A00005D1A00005D1A000034
:1000F0005D1A0000FD2B00005D1A0000192D0000A4
:100100005D1A0000352E00005D1A00005D1A000027
:100110005D1A00005D1A00005D1A00005D1A000003
:100120005D1A00005D1A00005D1A00005D1A0000F3
:100130005D1A00005D1A00005D1A00005D1A0000E3
:100140005D1A00005D1A00005D1A00005D1A0000D3
:1001500075150000891500009D150000B1150000FF
:100160005D1A0000992000005D1A00005D1A000071
:100170005D1A00005D1A00005D1A00005D1A0000A3
:100180005D1A00005D1A00005D1A00005D1A000093
:100190005D1A00005D1A00005D1A00005D1A000083
:1001A0005D1A00005D1A00005D1A00005D1A000073
:1001B0005D1A00005D1A00005D1A0000564B4CF2FB
:1001C000205210B51A804DF628121A8000BF00BFC9
:1001D00001F048FC514B4FF010621A60504A9A608F
:1001E000504ADA60504A136813F4807301BF4F49D4
:1001F0000B604FF4A85313604D4B4E491A7810070B
:1002000042BF1A7842F008021A704B4B2A221A7029
:100210004A4A4B4B8B4204D252F8040F43F8040B6A
:10022000F8E7484B484A0021934202D243F8041BA6
:10023000FAE7464A4648002350F8231042F82310B4
:1002400001336F2BF8D1434B434A802103F8011B44
:100250009342FBD1414B3D4A1A60414B8A221A70AE
:10026000A3F5805324225A70A0221A709A7991071C
:10027000FCD59A79D206FCD43A4A937903F00C0360
:10028000082B384BF9D105221A7143225A719A79F9
:100290009406FCD533498A79324B5006FBD5324A55
:1002A0004FF0817111600521516020221A709A79F6
:1002B00002F00C020C2AFAD12C4B2D4A1A602D4B5D
:1002C0002D4A1A6000225A60072243F8042C2B4A58
:1002D000C3F80C2D62B601F0C3FD144B1B68DA079E
:1002E00005D5274801F044FD264B274A1A60274BC5
:1002F0001B785B0609D5234C234B22689A4204D114
:100300001F4801F035FD0023236003F091FD01F04B
:10031000AFFB01F0C5FAFEE70E2005403080044037
:10032000823F04000100002B10D0034014D0034092
:1003300002D007406490FF1F00E00740A476000051
:100340002087FF1F6490FF1F4095FF1F0082FF1F43
:100350000000000000E400E05FE400E008ED00E0E1
:1003600000500640004006404480044004800440A1
:10037000C010050014E000E03F190100000020203B
:100380007E84575B1CE00340A5C3945A00F00740ED
:10039000FFFFFFFFFFFFFFFFFFFFFFFFFFFFFFFF6D
:1003A000FFFFFFFFFFFFFFFFFFFFFFFFFFFFFFFF5D
:1003B000FFFFFFFFFFFFFFFFFFFFFFFFFFFFFFFF4D
:1003C000FFFFFFFFFFFFFFFFFFFFFFFFFFFFFFFF3D
:1003D000FFFFFFFFFFFFFFFFFFFFFFFFFFFFFFFF2D
:1003E000FFFFFFFFFFFFFFFFFFFFFFFFFFFFFFFF1D
:1003F000FFFFFFFFFFFFFFFFFFFFFFFFFFFFFFFF0D
:10040000FFFFFFFFFFFFFFFFFFFFFFFFDEF9FFFF23
:1004100010B5054C237833B9044B13B10448AFF33E
:1004200000800123237010BD6490FF1F00000000B6
:10043000A0760000084B10B51BB108490848AFF37F
:1004400000800848036803B910BD074B002BFBD0A0
:10045000BDE81040184700BF000000006890FF1F73
:10046000A07600006490FF1F0000000003684FF0BA
:100470000042DA625963DA6A002AFCDA986BC0B289
:100480007047FFFFF7B50D4602A901E90C00009B7C
:10049000A96A0A2B98BF164A044694BF52F8230053
:1004A0004FF07E5003F0CCFA019B052B98BF114A08
:1004B0000746B5F9580094BF52F823604FF07E56B6
:1004C00003F06AFA394603F0BBFA2060B5F95A0026
:1004D00003F062FA394603F0B3FA6060E86D03F0A6
:1004E00057FA314603F0ACFAA060204603B0F0BDE5
:1004F0005872000084720000C37830B5002B3FD1E1
:10050000204BDA7AF2B172B6DA7AD40705D51E49F1
:10051000DA680C6822409A610A60DA7A194C91070D
:1005200005D51A4922690D682A40E2610A60DA7A23
:10053000144C520705D5164962690D682A4022629B
:100540000A6062B61B68134AD968914207D0124903
:100550001960DA6002F180421A61104A1A60027969
:100560000F4B53F83220012382F80031C37000BFD3
:1005700000BF00BF00BF00BF00BF00BF00BF00BF83
:1005800030BD00BF2487FF1F80E100E084E100E070
:1005900088E100E00100023E01403F0000003F8092
:1005A000B4730000C378F3B102790F4B53F83230C3
:1005B000012283F880200D4BDA7A92B1D10742BF35
:1005C0000B4A99691160DA7A920741BF074AD169EB
:1005D000084A1160DB7A5B0741BF044B1A6A064B7D
:1005E0001A600023C3707047B47300002487FF1F94
:1005F00000E100E004E100E008E100E070B5124C29
:100600000E460546FFF778FF06F07F012046FFF70C
:100610002DFF4FF41663013BFDD100212046FFF76B
:1006200025FF044600BF00BF00BF00BF00BF00BFE2
:1006300000BF00BF00BF2846FFF7B4FF4FF4F073C0
:10064000013BFDD1204670BD2487FF1F38B50F2127
:100650000546FFF7D3FF00EB800000EB800044006D
:10066000A4B22C84204603F093F901464FF07E504B
:1006700003F09AFAA862204638BD38B51B2104461B
:10068000FFF7BCFF1A2105462046FFF7B7FF0146DA
:10069000284600F0B7FF3223B0FBF3F080B260844D
:1006A00038BD38B51D210446FFF7A8FF1C210546BB
:1006B0002046FFF7A3FF0146284600F0A3FF3223A0
:1006C000B0FBF3F080B2A08438BDFFFFF8B50D4C4D
:1006D0000F4616460546FFF70FFF47F080012046FC
:1006E000FFF7C4FE31462046FFF7C0FE4FF4F0731B
:1006F000013BFDD12846FFF755FF4FF43463013B22
:10070000FDD1F8BD2487FF1F312910B504464FF0F5
:10071000320005DD42F208039942A8BF194600E005
:100720000146B1FBF0F22046D2B20F21FFF7CEFF17
:100730002046BDE81040FFF789BF01EB810138B5C5
:1007400001EB81014C00A4B2054604F0FE021A211F
:10075000FFF7BCFF2846220A1B21FFF7B7FF2846F8
:10076000BDE83840FFF789BF2DE9FF41044602226A
:100770003921FFF7ABFF1D2213212046FFF7A6FF0B
:100780000A2001F057FB182213212046FFF79EFF95
:100790002046FFF7B1FEE2211748184FFFF766FE2B
:1007A00000254FF4B478EE5D4346013BFDD112487D
:1007B0003146FFF75BFE012D0CD110223146684611
:1007C00000F083FF694604F1100000F0D3FF684693
:1007D00000F01BFF013540F6FE339D42E3D1F023CC
:1007E000013BFDD12046FFF7DDFE4FF47063013B76
:1007F000FDD104B0BDE8F0812487FF1F58660000DA
:1008000010B520210446FFF7F9FE202100F0F00288
:100810002046FFF75BFF0120BDE8104001F00ABB56
:1008200010B50446FFF7BEFEFFF766FEFFF7BAFEFF
:100830005A223A21FFF74AFF322001F0FBFA022147
:100840002046FFF7DBFE03212046FFF7D7FE0421F9
:100850002046FFF7D3FE05212046FFF7CFFE0621F5
:100860002046FFF7CBFE2046FFF77EFF0A2001F06F
:10087000E1FA2046FFF7C4FF0120BDE8104001F077
:10088000D9BA10B5FF2204461421FFF71FFF2046F6
:10089000FF221621FFF71AFF2046FF221821BDE88C
:1008A0001040FFF713BF10B52E210446FFF7A6FE38
:1008B00040F01F02D2B220462E21BDE81040FFF7C3
:1008C00005BFFFFF437810B504464BB901210079FD
:1008D00001F05EFA104800F0B9FB642001F0AAFABA
:1008E0002378ABB92046FFF79BFF218C2046FFF70A
:1008F0000BFF618C2046FFF720FF2046FFF7D1FE5B
:100900002046FFF7BEFF2046FFF7CDFF01232370EF
:100910000123637010BD00BF2487FF1F10B5044B77
:100920000184B3FBF2F24284FFF7CCFF012010BD3B
:1009300040420F00437870B504460BB9FFF7C2FF81
:10094000A3780BB10023A37072B62046FFF7D4FD45
:1009500004F1400650211148FFF788FD0E2332466E
:1009600031460E4800F0AEFB01F044FA0025E0628B
:10097000206329466563A563E5630E22304601F0D6
:1009800031F81022294604F1500001F02BF82046DE
:10099000FFF708FE0123A37062B670BD2487FF1F16
:1009A00038B5837804460BB9FFF7C4FF01F022FA8B
:1009B000236BA28CC01A824202D902F069F8F5E7D3
:1009C00072B62046FFF798FD50211D48FFF74EFDF7
:1009D00004F1400211460E23194800F073FB01F0A8
:1009E00009FA256B451B2046FFF7DCFD236D01331B
:1009F000236501F0FFF9E36A94F8432094F8451069
:100A0000E565C01A236B60652B44236394F842307C
:100A100043EA022294F8443043EA0123616B12B2A4
:100A2000A4F858200A446263A26B1BB2A4F85A309F
:100A30001344A363E36B1D44E56362B638BD00BF96
:100A40002487FF1F704710B50446103000F0DDFD0D
:100A5000204610BD10B5074C04F1200000F0D5FD74
:100A600004F1100000F0D1FD2046BDE8104000F078
:100A7000CCBD00BF2492FF1F10B5074C04F120002D
:100A800000F0C3FD04F1100000F0BFFD2046BDE8FA
:100A9000104000F0BABD00BF1C91FF1F014800F0DC
:100AA000B4BD00BF0C91FF1F10B5044600F040FD1F
:100AB000204610BD094A08B5094B11681B680B4454
:100AC000136001F097F9074B074A1B68C01A074BE0
:100AD000186013680133136008BD00BF5C92FF1FEC
:100AE0000891FF1F0091FF1F0491FF1FF490FF1F4B
:100AF0002DE9F043A7B001F07DF9614B614C1B6813
:100B0000C01A614B186061482668FFF749FF01F081
:100B100071F95F4B5D491B68C01A5E4B206001ACE8
:100B20000CCB2046FFF7AEFC94E807001EAB83E831
:100B3000070052231C968DF874301CAD0FCD21ACEC
:100B40000FC42B682360544C2196D4F8CC30DFF8C6
:100B500048E1143304F1C807C4F8CC30BB424FF06D
:100B600052038DF8883021AE0FCE08BFC4F8CC40B8
:100B7000D4F8CCC065460FC533682B60B4F8D030CC
:100B80000A2B08D1DEF8C8301433BB4208BF7346C5
:100B9000CEF8C83005E05A1CAEF8D0200BB9CEF81C
:100BA000C8C03E4B3C4D1A68002AA2BF1A6802F129
:100BB000FF321A60B4F8D020002A5BD0D5F8C830D4
:100BC00003F11400C5F8C800D3F808801968DE687E
:100BD000D3F81090013AB842A4F8D02004A84FF0FE
:100BE0000A0228BFC5F8C85000F082FD4146032222
:100BF00008A800F0D0FD314603220CA800F0CBFD80
:100C00000322494610A800F0C6FD254914A800F0AB
:100C10003CFD04A918A800F0A2FD2C2118A800F0A2
:100C200021FE08A900F008FE2C2100F01BFE0CA9F3
:100C300000F002FE2C2100F015FE10A900F0FCFDD2
:100C400014A900F0F9FD0146164800F0BBFC18A8F5
:100C500000F0DBFC14A800F0D8FC10A800F0D5FCD4
:100C60000CA800F0D2FC08A800F0CFFC04A800F00B
:100C7000CCFC9FE7FFF71EFF27B0BDE8F08300BF65
:100C80005C92FF1FF490FF1F0891FF1F9490FF1FBD
:100C90000091FF1F9C7200005091FF1F4C91FF1F9D
:100CA000A47200007087FF1F38B54FF4C87001F0C0
:100CB000C1F8164C164D174817492378002BFCD065
:100CC0002B789B07F9D003680A689B1A182BF4D974
:100CD0000A2001F0AFF84FF4C87001F0ABF84FF400
:100CE0007A7240F648510D48FFF718FE1E2001F0B9
:100CF000A1F80020022101F04BF8094B1B690120EB
:100D000083F88000BDE8384001F094B85F93FF1F7E
:100D10007093FF1F7C92FF1F3895FF1F9490FF1F59
:100D2000B473000000B53E4C237895B003F0FF0586
:100D3000002B74D13B49684600F0A7FC3A4904A84F
:100D400000F0A3FC394908A800F09FFC08A90CA8F2
:100D500000F005FD2C210CA800F084FD344900F0C2
:100D60006BFD344900F070FD694600F065FD3249C5
:100D700000F06AFD2C2100F075FD304900F05CFDAB
:100D80002C4900F061FD694600F056FD2A4900F04B
:100D90005BFD2C2100F066FD294900F04DFD254941
:100DA00000F052FD04A900F047FD234900F04CFD7E
:100DB000244900F049FD014610A800F0D0FC10A91C
:100DC000214800F0FFFB10A800F01FFC0CA800F069
:100DD0001CFC08A800F019FC04A800F016FC6846EA
:100DE00000F013FC1948FFF7A5FD1848FFF7D8FDE0
:100DF00001232370164B174C1D6000F0FBFF164BB0
:100E00002060186000F0F6FF2368C01A134B1860CA
:100E1000FFF750FE124A1349134800F041FBFEE76A
:100E20008090FF1FCD720000D0720000D3720000CE
:100E30002492FF1FE2720000E07200003492FF1F54
:100E40004492FF1FA47200007087FF1F9490FF1F41
:100E50000491FF1F5C92FF1F0091FF1F0891FF1F6D
:100E6000D7490200F10A0000F890FF1F30B5504941
:100E70005048514D85B000F008FC504A50490020C0
:100E800002F078F84F49504800F0FFFB4F495048B6
:100E900000F0FBFB4F49504800F0F7FB474A4F4931
:100EA000002002F067F84349684600F058FC5F21D3
:100EB000684600F0D7FC444900F0BEFC01464848B3
:100EC00000F04DFC684600F0A0FB3A49684600F08F
:100ED00046FC5F21684600F0C5FC3D4900F0ACFCD3
:100EE0000146404800F03BFC684600F08EFB31496B
:100EF000684600F034FC5F21684600F0B3FC3649D8
:100F000000F09AFC0146384800F029FC684600F0E1
:100F10007CFB2A4A3549002002F02CF83449354838
:100F200000F0B3FB254A3449324802F023F800248C
:100F3000142321466B6005F110000E23AB60AC70EA
:100F40002C706C70EC7000F0A0FB00F053FFE862B6
:100F500000F050FF194A28632849284602F00AF891
:100F60002748164A274904608023037102F002F8DB
:100F7000254800F053F825494C220B191434C82C8D
:100F800022481A71F9D100230C4A2149A0F8D03027
:100F9000C0F8C800C0F8CC0001F0ECFF00F02AFF58
:100FA0001C4B186000F026FF1B4B186005B030BDCD
:100FB000E57200000C91FF1F9490FF1F2087FF1F18
:100FC0009D0A0000EA7200001C91FF1FED720000F4
:100FD0002C91FF1FF07200003C91FF1F790A000066
:100FE0002492FF1F3492FF1F4492FF1F550A0000F6
:100FF000F37200008490FF1F0B160000470A0000E8
:10100000F890FF1FA90A00005492FF1F5091FF1F84
:10101000450A00000091FF1F5C92FF1F00220A2179
:10102000026081808271C2717047C38B1B0441BF13
:10103000C38BC1F3080103F47E43194358BFC1F3C6
:101040000E01C183C38B9BB2C3827047436819688A
:101050005A6810B50C6822430A600268154911608D
:101060001549D16001F18041116114491160417A43
:10107000134A5C180A3194F8244053F8211002EB0B
:10108000C40464682160017A5C1803EB8101247E4A
:10109000C96902EBC40464682160817A581803EBC3
:1010A000810390F830005B6B02EBC0025268136062
:1010B00010BD00BF01401F000110003800001F805C
:1010C000B47300002DE9F041002B00F0DC800468CF
:1010D0006E4EE568266015F0807F03F001056DD146
:1010E00095B141B14D1C0978012B18BF41F0004169
:1010F0006163294606E090F82450012B18BF45F0A3
:10110000004565635E1E00E01E4690F8244044EAF8
:101110000424002E3ED031B10D46497815F8024B1B
:1011200041EA04242946456807682D7A022E05F114
:10113000FF354FEA05350CBF44F0805E44F0104E99
:10114000ADB2C7F834E0023ED0F800E0DEF82C7013
:1011500017F0F00F14D013F0010FDEF838C005D0EF
:1011600012B182F800C00132013B09E03AB1964663
:101170004FEA2C280EF8028B82F801C07246023B1F
:1011800007F47047AF42DFD8C3E70168CC6A14F0B8
:10119000F00F02D1002BF8D175E08C6BD90704D584
:1011A0000AB114700132013BF4E72AB1114625124D
:1011B00001F8025B54700A46023BEBE795B141B17E
:1011C0004D1C0978012B18BF41F00041616329468D
:1011D00006E090F82450012B18BF45F000456563E8
:1011E0005E1E00E01E4690F82470002E37D021B11C
:1011F0004F780C78023144EA072744680568247A5E
:10120000022E04F1FF344FEA04340CBF47F0805E35
:1012100047F0104EA4B2C5F834E0023E0568D5F898
:101220002CE01EF0F00F10D013F0010FAD6B04D0C6
:101230000AB115700132013B07E02AB194460CF85F
:10124000025B2D1255706246023B0EF4704EA645AD
:10125000E4D8CAE70168CC6A14F0F00F02D1002B81
:10126000F8D110E0DC07896B04D50AB111700132A6
:10127000013BF4E72AB1144604F8021B091251702D
:101280002246023BEBE7BDE8F08100BF00041F806F
:1012900070B5036B1A79304B1A70C36A1A792F4BE9
:1012A0001A70026B12791A70826A0446002A3FD0C3
:1012B0004368D9688A4203D9521A8262012110E038
:1012C000C36A511E1868FFF7B0FE236BA16A186845
:1012D000FFF7ABFEA16A002311F1FF3118BF012116
:1012E000A362E36A1B68186804F124029042226832
:1012F00005D1D36894F8243043F000430EE0D06861
:1013000010F0804F186815BF1D681D6800880078B0
:1013100014BF023501351D6040F000435363236B59
:101320001A790F4B1A70A9B1E26A12791A7070BD5E
:1013300003680C491A63D962D96821F08041D960E9
:10134000032380F82530406B036811461B68BDE815
:101350007040184770BD00BF1F8000401C800040D7
:101360001B80004000000FFF08B50248FFF790FF08
:1013700008BD00BF2487FF1FEFF3108072B6B0FADC
:1013800080F04009704700B162B67047F8B50C4E66
:101390000C4F0025FFF7F0FF346802466CB163691B
:1013A00033600BB19D6100E03B601046FFF7EBFF3F
:1013B0006577A36820469847ECE7FFF7E4FFF8BDA0
:1013C0006092FF1F6492FF1FFFF7E0BF15490B6893
:1013D00030B513B98360C36009E004681A689442A9
:1013E00007D20025121B8360C560D8601A600860B0
:1013F00015E002681C689968121B026061B10C68F4
:10140000A2420B46F5D28160C968C160D860C1684C
:10141000A21A88601A6002E08160C36098600223AB
:10142000037530BD6892FF1F70B5164D2C680026FD
:10143000BCB1236813B1013B236012E0A26802B182
:10144000D36020692A60036826751B682246002144
:10145000984763681BB123602046FFF7B7FF2C68ED
:10146000E6E7FFF789FF084B00221C681A60FFF7C8
:101470008AFF2CB1A5682046FFF7A8FF2C46F8E7A5
:1014800070BD00BF6892FF1F7892FF1F024A136869
:1014900001331360FFF7C8BF7C92FF1F7047FFFF47
:1014A000036830B523B100249C600124DC6017E0A0
:1014B000194C236843F40003236000BF174B012439
:1014C0001C6003F58073164C036003689D683DB192
:1014D0001033A3420360F8D900230360184630BDDF
:1014E0000468104B226023441B110F4D0322A2609D
:1014F0000E4A45F823100179995444335A11920049
:1015000002F1604202F56142012003F01F0300FA7C
:1015100003F3136030BD00BF3C8004400070034003
:101520003F710340008FFCBF5C87FF1F44E400E075
:10153000016830B5A1B10B4B0B441B1103F1440200
:101540005511012402F01F0204FA02F2064C44F87D
:101550002520064A064C42F8234000238B60036096
:1015600030BD00BF008FFCBF80E100E05C87FF1F43
:101570009D140000024B01221A60024B1B681847A1
:101580000C7103405C87FF1F024B01221A60024B63
:101590005B6818471C7103405C87FF1F024B0122E8
:1015A0001A60024B9B6818472C7103405C87FF1F31
:1015B000024B01221A60024BDB6818473C71034062
:1015C0005C87FF1F2DE9F04100258C688AB0074633
:1015D00088462E4694B12B46212201A9404600F0B0
:1015E00047F93B68202C22465B6828BF202201A9CE
:1015F00038461544A41A98470644EBE730460AB02B
:10160000BDE8F08141EA0020704710B5044600684B
:1016100002F058FC204610BD38B504460D4600685F
:10162000013102F077FF10B184E82100012038BDBC
:1016300043688B4210B5044606D2FFF7EDFF20B198
:10164000A3680BB922681370012010BDF8B50446D9
:101650000F46154622B9036803B11A7000230BE048
:101660001146FFF7E5FF064640B9206810B102F0C9
:1016700029FC266000236360A36004E0A56039466E
:10168000206803F051F92046F8BD38B50023044620
:1016900003604360836003730D4639B1084603F06D
:1016A000AFF9294602462046FFF7D0FF204638BD55
:1016B00038B5054608460C4603F0A2F92146024615
:1016C0002846BDE83840FFF7C1BF10B504460023E7
:1016D00086B023606360A3602373084601A902F00B
:1016E000E7FB01A92046FFF7E3FF204606B010BD47
:1016F00010B5044600238AB023606360A36023739F
:10170000084601A900F0ECF901A92046FFF7D0FF37
:1017100020460AB010BD38B5054600680C4660B1D9
:101720006A688B689A4206D3096803F0FDF8A368DB
:10173000AB6000230AE002F0C5FB23682B606368FE
:101740006B60A368AB60002323606360A36038BD57
:10175000814203D08A680968FFF778BF704710B5E7
:10176000002304460360436083600373FFF7F0FFC8
:10177000204610BD884210B5044601D0FFF7CBFFCC
:10178000204610BD10B5044611B1FFF791FF00E0EF
:10179000A160204610BD10B5044600238AB0236026
:1017A0006360A360237308466B46911C00F0A8F9A0
:1017B00001462046FFF7E6FF20460AB010BD2DE99E
:1017C000F843036885688B4204460E46904606D867
:1017D0005A19914203D2C3EB0109012700E0002707
:1017E000B8F1000F17D0454429462046FFF720FFE7
:1017F00088B1A06823684FB1424603EB0901184441
:1018000000F056F8236800225A5503E03146184488
:1018100003F08AF8A5602046BDE8F88313B50023DD
:101820008DF80410012201A904468DF80530FFF758
:10183000C6FF204602B010BD10B58A68096804468C
:10184000FFF7BDFF204610BD38B505460C4639B13F
:10185000084603F0D5F8214602462846FFF7AFFFB9
:10186000284638BD10B50446FFF7D8FF204610BD06
:1018700070B50E469AB191B185689D4202D8002399
:101880000B7070BD541EED1A0168AC4228BF2C4687
:1018900019442246304603F021F90023335570BD28
:1018A00008B5FFF701FAFFF73DFA01F0F1F8FAE7A2
:1018B000844641EA000313F003036DD1403A41D35B
:1018C00051F8043B40F8043B51F8043B40F8043B1A
:1018D00051F8043B40F8043B51F8043B40F8043B0A
:1018E00051F8043B40F8043B51F8043B40F8043BFA
:1018F00051F8043B40F8043B51F8043B40F8043BEA
:1019000051F8043B40F8043B51F8043B40F8043BD9
:1019100051F8043B40F8043B51F8043B40F8043BC9
:1019200051F8043B40F8043B51F8043B40F8043BB9
:1019300051F8043B40F8043B51F8043B40F8043BA9
:10194000403ABDD2303211D351F8043B40F8043B49
:1019500051F8043B40F8043B51F8043B40F8043B89
:1019600051F8043B40F8043B103AEDD20C3205D359
:1019700051F8043B40F8043B043AF9D2043208D051
:10198000D2071CBF11F8013B00F8013B01D30B88C3
:1019900003806046704700BF082A13D38B078DD0A1
:1019A00010F003038AD0C3F10403D21ADB071CBF73
:1019B00011F8013B00F8013B80D331F8023B20F8DD
:1019C000023B7BE7043AD9D3013A11F8013B00F816
:1019D000013BF9D20B7803704B7843708B7883709E
:1019E0006046704701B5EAB1102A17DB00F0070323
:1019F00033B1C3F10803D21A013B00F8011BFBDC31
:101A0000C9B241EA012141EA01418C46D308013BB8
:101A1000E0E8021CFBDC12F0070203D0013A00F8F8
:101A2000011BFBDC01BD00BF08B50B4D2C462B682C
:101A3000580301D500F030FB2368590501D501F0AA
:101A4000DDF823681A0501D501F066F92368DB0487
:101A5000EDD501F0EFF9EAE73480044008B5FFF76F
:101A6000E3FFFFFF014B10221A8070470020054062
:101A70007047FFFF094908B50B6868B16A4618440A
:101A8000A2F58052904206D302F0CCF90C230360F9
:101A90004FF0FF3008BD0860184608BD6C87FF1F77
:101AA00030B503460020B3FBF2F402FB1433092BDC
:101AB00094BF30333733DBB20B5423460CB10130C3
:101AC000F1E70A1823465470C41AA34206DACC5C24
:101AD0001578CD5402F801490133F5E7084630BDC9
:101AE000031E10B50C4603DBBDE81040FFF7D8BF5E
:101AF0002D2001F8010B5842FFF7D2FF204610BD00
:101B00002DE9F04381EAE17985B00F46A9EBE1794F
:101B10000146064615461C4602F058F978B30021E6
:101B2000304602F02BF9002814BF0420032048455A
:101B3000B4BFC0EB09050025002F07DA6019202388
:101B4000844202D004F8013BFAE7002530464FF00A
:101B50007E5363F31E00002102F010F910B12D2313
:101B60002370013441234E226370E31C2270A27063
:101B70005819202283423CD003F8012BFAE726F0C3
:101B800000487749404602F021F9A8BB4046744915
:101B900002F0FEF8804678BB0021304602F0EEF8F5
:101BA000002814BF042003204845B4BFC0EB09053A
:101BB0004546002F07DA60192023844202D004F83A
:101BC000013BFAE700250021304602F0D7F810B1BA
:101BD0002D2323700134492323704E234622637042
:101BE000E31CA27058192022834202D003F8012B73
:101BF000FAE700230370B0E002AB01AA29463046A1
:101C000002F000F9814665B9019B53B990F8009044
:101C1000544B554AB9F1340F94BF9146994601236C
:101C20000193019B5B429D42BCBFDFF83C916B423C
:101C30004846B8BF019302F0E3FE019B98428046FC
:101C4000C8BF00F10108002B02D108F1010825E00E
:101C500024DA1DB32B44984205F102081ED9A94687
:101C6000B9F1000F07DD3046404901F0E9FE09F106
:101C7000FF390646F4E7002DACBF691B294602ABCD
:101C800003AA304602F0BEF8019B039A691CD21ADF
:101C90008A4208BF0133814608BF0193029808B108
:101CA00008F10108C8EB0703002B04EB080208DD6C
:101CB0001A44214623442026994203D001F8016B9F
:101CC000FAE7234610B12D2119700133019900293B
:101CD00009D135B11946302001F8020B2E20587079
:101CE0000B462E2522E0FCDA002DFAD01D463020CE
:101CF00005F8020B2E265E702B46C91A00255E18C9
:101D000003D503F8010B0125F9E7002DE9D0019671
:101D1000E7E7581C19F8011B1970824209D0019994
:101D20000139019109B9981C5D7003469A42F0D8B7
:101D300000E01346002F0DDA47447F421946202069
:101D40007A1A1A44002A02DD01F8010BF8E7002F85
:101D5000A8BFDB1900221A70204605B0BDE8F08349
:101D6000FFFF7F7FB2730000B073000000002041CE
:101D7000044B054900221A600A60044A10601022D0
:101D80001A60704714D0034004D0034000D00340D1
:101D9000212810B52BD8164A02EBC00301295B6835
:101DA000144601D004290FD154F83020012082F8C4
:101DB00080024FF4A2721A601A6804290CBF42F024
:101DC000200222F0200211E052F83000002280F8B8
:101DD000802211B94FF4807208E0022902D140F24A
:101DE000031203E0032908BF4FF481721A6010BD8B
:101DF000B473000072B60C4B0C4A0D491B68126894
:101E0000096862B6490102D5322B88BF0132C3F599
:101E10008C33482003F23F13B3FBF0F34FF47A7096
:101E200000FB0230704700BF18E000E07C92FF1F0B
:101E300004ED00E038B50446FFF7DCFF054624B9A1
:101E400038BD013C0AD005F57A75FFF7D3FF401B7A
:101E5000B0F57A7FF5D200F01BFEF6E738BDFFFF44
:101E6000214B4FF4000210B51A604FF080721A60D7
:101E70004FF000721A604FF080621A604FF00062FB
:101E80001A601A4B1A4A1B4C002048F6FF71186062
:101E90005960282313609360136193611362936206
:101EA000136393630922226004F580540434206094
:101EB0006160A360236144F8042C04F5FE242060D3
:101EC0000D4801600D490B608B600D4B1A6000F0EE
:101ED00029FE3220FFF7AEFF00F0EAFB4FF4AF70AF
:101EE000BDE81040FFF7A6BF08E100E00480034012
:101EF0000C8003400080034008800B400C800B40A6
:101F000000800B40F0B50C4C0C4E23780C4D43F088
:101F1000020706EBC70283F0010350602A782370A2
:101F2000002A14BFC820882082F0010240EA014143
:101F30002A7046F83710F0BDE892FF1F0080FF1F9F
:101F40006093FF1F431E032B10B510D872B6094AC9
:101F500052F8230048B1416842F82310064904882A
:101F600031F81320121B21F8132062B610BD002097
:101F700010BD00BFD892FF1F2895FF1F013803280E
:101F80000AD872B6054B53F82030002013B1013047
:101F90005B68FBE762B67047002070472C93FF1F19
:101FA00070B472B6174C184901231A1912F8012C93
:101FB00012071DD59A00144E51F832502DB906EB78
:101FC000431308305860114B09E042F0010251F808
:101FD00032506DB906EBC203083058600C4B46F81E
:101FE00032300C4A1378013B137062B670BC7047F4
:101FF0000133052BD9D162B6064B00221A7070BC92
:1020000000F0CABBEC7400000080FF1F8800400095
:10201000C80040005693FF1F431E032B10B532D853
:10202000194A400140F01000104472B6174AD45CBF
:10203000032C0BD8DFE804F018040207052414E091
:102040000830022411E0083004240EE01048114A40
:1020500050F8234014B940F8231002E052F823004E
:10206000416042F823100DE00324D45410F0080F0F
:1020700001F108030A88436014BFC823882343EA98
:102080000243036062B610BD0080FF1F9492FF1FE1
:102090002C93FF1F3C93FF1F2DE9F74FA94B1C7892
:1020A000E4B214F0040F1D461AD0A74B1B78A3B15D
:1020B000A64A117801F0FF0321B1013BDBB2137096
:1020C00003B900BEA24A117801F0FF0329B1013B18
:1020D000DBB213700BB900F0B7FC9A4A04231370FB
:1020E00004F0080303F0FF02002B00F07182994B0B
:1020F000994C1B78DBB21F094FEA930640F0EC8144
:1021000004EBC603596854F83630C3F38303013B2C
:102110000C2B00F2DD81DFE813F09A019A01DB015C
:10212000DB01DB01DB01DB01DB01B901DB01DB01F1
:10213000DB010D000A68894D89484B682A6001213E
:102140006B60DFF85082874B017092B240F2816081
:1021500044F8363082424FF00003C8F80030236163
:10216000A36117D8B2F5D06F80F02781B2F5817FD7
:1021700000F0D88006D8802A00F0C180822A00F0C2
:10218000C28035E140F202339A4200F00781B2F595
:10219000A06F1AE042F22100824200F055810CD873
:1021A000B2F5086F00F0A580B2F5106F40F0208105
:1021B000654AA97811701E460AE042F221218A423E
:1021C00000F00E8142F221339A4200F015810FE1B6
:1021D000A219136A1F0603D5506A083800F0DCFA0A
:1021E0000836802EF4D1DFF8B0915F4F0026CA4642
:1021F00059F826004FEA860B30B14268009200F091
:10220000CBFA009A1046F7E7584B594A4AF80B00A8
:102210004BF803005BF8020040B141680192009165
:1022200000F0BAFA0099019A0846F5E7514B42F8D6
:102230000B0023F816003B784F4A023B4BF8020094
:10224000032B07D8DFE803F002040204002300E0B8
:1022500001233B700136042E07F10107C8D1474B1B
:10226000474E404F00221A704FF0010B9946454AE5
:102270000BEB06015A4411F8011C920011F0080FF3
:1022800011704FEA8B0A24D000F068FA38B104EBE1
:102290004B1208303C4B506044F83A3006E099F855
:1022A000002044F83A00013289F8002000F056FA84
:1022B0004AF0010230B104EBC2010830486044F832
:1022C000327006E044F8320099F80020013289F8B3
:1022D00000204AF002010BF1010B4AF0030A002230
:1022E000BBF1050F44F8312044F83A20BFD1134622
:1022F00083E0154B254E1B7833700B4680E0234E50
:10230000337073707BE0AA8802F07F02042A6FD8D2
:102310001E4E9200337073701D4B9B5C9C076ED5F4
:1023200031706CE0AA8802F07F02042A60D86B88C2
:10233000002B5DD11649920011440A7822F0020266
:1023400039E000BF802007405F93FF1FE992FF1F25
:102350006193FF1F902007400080FF1F4C93FF1FD9
:102360006093FF1FC80040009492FF1F8492FF1FDC
:102370002C93FF1F2895FF1F3C93FF1F5693FF1FB1
:10238000EC74000030C80110880040005793FF1F14
:10239000C02007408092FF1FD892FF1FAA8802F03A
:1023A0007F02042A24D86B8813BBA54992001144EC
:1023B0000A7842F002020A701FE06A88A988A14BDD
:1023C0005E68AEB11888904208D15888884205D11D
:1023D000120A032A0CBF33781B8911E00C33EFE794
:1023E000994A1168994A1160994AA978117004E0D4
:1023F000934B0F221A7027E000231E4600E00223B1
:10240000EC889C4228BF1C46402C254628BF40250E
:1024100030462946FFF776FD641B2E4403D1402D3C
:1024200012D1254603E0402C254628BF40253046E2
:102430002946FFF767FD641B2E4401D1402D03D1CF
:10244000844BC8F800601C800122834B3FE0834B23
:102450001A8842F221039A4214D1814A0023C85CAF
:1024600098540133072BFAD17D4B1B68862B08BF8C
:102470007C4B4FF0000108BF0F22084608BF1A70BE
:10248000FFF740FD784B44F8363021E0774F3E6847
:10249000A6B1DFF8C081B8F80040402C254628BF1F
:1024A000402530462946FFF72DFD601B80B2A8F875
:1024B000000008B9402D00D170193860674B1A88A8
:1024C000B2F5A06F04D100225A709A78684B1A7046
:1024D000614B01221A7077E004EBC605013F6A6880
:1024E00003F00803A2F10800FFB203F0FF0E002B77
:1024F00036D000F051F95F485F4A50F82710E9B133
:102500004B6840F8273001F108036B60D35D032B63
:102510000BD8DFE803F002040608032304E00223DB
:1025200002E0052300E00423D35515F0080F0A88C4
:1025300014BFC823882343EA024343E0D35D032B3F
:1025400007D8DFE803F041410204002306E001233D
:1025500004E015F0080F14BF03230223D35533E022
:1025600054F836301B0C99B222F8081C23B3434BA5
:1025700022F806EC42F804EC53F82720DFF82CE1AF
:1025800012B943F8270002E05EF8273058603C4A51
:102590004EF8270032F817300B4422F8173000F0BD
:1025A000DDF810B10830686006E0364A44F83600BD
:1025B00013780133137007E0334A2B4B15F0080FE3
:1025C00008BF134644F83630304A0823137065E5D7
:1025D000E0071ED520492C482D4C02230B702D4BB3
:1025E0001A702D4B186098602C48D8601A619A6157
:1025F0005C60134B0D2018702948FF2303702B706B
:102600000274284A1370284B9F221A7001230B7002
:1026100012E0210604D50A4B0D221A7080232B707C
:10262000A20705D51E4A1378DBB2137002232B7064
:10263000E30644BF10232B7003B0BDE8F08F00BF4A
:10264000C0200740F07400007C92FF1F3895FF1FE8
:102650007093FF1F5493FF1F942007404C93FF1F5C
:102660003095FF1FE992FF1FC80040008092FF1FB6
:10267000982007402C93FF1F9492FF1FD892FF1FB2
:102680002895FF1F5693FF1F8800400080200740B9
:102690009892FF1FE892FF1F0080FF1FEC92FF1F20
:1026A000882007408C200740842007408492FF1F29
:1026B00010B500F025FC0023194819461950C4181C
:1026C0000833882B164A6160F8D116490B6843F429
:1026D00080230B60144BC2F307211970C2F307412A
:1026E000120E19751A76114AFF2313700021137206
:1026F00002F8703C0123137582F8801013710C4BA3
:1027000070226FF450711A700B444FF400721A600B
:1027100003F1C04303F5C82310221A7010BD00BF97
:102720000080FF1F348004409C2007408020074029
:1027300049E400E000F0A2B800F076B800F04EB82E
:1027400000F08EB800F052B900F02CB908461146DE
:1027500000F0ACB8084600F019B9704710B572B671
:102760000B480268B2FA82F10B2902DD62B6002042
:1027700010BD4FF00043CB4022EA0302026062B674
:10278000044C48234B43E0180022E250426010BD45
:102790008087FF1FBC83FF1F0C4B4822C31AB3FB6B
:1027A000F2F30B2B11D80A4A127822B1094A127897
:1027B0000AB1FFF7F5BB72B607494FF0004222FAA3
:1027C00003F30A681A430A6062B67047BC83FF1FAE
:1027D0005693FF1F5F93FF1F8087FF1F10B5104C9C
:1027E00023686BB1206843885A1C03441C7A038811
:1027F0009A4212D3FFF7D0FF094B00221A600DE076
:10280000084B1B7813B94FF0FF3010BD0320FFF7C2
:1028100099FB20600028E5D1F5E74280204610BDF5
:102820006C93FF1F5F93FF1F10B50B4C236813B110
:1028300022686AB902E0094B1B7813B94FF0FF30E8
:1028400010BD0320FFF77EFB20600028F0D1F5E7E4
:1028500053881344187A10BD6C93FF1F5F93FF1FBA
:10286000044B9888044B1A681AB1138852889B1A33
:10287000184470472895FF1F6C93FF1F10B5094B34
:102880001B786BB1084C206818B1FFF785FF002357
:1028900023600320FFF756FB10B1FFF77DFFF8E739
:1028A00010BD00BF5F93FF1F6C93FF1F2DE9F84F12
:1028B000314DDFF8D490012382460C462B700E4632
:1028C0004F46002E53D0D9F800303BBBDFF8B0B0F4
:1028D00048F60148294B1B7803F0FF010BB929701A
:1028E00015E00420FFF74AFB072807D801232B70C7
:1028F000FFF734FF386088B91F4B1870B8F1010832
:1029000002D09BF8003033B11D4B01221A704FF0FA
:10291000FF30BDE8F88F00F0BBF8DBE7184B002173
:10292000197039684B88C3F14000B04228BF304667
:1029300003EB000E0B44A1F802E0361A07330AEB52
:102940000008C24504D01AF8010B03F8010FF8E79C
:102950004B883F2B06D940230B800420FFF75CFBFC
:1029600000233B60074B05221A70C246A9E72E7070
:102970002046BDE8F88F00BF6293FF1F5F93FF1FE3
:102980006893FF1F6193FF1F6493FF1F07B502AB9E
:10299000012103F8010D1846FFF788FF03B05DF829
:1029A00004FBFFFF38B50E4C0E4D012323702B683E
:1029B0007BB90D4B1B7813B90020207038BD042063
:1029C000FFF7DCFA0728F7D8FFF7C8FE28600028D1
:1029D000F2D02B68588800232370C0F1400038BD26
:1029E0006293FF1F6493FF1F5F93FF1F2DE9F04168
:1029F000114B1B78F3B1114F114B3C68114D01265F
:102A00001E7098464CB1002663882E7021462380A4
:102A10000420FFF701FB3E6009E0FFF79FFE01463F
:102A200020B104202C70FFF7F7FA00E02E7000238D
:102A300088F80030BDE8F0815F93FF1F6493FF1FAB
:102A40006293FF1F6193FF1F38B50E4B1B7803F095
:102A5000FF05ABB90C4C216831B14B880B800420C9
:102A6000FFF7DAFA256038BDFFF778FE014620B19E
:102A70000420BDE83840FFF7CFBA044B01221A709A
:102A800038BD00BF6293FF1F6493FF1F6193FF1F58
:102A900038B51E4C2378002B36D101232370FFF765
:102AA000DFFE08B1FFF759FE00F098F808B100F01A
:102AB00035F800F021F908B100F031F800F0AAF97A
:102AC00008B100F02DF800232370EFF30583DBB984
:102AD000EFF3108272B60E4D286810B10D4C2178BC
:102AE00011B18AB962B638BD0123237043692B60E6
:102AF0000BB1996101E008490B6002B962B600258B
:102B0000457783689847257038BD00BF7193FF1FD4
:102B10007092FF1F7492FF1F6C92FF1F70477047E7
:102B20007047FFFF10B5204B2048214960221A70E2
:102B3000E1225A701F4B204A1C78204B082C01D1EF
:102B4000012402E00A2C03D119240460132005E0BB
:102B50000C2C0CBF15243D24046012200860146066
:102B60001860174B17491B78174A03B101230B60F4
:102B70001360164B164A1978164B012901D880218B
:102B80000BE0042901D8842107E0082901D8852118
:102B900003E0102994BF86218721116019600E4B34
:102BA00001221A7010BD00BF0040074008B003406A
:102BB0000CB003408487FF1F08B00B400CB00B40E3
:102BC0007393FF1F20B0034020B00B408587FF1F89
:102BD00024B0034024B00B407293FF1F054B1878BC
:102BE000054B1A78C0B2D3B2984238BF4030C01AF1
:102BF000704700BFFA93FF1F7993FF1FF0B5344968
:102C00000B7913F0300F2FD072B68B7D03F0FF04D9
:102C100023B9CB7940234B7462B625E062B62D48C8
:102C20002D4A037812782D4FDBB2D2B20546581CDC
:102C30004028CE7928BF00209042F6B21CBF3E54F7
:102C40000346601E10F0FF04F1D1D9B22970244967
:102C5000096849B1934236BFC2F140029B1A9B18E2
:102C6000272BC4BF01230B70194AD178C9B20D06B6
:102C70001ED513791C061BD51A4B1B481D780378EB
:102C80001A4EEDB2DBB2AB420AD00133402B28BF63
:102C900000231479F45CE4B2D471147D072CF2D9CA
:102CA000DBB203700A4B1A79100644BF7C22DA703B
:102CB00049060CD5064B1A79520608D50C4A002154
:102CC00011700C4A126802B111703C22DA70F0BD2A
:102CD00000A00640FA93FF1F7993FF1FBA93FF1FCE
:102CE0007493FF1F0094FF1FFB93FF1F7A93FF1F36
:102CF0007893FF1FFC93FF1F054B1878054B1A783C
:102D0000C0B2D3B2984238BF4030C01A704700BF3B
:102D10007294FF1F0994FF1FF0B534490B7913F02B
:102D2000300F2FD072B68B7D03F0FF0423B9CB791F
:102D300040234B7462B625E062B62D482D4A0378D5
:102D400012782D4FDBB2D2B20546581C4028CE79FE
:102D500028BF00209042F6B21CBF3E540346601EBE
:102D600010F0FF04F1D1D9B229702449096849B1A2
:102D7000934236BFC2F140029B1A9B18272BC4BF57
:102D800001230B70194AD178C9B20D061ED51379EB
:102D90001C061BD51A4B1B481D7803781A4EEDB242
:102DA000DBB2AB420AD00133282B28BF00231479B1
:102DB000F45CE4B2D471147D072CF2D9DBB2037059
:102DC0000A4B1A79100644BF7C22DA7049060CD5EA
:102DD000064B1A79520608D50C4A002111700C4A8C
:102DE000126802B111703C22DA70F0BD00B00640EA
:102DF0007294FF1F0994FF1F3294FF1F0494FF1F5A
:102E00007894FF1F7394FF1F0A94FF1F0894FF1FFD
:102E10007494FF1F054B1878054B1A78C0B2D3B2D3
:102E2000984238BF4030C01A704700BFEA94FF1F75
:102E30008194FF1F10B5284B1A79920620D5274997
:102E4000DA790B782648013300783F2BC8BF00237E
:102E5000834218BF2348D2B21EBFC254DAB20A70EE
:102E6000214A116861B1214A1278D2B2934236BF29
:102E7000C2F140029B1A9B18272BC4BF01230B7081
:102E80001549CA78D2B2140616D50B79180613D58F
:102E9000174B164C18782378DBB2984202D16C237A
:102EA000CB7009E00133282B28BF00231148C05CF8
:102EB000DBB2C0B2C871237051060CD5064B1A792B
:102EC000520608D50C4A002111700C4A126802B152
:102ED00011702C22DA7010BD00C00640EA94FF1F6A
:102EE0008194FF1FAA94FF1F7C94FF1FEB94FF1F88
:102EF000F094FF1F8294FF1F8094FF1FEC94FF1F2C
:102F00001FB572B6154B70221A70154A4121117007
:102F10000F2102F8011C80221A701A781206FCD5C3
:102F2000104B186862B6104B984298BF0A2301AC48
:102F300098BF58430A222146FEF7B2FD0B4A0023F0
:102F4000E15C21B101330A2B22F8021BF8D1084AB7
:102F500001335B00137004B010BD00BF00000240DD
:102F600007000240080002407F9698001088FF1F6B
:102F70000E88FF1F0B460146184600F03DBF00BFFC
:102F800081F0004102E000BF83F0004330B54FEA1A
:102F900041044FEA430594EA050F08BF90EA020F87
:102FA0001FBF54EA000C55EA020C7FEA645C7FEA1A
:102FB000655C00F0E2804FEA5454D4EB5555B8BF3D
:102FC0006D420CDD2C4480EA020281EA030382EAAE
:102FD000000083EA010180EA020281EA0303362D40
:102FE00088BF30BD11F0004F4FEA01314FF4801C13
:102FF0004CEA113102D0404261EB410113F0004F25
:103000004FEA03334CEA133302D0524263EB4303DB
:1030100094EA050F00F0A780A4F10104D5F1200E79
:103020000DDB02FA0EFC22FA05F2801841F10001D4
:1030300003FA0EF2801843FA05F359410EE0A5F1A8
:1030400020050EF1200E012A03FA0EFC28BF4CF0D9
:10305000020C43FA05F3C01851EBE37101F000458F
:1030600007D54FF0000EDCF1000C7EEB00006EEB9C
:103070000101B1F5801F1BD3B1F5001F0CD3490826
:103080005FEA30004FEA3C0C04F101044FEA44527D
:1030900012F5800F80F09A80BCF1004F08BF5FEA04
:1030A000500C50F1000041EB045141EA050130BDE4
:1030B0005FEA4C0C404141EB010111F4801FA4F187
:1030C0000104E9D191F0000F04BF01460020B1FADC
:1030D00081F308BF2033A3F10B03B3F120020CDA14
:1030E0000C3208DD02F1140CC2F10C0201FA0CF0F2
:1030F00021FA02F10CE002F11402D8BFC2F1200C57
:1031000001FA02F120FA0CFCDCBF41EA0C0190400C
:10311000E41AA2BF01EB0451294330BD6FEA040455
:103120001F3C1CDA0C340EDC04F11404C4F1200240
:1031300020FA04F001FA02F340EA030021FA04F352
:1031400045EA030130BDC4F10C04C4F1200220FAA9
:1031500002F001FA04F340EA0300294630BD21FAE7
:1031600004F0294630BD94F0000F83F4801306BFAD
:1031700081F480110134013D4EE77FEA645C18BFA1
:103180007FEA655C29D094EA050F08BF90EA020F38
:1031900005D054EA000C04BF1946104630BD91EA30
:1031A000030F1EBF0021002030BD5FEA545C05D133
:1031B0004000494128BF41F0004130BD14F5800472
:1031C0003CBF01F5801130BD01F0004545F0FE41E6
:1031D00041F470014FF0000030BD7FEA645C1ABF1B
:1031E000194610467FEA655C1CBF0B46024650EA52
:1031F000013406BF52EA033591EA030F41F400217E
:1032000030BD00BF90F0000F04BF0021704730B503
:103210004FF4806404F132044FF000054FF00001D8
:1032200050E700BF90F0000F04BF0021704730B599
:103230004FF4806404F1320410F0004548BF40426E
:103240004FF000013EE700BF42004FEAE2014FEAC3
:1032500031014FEA02701FBF12F07F4393F07F4F9E
:1032600081F06051704792F0000F14BF93F07F4FD0
:10327000704730B54FF4607401F0004521F0004113
:1032800020E700BF50EA010208BF704730B54FF099
:1032900000050AE050EA010208BF704730B511F09E
:1032A000004502D5404261EB41014FF4806404F1D6
:1032B00032045FEA915C3FF4DCAE4FF003025FEA58
:1032C000DC0C18BF03325FEADC0C18BF033202EBE0
:1032D000DC02C2F1200300FA03FC20FA02F001FA3A
:1032E00003FE40EA0E0021FA02F11444C1E600BFD9
:1032F00070B54FF0FF0C4CF4E06C1CEA11541DBF8C
:103300001CEA135594EA0C0F95EA0C0F00F0DEF856
:103310002C4481EA030621EA4C5123EA4C5350EA3B
:10332000013518BF52EA033541F4801143F480138C
:1033300038D0A0FB02CE4FF00005E1FB02E506F01D
:103340000042E0FB03E54FF00006E1FB03569CF072
:10335000000F18BF4EF0010EA4F1FF04B6F5007F78
:1033600064F5407404D25FEA4E0E6D4146EB0606EA
:1033700042EAC62141EA55514FEAC52040EA5E5073
:103380004FEACE2EB4F1FD0C88BFBCF5E06F1ED81D
:10339000BEF1004F08BF5FEA500E50F1000041EB54
:1033A000045170BD06F0004646EA010140EA020001
:1033B00081EA0301B4EB5C04C2BFD4EB0C0541EA23
:1033C000045170BD41F480114FF0000E013C00F338
:1033D000AB8014F1360FDEBF002001F0004170BD5C
:1033E000C4F10004203C35DA0C341BDC04F1140475
:1033F000C4F1200500FA05F320FA04F001FA05F201
:1034000040EA020001F0004221F0004110EBD370CD
:1034100021FA04F642EB06015EEA430E08BF20EAF9
:10342000D37070BDC4F10C04C4F1200500FA04F39C
:1034300020FA05F001FA04F240EA020001F000412E
:1034400010EBD37041F100015EEA430E08BF20EAA1
:10345000D37070BDC4F1200500FA05F24EEA020EE9
:1034600020FA04F301FA05F243EA020321FA04F018
:1034700001F0004121FA04F220EA020000EBD370CF
:103480005EEA430E08BF20EAD37070BD94F0000FCF
:103490000FD101F00046400041EB010111F4801F03
:1034A00008BF013CF7D041EA060195F0000F18BFB4
:1034B000704703F00046520043EB030313F4801FF0
:1034C00008BF013DF7D043EA0603704794EA0C0FAA
:1034D0000CEA135518BF95EA0C0F0CD050EA4106C0
:1034E00018BF52EA4306D1D181EA030101F000413D
:1034F0004FF0000070BD50EA410606BF1046194665
:1035000052EA430619D094EA0C0F02D150EA013670
:1035100013D195EA0C0F05D152EA03361CBF1046B1
:1035200019460AD181EA030101F0004141F0FE4150
:1035300041F470014FF0000070BD41F0FE4141F4D4
:10354000780170BD70B54FF0FF0C4CF4E06C1CEAD4
:1035500011541DBF1CEA135594EA0C0F95EA0C0F89
:1035600000F0A7F8A4EB050481EA030E52EA033544
:103570004FEA013100F088804FEA03334FF0805565
:1035800045EA131343EA12634FEA022245EA111592
:1035900045EA10654FEA00260EF000419D4208BF43
:1035A000964244F1FD0404F5407402D25B084FEAF0
:1035B0003202B61A65EB03055B084FEA32024FF49C
:1035C00080104FF4002CB6EB020E75EB030E22BFF9
:1035D000B61A754640EA0C005B084FEA3202B6EBB9
:1035E000020E75EB030E22BFB61A754640EA5C0068
:1035F0005B084FEA3202B6EB020E75EB030E22BFF8
:10360000B61A754640EA9C005B084FEA3202B6EBF8
:10361000020E75EB030E22BFB61A754640EADC00B7
:1036200055EA060E18D04FEA051545EA16754FEA19
:1036300006164FEAC30343EA52734FEAC2025FEA37
:103640001C1CC0D111F4801F0BD141EA00014FF0C6
:1036500000004FF0004CB6E711F4801F04BF014397
:103660000020B4F1FD0C88BFBCF5E06F3FF6AFAEB3
:10367000B5EB030C04BFB6EB020C5FEA500C50F143
:10368000000041EB045170BD0EF0004E4EEA1131C6
:1036900014EB5C04C2BFD4EB0C0541EA045170BDCD
:1036A00041F480114FF0000E013C90E645EA060E11
:1036B0008DE60CEA135594EA0C0F08BF95EA0C0F3F
:1036C0003FF43BAF94EA0C0F0AD150EA01347FF487
:1036D00034AF95EA0C0F7FF425AF104619462CE75E
:1036E00095EA0C0F06D152EA03353FF4FDAE1046C1
:1036F000194622E750EA410618BF52EA43067FF412
:10370000C5AE50EA41047FF40DAF52EA43057FF4A1
:10371000EBAE12E74FF0FF3C06E000BF4FF0010CAC
:1037200002E000BF4FF0010C4DF804CD4FEA410C10
:103730007FEA6C5C4FEA430C18BF7FEA6C5C1BD0DD
:1037400001B050EA410C0CBF52EA430C91EA030F5E
:1037500002BF90EA020F0020704710F1000F91EABB
:10376000030F58BF994208BF90422CBFD8176FEA89
:10377000E37040F0010070474FEA410C7FEA6C5C57
:1037800002D150EA013C07D14FEA430C7FEA6C5C5E
:10379000D6D152EA033CD3D05DF8040B704700BF8A
:1037A0008446104662468C461946634600E000BFD8
:1037B00001B5FFF7B7FF002848BF10F1000F01BDAA
:1037C0004DF808EDFFF7F4FF0CBF012000205DF875
:1037D00008FB00BF4DF808EDFFF7EAFF34BF0120FA
:1037E00000205DF808FB00BF4DF808EDFFF7E0FF93
:1037F00094BF012000205DF808FB00BF4DF808EDE4
:10380000FFF7CEFF94BF012000205DF808FB00BF4A
:103810004DF808EDFFF7C4FF34BF012000205DF82C
:1038200008FB00BF80F0004002E000BF81F00041D3
:1038300042001FBF5FEA410392EA030F7FEA226C56
:103840007FEA236C6AD04FEA1262D2EB1363C1BFE6
:10385000D218414048404140B8BF5B42192B88BF55
:10386000704710F0004F40F4000020F07F4018BF78
:10387000404211F0004F41F4000121F07F4118BF98
:10388000494292EA030F3FD0A2F1010241FA03FC40
:1038900010EB0C00C3F1200301FA03F100F0004328
:1038A00002D5494260EB4000B0F5000F13D3B0F1F0
:1038B000807F06D340084FEA310102F10102FE2A5F
:1038C00051D2B1F1004F40EBC25008BF20F00100CF
:1038D00040EA03007047490040EB000010F4000F7D
:1038E000A2F10102EDD1B0FA80FCACF1080CB2EB10
:1038F0000C0200FA0CF0AABF00EBC250524218436F
:10390000BCBFD0401843704792F0000F81F4000113
:1039100006BF80F400000132013BB5E74FEA4103E6
:103920007FEA226C18BF7FEA236C21D092EA030F52
:1039300004D092F0000F08BF0846704790EA010FCC
:103940001CBF0020704712F07F4F04D1400028BFF9
:1039500040F00040704712F100723CBF00F50000DB
:10396000704700F0004343F0FE4040F40000704711
:103970007FEA226216BF08467FEA236301464202BD
:1039800006BF5FEA412390EA010F40F480007047D0
:103990004FF0000304E000BF10F0004348BF404276
:1039A0005FEA000C08BF704743F0964301464FF0B2
:1039B00000001CE050EA010208BF70474FF000030E
:1039C0000AE000BF50EA010208BF704711F000434F
:1039D00002D5404261EB41015FEA010C02BF84461F
:1039E0000146002043F0B64308BFA3F18053A3F57E
:1039F0000003BCFA8CF2083AA3EBC25310DB01FAC5
:103A000002FC634400FA02FCC2F12002BCF1004F48
:103A100020FA02F243EB020008BF20F001007047D9
:103A200002F1200201FA02FCC2F1200250EA4C002D
:103A300021FA02F243EB020008BF20EADC70704773
:103A40004FF0FF0C1CEAD0521EBF1CEAD15392EA81
:103A50000C0F93EA0C0F6FD01A4480EA010C40025D
:103A600018BF5FEA41211ED04FF0006343EA5010B7
:103A700043EA5111A0FB01310CF00040B1F5000FF9
:103A80003EBF490041EAD3715B0040EA010062F1A8
:103A90007F02FD2A1DD8B3F1004F40EBC25008BF92
:103AA00020F00100704790F0000F0CF0004C08BFB0
:103AB00049024CEA502040EA51207F3AC2BFD2F17D
:103AC000FF0340EAC250704740F400004FF000038B
:103AD000013A5DDC12F1190FDCBF00F000407047C5
:103AE000C2F10002410021FA02F1C2F1200200FA03
:103AF00002FC5FEA310040F1000053EA4C0308BFCA
:103B000020EADC70704792F0000F00F0004C02BF1A
:103B1000400010F4000F013AF9D040EA0C0093F095
:103B2000000F01F0004C02BF490011F4000F013BEF
:103B3000F9D041EA0C018FE70CEAD15392EA0C0F5D
:103B400018BF93EA0C0F0AD030F0004C18BF31F0C8
:103B5000004CD8D180EA010000F00040704790F09E
:103B6000000F17BF90F0004F084691F0000F91F042
:103B7000004F14D092EA0C0F01D142020FD193EA08
:103B80000C0F03D14B0218BF084608D180EA010090
:103B900000F0004040F0FE4040F40000704740F06C
:103BA000FE4040F4400070474FF0FF0C1CEAD0523A
:103BB0001EBF1CEAD15392EA0C0F93EA0C0F69D096
:103BC000A2EB030280EA010C49024FEA402037D001
:103BD0004FF0805343EA111143EA10130CF00040F8
:103BE0008B4238BF5B0042F17D024FF4000C8B42E8
:103BF00024BF5B1A40EA0C00B3EB510F24BFA3EBC8
:103C0000510340EA5C00B3EB910F24BFA3EB910397
:103C100040EA9C00B3EBD10F24BFA3EBD10340EAF1
:103C2000DC001B0118BF5FEA1C1CE0D1FD2A3FF637
:103C300050AF8B4240EBC25008BF20F001007047EC
:103C40000CF0004C4CEA50207F32C2BFD2F1FF038F
:103C500040EAC250704740F400004FF00003013AC0
:103C600037E792F0000F00F0004C02BF400010F464
:103C7000000F013AF9D040EA0C0093F0000F01F078
:103C8000004C02BF490011F4000F013BF9D041EA9A
:103C90000C0195E70CEAD15392EA0C0F08D14202CD
:103CA0007FF47DAF93EA0C0F7FF470AF084676E7A0
:103CB00093EA0C0F04D14B023FF44CAF08466EE779
:103CC00030F0004C18BF31F0004CCAD130F0004247
:103CD0007FF45CAF31F000437FF43CAF5FE700BF9F
:103CE0004FF0FF3C06E000BF4FF0010C02E000BFC8
:103CF0004FF0010C4DF804CD4FEA40024FEA41036A
:103D00007FEA226C18BF7FEA236C11D001B052EA1F
:103D1000530C18BF90EA010F58BFB2EB030088BFE5
:103D2000C81738BF6FEAE17018BF40F00100704754
:103D30007FEA226C02D15FEA402C05D17FEA236C36
:103D4000E4D15FEA412CE1D05DF8040B704700BF7D
:103D5000844608466146FFE70FB5FFF7C9FF002814
:103D600048BF10F1000F0FBD4DF808EDFFF7F4FF4D
:103D70000CBF012000205DF808FB00BF4DF808EDE6
:103D8000FFF7EAFF34BF012000205DF808FB00BF09
:103D90004DF808EDFFF7E0FF94BF012000205DF82B
:103DA00008FB00BF4DF808EDFFF7D2FF94BF0120DC
:103DB00000205DF808FB00BF4DF808EDFFF7C8FFD5
:103DC00034BF012000205DF808FB00BF4FEA40022D
:103DD0004FEA41037FEA226C02D15FEA402C08D10E
:103DE0007FEA236C02D15FEA412C02D14FF0000040
:103DF00070474FF00100704713460A460146022003
:103E000000F0E0BEF0B583B016461F460D46002414
:103E1000FFF71AFA009733462A46019400F034FF60
:103E200003B0F0BD014B1868704700BF508CFF1FF6
:103E300070B50F4E0F4D761BB61018BF002405D07D
:103E4000013455F8043B9847A642F9D10A4E0B4D70
:103E5000761B03F017FCB61018BF002406D00134FF
:103E600055F8043B9847A642F9D170BD70BD00BF1C
:103E700090760000907600009C760000907600001E
:103E8000931E222B10D80A2A10B506D000230C4608
:103E9000194400F057FE204610BD0028F6DA2D2305
:103EA0000B7040420123F2E700200870704700BF0A
:103EB000FFF7E6BF024B0146186800F00BB800BFE1
:103EC000508CFF1F024B0146186800F0B5BF00BFC1
:103ED000508CFF1F2DE9F04F01F10B05162D83B01B
:103EE000064640F29F8035F0070500F1BF80A942E9
:103EF00000F2BC8000F00AFBB5F5FC7FC0F09C82AC
:103F00006B0A00F0BA80042B00F28381A80900F14B
:103F1000390E4FEA4E033830C44F07EB8303A3F149
:103F200008015C68A14207D1ACE0002A80F2AC80B5
:103F3000E468A14200F0A680636823F003035A1BE3
:103F40000F2AF2DDB9493C6901F1080E744500F011
:103F5000B381636823F003035A1B0F2A00F399818E
:103F6000002AC1F814E0C1F810E080F29E80B3F599
:103F7000007F80F06781DB0803F1010C01229B10B8
:103F800002FA03F34A6851F83C80C4F8088001EB58
:103F9000CC091A43A9F10803E3604A6041F83C40A8
:103FA000C8F80C40831001249C40944200F28A809F
:103FB000144206D120F003006400144200F1040012
:103FC000FAD007EBC009CC468046DCF80C108C45D3
:103FD00007D173E1002A80F28181C9688C4500F025
:103FE0006D814B6823F003035A1B0F2AF2DD0C4648
:103FF000D1F80CC054F8088F4B1945F001054D60FD
:1040000042F00101C8F80CC03046CCF808807B6152
:104010003B61C3F80CE0C3F808E059609A5000F027
:1040200077FA1FE0102921D800F070FA1025062336
:1040300002207E4F07EB8303A3F108025C689442E1
:1040400000F045816368E168A56823F00303234419
:1040500030465A68E96042F001028D605A6000F013
:1040600057FA0834204603B0BDE8F08F00240C2333
:104070002046336003B0BDE8F08F80234FF0400E40
:104080003F2049E770465DE72344E1685A68A56828
:1040900042F00102E96030468D605A6000F038FA63
:1040A0000834204603B0BDE8F08F234430465A68F8
:1040B00042F001025A6000F02BFA0834204603B0A7
:1040C000BDE8F08FBC68636823F00308A84504D3FB
:1040D000C5EB08030F2B00F38C80554BDFF8609184
:1040E0001A68D9F8003001332A4404EB080A00F0BA
:1040F000608102F580520F3222F47F6222F00F02BB
:1041000011463046019200F0FDFBB0F1FF3F8346BF
:10411000019A00F05881824500F2FC80454B1968F5
:10412000DA451144196000F05381D9F80000DFF836
:1041300010E101301BBFCAEB0B0A5144CEF800B0AE
:1041400019601BF0070100F01781C1F10800C1F5EB
:104150008051834408315A44C2F30B02C2EB010977
:1041600049463046019300F0CDFB431C019B00F013
:104170003F81CBEB00024A4442F001021968C7F8C4
:1041800008B04944BC42CBF804201960DFF8A49081
:1041900016D0B8F10F0F40F2FD806268A8F10C0351
:1041A00023F00703E01802F001024FF0050E1A4356
:1041B0000F2B6260C0F804E0C0F808E000F21C8138
:1041C0001D4BBC681A68914288BF19601B4B1A6866
:1041D0009142626888BF196022F003029542A2EB07
:1041E000050301D80F2B04DC304600F091F90024C0
:1041F00038E7621943F0010345F001056560304678
:10420000BA60536000F084F90834204603B0BDE87A
:10421000F08F142B71D9542B00F2A480280B00F1DD
:104220006F0E4FEA4E036E3076E600BF548CFF1FD0
:10423000FC94FF1F0095FF1FF894FF1FF494FF1FCD
:104240006090FF1F5A0A042A5ED9142A00F2B38034
:1042500002F15C0149005B3207EB810C57F8211039
:10426000DFF8DC81ACF1080C8C4500F088804A68EE
:1042700022F00302934202D289688C45F7D1D1F82B
:104280000CC07A68C4F80CC0A160CCF80840CC60BF
:1042900088E6631942F0010745F001056560304684
:1042A0004B610B61C3F80CE0C3F808E05F609A5003
:1042B000083400F02DF9D5E64A6873E608F10108E4
:1042C00018F0030F0CF1080C7FF47FAE30E0DC68CF
:1042D000A34208BF02303FF435AEB3E60B440C46B0
:1042E0005A68C96854F8085F42F001025A603046C3
:1042F000E9608D6000F00CF9B4E603F15C0E03F1A7
:104300005B004FEA4E0307E69A0902F139014900C2
:104310003832A1E7BC424A4B3FF400AF9C68626868
:1043200022F003025AE759F80839994540F0828093
:1043300010F0030F00F1FF30F5D17B6823EA04038E
:104340007B6064009C423FF6BDAE002C3FF4BAAEE9
:104350001C4240467FF435AE64001C4200F104006C
:10436000FAD02EE6B3F5AA7F18D8E80B00F1780E44
:104370004FEA4E037730CFE54FF48051EBE6012151
:10438000D8F80430921001FA02F21A43C8F8042057
:10439000614677E70123CBF8043025E740F2545219
:1043A000934220D8A80C00F17D0E4FEA4E037C30DA
:1043B000B2E51032A4E6542A26D81A0B02F16F0196
:1043C00049006E3248E7BC68626822F0030205E7E4
:1043D000CAF30B0000287FF4A8AE4244BB6842F049
:1043E00001025A60ECE6FE234FF07F0E7E2093E53B
:1043F00001224FF00009C1E604F10801304600F047
:104400001BFDD9F80010DBE6B2F5AA7F05D8DA0B60
:1044100002F17801490077321EE740F254518A4296
:1044200005D89A0C02F17D0149007C3214E7FE2187
:104430007E2211E77B6884E7E808431C5B00F8E50F
:10444000548CFF1F8842F0B50DD98B1898420AD2C0
:104450008118002A51D09A1A13F8014D01F8014D24
:104460009342F9D1F0BD0F2A48D941EA00039B07D6
:1044700046D100F1100401F11003154653F8106CF9
:1044800044F8106C53F80C6C44F80C6C53F8086C3E
:1044900044F8086C103D53F8046C44F8046C0F2D7C
:1044A00003F1100304F11004E8D8A2F1100323F083
:1044B0000F0302F00F0E1033BEF1030F1944034433
:1044C00021D91E1F0D467446043C55F8047B46F85E
:1044D000047F032CF8D8AEF1040424F00304043460
:1044E0002344214402F0030262B1013B0A4411F863
:1044F000014B03F8014F8A42F9D1F0BD0346F3E7BF
:104500000346F2E7F0BD7246EEE700BF704700BF1A
:10451000704700BF024B0A460146186800F002B817
:10452000508CFF1F2DE9F04F174683B0002900F093
:10453000C1800E46814607F10B05FFF7E7FF56F8ED
:1045400004EC162D2EF00304A6F1080840D8102222
:104550001546AF4241D8944275DAC94B996808EBC9
:1045600004008842416800F0D98021F0010303442F
:104570005B68DB077DD51EF0010F35D03946484614
:10458000FFF7A8FC0746E0B156F8043C23F001030E
:104590004344A0F108029A4200F04481221F242AD9
:1045A00000F23181132A00F2048103463246116879
:1045B00019605168596092689A603146484600F027
:1045C0003BFC4846FFF7A4FF384603B0BDE8F08F38
:1045D00025F00705002D2A46BBDA0C230020C9F878
:1045E000003003B0BDE8F08F56F8083CC3EB080A72
:1045F000DAF8043023F0030C04EB0C039342BDDB28
:104600005746DAF80C1057F8080F221F242AC16009
:10461000886000F21781132A40F212813168CAF8CB
:1046200008107168CAF80C101B2A00F22B8108369A
:104630000AF110023168116071685160B1689160CF
:104640003E461C46D046631B0F2B1DD8D8F80430BD
:1046500003F0010323434444C8F80430636843F083
:10466000010363604846FFF753FF304603B0BDE8DF
:10467000F08F21F003012144914221DBC36882685D
:104680000C46D3609A60DEE7D8F8042008EB0501F9
:1046900002F00102154343F001020B44C8F8045034
:1046A0004A605A6842F0010208315A60484600F0F8
:1046B000C3FBD7E7114603B0BDE8F04FFFF70ABCD4
:1046C0001EF0010F7FF45AAF56F8083CC3EB080AFE
:1046D000DAF8043023F0030C01EB0C0E96458BDB6B
:1046E000C36882685746D3609A6057F8081FDAF8A3
:1046F0000C30CB60221F242A996000F29980132A83
:1047000062D93368CAF808307368CAF80C301B2ABB
:1047100000F2A08008360AF1100356E021F0030BE6
:10472000A34405F11000834559DA1EF0010F7FF410
:1047300025AF56F8081CC1EB080ADAF8041021F07E
:10474000030CE34458453FF757AF5746DAF80C10CF
:1047500057F8080F221F242AC160886000F2B48035
:10476000132A40F2A5803168CAF808107168CAF8A7
:104770000C101B2A00F2AF8008360AF110023168D3
:10478000116071685160B16891600AEB0501C5EB79
:104790000B0242F0010299604A60DAF8043003F03B
:1047A00001031D434846CAF80450FFF7B1FE3846DE
:1047B0005CE733680360736843601B2A27D800F105
:1047C000080306F10802F2E63B4632681A60726896
:1047D0005A60B2689A603E467446D04633E708EBAA
:1047E0000501C5EB0B0B4BF0010299604A6056F8CE
:1047F000043C03F001031D43484646F8045CFFF700
:1048000087FE304632E73146FFF71CFED5E6B36837
:104810008360F368C360242A28D000F1100306F1F6
:104820001002C4E650F8043C23F003031C440AE7DA
:10483000314638467446D046FFF704FE3E4602E74E
:104840003A46F7E6314638461C46D046FFF7FAFDB1
:104850003E46F8E6B368CAF81030F368CAF8143078
:10486000242A1BD010360AF11803AEE7336903611E
:104870007369436106F1180200F1180397E600BF5F
:10488000548CFF1FB168CAF81010F168CAF81410F0
:10489000242A0FD010360AF11802CBE63369CAF881
:1048A00018307369CAF81C3018360AF120038CE7F7
:1048B0003A4664E73269CAF818207269CAF81C20BF
:1048C00018360AF12002B5E6314638460193FFF763
:1048D000B9FD019B59E7B168CAF81010F168CAF830
:1048E0001410242A03D010360AF1180247E732695F
:1048F000CAF818207269CAF81C2018360AF120027A
:104900003DE700BF38B5074C002305460846236045
:10491000FDF7B0F8431C00D038BD2368002BFBD056
:104920002B6038BD3C95FF1F80EA0102844612F0DF
:10493000030F4FD111F0030F32D14DF8044D11F098
:10494000040F51F8043B0BD0A3F101329A4312F04B
:10495000803F04BF4CF8043B51F8043B16D100BF24
:1049600051F8044BA3F101329A4312F0803FA4F1B5
:1049700001320BD14CF8043BA24312F0803F04BF3C
:1049800051F8043B4CF8044BEAD023460CF8013BA9
:1049900013F0FF0F4FEA3323F8D15DF8044B704753
:1049A00011F0010F06D011F8012B0CF8012B002A91
:1049B00008BF704711F0020FBFD031F8022B12F080
:1049C000FF0F16BF2CF8022B8CF8002012F47F4F3B
:1049D000B3D1704711F8012B0CF8012B002AF9D143
:1049E000704700BFFFFFFFFFFFFFFFFFFFFFFFFF5D
:1049F000FFFFFFFFFFFFFFFFFFFFFFFFFFFFFFFFC7
:104A000090F800F06DE9024520F007016FF0000C0E
:104A100010F0070491F820F040F049804FF00004B6
:104A20006FF00700D1E9002391F840F000F1080091
:104A300082FA4CF2A4FA8CF283FA4CF3A2FA8CF3C9
:104A40004BBBD1E9022382FA4CF200F10800A4FA30
:104A50008CF283FA4CF3A2FA8CF3E3B9D1E9042384
:104A600082FA4CF200F10800A4FA8CF283FA4CF3BB
:104A7000A2FA8CF37BB9D1E9062301F1200182FA75
:104A80004CF200F10800A4FA8CF283FA4CF3A2FA7B
:104A90008CF3002BC6D0002A04BF04301A4612BA89
:104AA000B2FA82F2FDE8024500EBD2007047D1E98C
:104AB000002304F00305C4F100004FEAC50514F01B
:104AC000040F91F840F00CFA05F562EA05021CBFEC
:104AD00063EA050362464FF00004A9E740EA0103D8
:104AE0009B0770B42BD1032A29D90C4603462146D3
:104AF00054F8046BA6F1013525EA060515F0803F50
:104B000006D1043A032A43F8046B2146EFD8A2B138
:104B10000C781C70013A013301313CB16AB111F8D3
:104B2000014B03F8014B013A002CF7D12AB11A448A
:104B3000002103F8011B9A42FBD170BC7047034669
:104B4000E5E700BFF0B5DFF878E0164604460F460B
:104B5000BEE80F008BB06D460FC5BEE80F000FC555
:104B60009EE80300B31E45F8040B222B297022D8BF
:104B70007D1E2846002200E01A46B4FBF6F10AAB7F
:104B800006FB114423440C4613F8283C00F8013F6F
:104B9000531C0029F0D1F954BB184AB1197815F803
:104BA000010F29700134111B8C4203F80109F5DB58
:104BB00038460BB0F0BD002038700BB0F0BD00BF20
:104BC000487500002DE9F047254C2568D5F8484187
:104BD0000646884692469946C4B360681F2817DC8B
:104BE000431C76B104EB80050122C5F888A0D4F8F7
:104BF000881182401143022EC4F88811C5F808912B
:104C00001ED00230636044F820800020BDE8F087A9
:104C1000144B03B34FF4C870FFF74CF90446D0B1FE
:104C2000D5F84831002780E88800C5F84841384663
:104C30000123C4F88871C4F88C71002EE1D0D1E74B
:104C4000D4F88C110A43C4F88C21DAE705F5A67470
:104C5000C5F84841C1E74FF0FF30BDE8F08700BF1D
:104C600044750000B53E0000024B13B1024800F04D
:104C700005B8704700000000754D00000023014694
:104C80001A461846FFF79EBF2DE9F04788B0364C0C
:104C9000119DD4F8009006460F4614469846002D04
:104CA00043D00022314B30463946FEF793FD80BB9E
:104CB0000DF11C0E0321109B039300913B46CDF890
:104CC0000880019432464846CDF810E000F070FDAF
:104CD000079BD8F800109842C1F100012ED2491B61
:104CE0002B4610F8012B03F8012B079A824203EBA5
:104CF0000106F6D8B44224DDA21B1A44302103F881
:104D0000011B9A42FBD100231370284608B0BDE86E
:104D1000F0870022164B30463946FEF779FD002811
:104D2000C6D00DF11C0E0221C5E7D9F8502004F1C0
:104D300023039A4207DDD9F85450B2E70E462B46BA
:104D4000D8E71A46DFE704F1240A5246D9F854108E
:104D50004846FFF7E7FB05460028D6D0C9F850A023
:104D6000C9F854009DE700BF508CFF1F0000F03FC2
:104D70000000F0BF38B5074D074C2C1BA41005D020
:104D8000013C55F8043D9847002CF9D1BDE8384066
:104D900002F084BC0000000000000000F8B5234FC2
:104DA0000C460646FFF7B2FBBB685D6825F00305BD
:104DB000291B01F6EF7121F47F6121F00F01A1F5AC
:104DC0008054B4F5805F07DB00213046FFF79AFD81
:104DD000BB682B44984204D03046FFF799FB002073
:104DE000F8BD61423046FFF78DFD01300DD0104B0C
:104DF000BA6819682D1B45F001053046091B55603E
:104E00001960FFF785FB0120F8BD00213046FFF750
:104E100079FDBA68831A0F2BDEDD064C044924683D
:104E200043F00103001B53600860D5E7548CFF1F5B
:104E30000095FF1F6090FF1F002945D02DE9F0412C
:104E40000D468046FFF762FB55F8047C6A4927F05F
:104E50000103A5F10804E2188E685068B24220F000
:104E6000030062D0FE0750600BD455F8087CE41BA9
:104E700001F1080EA56875453B446FD0E768EF6007
:104E8000BD6015186D68ED0742D543F00102626000
:104E9000E350B3F5007F18D2DB085A1C4D6851F877
:104EA0003270A76001209B1000FA03F301EBC200EF
:104EB0001D430838E0604D6041F83240FC604046D8
:104EC000BDE8F041FFF724BB70475A0A042A53D8C3
:104ED0009A0902F139077F0002F1380501EB8700DA
:104EE00051F827204449083890424DD0516821F0AC
:104EF00003018B4202D292689042F7D1D068E06001
:104F0000A2608460D4604046BDE8F041FFF700BB7A
:104F100095683A4FBD4203443FD0D068E86043F003
:104F2000010285606260E350B3E7FF07034407D4E2
:104F300055F8082CA41A1344A068E268C260906077
:104F40002F4A126843F00100934260608C60B6D330
:104F50002C4B40461968FFF721FFB0E7111849684C
:104F6000C90744D49168D268CA60034443F0010081
:104F700091606060E350A2E7142A17D802F15C0741
:104F80007F0002F15B05A9E7AA104B68012505FA2D
:104F900002F213434B600246B1E743F001024C6159
:104FA0000C61E560A5606260E35088E7542A06D88A
:104FB0001A0B02F16F077F0002F16E058EE7B2F562
:104FC000AA7F06D8DA0B02F178077F0002F1770595
:104FD00084E740F25450824206D89A0C02F17D07D1
:104FE0007F0002F17C0579E7FE277E2576E743F016
:104FF00001026260E35062E7548CFF1F5C8CFF1F6C
:105000005C90FF1FFC94FF1FC36C70B505460C46F7
:105010004BB153F8240080B1026843F824200023E8
:105020000361C36070BD2122042100F0FBFAE86433
:1050300003460028EDD1002070BD012101FA04F6DD
:10504000721D2846920000F0EDFA0028F3D044606B
:105050008660E4E731B1C36C4A6853F82200086007
:1050600043F82210704700BFF0B50C6983B00D46BD
:10507000064601F1140E0027DEF8000081B202FBA3
:1050800001310B0C000C02FB003389B2013701EB3C
:105090000341BC424EF8041B4FEA1343ECDC3BB126
:1050A000AA68944207DA05EB8402013453612C614B
:1050B000284603B0F0BD6968019301313046FFF71F
:1050C000A3FF2A69023205F10C01074692000C3059
:1050D000FCF7EEFBF26C6968019B52F82100286036
:1050E00042F821503D46DEE7030C1B04B3B900042F
:1050F000102310F07F4F04BF0002083310F0704FF0
:1051000004BF0001043310F0404F04BF800002339D
:10511000002807DB420003D4202070470023E8E783
:10512000581C704718467047036813F0070207D0F1
:10513000D90720D49A0720D49B0803600220704727
:1051400099B209B91B0C102213F0FF0F04BF1B0A00
:105150000832190704BF1B090432990704BF9B08D2
:105160000232D90704D45B0801D1202070470132F4
:10517000036010467047002070475B080360012001
:10518000704700BF10B50C460121FFF73DFF01221B
:105190004461026110BD00BF2DE9F04F0D69176930
:1051A000BD4283B00C46164604DA2A4634463D46D4
:1051B0000E461746A368616805EB07089845C8BF07
:1051C0000131FFF721FF00F1140C0CEB8809CC45ED
:1051D000009005D26346002143F8041B9945FBD893
:1051E00006F1140202EB870A04F11403524503EBA3
:1051F000850E54D2CDF80490994652F8043B1FFA1C
:1052000083FBBBF1000F20D000204F4666460546C9
:1052100000E01E4657F8044B3068A1B283B20BFB86
:105220000131240C000C4B190BFB040000EB134064
:1052300099B2334641EA0041BE454FEA104543F872
:10524000041BE6D8756052F8043C5FEA134B20D08B
:10525000DCF80030674618464D46002100E037462E
:105260002C88000C0BFB040001449CB23E4644EA2F
:10527000014346F8043B786855F8044B83B2240C8C
:105280000BFB043404EB1143AE454FEA1341E6D85F
:105290007B6092450CF1040CAFD8DDF80490B8F1B6
:1052A000000F0BDD59F8043CA9F104091BB105E01E
:1052B00059F8043D13B9B8F10108F9D10098C0F8C4
:1052C000108003B0BDE8F08F12F003032DE9F04128
:1052D000144607462ED10E46A4101CD0BD6C95B3C3
:1052E000E3074FF0000806D4641014D02868A8B172
:1052F0000546E307F8D52A4631463846FFF74CFF06
:10530000B6B17268FB6C641053F82210316043F838
:1053100022600646EAD13046BDE8F0812A46294699
:105320003846FFF739FF2860C0F800800546E0E7FF
:105330000646D9E75A1E0B4D002355F82220FFF7E9
:1053400093FE0646C8E701213846FFF75DFE40F2AE
:10535000712101220023416102610546B8640360A6
:10536000BEE700BF387600002DE9F04791460A6994
:105370008B684FEA691404EB020808F101059D42AD
:105380000E468246496804DD5B009D4201F1010141
:10539000FADC5046FFF738FE002C00F1140238DD2D
:1053A00002EB8403002142F8041B9342FBD13469D1
:1053B00006F1140119F01F0901EB840E21D0C9F187
:1053C000200200240F6807FA09FC4CEA04049C46FA
:1053D00043F8044B51F8044B8E4524FA02F4F1D8FB
:1053E000CCF804400CB108F10205DAF84C307268D0
:1053F000013D53F822100561316043F82260BDE899
:10540000F087043B51F8042B43F8042F8E45F9D85C
:10541000EBE71346CBE700BF02690B69D21A12D142
:105420009B0014301431194410B4034401E0984235
:105430000BD253F8044D51F8042D9442F7D007D302
:10544000012010BC704710467047002010BC704708
:105450004FF0FF30F5E700BF2DE9F8430B690F4629
:1054600011695B1A002B904617D1890007F11402CD
:1054700008F114055318294401E09A425ED253F80A
:10548000046D51F8044DA642F7D060D23B46144655
:1054900047464FF00109984606E05DDB07F1140529
:1054A00002F114044FF000097968FFF7ADFDD8F858
:1054B00010303E69C0F80C9004EB830CA64605EB57
:1054C000860700F1140400235EF8041B55F8048BD2
:1054D0008AB213FA88F3090C9A1AC1EB184303EB4A
:1054E000224392B242EA0342F44544F8042B4FEAC5
:1054F0002343E9D8AF4217D9A446294651F804EB13
:1055000013FA8EF2131403EB1E4392B242EA0342E3
:105510008F424CF8042B4FEA2343EFD8ED433D4430
:1055200025F0030504352C44043C22B954F8043D0D
:10553000013E002BFAD00661BDE8F8830021FFF799
:1055400063FD0122002302614361BDE8F8832C461C
:105550004FF000091546A7E73B4607F1140408F190
:10556000140547464FF0010998469DE72DE9F041A3
:1055700082B001211C46C3F30A571546089EFFF767
:1055800043FDC4F3130480460FB144F48014019426
:105590001DB302A840F8085DFFF7C6FD002834D10E
:1055A0009DE80C00C8F81420002B0CBF012102213B
:1055B000C8F81830C8F81010DFB908EB8103A0F262
:1055C000324030601869FFF78FFD099BC0EB411036
:1055D0001860404602B0BDE8F08101A8FFF7A4FDC5
:1055E000019BC8F8143001212030C8F81010002F9A
:1055F000E3D0099BA7F233470744C0F13500376079
:105600001860404602B0BDE8F0819DE80C00C0F192
:10561000200103FA01F10A43C3400193C8F81420A2
:10562000C2E700BF10B502FB01F1FEF753FC0446D0
:10563000D8B150F8042C22F00302043A242A18D8D6
:10564000132A14D900231B2A0360436016D9242A85
:105650008360C36011BF00F110020361436100F178
:1056600018020023136053609360204610BD024669
:10567000F7E70021FCF7B6F9204610BD00F108025B
:10568000EFE700BF02690B69934200F38D802DE9BB
:10569000F04F03F1FF3801F1140700F1140B57F834
:1056A00028205BF828304FEA880483B00132B3FB2E
:1056B000F2F90BEB0403009407EB040A0193B9F130
:1056C000000F39D00025BC46DE462B465CF8046B43
:1056D000DEF80020B4B209FB0455360C2C0C09FB93
:1056E0000644ADB25B1BA6B213FA82F3C6EB1246B8
:1056F00006EB23469BB243EA0643E2454EF8043BE1
:105700004FEA14454FEA2643E0D2009B5BF8033092
:1057100093B9019C231F9B450CD254F8043C4BB910
:10572000A4F1080302E01A68043B1AB99B4508F18A
:10573000FF38F8D3C0F810800446FFF76DFE00284C
:105740002EDB09F101095D46002357F8041B286888
:105750008AB29A1A090C12FA80F2C1EB104303EBD9
:10576000224391B241EA0341BA4545F8041B4FEA8E
:105770002343EAD25BF828200BEB880382B91A1F77
:1057800093450BD253F8042C42B9083B02E01A6847
:10579000043B1AB99B4508F1FF38F8D3C4F81080D0
:1057A000484603B0BDE8F08F00207047FFFFFFFFC1
:1057B0002DE9F04F016C97B08146239C92469B46A1
:1057C00049B1426C4A60012393408B60FFF742FC71
:1057D0000023C9F84030BBF1000FD84633DB00236B
:1057E0002360A54B1A4608EA0303934214D050469F
:1057F000594600220023FDF7E3FF054648B3229AED
:1058000001231360249B002B00F0C5809B48186087
:10581000013817B0BDE8F08F229A42F20F7313607F
:10582000BAF1000F00F0A2809548249B002BF0D025
:10583000C378002B00F0B18000F10803249A1360B4
:1058400017B0BDE8F08F01232BF000482360C3465A
:10585000C7E714AA15AB0192009352465B4648462F
:10586000FFF784FE5FEA1854089040F08880149D8A
:10587000159C2C4404F23243202B40F39182C3F157
:10588000400304F2124008FA03F82AFA00F040EA52
:105890000800FDF7B7FC0123013CA1F1F87110935A
:1058A0000022784BFDF770FB6DA3D3E90023FDF7D1
:1058B0001FFD6DA3D3E90023FDF768FB06462046D4
:1058C0000F46FDF7AFFC6AA3D3E90023FDF710FDF7
:1058D00002460B4630463946FDF758FB06460F4652
:1058E00000F092FE00220490002330463946FDF776
:1058F00071FF002840F03082049E162E00F22982AB
:10590000614B03EBC603D3E9000152465B46FDF74A
:105910007FFF002800F04982731E049300230C933C
:105920002C1B631E029300F1328200230593049B1B
:10593000002BC0F22382029A0B93114619440023D4
:1059400002910A93209B092B29D8052B40F35886F6
:10595000043B20930025209B023B032B00F235865D
:10596000DFE813F02C03280237035904444B474A5D
:10597000C8F31300002814BF1846104655E7CBF3B0
:10598000130343F07F5110955046A4F2FF3441F4C5
:105990004011149D84E73E483BE7C31C4EE70021BD
:1059A000C9F8441048462091FFF72EFB4FF0FF3313
:1059B0000693209A0D93012307902192C9F8400085
:1059C0000993159B002BC0F2D180049A0E2A00F394
:1059D000CD802D4B03EBC203D3E90034CDE9023473
:1059E000219B002BC0F2008356465F465046594625
:1059F000DDE902AB52465B46FDF7A4FD00F004FE74
:105A00000446FDF70FFC52465B46FDF771FC0B4662
:105A1000024639463046FDF7B7FA079D04F13003D8
:105A20002B70069B012B06460F4605F1010562D03F
:105A30000022184BFDF75CFC0022002306460F46AF
:105A4000FDF7BEFE00287ED1CDF81490DDF818A039
:105A5000DDF81CB0DDE9028929E000BFAFF300806A
:105A600061436F63A787D23FB3C8608B288AC63F64
:105A7000FB799F501344D33F0000F07F81760000F4
:105A80007C7600000000F83F707500007076000022
:105A90008076000000002440FDF72AFC002200234D
:105AA00006460F46FDF78CFE002840F0B7834246BD
:105AB0004B4630463946FDF745FD00F0A5FD04464E
:105AC000FDF7B0FB42464B46FDF712FC02460B4683
:105AD00030463946FDF758FA04F1300E05F801EB6F
