:1000000000800020BD010000CD1A0000851A00000C
:10001000851A0000851A0000851A0000851A000064
:10002000851A0000851A0000851A0000CD1A00000C
:10003000CD1A0000851A000041340000453500004B
:10004000CD1A0000CD1A0000CD1A0000CD1A000014
:10005000CD1A0000CD1A0000CD1A0000CD1A000004
:10006000CD1A0000CD1A0000CD1A0000CD1A0000F4
:10007000CD1A0000CD1A0000CD1A0000CD1A0000E4
:10008000CD1A0000CD1A0000CD1A0000CD1A0000D4
:10009000CD1A0000CD1A0000CD1A0000CD1A0000C4
:1000A000CD1A0000CD1A0000CD1A0000CD1A0000B4
:1000B000CD1A0000CD1A0000CD1A0000CD1A0000A4
:1000C000CD1A0000CD1A0000CD1A0000CD1A000094
:1000D000CD1A0000CD1A0000CD1A0000CD1A000084
:1000E000CD1A0000CD1A0000CD1A0000CD1A000074
:1000F000CD1A000061360000CD1A00008D370000D7
:10010000CD1A0000B9380000CD1A0000CD1A000049
:10011000CD1A0000CD1A0000CD1A0000CD1A000043
:10012000CD1A0000CD1A0000CD1A0000CD1A000033
:10013000CD1A0000CD1A0000CD1A0000CD1A000023
:10014000CD1A0000CD1A0000CD1A0000CD1A000013
:100150002116000035160000491600005D1600004B
:10016000CD1A0000F5220000CD1A0000CD1A0000C3
:10017000CD1A0000CD1A0000CD1A0000CD1A0000E3
:10018000CD1A0000CD1A0000CD1A0000CD1A0000D3
:10019000CD1A0000CD1A0000CD1A0000CD1A0000C3
:1001A000CD1A0000CD1A0000CD1A0000CD1A0000B3
:1001B000CD1A0000CD1A000059140000564B4CF225
:1001C000205210B51A804DF628121A8000BF00BFC9
:1001D00001F080FC514B4FF010621A60504A9A6057
:1001E000504ADA60504A136813F4807304D14F49BF
:1001F0000B604FF4A85313604D4B1A78110703D5C9
:100200001A7842F008021A704A4B4B492A221A7097
:100210004A4A4B4B8B4204D252F8040F43F8040B6A
:10022000F8E7484B484900228B4202D243F8042B9E
:10023000FAE74649464A002352F8230041F82300D2
:1002400001336F2BF8D1434B434A802103F8011B44
:100250009342FBD1414B3D4A1A60414B8A221A70AE
:10026000A3F5805324225A70A0221A709A7992071B
:10027000FCD59A79D406FCD43A4A937903F00C035E
:10028000082B384BF9D105221A7143225A719A79F9
:100290009006FCD5334A9179324B4906FBD5324A58
:1002A0004FF0817111600521516020221A709A79F6
:1002B00002F00C020C2AFAD12C4B2D4A1A602D4B5D
:1002C0002D4A1A6000225A60072243F8042C2B4A58
:1002D000C3F80C2D62B601F0C3FE144B1B68DA079D
:1002E00005D5274801F030FE264B274A1A60274BD8
:1002F0001B785B0609D5234C234B22689A4204D114
:100300001F4801F021FE0023236004F075FB01F07B
:10031000E7FB01F015FBFEE70E20054030800440AE
:10032000823F04000100002B10D0034014D0034092
:1003300002D0074000E00740C015002024990000CB
:10034000200B0020C0150020681A002000060020A5
:100350000000000000E400E05FE400E008ED00E0E1
:1003600000500640004006404480044004800440A1
:10037000C010050014E000E03F190100000020203B
:10038000ABE6625C1CE00340A5C3945A00F0074052
:10039000FFFFFFFFFFFFFFFFFFFFFFFFFFFFFFFF6D
:1003A000FFFFFFFFFFFFFFFFFFFFFFFFFFFFFFFF5D
:1003B000FFFFFFFFFFFFFFFFFFFFFFFFFFFFFFFF4D
:1003C000FFFFFFFFFFFFFFFFFFFFFFFFFFFFFFFF3D
:1003D000FFFFFFFFFFFFFFFFFFFFFFFFFFFFFFFF2D
:1003E000FFFFFFFFFFFFFFFFFFFFFFFFFFFFFFFF1D
:1003F000FFFFFFFFFFFFFFFFFFFFFFFFFFFFFFFF0D
:10040000FFFFFFFFFFFFFFFFFFFFFFFFDEF9FFFF23
:1004100010B5054C237833B9044B13B10448AFF33E
:1004200000800123237010BDC015002000000000D3
:1004300020990000084B10B51BB108490848AFF3DC
:1004400000800848036803B910BD074B002BFBD0A0
:10045000BDE81040184700BF00000000C415002090
:1004600020990000C01500200000000010B50446CF
:1004700001F0B4F8204610BD10B5044600F0A4FF0A
:10048000204610BD10B50121032001F06FFD0121B0
:10049000062001F06BFD114B1B6B012183F800114D
:1004A000084601F063FD80210D4800F085FE0D4BEC
:1004B000188804F02DF80C49044604F03DFA28B1E0
:1004C0000A480B4B0022D8611A6210BD0949204628
:1004D00004F076F804F050FAF3E700BFC093000090
:1004E0000082FF1F300B0020A655AC4680FFFF7F27
:1004F000D01600204B24BE472DE9F041294CDFF8EF
:10050000BC80294F294E2A4D2146002006F0A4FA2E
:1005100004F052FA03F0F6FE2146C8F8000000206D
:1005200006F09AFA04F048FA03F0ECFE214638602F
:10053000002006F091FA04F03FFA03F0E3FE2146B2
:100540003060002006F088FA04F036FA03F0DAFE94
:1005500021462860002006F07FFA0022114606F0AE
:1005600051FB144B21461880002006F075FA04F068
:1005700023FA03F0C7FE21463060002006F06CFA33
:1005800004F01AFA03F0BEFE21462860002006F0AF
:1005900063FA0022114606F035FB074B1880BDE8D0
:1005A000F08100BF849100002C0B0020440B002040
:1005B000380B0020300B0020320B0020240B0020D1
:1005C00008B501F0D9FC094B186001F0D5FC084BC7
:1005D000084A09491860002313800B7001F0CCFC15
:1005E000064A074B106001221A7008BDFC16002055
:1005F000F8160020F4160020EC150020E815002065
:100600002417002008B50A4800F0E8FF094A0A4B01
:10061000926A0A48012182F80011002204211A700E
:1006200002F04EFD0648BDE8084001F047B800BFA3
:10063000DC150020C09300002417002088910000E2
:100640005C0B002038B503F067FF1E4904F06CF81E
:100650001D4903F0ADFE1D4B1C682146054604F004
:100660006BF91B4BC8B12046196803F0A1FE044684
:100670000146284604F042F9D8B92146284604F03C
:100680005BF948B1134B1A7832B1134A91690120D2
:10069000002281F800011A7038BD2046196803F065
:1006A00087FE04462146284604F046F90028E9D191
:1006B000F2E7094B074A9969012381F880301370EA
:1006C00038BD00BF00007A440000C841240B002060
:1006D0002C0B0020F6160020C09300002DE9F041FD
:1006E000164698460C4603F017FF32499DF81870DD
:1006F00004F01AF8304903F05BFE2146054604F089
:100700001BF9314660B3204603F052FE0446014611
:10071000284604F0F3F838B3012F3ED0274B0122CE
:100720001A70274B012240461A7003F0F5FE002193
:10073000044604F0E3F8002839D12249204604F0A9
:10074000FBF800282CD02048204A214B9168D86122
:10075000012040F6CC4281F880001A62BDE8F081A9
:10076000204603F025FE04462146284604F0E4F81E
:1007700088B1184A114913780BB90B785BB1134B48
:100780000F4C9D6812480023012685F800612370F4
:1007900013700B700362BDE8F0810E4B1F70C0E751
:1007A0000D49204603F00CFF04F0E6F8CCE70020EA
:1007B000CAE700BF00007A440000C84101170020CA
:1007C000ED150020A655AC4680FFFF7FC0930000CA
:1007D000D0160020001700204B24BE4784B070B50F
:1007E000A0B024AC84E80F0068462699404E414DE5
:1007F000414C0A2201F00CF80A22259904A801F0C4
:1008000007F89DF89C1008A800F0DAFF9DF89D10ED
:100810000CA8002914BF3146294600F09FFF9DF81F
:100820009E1010A8002914BF3146294600F096FFFB
:100830009DF89F1014A8002914BF3146294600F0E6
:100840008DFF9DF8A01018A8002914BF3146294635
:1008500000F084FF69461CA800F094FF21781CA8D2
:1008600001F044F804A901F039F8217801F03EF8CC
:1008700008A901F033F8217801F038F80CA901F04B
:100880002DF8217801F032F810A901F027F821782D
:1008900001F02CF814A901F021F8217801F026F8D4
:1008A00018A901F01BF80146144800F0E1FE1348B6
:1008B00000F004FF1CA800F011FF18A800F00EFFC4
:1008C00014A800F00BFF10A800F008FF0CA800F01F
:1008D00005FF08A800F002FF04A800F0FFFE68462C
:1008E00000F0FCFE20B0BDE8704004B0704700BFCF
:1008F0009091000094910000340B00205C0B0020CC
:100900002DE9F04FDFF8ACA1DFF8AC81DAF8303038
:10091000564D574F574EDFF8A4914FF0010B89B059
:1009200083F880B001F028FB044601F025FBD8F8DD
:100930000030C01A286001F01FFB3B683278C01AF3
:10094000C9F80000002A7AD04B4F28683B88DFF8AE
:100950001CB101333B8003F0DFFD484903F0E4FEA6
:10096000474903F025FD474B196803F0E5FF90B1B7
:100970003378454A01331278DBB29A42337059D347
:1009800001F0FAFAC8F8000001F0F6FAD8F80030E1
:10099000C01ACBF800003D4B3D4A3E4928681B88F1
:1009A000126809684FF0010ECDF800E0FFF796FEDF
:1009B000394B3A4A3A491B881268096828684FF04F
:1009C000020ECDF800E0FFF789FE2868FFF73AFE37
:1009D00034483549354A364BD5F800C0B7F800E001
:1009E0003578D9F800700078097812781B78CDF83E
:1009F00010C0ADF80CE005978DF818508DF819006F
:100A00008DF81A108DF81B208DF81C3001F0B4FA07
:100A1000001BB0F57A7FF9D3DAF83020079C01216A
:100A200003AB82F800110FCB0094FFF7D7FE09B09B
:100A3000BDE8F08F09B0BDE8F04FFFF7E3BD86F8E1
:100A400000B001F099FAC8F8000001F095FA38609A
:100A500001F092FAD8F80030C01A286001F08CFA40
:100A60003B68C01AC9F800006EE700BFF01500200F
:100A7000FC160020EC150020F416002000007A443B
:100A80000000C841E4150020400B0020300B00207E
:100A9000380B0020440B0020320B00203C0B0020C0
:100AA000280B0020F6160020001700200117002058
:100AB000ED150020C0930000F8160020201700203C
:100AC0002DE9F04F91B00C4603F056FF304A314B00
:100AD000314F1070012105201C6001F047FABB6AFC
:100AE0002E4D2F4E012483F880400A2001F068FA31
:100AF000FFF766FD3B6B2F4683F88040DFF8AC8044
:100B0000DFF8AC90C2463378002B39D001F034FACC
:100B10002C68001B03F0FCFC224903F0EFFE834627
:100B20000028F3D104F5434450343C60FFF7E8FE5D
:100B300002F04CFA0028E6DDD9F800300293029C5E
:100B400008E0D9F800300193019BD8F808201B1B5E
:100B5000934218D203ABCBF1320103EB0B0002F04E
:100B600043FA8344BBF1310FEBD902F05DFB03A8DC
:100B70000D4904F029FD0028C5D0FFF743FDBDE76E
:100B800011B0BDE8F08F01238AF80C30EDE700BF0B
:100B9000400B0020E4150020C0930000E815002061
:100BA0002417002000504347989100005C0B002060
:100BB000701700202DE9F0417C4B1C78AEB014B1C9
:100BC0002EB0BDE8F08102F001FA0028F8DD784D82
:100BD000784E2B680193DDF80480774F08E02B688E
:100BE0000093009BBA68C8EB0303934280F0DA805D
:100BF000C4F1C801301902F0F7F90444C72C6E495A
:100C0000EDD902F011FB6D496A4805F025FF03F0AC
:100C1000D3FE03F077FB69490446002005F01CFF72
:100C200003F0CAFE03F06EFB0546FFF765FC0222E7
:100C3000214602A800F000FE02A906A800F0A2FDCD
:100C400006A82C2100F052FE0222064629460AA8D8
:100C500000F0F2FD0AA9304600F040FE2C2100F021
:100C600045FE574B0222196806460EA800F0E4FD27
:100C70000EA9304600F032FE2C2100F037FE514B19
:100C800002221968064612A800F0D6FD12A93046C5
:100C900000F024FE2C2100F029FE4B4B02221968A3
:100CA000064616A800F0C8FD16A9304600F016FE4C
:100CB0002C2100F01BFE454B0222196806461AA89B
:100CC00000F0BAFD1AA9304600F008FE2C2100F011
:100CD0000DFE3F4B0A22198806461EA800F084FD2F
:100CE0001EA9304600F0FAFD2C2100F0FFFD394B23
:100CF00002221968064622A800F09EFD22A930466D
:100D000000F0ECFD2C2100F0F1FD334B02221968BC
:100D1000064626A800F090FD26A9304600F0DEFD2C
:100D20002C2100F0E3FD2D4B0A22198806462AA843
:100D300000F05AFD2AA9304600F0D0FD01461E48B9
:100D400000F096FC1C4800F0B9FC2AA800F0C6FC94
:100D500026A800F0C3FC22A800F0C0FC1EA800F0EA
:100D6000BDFC1AA800F0BAFC16A800F0B7FC12A847
:100D700000F0B4FC0EA800F0B1FC0AA800F0AEFC34
:100D800006A800F0ABFC02A800F0A8FC294620460B
:100D9000FFF796FE124B1B6B012283F800212EB049
:100DA000BDE8F08101230B732BE700BF241700205F
:100DB00070170020F41500205C0B002084910000C7
:100DC000240B00202C0B0020440B0020380B0020AB
:100DD000300B0020280B00203C0B0020320B0020A1
:100DE000C0930000F8B5374F374D3A68374929604E
:100DF00000236B722B612B72EB600AB95DE01A461F
:100E00005369002BFBD15561314CDFF8ECE02160D8
:100E10000126002104F118024FF4804066720B464F
:100E200022616961A980E980A9722172E160264688
:100E3000C5F800E0286200E0326942F82310627AC7
:100E4000234801339A42F7DC3A681E4B0AB936E070
:100E50001A465369002BFBD1546100261D4F1E4BCF
:100E60006661A680E680A6721948236000F0ACF89F
:100E700038467C603E723D607E72FE603E7400F0DB
:100E80006FFA164A1649384602F0C4FD01F074F8AC
:100E9000144B186001F070F8134B186001F06CF8F7
:100EA000124B13491E6080241C7108600B4A1149C3
:100EB0001846BDE8F84002F0ADBD3D60A4E71860FB
:100EC000CBE700BF3C170020D01600208091000027
:100ED00004170020BC160020A8910000200B002061
:100EE00079040000E8150020FC160020DC15002025
:100EF000F81600206D040000B491000010B5002128
:100F000000F022FA70B172B60A4B1A6872B10A493F
:100F10000C6844B11C60086062B61046BDE8104021
:100F200000F0CEB910BD086062B610BD186062B6A0
:100F300010BD00BF381700202817002038B5184B07
:100F400018491A68184C12681B79184D0B70A24288
:100F5000286836BF2246A4F5807202F58074C0B1BD
:100F6000011D31F9023B03F500431B1122F8023B3E
:100F70009442F6D800F0A4F90D4B002219682960BC
:100F80001A600C4B1B781BB10B4B4FF080421A6060
:100F900038BD4FF4006322F8023B9442FBD8F0E7DF
:100FA0002C1700201F80004000050020381700206B
:100FB000281700203417002008E200E010B504468E
:100FC00000F0F0FA204610BDF8B501214248434E2A
:100FD00000F084FA424A43491368802043F4805366
:100FE00013600024087040F608053480012008349E
:100FF00000F0E6FFA3B2AB421CB2F6D13A4B1B683D
:101000005B0208D5394B1A6848F6A273134048F6BC
:10101000A27293424FD03449344A0B68344F354D55
:101020003548364C43F480030B604FF0010E40F21C
:101030002F3648F6A37140F20113C7F800E02E6086
:10104000116014600360244C2D4A236823491A6000
:1010500002259D802279196102F1804202F5043255
:10106000284EDE6040F20111D9804FF480700021DB
:101070000627B026D8829D60D88399829F83996184
:101080001170167000F0D0F922791F4B1F4E1870A6
:1010900053119B0003F160431D4C327003F5614313
:1010A00002F1100002F01F0701211A4D44F82050F0
:1010B000B9401960F8BD0F4B1A6840F22F339A42BD
:1010C000A9D10B4B1B68012BA5D10B4B1A6840F221
:1010D00001139A429FD1B6E72C17002000C00C40A4
:1010E0002C80044021C00C403C8004400060034040
:1010F0000C6003400460034010600340A28F0100B5
:101100000004002000FEFFFF341700201B80004079
:10111000000600203D0F0000024A0349034802F088
:1011200079BC00BF200B0020BD0F00002C17002051
:10113000036A2DE9F04780464BB9D8F81830D8F843
:101140001C2003EBC213C8F81830BDE8F08700F08C
:1011500063F806460028F0D0D8F81890D8F81C702C
:10116000D8F820C0134D4946841C00F5817E0B0E33
:101170005A1C35F9130035F91220C1F30F2ACAF5AC
:10118000803300FB03F30AFB023353FB0CF324F818
:10119000023FA6453944EAD109EBC7174046C8F8D3
:1011A00018703146002200F0B5F83046BDE8F0472F
:1011B00000F086B8B8910000C029F0B428BFC02163
:1011C00072B6124B124E134A18600023138033601C
:1011D0007360B360F36033617361012799B15D0996
:1011E00003F01F0456F8252007FA04F401332243C4
:1011F0008B4246F82520F2D10023438001338B42F5
:1012000000F58270F9D162B6F0BC70474417002037
:101210004C17002066170020F0B472B6234F244EFE
:101220003C8806F1180306EB8400984212D256F867
:10123000241099B9021D06F11B05631CAD1A03EBBE
:10124000950503E052F8041B41B90133AB421C463B
:101250001046F7D162B60020F0BC7047B1FA81F3B6
:101260004FF00042DA4021EA0201016001B9013485
:1012700010493C800A88013294B20C8062B6801B0F
:101280008010C3EB401000EB801083000A480B492C
:10129000006803F5FB531C330125C5540D88AA4291
:1012A000184488BF0C80F0BC704700BF6617002050
:1012B0004C1700206817002044170020401700201A
:1012C000428872B60378012B03D9013B037062B6E2
:1012D0007047531170B40C4C0C4D54F823102E88E9
:1012E000D2434FF0004002F01F0220FA02F21143F5
:1012F000074A44F82310B34238BF2B801388013BC0
:10130000138062B670BC70474C170020661700202F
:1013100068170020C368B3B130B401E0DB688BB15B
:10132000187A9042FAD158685C7A006950F82450D3
:10133000002DF3D140F82410087801300870DB68E4
:10134000002BEDD130BC7047437A8B4206D903693C
:10135000002253F8210043F82120704700207047F5
:10136000037C23BB4368427A5B7A9A421FD830B42D
:1013700072B60468E3682BB3DA6832B119688C423C
:1013800016D01346DA68002AF8D1D8600023C3606B
:10139000A37A0133A37202684168012313728A7A27
:1013A0001A448A7242681372037462B630BC704782
:1013B0005D6841688D42E4D1198903899942F4D06E
:1013C0001346DFE7E060E1E7037C4BB34368427A12
:1013D0005B7A9A4224D872B60268D36803B3984203
:1013E00002D11EE0984202D0DB68002BFAD143689C
:1013F000427A1B69002143F822100268937A013B6C
:10140000937203689A7A02B91A724268937A013B1E
:10141000937243689A7A02B91A720023037462B60F
:101420007047C368D360E2E7084B1A7862B930B4FA
:1014300007480849D02505704FF0804401220C6010
:1014400010461A7030BC70470020704748170020C3
:101450005EE400E008E100E01A491B4A1B48F8B5C9
:101460000B681B4D046843F080730B60136843F0F6
:10147000010313602E6814B915E064699CB1237AE6
:10148000002BFAD023682F681B68204698472B68EA
:10149000E188DB1B1B099AB28B42A28088BFE280E5
:1014A0006469002CEBD10A4B0A4A1B6810880A4C6D
:1014B0009B1B1B0999B28342218001D91180F8BD81
:1014C000F8BD00BFFCED00E0001000E03C1700207C
:1014D000041000E0641700206A170020F0B572B60F
:1014E00099B902688AB103790F2B0ED8274C21884D
:1014F00041FA03F5ED070AD503F1007303F5906394
:10150000B2EB431F03D162B6F0BD204C218800230B
:1015100041FA03F212F0010207D00133102BF7D188
:1015200062B6002203710260F0BD01259D4029438F
:10153000218062B6164E174D174FDFF864E0D9B21E
:101540000171346844F0020434602C6844F00204F1
:101550002C60A6F580268224A5F5802503F1007372
:101560003C6003F59063223E243D0C4C8EF8001045
:101570005B0131702970217003601A605A609A60B3
:10158000DA601A615A619A61DA61F0BD6C17002065
:10159000408004403C800440008000401F800040A8
:1015A0001A80004003790F2B11D8094A10B4137028
:1015B00072B6084904790A880123A34022EA03038A
:1015C0000B8062B61022002310BC027103607047CA
:1015D0001A8000406C170020704700BF0168A9B155
:1015E0000B4BF0B40B441B110A4E0B4F0B4D46F83E
:1015F000237003F1440202F01F0401235211A3409F
:10160000002445F822308C600460F0BC704700BFB5
:10161000008FFCBF480B0020D915000080E100E0DE
:10162000024A034B012111601B6818470C710340EB
:10163000480B0020024A034B012111605B681847E8
:101640001C710340480B0020024A034B012111602A
:101650009B6818472C710340480B0020024A034B3B
:1016600001211160DB6818473C710340480B0020E2
:101670002DE9F0438C688BB0ECB100250646894615
:101680002F462B46212201A9484600F03FF9326837
:10169000202C234628BF2023D2F8048001A91A4613
:1016A00030461D44E41AC0470744002CE9D13846AF
:1016B0000BB0BDE8F0832746F9E700BF00B5064A46
:1016C000036812885B6883B001A9ADF80420022288
:1016D000984703B05DF804FBBC93000010B50446C6
:1016E000006803F0D7F9204610BD00BF38B5436845
:1016F0008B4201D3012038BD0D46044601310068FC
:1017000003F054FD0028F6D0A36884E82100002BE4
:10171000F0D10370EEE700BFF8B50446154632B9C4
:10172000036803B11A700023A3602046F8BD0E467B
:101730001146FFF7DBFF074648B9206810B103F0F8
:10174000A9F9276000236360A3602046F8BDA56067
:101750003146206804F0A2F8E7E700BF38B500235F
:101760000446036043608360037341B108460D463D
:1017700004F006F9294602462046FFF7CDFF204631
:1017800038BD00BF0023884210B5044603604360A3
:101790008360037303D08A680968FFF7BDFF2046A2
:1017A00010BD00BF38B5054608460C4604F0E8F801
:1017B000214602462846BDE83840FFF7ADBF00BFCE
:1017C00010B50446002382B023606360A3602373D6
:1017D0000A22084601A905F06BFA01A92046FFF785
:1017E000E1FF204602B010BD10B50446002386B0CC
:1017F00023606360A3602373084601A903F03CF9EA
:1018000001A92046FFF7CEFF204606B010BD00BF5D
:1018100010B5044600238AB023606360A36023737D
:10182000084601A900F076F901A92046FFF7BAFFA2
:1018300020460AB010BD00BF10B5044600238AB090
:10184000084623606360A3602373911C6B4600F01D
:1018500087F930B101462046FFF7A4FF20460AB0C1
:1018600010BDA06020460AB010BD00BF2DE9F843AE
:1018700003680F46BB420446816815460AD85A18C9
:10188000974207D2C3EB07094FF0010835B920464C
:10189000BDE8F8834FF00008002DF8D04E1931460E
:1018A0002046FFF723FF0028F1D0B8F1000F0ED03B
:1018B0002368A0682A4603EB0901184400F048F8A1
:1018C000236800229A55A6602046BDE8F883206868
:1018D000A3683946184403F0E1FFF4E710B58A68BD
:1018E00009680446FFF7C2FF204610BD10B582B05C
:1018F00000238DF80410012201A904468DF805305B
:10190000FFF7B4FF204602B010BD00BFB2B1A9B1CD
:1019100038B584689C420ED9E41A013A0D469442C7
:10192000016828BF144619442246284604F0E6F808
:1019300000232B5538BD00230B7038BD704700BF06
:1019400008B5FEF79FFDFFF735F901F0BDFCFAE79A
:10195000844641EA000313F003036DD1403A41D3BA
:1019600051F8043B40F8043B51F8043B40F8043B79
:1019700051F8043B40F8043B51F8043B40F8043B69
:1019800051F8043B40F8043B51F8043B40F8043B59
:1019900051F8043B40F8043B51F8043B40F8043B49
:1019A00051F8043B40F8043B51F8043B40F8043B39
:1019B00051F8043B40F8043B51F8043B40F8043B29
:1019C00051F8043B40F8043B51F8043B40F8043B19
:1019D00051F8043B40F8043B51F8043B40F8043B09
:1019E000403ABDD2303211D351F8043B40F8043BA9
:1019F00051F8043B40F8043B51F8043B40F8043BE9
:101A000051F8043B40F8043B103AEDD20C3205D3B8
:101A100051F8043B40F8043B043AF9D2043208D0B0
:101A2000D2071CBF11F8013B00F8013B01D30B8822
:101A300003806046704700BF082A13D38B078DD000
:101A400010F003038AD0C3F10403D21ADB071CBFD2
:101A500011F8013B00F8013B80D331F8023B20F83C
:101A6000023B7BE7043AD9D3013A11F8013B00F875
:101A7000013BF9D20B7803704B7843708B788370FD
:101A80006046704708B5104C08E0236859050DD42E
:101A900023681A050FD42368DB0411D42368580384
:101AA000F3D500F027FC23685905F1D501F0D8FDE6
:101AB00023681A05EFD501F069FE2368DB04EDD534
:101AC00001F0FAFEEAE700BF3480044008B5FFF7F2
:101AD000D9FF00BF014B10221A807047002005403B
:101AE000704700BF094908B50B6830B16A46184411
:101AF000A2F58052904202D20860184608BD02F05A
:101B000075FF0C2303604FF0FF3008BD580B002019
:101B1000FEE700BFF0B44D1E2E46002400E0013465
:101B2000B0FBF2F302FB1300092800F130078ABF73
:101B30003730F8B2C0B206F8010F1846002BEED1CC
:101B40000A1953704CB1107815F8016F28700133E1
:101B5000E01A834202F80169F5DB0846F0BC7047E1
:101B60002DE9F04F0D4685B085EAE57901468246BC
:101B700017461C46A9EBE57902F0E8FE002840F084
:101B80002F812AF000484046C74902F0DFFE0028B6
:101B900047D14046C44902F0BBFE0646002840D16A
:101BA0000021504602F0AAFE002814BF04200320A2
:101BB00048451DDB002DC0F274815046002102F023
:101BC0009DFE254648BB49214E2246232170627066
:101BD000A3700334002E00F07681A019202304F8AE
:101BE000013BA042FBD10023037005B0BDE8F08F9C
:101BF000002DC0EB0906E0DA002E00F05281A51995
:101C0000202304F8013BAC42FBD15046002102F0F6
:101C100075FE002800F0228100262D232B706C1CFD
:101C2000D1E702AB01AA3946504602F0CFFEBB46CF
:101C30008046DDF80490002F57D0C9F10003BB4265
:101C400000F39480404603F09BFE0646B145B8BFC2
:101C50000136B9F1000F40F098800136DDF808E058
:101C6000BEF1000F53D00136A81B002804EB06017B
:101C700053DC23462D221A700133B9F1000F63D1D2
:101C800037B11A46302002F8020B2E205870134646
:101C90008B4220D25F1C98F800201A708F4208F106
:101CA000010819D0019A4FF02E0E0BE083F801E0E5
:101CB00002338B4203F101070DD218F8010B1870A3
:101CC0008F4209D0013A0192002AEFD03B468B4265
:101CD00003F10107F1D31946002DC0F2A9800023BA
:101CE00020460B7005B0BDE8F08FB9F1000FA4D10C
:101CF00090F800806D496E4A012301939946B8F12E
:101D0000340F8CBF884690464FF0FF3397E7A81BEF
:101D1000002804EB060140F3D88001442246013834
:101D20004FF0200C02F801CBC2F10103034423441D
:101D3000002BF7DC20EAE07301332344BEF1000FEF
:101D400098D1B9F1000F9BD0A2DA002FA0D01A468B
:101D5000302002F8020B2E275F70C9EB020302F855
:101D6000010B9342FBD10022019291E7C7F10009D8
:101D70000126B1453046B8BF0136B9F1000FDFF892
:101D80003081CDF804903FF468AFBFF667AF002F05
:101D90003FF464AF09EB0703984207F102067FF6B0
:101DA0005DAF002F07DD5046424902F009FCBBF150
:101DB000010B8246F7D102AB03AA5946504602F006
:101DC00005FEDDF80490039A7B1CC9EB02029A42DF
:101DD00008BF09F10109804608BFCDF804903DE72E
:101DE0000021504602F08AFD002814BF0420032081
:101DF00048453BDA002DC0EB09063BDB4FF07E5334
:101E00005046002163F31E0002F078FD25460028AD
:101E100041D14E2341222370A37062700334002EFF
:101E200051D0A019202304F8013B8442FBD1DAE60B
:101E3000A8194342002B6FEA00007FF750AF0A4613
:101E4000202502F8015BC2F1010303440B44002B7F
:101E5000F7DC20EAE0730133194440E749214E22C0
:101E6000462329706A70AB70E81CBCE6002D16DBB7
:101E70000026C3E79EB1A519202304F8013BAC421C
:101E8000FBD14FF07E535046002163F31E0002F059
:101E900035FD88B100262D232B706C1CB9E7254633
:101EA000EFE72546B1E600BFFFFF7F7F909100007E
:101EB00094910000000020414E2341222B70AB7012
:101EC0006A70E81C8FE620468DE62346D5E600BF03
:101ED0001C4A02EBC00301295B6811D004291BD006
:101EE00052F83000002280F8802229B1022920D047
:101EF000032922D01A6070474FF480721A6070472D
:101F000052F830004FF4A27280F880121A601A68FA
:101F100022F020021A60704752F830104FF4A2727B
:101F2000012081F880021A601A6842F020021A60CB
:101F3000704740F203121A6070474FF481721A60C2
:101F4000704700BFC093000030B4054B054D064CF0
:101F5000002210211A602A602060196030BC70478E
:101F600014D0034004D0034000D00340212801D8FE
:101F7000FFF7AEBF704700BF72B60D490D4B0E4A5A
:101F80001B680868126862B6520102D5322B88BFFE
:101F900001300A49C3F58C334FF47A7203F23F13D0
:101FA000A1FB031302FB00F000EB1310704700BF0E
:101FB0007017002018E000E004ED00E0398EE338EF
:101FC0002DE9F843054672B6214F224B224A1B6881
:101FD0003C68126862B6520102D5322B88BF0134C8
:101FE000A5B3C3F58C331D4EDFF86890DFF8688029
:101FF00003F23F134FF47A72A6FB031302FB04F4BF
:1020000004EB131472B6D9F800103A68D8F800E05F
:1020100062B6C1F58C3303F23F13A6FB03031EF037
:10202000806FC4EB13134FF47A7002D0322988BF4B
:10203000013200FB0233B3F57A7F04D3013D05D0B2
:1020400004F57A74DEE701F03FF9DBE7BDE8F883D9
:102050007017002018E000E004ED00E0398EE3384E
:10206000F8B52D4B2D49DFF8D0E0DFF8D0C02C4E6D
:102070002C4D2D4C2D4A2E4F4FF4000018604FF080
:10208000807018604FF0007018604FF0806018602A
:102090004FF00060186000200860282348F6FF71A8
:1020A000CCF80010CEF80030336013602B60236052
:1020B0003B60B3629362092245F8242CC4F8D80F20
:1020C00005F57F65C7F8D41F07F5FF2707F5FA6701
:1020D000C6F8F83F2B6006F5FF26C4F8D42F05F5A7
:1020E000FD2504F5FF24386006F2F47611483160CE
:1020F00005F5FF6504F5FD642B602360026001F0C7
:102100002FFA1920FFF75CFF00F05CFE40F213107D
:10211000BDE8F840FFF754BF08E100E00480034049
:1021200014800340248003402C8003401C80034023
:102130003480034000800B400C8003400880034043
:10214000431E032B14D872B60A4951F8230068B114
:1021500070B4094C058834F81320466841F82360B0
:10216000521B24F8132062B670BC704762B67047E9
:1021700000207047CC170020501A00200138032897
:102180000BD872B6074B53F8203043B100205B6880
:102190000130002BFBD162B6704700207047184613
:1021A000F9E700BF2018002030B472B62B4A13782C
:1021B0001D0706D52A4B196A002936D0996A0029CD
:1021C00041D053781C0706D5254B196C00293ED009
:1021D000996C002939D09378190705D5204B196ED1
:1021E000002936D0996E89B1D3781B0707D51C4BCF
:1021F000D3F880207AB3D3F8882011213AB162B69F
:10220000184B00221A7030BC00F07EBE0D21154C18
:10221000154D227843F8315003EBC1030830013AE1
:102220005860227062B630BC704704220D4C0F4DCE
:10223000217843F8325003EBC20308304A1E58603D
:10224000227062B6EFE70521E1E70921DFE7082206
:10225000ECE70C22EAE71022E8E700BFF894000060
:102260000080FF1F49180020C8004000880040007F
:10227000431E032B1DD81B4A400140F0100030B410
:10228000104472B6184CE25C032A1BD8DFE802F057
:102290000212151703220D88E25410F0080F14BF24
:1022A000C823882343EA054308310360416062B6CE
:1022B00030BC704708300222EDE70522EBE708301A
:1022C0000422E8E7094A52F8230038B1084A52F8D4
:1022D0002300416042F8231062B6E9E742F8231078
:1022E000034AF7E70080FF1F58180020201800203D
:1022F000301800202DE9F04FDFF80CB3DFF80CA305
:1023000087B044E0AB4F4FEA930807EBC809013EA2
:10231000D9F8042003F00803F6B2A2F1080003F094
:10232000FF04002B40F0028157F838301B0C99B2A3
:1023300022F8081C002B00F0F0809F4B22F8064C7E
:1023400042F8044C53F82620002A00F0C5829B4D29
:1023500055F8263058609A4C45F8260034F8163067
:10236000194424F8161000F0AFFD002800F0AD82EB
:10237000944A954B19F0080F00F1080018BF134656
:10238000C9F8040047F8383008238BF800309BF870
:102390000040E4B261071AD58C4B1B78A3B18C497D
:1023A0000A7802F0FF0322B1013BDBB20B7003B9E4
:1023B00000BE88490A7802F0FF032AB1013BDBB274
:1023C0000B70002B00F0578204238BF8003004F0D0
:1023D000080303F0FF02002B00F0CC809AF80030D5
:1023E000DBB21E098ED19C08DFF8C89159F8342061
:1023F00009EBC401C2F38302013A49680C2A00F2D6
:102400008880DFE802F07C7C868686868686478622
:10241000868607000868704D4A68704F704E2860C5
:1024200081B240F28160674B6A604FF0010E00227A
:10243000814249F834303A60C9F81020C9F81820B0
:1024400086F800E05B4C00F2E380B1F5D06F80F0DD
:102450004683B1F5817F00F0FC8200F28D828029F5
:1024600000F07783822940F0FA82A98801F07F0189
:10247000042900F2F4825B485B4C89000844227016
:1024800062700278930740F1588484F800E04FF0BE
:10249000020E42E3514F3A6832B3544B504E544906
:1024A000188834780D784028864645F0020828BF01
:1024B0004FF0400E002C84F001043470CEEB00008D
:1024C0000CBF8824C82409EBC80680B285F001053A
:1024D00044EA0E447260188049F8384072440D7026
:1024E000002800F045813A603B4B1A88B2F5A06F96
:1024F0000FD100219A7859703E4B1A7009E0364A84
:10250000108842F22102904200F037812D4A49F8AA
:102510003420394A0123137036E72A4A2A4B19F02E
:10252000080F18BF134647F838302DE700F0ECFCD1
:10253000324A334952F82630002B00F0D1815868D6
:102540008C5D42F8260003F10802C9F80420032C30
:1025500005D8DFE804F02C02292602228A551A88C1
:1025600019F0080F0CBF8823C82343EA024347F839
:10257000383009E7E00700F18181210600F1F2819E
:10258000A20706D51F4A204913780220DBB2137038
:102590000870E30602D51C4B10221A7007B0BDE884
:1025A000F08F04228A55DAE705228A55D7E70322FD
:1025B0008A55D4E70080FF1FCC1700207817002031
:1025C000501A0020C8004000880040005418002025
:1025D000DD1700205C180020401800207417002030
:1025E000DC170020C02007404C180020881700206E
:1025F0004818002098200740942007402018002009
:10260000581800208820074080200740902007406D
:1026100042F22100814200F02A8100F2D880B1F517
:10262000086F00F07682B1F5106F40F01882226AD0
:10263000B349A8780870120600F13A83D9F8282027
:10264000B049130600F10C83D9F83020AD491506C6
:1026500000F10183D9F83820AA49140600F1F68266
:10266000D9F84020A749100600F14A83D9F848203C
:10267000A449120600F13F83D9F85020A14913065E
:1026800000F13483D9F858209E49150600F12983BA
:10269000D9F860209B49140600F11E83D9F8682000
:1026A0009849100600F11383D9F870209549120655
:1026B00000F10883D9F878209249130600F1FD82D1
:1026C000D9F880208F49150600F13183D9F8882088
:1026D0008C49140600F12583D9F890208949100609
:1026E00000F11983D9F898208649120600F10D836C
:1026F0008548864A864901908648874D874C0497CD
:1027000000230596029580460F4616461D46039403
:10271000306828B1446800F0F7FB2046002CF9D15E
:1027200000233360029B38681A46002342F82530A4
:1027300028B1446800F0E8FB2046002CF9D10022C3
:102740003A60019A98F800301146002241F8042BB3
:10275000039A0191023B4FF0000122F81510032B60
:1027600000F22B81DFE813F07001250170012501D3
:10277000BEF1400F18BF0022B5E6694A0D784878CF
:10278000157050708D78C8789570D07010680D797C
:10279000157186284D7989795571917100F09B8169
:1027A0006049614E0A78307882F00105002842F0D5
:1027B00002020D700CBF8821C82149F8321009EBC4
:1027C000C20280F001000021307051609EE642F2AA
:1027D0002120814240F0CB81544B554C5549A8787B
:1027E0001D682560CDF804E0087000200290804646
:1027F000844604464B490D7845F0020E09EBCE03A2
:102800000393019B002B039B5C600CBF8824C824AE
:1028100044EA080385F0010449F83E3032700C7038
:10282000DFF8E0E0404BDFF8FC80002840F01E813C
:10283000BCF1400F1BD144F0020C09EBCC03029C0D
:10284000DFF8C0E05C60002A40F02681020442F01C
:1028500088029DF804304EF83C20044433700D701B
:102860002346402803D10020334A3B601080334A7E
:10287000012313704DE600F003FDA5E5214B2F4821
:1028800028491A614FF0020E80F800E02C4F0A70C0
:102890002C49196099602C4E2C4D2D4C9A610D21BC
:1028A0003970FF213170DFF8B8E029702270294DAE
:1028B000294A8EF800109F27012406F8047C5D60E9
:1028C0000470DA6007B0BDE8F08F244A47F838009A
:1028D00013780133137057E543F826000E4D3AE59F
:1028E0008B5D032B00F2F08001A252F823F000BFB1
:1028F0008923000089230000AD290000A7290000DA
:10290000541800200080FF1F30180020CC17002032
:10291000201800205818002078170020501A002096
:10292000581A002048180020DC17002070170020DB
:10293000601A00206C18002088170020942007409F
:10294000C0200740880040008820074080200740C2
:10295000982007408C170020E0170020491800201D
:102960008C200740C149C24B80220D2008701A708C
:10297000A2077FF50EAE05E640F20232914240F02A
:10298000EE80A98801F07F01042968D86A88002AAE
:1029900065D1B648CDF804E089000844017841F0DB
:1029A0000201017021E701238B55EDE400238B55D3
:1029B000EAE44FF0010388F800300135042D06F1F8
:1029C000040607F1040708F101087FF4A1AEA94C41
:1029D000A94B2278A94D049F059E002129701A70E9
:1029E000130700F105816278A549DFF8A0820A701B
:1029F00010074FF00001C9F83010C9F8381000F185
:102A0000E080A049A2780A700021C9F85010C9F8E6
:102A100058101107DFF8748200F10181E2789A49B9
:102A20009A4C0A7000211207C9F87010C9F8781082
:102A300000F1B08033780193002183F00102C9F8DE
:102A40009010C9F89810D0E64FF0000388F80030D5
:102A5000B3E7A98801F07F01042940F28D80834A01
:102A60000F2313708A4A0123137052E540287FF622
:102A7000E2AE44F002040EEBC401029E4E60BAB115
:102A80009DF80410834A19703346403888F8005086
:102A900040334EF83420E7E69DF8043033700204EA
:102AA000029B0D7042F0C80203444EF83C20D8E669
:102AB0009DF804101970029B774A88F8005040383E
:102AC00040334EF83420CFE619F0080F0CBF022334
:102AD00003238B5558E4714A0F21117060E6704A48
:102AE0005468002CBBD06888B5F804E003E00C32D1
:102AF0005468002CB3D013888342F8D153887345AF
:102B0000F5D1000A03280CBF94F800E0B2F808E001
:102B100003E0644A644C12782270E888704580F0C3
:102B20003F8162490D784028844645F0020E28BF57
:102B30004FF0400C04EB0C0309EBCE02029301238F
:102B40005460CCEB00004FEA0C4800220193C824EB
:102B50005EE6554C4FF0020E22706270DDE7B1F573
:102B6000A06F7FF47CAF0123002201933DE642F287
:102B700021329142F7D072E76A88002A7FF46FAF62
:102B80003A48CDF804E089000844017821F00201B8
:102B900001702AE600F098F9002800F0EF80083074
:102BA0003D4AC4F88400C4F8802000F08DF9002864
:102BB00000F0DE800830374AC9F88C00C9F8882058
:102BC00038E700F081F9002800F0C0800830324A70
:102BD000C8F84400C8F8402000F076F9002800F05A
:102BE000AF8008302B4AC9F84C00C9F8482008E7E4
:102BF00000F06AF9002800F0CD800830264AC9F8B4
:102C00002400C9F8202000F05FF9002800F0BC8003
:102C10000830204AC9F82C00C9F82820E3E600F063
:102C200053F9002800F09E8008301B4AC8F8640061
:102C3000C8F8602000F048F9002800F08D800830C6
:102C4000144AC9F86C00C9F86820E7E6C86B083870
:102C500000F05AF904E5486B083800F055F9F9E43A
:102C6000C86A083800F050F9EEE400BFC020074001
:102C700080200740F8940000C42007404918002035
:102C8000C8200740CC200740D02007400080FF1F0D
:102C900094200740C800400088004000DD17002055
:102CA000FC940000541800204C1800204818002004
:102CB000606A083800F028F9C0E4C86F083800F0EE
:102CC00023F9FDE4486F083800F01EF9F2E4C86EFD
:102CD000083800F019F9E7E4486E083800F014F9F4
:102CE000DCE4C86D083800F00FF9D1E4486D08380D
:102CF00000F00AF9C6E4C86C083800F005F9BBE436
:102D0000486C083800F000F9B0E4D1F89C000838AD
:102D100000F0FAF8ECE4D1F89400083800F0F4F888
:102D2000E0E4D1F88C00083800F0EEF8D4E4D1F8F3
:102D30008400083800F0E8F8C8E44FF0020EECE632
:102D40002A78C9F8480001322A705AE62A78C8F869
:102D5000400001322A703FE72A78C9F86800013242
:102D60002A705BE62A78C8F8600001322A7061E7B1
:102D70002A78C9F8880001322A705BE62A78C4F8FC
:102D8000800001322A7010E72A78C9F82800013241
:102D90002A7028E62A78C9F8200001322A7032E722
:102DA000BEF1400FF44628BF4FF0400C04EB0C037B
:102DB00002930123CCEB0E004FEA0C480022019352
:102DC00018E500BFF8B500F0E3FD294B29482A4C6F
:102DD0002A4F2B4DDFF8BCC0DFF8BCE0294E0022A3
:102DE0001A605A609A60DA601A615A619A61DA610F
:102DF0001A625A629A62DA621A635A639A63DA63EF
:102E00001A645A649A64DA641A655A659A65DA65CE
:102E10001A665A669A66DA661A675A679A67DA67AE
:102E2000C3F880200168C3F8842041F48021016048
:102E3000C3F307212170C3F30740134938701B0EF9
:102E40002B70FF238CF80030104D8EF800301048A6
:102E50000B700123337084F8642070264FF40074E3
:102E6000102207F82C3C2E70046081F8F820F8BD81
:102E70000080FF1F348004409C200740B0200740A2
:102E8000B4200740942007401020074049E400E0A8
:102E900008E100E0802007408820074000F0F4B8F7
:102EA00000F07CB800F056B800F090B800F0BCB963
:102EB00000F096B90846114600F002B9084600F045
:102EC00083B900BF704700BF72B60D480268B2FAFE
:102ED00082F30B2B10DC4FF00041D94022EA0102B3
:102EE000026062B6074803EBC303DB00C21800218F
:102EF000C15010465160704762B60020704700BF55
:102F00006C0B0020BC0700200D4B0E4AC31AA2FB1D
:102F100003231B090B2B0CD80B4A127852B972B63B
:102F20000A484FF00041026821FA03F31A43026095
:102F300062B67047064A1278002AF0D0FFF734B91B
:102F4000BC070020398EE338491800206C0B0020A4
:102F50005418002038B50F4D286878B1438802888E
:102F6000C118013393420C7A02D24380204638BD07
:102F7000FFF7CAFF002320462B6038BD064B1B78A5
:102F80002BB10320FFF7DCF828600028E6D14FF0D2
:102F9000FF3038BD681800205418002010B5094CC7
:102FA000206818B143881844007A10BD064B1B787E
:102FB0002BB10320FFF7C4F820600028F2D14FF0B6
:102FC000FF3010BD6818002054180020044B054A3B
:102FD0001B6890881BB11A885B88D31A1844704705
:102FE00068180020501A00202DE9F84F0E460029DD
:102FF00042D0DFF890A09AF8003003F0FF091BB32D
:103000004FF000091E4F8046CB463C6824B325880C
:103010006388ED1AB54228BF354604F1080119440A
:103020002A464046FEF794FC638822882B449BB2D4
:103030009A42A944A6EB0506A844638016D91EB19E
:103040009AF80030002BE0D14846BDE8F88F05889B
:10305000002DDDD1FFF758FF0320FFF771F804467C
:1030600038600028F3D14846BDE8F88F2046FFF7C6
:103070004BFFC7F800B0E2E70846BDE8F88F00BF95
:1030800068180020541800200B4B1B789BB110B51A
:103090000A4C206848B1FFF737FF00230320236064
:1030A000FFF74EF830B1FFF72FFF0320FFF748F886
:1030B0000028F8D110BD704754180020681800206F
:1030C0002DE9F04FDFF8F89083B0012289F8002055
:1030D000019169B3DFF8EC80364F019E8346D8F842
:1030E0000000B0B3344D4488C4F14001B14228BF60
:1030F000314604EB010E00221FFA8EFE2A70761A6A
:10310000A0F802E000F1080251B1013C2244594408
:103110001BF8014B02F8014F8B45F9D1B0F802E0E2
:10312000BEF13F0F0BD8254A05211170002ED6D1D4
:103130000198002389F8003003B0BDE8F08F4022E9
:10314000028001460420FFF793F80022C8F800200F
:10315000E9E73A782AB3184D48F601444FF0010ADE
:1031600007E0013C16D02A78A2B900F0ADF83A7811
:10317000BAB10420FFF702F80728F2D889F800A0B6
:10318000FFF7A2FEC8F800000028ACD10C4B013CB0
:103190001870E8D101234FF0FF302B7003B0BDE869
:1031A000F08F00234FF0FF3089F8003003B0BDE806
:1031B000F08F00BF54180020641800205C18002015
:1031C0005D1800206018002000B583B002AB01211B
:1031D00003F8010D1846FFF773FF03B05DF804FB19
:1031E00038B50E4D0E4C28680123237028B1408855
:1031F00000232370C0F1400038BD0A4B1B7813B97F
:103200000020207038BD0420FEF7B8FF0728F7D84B
:10321000FFF75AFE28600028E9D1F1E76018002086
:103220005D18002054180020F8B5114B1B788BB1A5
:10323000104E114D346801272F7064B10F4A638816
:1032400000271770214623800420FFF711F837600C
:1032500000232B70F8BDFFF737FE084B28B101465D
:1032600004201C70FFF704F8F2E71F70F0E700BFBE
:1032700054180020601800205D1800205C18002001
:1032800038B50E4B1B7873B90D4C216861B103F052
:10329000FF054B880B800420FEF7EAFF256038BD50
:1032A000084B01221A7038BDFFF70EFE0028F7D038
:1032B0000146BDE838400420FEF7DABF5D18002063
:1032C000601800205C18002038B5224C237803B128
:1032D00038BD01232370FFF779FE70BB00F0B0F911
:1032E00040BB00F043FA10BB00F0D6FAE0B900236F
:1032F0002370EFF30583002BEAD1EFF3108172B650
:10330000154B1868E0B1154C2278CAB945691D60A3
:1033100001232370C5B1AA6101B962B600254577C2
:10332000836898472570D3E700F018F9DFE700F0CD
:1033300013F9D9E700F00EF9D3E7FFF7C3FDCDE7A6
:103340000029C5D162B638BD054B1D600029E5D105
:10335000E3E700BF6D1800208018002084180020CB
:103360007C18002010B4EFF3108272B6437F33B99B
:10337000017F012907D003290FD00123437702B928
:1033800062B610BC7047124C2168A1B1114943616B
:103390000B68836108605861EFE70F4C216881B1C9
:1033A0000E4943610B688361086058610C4B4FF014
:1033B00080511960E1E7074B41618161206018602D
:1033C000DBE7064B4161816120601860EEE700BFDA
:1033D000801800207C18002070180020741800202D
:1033E00004ED00E010B4047F4160022CC26002D002
:1033F00010BCFFF7B7BF836810BC184770B5EFF378
:10340000108272B60C4C206880B10C4E00254369C6
:10341000236073B19D6102B962B6457783689847AE
:10342000EFF3108272B620680028F0D102B962B6BC
:1034300070BD3360EFE700BF7018002074180020E3
:10344000FFF7DCBF184A30B41468002C27D003689B
:1034500021688B420ED2CB1A00218460C1602360A8
:10346000E06010600223037530BC704711688B4226
:10347000144608D3A2685B1A0360002AF6D1826062
:10348000C460A060EEE7D268C2608460E060C56896
:10349000CB1A0222A8602360027530BC704784609A
:1034A000C4601060DEE700BF78180020F8B5224E37
:1034B00034682CB32368002B3AD1204F1D4604E01A
:1034C0003468ECB12368002B32D1A36803B1DD600E
:1034D00020693360036825751B68BB4221D1037FD7
:1034E0004560022BC46020D0FFF73CFF6368002BCF
:1034F000E6D023602046FFF7A5FF3468002CE1D119
:10350000EFF3108372B60E4A00211068116003B900
:1035100062B628B18468FFF795FF20460028F9D1EC
:10352000F8BD224600219847E0E783689847DDE729
:10353000013B2360E4E700BF78180020E53300007A
:1035400088180020024A136801331360FFF7AEBFEA
:1035500070170020704700BF704700BF704700BF62
:1035600030B42948294A2A4B2A4D6024E1210470AD
:1035700011701B78284C082B30D00A2B274828497B
:1035800037D00C2B0CBF15223D2212232A6023605A
:1035900002600B60234B24491B78244ABBB10123F2
:1035A0000B601360224B23491B78234A012B26D939
:1035B000042B0FD9082B1ED9102B94BF86238723E9
:1035C0000B6013601D4B01221A7030BC70470B60FA
:1035D0001360E7E784230B601360F3E700F58E20A8
:1035E0000F490830012213232A60236002600B6018
:1035F000D0E71922F7E785230B601360E2E7802309
:103600000B601360DEE700BF004007400140074049
:10361000700B002008B003400CB0034008B00B4012
:103620000CB00B408D18002020B0034020B00B40A0
:10363000710B002024B0034024B00B408C180020F4
:10364000054A064B10781B78C0B2DBB2984238BFEF
:103650004030C01A704700BF941800209518002011
:10366000F0B4384B1A7912F0300F2CD072B6997D25
:1036700001F0FF0200293DD062B6334F334938785C
:103680000D78334E1C46C0B2EDB2431C402BE1799D
:1036900028BF0023AB4202F1FF32C9B21CBFF15474
:1036A000184612F0FF02F0D12A4B1B68C2B23A70E2
:1036B0004BB1A84236BFC5F14005401B4019272831
:1036C000C4BF01221A701F49CA78D2B2150616D497
:1036D00052060DD51B4B1B795B0609D51E4B1F49A6
:1036E0001B6800220A7003B11A70164B3C22DA7074
:1036F000F0BC70474022D9795A7462B6E3E70B797F
:103700001C06E5D5164B174E1C783378E4B2DBB2B5
:103710009C420ED0144D01E0A3420AD00133402B4D
:1037200028BF00230879E85CC0B2C871087D07286B
:10373000F2D9DBB2034933700B79180644BF7C23FE
:10374000CB70C5E700A00640941800209518002013
:10375000D8180020901800201C19002018190020EB
:10376000201900201919002098180020054A064B3E
:1037700010781B78C0B2DBB2984238BF4030C01A14
:10378000704700BF9419002029190020F0B4384B6D
:103790001A7912F0300F2CD072B6997D01F0FF0229
:1037A00000293DD062B6334F334938780D78334E17
:1037B0001C46C0B2EDB2431C402BE17928BF002368
:1037C000AB4202F1FF32C9B21CBFF154184612F0ED
:1037D000FF02F0D12A4B1B68C2B23A704BB1A8422B
:1037E00036BFC5F14005401B40192728C4BF012240
:1037F0001A701F49CA78D2B2150616D452060DD5D2
:103800001B4B1B795B0609D51E4B1F491B68002209
:103810000A7003B11A70164B3C22DA70F0BC704784
:103820004022D9795A7462B6E3E70B791C06E5D5D4
:10383000164B174E1C783378E4B2DBB29C420ED0A4
:10384000144D01E0A3420AD00133282B28BF0023E6
:103850000879E85CC0B2C871087D0728F2D9DBB2EC
:10386000034933700B79180644BF7C23CB70C5E73E
:1038700000B0064094190020291900205419002096
:103880002419002098190020281900209C190020D4
:10389000951900202C190020054A064B10781B783A
:1038A000C0B2DBB2984238BF4030C01A704700BF88
:1038B000A4190020A519002030B42B4B1A799406C6
:1038C0001FD52A48DA790378294901333F2B097833
:1038D000C8BF00238B42D2B203D0264CD9B2E254E7
:1038E0000170254A116861B1244A1278D2B293421C
:1038F00036BFC2F140029B1A9B18272BC4BF01237D
:103900000B70194AD378DBB2180611D45A060DD5BC
:10391000154B1B795B0609D5194B1A491B68002208
:103920000A7003B11A70104B2C22DA7030BC704749
:1039300011790906EAD5144910480C780178C9B202
:103940008C420DD04A1C272A84BF00210A460F4D05
:10395000054C98BFD1B2AA5CD2B2E2710170D5E732
:103960006C21D170D2E700BF00C00640A41900202E
:10397000A5190020D0190020A0190020111A00203C
:10398000141A0020101A0020181A0020A81900206C
:1039900070B584B072B6194B194D1A487022412681
:1039A0000F2480211A702E701A4604701970137833
:1039B0001B06FCD5144B186862B6144B144C984285
:1039C00098BF00EB800001A998BF40000A22FEF7D3
:1039D000A1F801A92046002311F8012B01333AB1C7
:1039E0000A2B20F8022FF7D11623237004B070BDE4
:1039F0005B00DBB2237004B070BD00BF000002406A
:103A00000700024006000240080002407F9698002E
:103A1000000C00200B460146184600F0D1BF00BF45
:103A200081F0004102E000BF83F0004330B54FEA6F
:103A300041044FEA430594EA050F08BF90EA020FDC
:103A40001FBF54EA000C55EA020C7FEA645C7FEA6F
:103A5000655C00F0E2804FEA5454D4EB5555B8BF92
:103A60006D420CDD2C4480EA020281EA030382EA03
:103A7000000083EA010180EA020281EA0303362D95
:103A800088BF30BD11F0004F4FEA01314FF4801C68
:103A90004CEA113102D0404261EB410113F0004F7A
:103AA0004FEA03334CEA133302D0524263EB430331
:103AB00094EA050F00F0A780A4F10104D5F1200ECF
:103AC0000DDB02FA0EFC22FA05F2801841F100012A
:103AD00003FA0EF2801843FA05F359410EE0A5F1FE
:103AE00020050EF1200E012A03FA0EFC28BF4CF02F
:103AF000020C43FA05F3C01851EBE37101F00045E5
:103B000007D54FF0000EDCF1000C7EEB00006EEBF1
:103B10000101B1F5801F1BD3B1F5001F0CD349087B
:103B20005FEA30004FEA3C0C04F101044FEA4452D2
:103B300012F5800F80F09A80BCF1004F08BF5FEA59
:103B4000500C50F1000041EB045141EA050130BD39
:103B50005FEA4C0C404141EB010111F4801FA4F1DC
:103B60000104E9D191F0000F04BF01460020B1FA31
:103B700081F308BF2033A3F10B03B3F120020CDA69
:103B80000C3208DD02F1140CC2F10C0201FA0CF047
:103B900021FA02F10CE002F11402D8BFC2F1200CAC
:103BA00001FA02F120FA0CFCDCBF41EA0C01904062
:103BB000E41AA2BF01EB0451294330BD6FEA0404AB
:103BC0001F3C1CDA0C340EDC04F11404C4F1200296
:103BD00020FA04F001FA02F340EA030021FA04F3A8
:103BE00045EA030130BDC4F10C04C4F1200220FAFF
:103BF00002F001FA04F340EA0300294630BD21FA3D
:103C000004F0294630BD94F0000F83F4801306BF02
:103C100081F480110134013D4EE77FEA645C18BFF6
:103C20007FEA655C29D094EA050F08BF90EA020F8D
:103C300005D054EA000C04BF1946104630BD91EA85
:103C4000030F1EBF0021002030BD5FEA545C05D188
:103C50004000494128BF41F0004130BD14F58004C7
:103C60003CBF01F5801130BD01F0004545F0FE413B
:103C700041F470014FF0000030BD7FEA645C1ABF70
:103C8000194610467FEA655C1CBF0B46024650EAA7
:103C9000013406BF52EA033591EA030F41F40021D3
:103CA00030BD00BF90F0000F04BF0021704730B559
:103CB0004FF4806404F132044FF000054FF000012E
:103CC00050E700BF90F0000F04BF0021704730B5EF
:103CD0004FF4806404F1320410F0004548BF4042C4
:103CE0004FF000013EE700BF42004FEAE2014FEA19
:103CF00031014FEA02701FBF12F07F4393F07F4FF4
:103D000081F06051704792F0000F14BF93F07F4F25
:103D1000704730B54FF4607401F0004521F0004168
:103D200020E700BF50EA010208BF704730B54FF0EE
:103D300000050AE050EA010208BF704730B511F0F3
:103D4000004502D5404261EB41014FF4806404F12B
:103D500032045FEA915C3FF4DCAE4FF003025FEAAD
:103D6000DC0C18BF03325FEADC0C18BF033202EB35
:103D7000DC02C2F1200300FA03FC20FA02F001FA8F
:103D800003FE40EA0E0021FA02F11444C1E600BF2E
:103D900070B54FF0FF0C4CF4E06C1CEA11541DBFE1
:103DA0001CEA135594EA0C0F95EA0C0F00F0DEF8AC
:103DB0002C4481EA030621EA4C5123EA4C5350EA91
:103DC000013518BF52EA033541F4801143F48013E2
:103DD00038D0A0FB02CE4FF00005E1FB02E506F073
:103DE0000042E0FB03E54FF00006E1FB03569CF0C8
:103DF000000F18BF4EF0010EA4F1FF04B6F5007FCE
:103E000064F5407404D25FEA4E0E6D4146EB06063F
:103E100042EAC62141EA55514FEAC52040EA5E50C8
:103E20004FEACE2EB4F1FD0C88BFBCF5E06F1ED872
:103E3000BEF1004F08BF5FEA500E50F1000041EBA9
:103E4000045170BD06F0004646EA010140EA020056
:103E500081EA0301B4EB5C04C2BFD4EB0C0541EA78
:103E6000045170BD41F480114FF0000E013C00F38D
:103E7000AB8014F1360FDEBF002001F0004170BDB1
:103E8000C4F10004203C35DA0C341BDC04F11404CA
:103E9000C4F1200500FA05F320FA04F001FA05F256
:103EA00040EA020001F0004221F0004110EBD37023
:103EB00021FA04F642EB06015EEA430E08BF20EA4F
:103EC000D37070BDC4F10C04C4F1200500FA04F3F2
:103ED00020FA05F001FA04F240EA020001F0004184
:103EE00010EBD37041F100015EEA430E08BF20EAF7
:103EF000D37070BDC4F1200500FA05F24EEA020E3F
:103F000020FA04F301FA05F243EA020321FA04F06D
:103F100001F0004121FA04F220EA020000EBD37024
:103F20005EEA430E08BF20EAD37070BD94F0000F24
:103F30000FD101F00046400041EB010111F4801F58
:103F400008BF013CF7D041EA060195F0000F18BF09
:103F5000704703F00046520043EB030313F4801F45
:103F600008BF013DF7D043EA0603704794EA0C0FFF
:103F70000CEA135518BF95EA0C0F0CD050EA410615
:103F800018BF52EA4306D1D181EA030101F0004192
:103F90004FF0000070BD50EA410606BF10461946BA
:103FA00052EA430619D094EA0C0F02D150EA0136C6
:103FB00013D195EA0C0F05D152EA03361CBF104607
:103FC00019460AD181EA030101F0004141F0FE41A6
:103FD00041F470014FF0000070BD41F0FE4141F42A
:103FE000780170BD70B54FF0FF0C4CF4E06C1CEA2A
:103FF00011541DBF1CEA135594EA0C0F95EA0C0FDF
:1040000000F0A7F8A4EB050481EA030E52EA033599
:104010004FEA013100F088804FEA03334FF08055BA
:1040200045EA131343EA12634FEA022245EA1115E7
:1040300045EA10654FEA00260EF000419D4208BF98
:10404000964244F1FD0404F5407402D25B084FEA45
:104050003202B61A65EB03055B084FEA32024FF4F1
:1040600080104FF4002CB6EB020E75EB030E22BF4E
:10407000B61A754640EA0C005B084FEA3202B6EB0E
:10408000020E75EB030E22BFB61A754640EA5C00BD
:104090005B084FEA3202B6EB020E75EB030E22BF4D
:1040A000B61A754640EA9C005B084FEA3202B6EB4E
:1040B000020E75EB030E22BFB61A754640EADC000D
:1040C00055EA060E18D04FEA051545EA16754FEA6F
:1040D00006164FEAC30343EA52734FEAC2025FEA8D
:1040E0001C1CC0D111F4801F0BD141EA00014FF01C
:1040F00000004FF0004CB6E711F4801F04BF0143ED
:104100000020B4F1FD0C88BFBCF5E06F3FF6AFAE08
:10411000B5EB030C04BFB6EB020C5FEA500C50F198
:10412000000041EB045170BD0EF0004E4EEA11311B
:1041300014EB5C04C2BFD4EB0C0541EA045170BD22
:1041400041F480114FF0000E013C90E645EA060E66
:104150008DE60CEA135594EA0C0F08BF95EA0C0F94
:104160003FF43BAF94EA0C0F0AD150EA01347FF4DC
:1041700034AF95EA0C0F7FF425AF104619462CE7B3
:1041800095EA0C0F06D152EA03353FF4FDAE104616
:10419000194622E750EA410618BF52EA43067FF467
:1041A000C5AE50EA41047FF40DAF52EA43057FF4F7
:1041B000EBAE12E74FF0FF3C06E000BF4FF0010C02
:1041C00002E000BF4FF0010C4DF804CD4FEA410C66
:1041D0007FEA6C5C4FEA430C18BF7FEA6C5C1BD033
:1041E00001B050EA410C0CBF52EA430C91EA030FB4
:1041F00002BF90EA020F0020704710F1000F91EA11
:10420000030F58BF994208BF90422CBFD8176FEADE
:10421000E37040F0010070474FEA410C7FEA6C5CAC
:1042200002D150EA013C07D14FEA430C7FEA6C5CB3
:10423000D6D152EA033CD3D05DF8040B704700BFDF
:104240008446104662468C461946634600E000BF2D
:1042500001B5FFF7B7FF002848BF10F1000F01BDFF
:104260004DF808EDFFF7F4FF0CBF012000205DF8CA
:1042700008FB00BF4DF808EDFFF7EAFF34BF01204F
:1042800000205DF808FB00BF4DF808EDFFF7E0FFE8
:1042900094BF012000205DF808FB00BF4DF808ED39
:1042A000FFF7CEFF94BF012000205DF808FB00BFA0
:1042B0004DF808EDFFF7C4FF34BF012000205DF882
:1042C00008FB00BF4A0011D212F5001211D20DD521
:1042D0006FF47873B3EB62520ED44FEAC12343F00C
:1042E000004343EA505323FA02F070474FF00000B6
:1042F000704750EA013002D14FF0FF3070474FF065
:10430000000070474FEA4102B2F1E04324BFB3F529
:10431000001CDCF1FE5C0DD901F0004C4FEAC0023C
:104320004CEA5070B2F1004F40EB830008BF20F020
:104330000100704711F0804F21D113F13872BCBFDA
:1043400001F00040704741F480114FEA5252C2F12F
:104350001802C2F1200C10FA0CF320FA02F018BF78
:1043600040F001004FEAC1234FEAD32303FA0CFCCB
:1043700040EA0C0023FA02F34FEA4303CCE77FEA5A
:10438000625307D150EA01331EBF4FF0FE4040F4A4
:104390004000704701F0004040F0FE4040F4000053
:1043A000704700BF80F0004002E000BF81F0004194
:1043B00042001FBF5FEA410392EA030F7FEA226CCB
:1043C0007FEA236C6AD04FEA1262D2EB1363C1BF5B
:1043D000D218414048404140B8BF5B42192B88BFCA
:1043E000704710F0004F40F4000020F07F4018BFED
:1043F000404211F0004F41F4000121F07F4118BF0D
:10440000494292EA030F3FD0A2F1010241FA03FCB4
:1044100010EB0C00C3F1200301FA03F100F000439C
:1044200002D5494260EB4000B0F5000F13D3B0F164
:10443000807F06D340084FEA310102F10102FE2AD3
:1044400051D2B1F1004F40EBC25008BF20F0010043
:1044500040EA03007047490040EB000010F4000FF1
:10446000A2F10102EDD1B0FA80FCACF1080CB2EB84
:104470000C0200FA0CF0AABF00EBC25052421843E3
:10448000BCBFD0401843704792F0000F81F4000188
:1044900006BF80F400000132013BB5E74FEA41035B
:1044A0007FEA226C18BF7FEA236C21D092EA030FC7
:1044B00004D092F0000F08BF0846704790EA010F41
:1044C0001CBF0020704712F07F4F04D1400028BF6E
:1044D00040F00040704712F100723CBF00F5000050
:1044E000704700F0004343F0FE4040F40000704786
:1044F0007FEA226216BF08467FEA23630146420232
:1045000006BF5FEA412390EA010F40F48000704744
:104510004FF0000304E000BF10F0004348BF4042EA
:104520005FEA000C08BF704743F0964301464FF026
:1045300000001CE050EA010208BF70474FF0000382
:104540000AE000BF50EA010208BF704711F00043C3
:1045500002D5404261EB41015FEA010C02BF844693
:104560000146002043F0B64308BFA3F18053A3F5F2
:104570000003BCFA8CF2083AA3EBC25310DB01FA39
:1045800002FC634400FA02FCC2F12002BCF1004FBD
:1045900020FA02F243EB020008BF20F0010070474E
:1045A00002F1200201FA02FCC2F1200250EA4C00A2
:1045B00021FA02F243EB020008BF20EADC707047E8
:1045C0004FF0FF0C1CEAD0521EBF1CEAD15392EAF6
:1045D0000C0F93EA0C0F6FD01A4480EA010C4002D2
:1045E00018BF5FEA41211ED04FF0006343EA50102C
:1045F00043EA5111A0FB01310CF00040B1F5000F6E
:104600003EBF490041EAD3715B0040EA010062F11C
:104610007F02FD2A1DD8B3F1004F40EBC25008BF06
:1046200020F00100704790F0000F0CF0004C08BF24
:1046300049024CEA502040EA51207F3AC2BFD2F1F1
:10464000FF0340EAC250704740F400004FF00003FF
:10465000013A5DDC12F1190FDCBF00F00040704739
:10466000C2F10002410021FA02F1C2F1200200FA77
:1046700002FC5FEA310040F1000053EA4C0308BF3E
:1046800020EADC70704792F0000F00F0004C02BF8F
:10469000400010F4000F013AF9D040EA0C0093F00A
:1046A000000F01F0004C02BF490011F4000F013B64
:1046B000F9D041EA0C018FE70CEAD15392EA0C0FD2
:1046C00018BF93EA0C0F0AD030F0004C18BF31F03D
:1046D000004CD8D180EA010000F00040704790F013
:1046E000000F17BF90F0004F084691F0000F91F0B7
:1046F000004F14D092EA0C0F01D142020FD193EA7D
:104700000C0F03D14B0218BF084608D180EA010004
:1047100000F0004040F0FE4040F40000704740F0E0
:10472000FE4040F4400070474FF0FF0C1CEAD052AE
:104730001EBF1CEAD15392EA0C0F93EA0C0F69D00A
:10474000A2EB030280EA010C49024FEA402037D075
:104750004FF0805343EA111143EA10130CF000406C
:104760008B4238BF5B0042F17D024FF4000C8B425C
:1047700024BF5B1A40EA0C00B3EB510F24BFA3EB3C
:10478000510340EA5C00B3EB910F24BFA3EB91030C
:1047900040EA9C00B3EBD10F24BFA3EBD10340EA66
:1047A000DC001B0118BF5FEA1C1CE0D1FD2A3FF6AC
:1047B00050AF8B4240EBC25008BF20F00100704761
:1047C0000CF0004C4CEA50207F32C2BFD2F1FF0304
:1047D00040EAC250704740F400004FF00003013A35
:1047E00037E792F0000F00F0004C02BF400010F4D9
:1047F000000F013AF9D040EA0C0093F0000F01F0ED
:10480000004C02BF490011F4000F013BF9D041EA0E
:104810000C0195E70CEAD15392EA0C0F08D1420241
:104820007FF47DAF93EA0C0F7FF470AF084676E714
:1048300093EA0C0F04D14B023FF44CAF08466EE7ED
:1048400030F0004C18BF31F0004CCAD130F00042BB
:104850007FF45CAF31F000437FF43CAF5FE700BF13
:104860004FF0FF3C06E000BF4FF0010C02E000BF3C
:104870004FF0010C4DF804CD4FEA40024FEA4103DE
:104880007FEA226C18BF7FEA236C11D001B052EA94
:10489000530C18BF90EA010F58BFB2EB030088BF5A
:1048A000C81738BF6FEAE17018BF40F001007047C9
:1048B0007FEA226C02D15FEA402C05D17FEA236CAB
:1048C000E4D15FEA412CE1D05DF8040B704700BFF2
:1048D000844608466146FFE70FB5FFF7C9FF002889
:1048E00048BF10F1000F0FBD4DF808EDFFF7F4FFC2
:1048F0000CBF012000205DF808FB00BF4DF808ED5B
:10490000FFF7EAFF34BF012000205DF808FB00BF7D
:104910004DF808EDFFF7E0FF94BF012000205DF89F
:1049200008FB00BF4DF808EDFFF7D2FF94BF012050
:1049300000205DF808FB00BF4DF808EDFFF7C8FF49
:1049400034BF012000205DF808FB00BF4FEA4002A1
:104950004FEA41037FEA226C02D15FEA402C08D182
:104960007FEA236C02D15FEA412C02D14FF00000B4
:1049700070474FF00100704742000ED2B2F1FE4F77
:104980000BD34FF09E03B3EB126209D44FEA00231E
:1049900043F0004323FA02F070474FF000007047E5
:1049A00012F1610F01D1420202D14FF0FF30704786
:1049B0004FF00000704700BF002102F03BB800BF7D
:1049C00013460A460146022002F082B9F0B583B0D0
:1049D00016461F460D460024FFF786F9009733461A
:1049E0002A46019402F0D6F903B0F0BD014B1868D5
:1049F000704700BF4010002070B50F4E0F4D761B62
:104A0000B61018BF002405D0013455F8043B984770
:104A1000A642F9D10A4E0B4D761B04F071FFB61079
:104A200018BF002406D0013455F8043B9847A6422D
:104A3000F9D170BD70BD00BF0C9900000C99000049
:104A40001C9900000C990000931E222B10D80A2AF2
:104A500010B506D000230C46194402F0E9F82046B0
:104A600010BD0028F6DA2D230B7040420123F2E737
:104A700000200870704700BFFFF7E6BFD0F8EC00D9
:104A8000704700BF024B0146186800F00BB800BF2A
:104A900040100020024B0146186802F053BA00BFD4
:104AA000401000202DE9F04F01F10B05162D83B0C9
:104AB000064640F29F8035F0070500F1BF80A9420D
:104AC00000F2BC8000F06EFBB5F5FC7FC0F09C826C
:104AD0006B0A00F0BA80042B00F28381A80900F170
:104AE000390E4FEA4E033830C44F07EB8303A3F16E
:104AF00008015C68A14207D1ACE0002A80F2AC80DA
:104B0000E468A14200F0A680636823F003035A1B07
:104B10000F2AF2DDB9493C6901F1080E744500F035
:104B2000B381636823F003035A1B0F2A00F39981B2
:104B3000002AC1F814E0C1F810E080F29E80B3F5BD
:104B4000007F80F06781DB0803F1010C01229B10DC
:104B500002FA03F34A6851F83C80C4F8088001EB7C
:104B6000CC091A43A9F10803E3604A6041F83C40CC
:104B7000C8F80C40831001249C40944200F28A80C3
:104B8000144206D120F003006400144200F1040036
:104B9000FAD007EBC009CC468046DCF80C108C45F7
:104BA00007D173E1002A80F28181C9688C4500F049
:104BB0006D814B6823F003035A1B0F2AF2DD0C466C
:104BC000D1F80CC054F8088F4B1945F001054D6021
:104BD00042F00101C8F80CC03046CCF808807B6177
:104BE0003B61C3F80CE0C3F808E059609A5000F04C
:104BF000DBFA1FE0102921D800F0D4FA1025062393
:104C000002207E4F07EB8303A3F108025C68944205
:104C100000F045816368E168A56823F0030323443D
:104C200030465A68E96042F001028D605A6000F037
:104C3000BBFA0834204603B0BDE8F08F00240C23F3
:104C40002046336003B0BDE8F08F80234FF0400E64
:104C50003F2049E770465DE72344E1685A68A5684C
:104C600042F00102E96030468D605A6000F09CFA23
:104C70000834204603B0BDE8F08F234430465A681C
:104C800042F001025A6000F08FFA0834204603B067
:104C9000BDE8F08FBC68636823F00308A84504D31F
:104CA000C5EB08030F2B00F38C80554BDFF86091A8
:104CB0001A68D9F8003001332A4404EB080A00F0DE
:104CC000608102F580520F3222F47F6222F00F02DF
:104CD00011463046019200F061FCB0F1FF3F83467F
:104CE000019A00F05881824500F2FC80454B19681A
:104CF000DA451144196000F05381D9F80000DFF85B
:104D000010E101301BBFCAEB0B0A5144CEF800B0D2
:104D100019601BF0070100F01781C1F10800C1F50F
:104D20008051834408315A44C2F30B02C2EB01099B
:104D300049463046019300F031FC431C019B00F0D2
:104D40003F81CBEB00024A4442F001021968C7F8E8
:104D500008B04944BC42CBF804201960DFF8A490A5
:104D600016D0B8F10F0F40F2FD806268A8F10C0375
:104D700023F00703E01802F001024FF0050E1A437A
:104D80000F2B6260C0F804E0C0F808E000F21C815C
:104D90001D4BBC681A68914288BF19601B4B1A688A
:104DA0009142626888BF196022F003029542A2EB2B
:104DB000050301D80F2B04DC304600F0F5F9002480
:104DC00038E7621943F0010345F00105656030469C
:104DD000BA60536000F0E8F90834204603B0BDE83B
:104DE000F08F142B71D9542B00F2A480280B00F102
:104DF0006F0E4FEA4E036E3076E600BFB011002012
:104E0000241A0020281A0020201A00201C1A002032
:104E1000BC1500205A0A042A5ED9142A00F2B38075
:104E200002F15C0149005B3207EB810C57F821105D
:104E3000DFF8DC81ACF1080C8C4500F088804A6812
:104E400022F00302934202D289688C45F7D1D1F84F
:104E50000CC07A68C4F80CC0A160CCF80840CC60E3
:104E600088E6631942F0010745F0010565603046A8
:104E70004B610B61C3F80CE0C3F808E05F609A5027
:104E8000083400F091F9D5E64A6873E608F10108A4
:104E900018F0030F0CF1080C7FF47FAE30E0DC68F3
:104EA000A34208BF02303FF435AEB3E60B440C46D4
:104EB0005A68C96854F8085F42F001025A603046E7
:104EC000E9608D6000F070F9B4E603F15C0E03F167
:104ED0005B004FEA4E0307E69A0902F139014900E7
:104EE0003832A1E7BC424A4B3FF400AF9C6862688D
:104EF00022F003025AE759F80839994540F08280B8
:104F000010F0030F00F1FF30F5D17B6823EA0403B2
:104F10007B6064009C423FF6BDAE002C3FF4BAAE0D
:104F20001C4240467FF435AE64001C4200F1040090
:104F3000FAD02EE6B3F5AA7F18D8E80B00F1780E68
:104F40004FEA4E037730CFE54FF48051EBE6012175
:104F5000D8F80430921001FA02F21A43C8F804207B
:104F6000614677E70123CBF8043025E740F254523D
:104F7000934220D8A80C00F17D0E4FEA4E037C30FE
:104F8000B2E51032A4E6542A26D81A0B02F16F01BA
:104F900049006E3248E7BC68626822F0030205E708
:104FA000CAF30B0000287FF4A8AE4244BB6842F06D
:104FB00001025A60ECE6FE234FF07F0E7E2093E55F
:104FC00001224FF00009C1E604F10801304601F06A
:104FD000B9FFD9F80010DBE6B2F5AA7F05D8DA0BE5
:104FE00002F17801490077321EE740F254518A42BB
:104FF00005D89A0C02F17D0149007C3214E7FE21AC
:105000007E2211E77B6884E7E808431C5B00F8E533
:10501000B011002082B049B15AB16BB113780B6066
:105020001278101C18BF012002B0704701A9002A95
:10503000F3D1104602B070476FF00100F4E700BFF3
:105040008842F0B50DD98B1898420AD28118002AEF
:1050500051D09A1A13F8014D01F8014D9342F9D13C
:10506000F0BD0F2A48D941EA00039B0746D100F161
:10507000100401F11003154653F8106C44F8106C3D
:1050800053F80C6C44F80C6C53F8086C44F8086C3A
:10509000103D53F8046C44F8046C0F2D03F1100319
:1050A00004F11004E8D8A2F1100323F00F0302F07A
:1050B0000F0E1033BEF1030F1944034421D91E1FF4
:1050C0000D467446043C55F8047B46F8047F032CD7
:1050D000F8D8AEF1040424F003040434234421443A
:1050E00002F0030262B1013B0A4411F8014B03F8DC
:1050F000014F8A42F9D1F0BD0346F3E70346F2E7D8
:10510000F0BD7246EEE700BF70B4840746D0541E6F
:10511000002A41D0CDB2034602E0621EE4B3144639
:1051200003F8015B9A07F8D1032C2ED9CDB245EADA
:1051300005250F2C45EA054519D903F1100226462D
:10514000103E0F2E42F8105C42F80C5C42F8085CEE
:1051500042F8045C02F11002F2D8A4F1100222F02D
:105160000F0204F00F041032032C13440DD91E4615
:105170002246043A032A46F8045BFAD8221F22F09A
:1051800003020432134404F003042CB1C9B21C44DA
:1051900003F8011BA342FBD170BC704714460346C1
:1051A000C2E700BF704700BF704700BF024B0A460E
:1051B0000146186800F002B8401000202DE9F04FB9
:1051C000174683B0002900F0C1800E46814607F1E2
:1051D0000B05FFF7E7FF56F804EC162D2EF003043D
:1051E000A6F1080840D810221546AF4241D8944293
:1051F00075DAC94B996808EB04008842416800F0F1
:10520000D98021F0010303445B68DB077DD51EF0E4
:10521000010F35D039464846FFF744FC0746E0B158
:1052200056F8043C23F001034344A0F108029A42DB
:1052300000F04481221F242A00F23181132A00F257
:1052400004810346324611681960516859609268BA
:105250009A603146484601F075FE4846FFF7A4FFC4
:10526000384603B0BDE8F08F25F00705002D2A462B
:10527000BBDA0C230020C9F8003003B0BDE8F08F82
:1052800056F8083CC3EB080ADAF8043023F0030CA4
:1052900004EB0C039342BDDB5746DAF80C1057F8C9
:1052A000080F221F242AC160886000F21781132A88
:1052B00040F212813168CAF808107168CAF80C10FF
:1052C0001B2A00F22B8108360AF1100231681160A6
:1052D00071685160B16891603E461C46D046631BC0
:1052E0000F2B1DD8D8F8043003F0010323434444A6
:1052F000C8F80430636843F0010363604846FFF771
:1053000053FF304603B0BDE8F08F21F00301214484
:10531000914221DBC36882680C46D3609A60DEE765
:10532000D8F8042008EB050102F00102154343F010
:1053300001020B44C8F804504A605A6842F0010266
:1053400008315A60484601F0FDFDD7E7114603B029
:10535000BDE8F04FFFF7A6BB1EF0010F7FF45AAF78
:1053600056F8083CC3EB080ADAF8043023F0030CC3
:1053700001EB0C0E96458BDBC36882685746D36001
:105380009A6057F8081FDAF80C30CB60221F242AE5
:10539000996000F29980132A62D93368CAF80830FC
:1053A0007368CAF80C301B2A00F2A08008360AF194
:1053B000100356E021F0030BA34405F110008345D0
:1053C00059DA1EF0010F7FF425AF56F8081CC1EB27
:1053D000080ADAF8041021F0030CE34458453FF7BB
:1053E00057AF5746DAF80C1057F8080F221F242A37
:1053F000C160886000F2B480132A40F2A580316851
:10540000CAF808107168CAF80C101B2A00F2AF80A5
:1054100008360AF110023168116071685160B16894
:1054200091600AEB0501C5EB0B0242F001029960A5
:105430004A60DAF8043003F001031D434846CAF815
:105440000450FFF7B1FE38465CE7336803607368C9
:1054500043601B2A27D800F1080306F10802F2E690
:105460003B4632681A6072685A60B2689A603E467B
:105470007446D04633E708EB0501C5EB0B0B4BF048
:10548000010299604A6056F8043C03F001031D4391
:10549000484646F8045CFFF787FE304632E731465F
:1054A000FFF7CEFDD5E6B3688360F368C360242AB6
:1054B00028D000F1100306F11002C4E650F8043CB5
:1054C00023F003031C440AE7314638467446D046AD
:1054D000FFF7B6FD3E4602E73A46F7E63146384664
:1054E0001C46D046FFF7ACFD3E46F8E6B368CAF866
:1054F0001030F368CAF81430242A1BD010360AF191
:105500001803AEE7336903617369436106F118025A
:1055100000F1180397E600BFB0110020B168CAF887
:105520001010F168CAF81410242A0FD010360AF1AE
:105530001802CBE63369CAF818307369CAF81C3010
:1055400018360AF120038CE73A4664E73269CAF854
:1055500018207269CAF81C2018360AF12002B5E634
:10556000314638460193FFF76BFD019B59E7B1685F
:10557000CAF81010F168CAF81410242A03D01036A3
:105580000AF1180247E73269CAF818207269CAF8A6
:105590001C2018360AF120023DE700BF38B5074C41
:1055A0000023054608462360FCF79CFA431C00D004
:1055B00038BD2368002BFBD02B6038BD641A002057
:1055C000A2EB0300704700BF02780B78012A28BFC6
:1055D0009A42F5D16DE9044540EA0104CDE902673C
:1055E0006FF0000C4FEA447212B380EA010414F029
:1055F000070F6AD100F0070420F0070004F003054C
:1056000021F007014FEAC505F0E8042314F0040F68
:10561000F1E804670CFA05F462EA040266EA04069B
:105620000AD063EA0403624667EA0407664603E0B9
:10563000F0E80423F1E8046782FA4CF582EA0604F4
:10564000A4FA8CF46CBB83FA4CF583EA0705A5FA3F
:105650008CF595B950E9022351E9026782FA4CF5BD
:1056600082EA0604A4FA8CF483FA4CF583EA07056F
:10567000A5FA8CF52543DBD09CB92DBAB5FA85F493
:1056800024F0070427FA04F1DDE9026723FA04F3A2
:1056900003F0FF0001F0FF01FDE80445A0EB01006D
:1056A000704724BAB4FA84F424F0070426FA04F10B
:1056B000DDE9026722FA04F202F0FF0001F0FF01C7
:1056C000FDE80445A0EB0100704714F0030F3CD146
:1056D00010F0030428D150F8082B51F8083B82FA47
:1056E0004CF582EA0305A5FA8CF55DB950F8042C57
:1056F00051F8043C82FA4CF582EA0305A5FA8CF5D0
:10570000002DE8D02DBAB5FA85F424F0070423FA69
:1057100004F122FA04F202F0FF0001F0FF01FDE8BB
:105720000445A0EB010070474FEAC40420F00300D9
:1057300050F8082B21F0030151F8083B0CFA04F44F
:1057400062EA040263EA0403C9E710F003041AD012
:10575000A1EB040120F00300E40750F8042B06D06D
:105760000FD28B785FFAA2F4E41A06D12BB1CB7872
:105770005FFAB2F4E41A00D11BB920465DF8104B71
:10578000704701F1040150F8042BCC0721F003010C
:1057900051F8043B48D824D222F07F4482FA4CF5D9
:1057A00094EA1325A5FA8CF50AD165B951F8043BA2
:1057B00084EA0204B4EB036F0ED150F8042BEBE73C
:1057C0004FEA132355E035F07F454DD10878FDE8C9
:1057D0000445C0F1000070474FEA126203F0FF0376
:1057E00047E002EA1C4482FA4CF594EA1345A5FA14
:1057F0008CF50AD165B951F8043B84EA0204B4EB94
:10580000034F0CD150F8042BEBE74FEA134330E081
:1058100015EA1C4528D10B884FEA124229E04FEACD
:10582000124203EA1C4324E002F0FF0482FA4CF522
:1058300094EA1365A5FA8CF50AD165B951F8043BD1
:1058400084EA0204B4EB032F09D150F8042BEBE7F0
:105850004FEA13630DE015F0FF0F05D10B684FEA17
:10586000122223F07F4304E04FF00000FDE80445DE
:10587000704712BA1BBA82FA4CF482EA0304A4FA03
:105880008CF5B5FA85F402FA04F203FA04F34FEA50
:105890001260FDE80445A0EB1360704780EA010246
:1058A000844612F0030F4FD111F0030F32D14DF89F
:1058B000044D11F0040F51F8043B0BD0A3F1013259
:1058C0009A4312F0803F04BF4CF8043B51F8043B6C
:1058D00016D100BF51F8044BA3F101329A4312F0E4
:1058E000803FA4F101320BD14CF8043BA24312F0EB
:1058F000803F04BF51F8043B4CF8044BEAD02346E8
:105900000CF8013B13F0FF0F4FEA3323F8D15DF899
:10591000044B704711F0010F06D011F8012B0CF861
:10592000012B002A08BF704711F0020FBFD031F8D9
:10593000022B12F0FF0F16BF2CF8022B8CF8002060
:1059400012F47F4FB3D1704711F8012B0CF8012BE3
:10595000002AF9D1704700BFFFFFFFFFFFFFFFFFE5
:10596000FFFFFFFFFFFFFFFFFFFFFFFFFFFFFFFF47
:10597000FFFFFFFFFFFFFFFFFFFFFFFFFFFFFFFF37
:1059800090F800F06DE9024520F007016FF0000C7F
:1059900010F0070491F820F040F049804FF0000427
:1059A0006FF00700D1E9002391F840F000F1080002
:1059B00082FA4CF2A4FA8CF283FA4CF3A2FA8CF33A
:1059C0004BBBD1E9022382FA4CF200F10800A4FAA1
:1059D0008CF283FA4CF3A2FA8CF3E3B9D1E90423F5
:1059E00082FA4CF200F10800A4FA8CF283FA4CF32C
:1059F000A2FA8CF37BB9D1E9062301F1200182FAE6
:105A00004CF200F10800A4FA8CF283FA4CF3A2FAEB
:105A10008CF3002BC6D0002A04BF04301A4612BAF9
:105A2000B2FA82F2FDE8024500EBD2007047D1E9FC
:105A3000002304F00305C4F100004FEAC50514F08B
:105A4000040F91F840F00CFA05F562EA05021CBF5C
:105A500063EA050362464FF00004A9E7002A41D03B
:105A600040EA010313F00303F0B425D1032A23D93C
:105A700004680D68AC421FD1043A35D0A4F1013559
:105A800025EA040414F0803F31D1071D0D1D0DE0FF
:105A900057F8043B0E68A3F10134B34224EA03042F
:105AA0000AD1043A20D014F0803F23D1032A29469A
:105AB000384605F10405EBD803780C789C4202F1D6
:105AC000FF320CD182B114B916E06AB17BB110F883
:105AD000013F11F8014FA34202F1FF32F5D0181B2C
