:100000000C945D000C9485000C9485000C94850084
:100010000C9485000C9485000C9485000C9485004C
:100020000C9485000C9485000C9485000C9485003C
:100030000C9485000C9485000C9485000C9485002C
:100040000C94B2010C9485000C9422020C94FC01D7
:100050000C9485000C9485000C9485000C9485000C
:100060000C9485000C94850000000008000201003B
:100070000003040700000000000000000000000072
:10008000250028002B0000000000240027002A0083
:10009000040404040404040402020202020203032E
:1000A0000303030301020408102040800102040836
:1000B0001020010204081020540211241FBECFEFAB
:1000C000D8E0DEBFCDBF11E0A0E0B1E0E8E9F7E0A5
:1000D00002C005900D92A231B107D9F722E0A2E14A
:1000E000B1E001C01D92A236B207E1F710E0CDE504
:1000F000D0E004C02197FE010E94BF03CC35D10798
:10010000C9F70E949F020C94CA030C94000090E06F
:10011000FC01EC55FF4F2491FC01E057FF4F849107
:10012000882399F090E0880F991FFC01EA57FF4F50
:10013000A591B491FC01E458FF4F859194918FB73C
:10014000F894EC91E22BEC938FBF0895CF92DF925D
:10015000EF92FF920F931F93CF93DF936C017A017D
:100160008B01C0E0D0E0CE15DF0589F0D8016D919C
:100170008D01D601ED91FC910190F081E02DC60139
:100180000995892B11F47E0102C02196ECCFC7019D
:10019000DF91CF911F910F91FF90EF90DF90CF9063
:1001A0000895089580E090E00895FC01538D448DFA
:1001B000252F30E0842F90E0821B930B541710F012
:1001C000CF96089501970895FC01918D828D98171F
:1001D00061F0828DDF01A80FB11D5D968C91928D2B
:1001E0009F5F9F73928F90E008958FEF9FEF089528
:1001F000FC01918D828D981731F0828DE80FF11DF1
:10020000858D90E008958FEF9FEF0895FC01918D0B
:10021000228D892F90E0805C9F4F821B91098F7304
:10022000992708958BE191E00E94060121E0892B36
:1002300009F420E0822F0895FC01848DDF01A80FCE
:10024000B11DA35ABF4F2C91848D90E001968F73FE
:100250009927848FA689B7892C93A089B1898C911D
:1002600080648C93938D848D981306C00288F389E3
:10027000E02D80818F7D80830895EF92FF920F9310
:100280001F93CF93DF93EC0181E0888F9B8D8C8D42
:10029000981305C0E889F989808185FD24C0F62E70
:1002A0000B8D10E00F5F1F4F0F731127E02E8C8D09
:1002B000E8120CC00FB607FCFACFE889F9898081F3
:1002C00085FFF5CFCE010E941C01F1CF8B8DFE0181
:1002D000E80FF11DE35AFF4FF0820B8FEA89FB898B
:1002E0008081806207C0EE89FF896083E889F9898F
:1002F00080818064808381E090E0DF91CF911F91C5
:100300000F91FF90EF900895CF93DF93EC01888DCC
:100310008823C9F0EA89FB89808185FD05C0A88909
:10032000B9898C9186FD0FC00FB607FCF5CF80818F
:1003300085FFF2CFA889B9898C9185FFEDCFCE01D9
:100340000E941C01E7CFDF91CF91089580E090E0FB
:10035000892B29F00E94120181110C94000008954C
:100360000E94C5031F920F920FB60F9211242F9374
:100370003F938F939F93AF93BF9380911701909179
:100380001801A0911901B0911A013091160123E0D2
:10039000230F2D3720F40196A11DB11D05C026E8BD
:1003A000230F0296A11DB11D209316018093170102
:1003B00090931801A0931901B0931A018091120132
:1003C00090911301A0911401B09115010196A11D06
:1003D000B11D8093120190931301A0931401B09367
:1003E0001501BF91AF919F918F913F912F910F90E8
:1003F0000FBE0F901F9018951F920F920FB60F927D
:1004000011242F933F934F935F936F937F938F9319
:100410009F93AF93BF93EF93FF938BE191E00E9483
:100420001C01FF91EF91BF91AF919F918F917F91AF
:100430006F915F914F913F912F910F900FBE0F9051
:100440001F9018951F920F920FB60F9211242F93A1
:100450008F939F93EF93FF93E0912B01F0912C01E9
:100460008081E0913101F091320182FD12C09081D2
:10047000809134018F5F8F7320913501821751F085
:10048000E0913401F0E0E55EFE4F958F80933401FA
:1004900001C08081FF91EF919F918F912F910F90DB
:1004A0000FBE0F901F90189510921E0110921D0103
:1004B00088EE93E0A0E0B0E080931F0190932001CC
:1004C000A0932101B093220184E091E090931C015C
:1004D00080931B0185EC90E0909328018093270185
:1004E00084EC90E090932A018093290180EC90E0C5
:1004F00090932C0180932B0181EC90E090932E013E
:1005000080932D0182EC90E09093300180932F0135
:1005100086EC90E090933201809331011092340187
:10052000109235011092360110923701E8EBF1E09C
:100530001082719682E0E236F807D1F70895789438
:1005400084B5826084BD84B5816084BD85B58260D8
:1005500085BD85B5816085BD80916E008160809389
:100560006E001092810080918100826080938100F2
:100570008091810081608093810080918000816002
:10058000809380008091B10084608093B10080915D
:10059000B00081608093B00080917A008460809385
:1005A0007A0080917A00826080937A0080917A004C
:1005B000816080937A0080917A00806880937A00CD
:1005C0001092C100E0912B01F0912C0182E0808318
:1005D000E0912701F09128011082E0912901F0912A
:1005E0002A0188E0808310923301E0912F01F0917D
:1005F000300186E08083E0912D01F0912E01808111
:1006000080618083E0912D01F0912E0180818860CE
:100610008083E0912D01F0912E018081806880839C
:10062000E0912D01F0912E0180818F7D808382E009
:100630000E94870081E00E9487008FB7F894C090E5
:100640001701D0901801E0901901F0901A018FBFA6
:10065000C8EBD1E000EC11E08881882309F484C064
:100660004B855C856D857E8546015701841A950A08
:10067000A60AB70A49815A816B817C818416950646
:10068000A606B70608F466C0813019F0823029F05A
:1006900058C0E985FA85099554C041E0F801808188
:1006A000811140E0F80140833197808190E0FC01A6
:1006B000E859FF4F3491FC01EC55FF4F2491FC01A8
:1006C000E057FF4FE491EE2309F43BC0332339F1A7
:1006D000333091F038F43130A9F0323001F584B57F
:1006E0008F7D12C0373091F03830A1F03430B9F43A
:1006F000809180008F7D03C0809180008F778093F0
:1007000080000DC084B58F7784BD09C08091B00092
:100710008F7703C08091B0008F7D8093B000F0E0B0
:10072000EE0FFF1FE458FF4FA591B4918FB7F894D7
:10073000EC91411103C020952E2301C02E2B2C9348
:100740008FBFCB86DC86ED86FE868F8598890196E5
:10075000988B8F878D819E8197FD06C02F85388964
:10076000281739070CF0188261960F5E1F4FF2E0D0
:10077000C236DF0709F070CF0E94A6015ECFEE0FF0
:10078000FF1F0590F491E02D099481E090E0F8942A
:080790000C94CA03F894FFCF9A
:10079800000000003D01A600D50084010601E40028
:0207A800F80057
:00000001FF
