:1000000000800020BD01000021220000ED21000041
:10001000ED210000ED210000ED210000ED210000A8
:10002000ED210000ED210000ED2100002122000063
:1000300021220000ED21000085190000491A00006E
:1000400021220000212200002122000021220000A4
:100050002122000021220000212200002122000094
:100060002122000021220000212200002122000084
:100070002122000021220000212200002122000074
:100080002122000021220000212200002122000064
:100090002122000021220000212200002122000054
:1000A0002122000021220000212200002122000044
:1000B0002122000021220000212200002122000034
:1000C0002122000021220000212200002122000024
:1000D0002122000021220000212200002122000014
:1000E0002122000021220000212200002122000004
:1000F00021220000DD39000021220000F93A000031
:1001000021220000153C00002122000021220000D5
:1001100021220000212200002122000021220000D3
:1001200021220000212200002122000021220000C3
:1001300021220000212200002122000021220000B3
:1001400021220000212200002122000021220000A3
:10015000311B0000451B0000591B00006D1B0000F7
:100160002122000085280000212200002122000019
:100170002122000021220000212200002122000073
:100180002122000021220000212200002122000063
:100190002122000021220000212200002122000053
:1001A0002122000021220000212200002122000043
:1001B000212200002122000021220000564B4CF297
:1001C000205210B51A804DF628121A8000BF00BFC9
:1001D00002F02AF8514B4FF010621A60504A9A60B0
:1001E000504ADA60504A136813F4807301BF4F49D4
:1001F0000B604FF4A85313604D4B4E491A7810070B
:1002000042BF1A7842F008021A704B4B2A221A7029
:100210004A4A4B4B8B4204D252F8040F43F8040B6A
:10022000F8E7484B484A0021934202D243F8041BA6
:10023000FAE7464A4648002350F8231042F82310B4
:1002400001336F2BF8D1434B434A802103F8011B44
:100250009342FBD1414B3D4A1A60414B8A221A70AE
:10026000A3F5805324225A70A0221A709A7991071C
:10027000FCD59A79D206FCD43A4A937903F00C0360
:10028000082B384BF9D105221A7143225A719A79F9
:100290009406FCD533498A79324B5006FBD5324A55
:1002A0004FF0817111600521516020221A709A79F6
:1002B00002F00C020C2AFAD12C4B2D4A1A602D4B5D
:1002C0002D4A1A6000225A60072243F8042C2B4A58
:1002D000C3F80C2D62B602F0A9F9144B1B68DA07BB
:1002E00005D5274802F02AF9264B274A1A60274BE2
:1002F0001B785B0609D5234C234B22689A4204D114
:100300001F4802F01BF90023236004F0D9FD01F01F
:1003100091FF01F0A7FEFEE70E200540308004406B
:10032000823F04000100002B10D0034014D0034092
:1003300002D00740D891FF1F00E0074094A40000BE
:100340002087FF1FD891FF1FC496FF1F0082FF1F49
:100350000000000000E400E05FE400E008ED00E0E1
:1003600000500640004006404480044004800440A1
:10037000C010050014E000E03F190100000020203B
:1003800020BB135C1CE00340A5C3945A00F0074057
:10039000FFFFFFFFFFFFFFFFFFFFFFFFFFFFFFFF6D
:1003A000FFFFFFFFFFFFFFFFFFFFFFFFFFFFFFFF5D
:1003B000FFFFFFFFFFFFFFFFFFFFFFFFFFFFFFFF4D
:1003C000FFFFFFFFFFFFFFFFFFFFFFFFFFFFFFFF3D
:1003D000FFFFFFFFFFFFFFFFFFFFFFFFFFFFFFFF2D
:1003E000FFFFFFFFFFFFFFFFFFFFFFFFFFFFFFFF1D
:1003F000FFFFFFFFFFFFFFFFFFFFFFFFFFFFFFFF0D
:10040000FFFFFFFFFFFFFFFFFFFFFFFFDEF9FFFF23
:1004100010B5054C237833B9044B13B10448AFF33E
:1004200000800123237010BDD891FF1F0000000041
:1004300090A40000084B10B51BB108490848AFF361
:1004400000800848036803B910BD074B002BFBD0A0
:10045000BDE81040184700BF00000000DC91FF1FFE
:1004600090A40000D891FF1F0000000070B5044662
:1004700008460D4605F044FB2368024629462046FF
:100480005B68BDE87040184703684FF00042DA62CD
:100490005963DA6A002AFCDA986BC0B2704700230D
:1004A00083707047F7B50D4602A901E90C00009B67
:1004B000A96A0A2B98BF184A044694BF52F8230031
:1004C0004FF07E5004F0BAFA019B052B98BF134AF7
:1004D0000746B5F9580094BF52F823604FF07E5696
:1004E00004F058FA394604F0A9FA2060B5F95A0028
:1004F00004F050FA394604F0A1FA6060E86D04F0A7
:1005000045FA314604F09AFAB5F86030A06020460A
:10051000A38103B0F0BD00BF909D0000BC9D000012
:10052000C37830B5002B3FD1204BDA7AF2B172B6E6
:10053000DA7AD40705D51E49DA680C6822409A6138
:100540000A60DA7A194C910705D51A4922690D68B3
:100550002A40E2610A60DA7A144C520705D516493E
:1005600062690D682A4022620A6062B61B68134AFB
:10057000D968914207D012491960DA6002F18042CD
:100580001A61104A1A6002790F4B53F83220012386
:1005900082F80031C37000BF00BF00BF00BF00BFC2
:1005A00000BF00BF00BF00BF30BD00BF2C87FF1FD2
:1005B00080E100E084E100E088E100E00100023E2B
:1005C00001403F0000003F802C9F0000C378F3B142
:1005D00002790F4B53F83230012283F880200D4B03
:1005E000DA7A92B1D10742BF0B4A99691160DA7A7F
:1005F000920741BF074AD169084A1160DB7A5B075D
:1006000041BF044B1A6A064B1A600023C37070473F
:100610002C9F00002C87FF1F00E100E004E100E0B8
:1006200008E100E070B5124C0E460546FFF778FF72
:1006300006F07F012046FFF727FF4FF41663013BCA
:10064000FDD100212046FFF71FFF044600BF00BF79
:1006500000BF00BF00BF00BF00BF00BF00BF2846F3
:10066000FFF7B4FF4FF4F073013BFDD1204670BD9E
:100670002C87FF1F38B50F210546FFF7D3FF00EB8E
:10068000800000EB80004400A4B22C84204604F0DB
:100690007DF901464FF07E5004F084FAA8622046AE
:1006A00038BD38B51B210446FFF7BCFF1A210546AB
:1006B0002046FFF7B7FF0146284601F085FB3223AD
:1006C000B0FBF3F080B2608438BD38B51D2104461C
:1006D000FFF7A8FF1C2105462046FFF7A3FF0146B0
:1006E000284601F071FB3223B0FBF3F080B2A08406
:1006F00038BDFFFFF8B50D4C0F4616460546FFF70F
:100700000FFF47F080012046FFF7BEFE314620462E
:10071000FFF7BAFE4FF4F073013BFDD12846FFF717
:1007200055FF4FF43463013BFDD1F8BD2C87FF1F0B
:10073000312910B504464FF0320005DD42F20803BE
:100740009942A8BF194600E00146B1FBF0F22046ED
:10075000D2B20F21FFF7CEFF2046BDE81040FFF7D1
:1007600089BF01EB810138B501EB81014C00A4B2D6
:10077000054604F0FE021A21FFF7BCFF2846220AB4
:100780001B21FFF7B7FF2846BDE83840FFF789BFB8
:100790002DE9FF41044602223921FFF7ABFF1D225C
:1007A00013212046FFF7A6FF0A2001F029FF182297
:1007B00013212046FFF79EFF2046FFF7B1FEE221FE
:1007C0001748184FFFF760FE00254FF4B478EE5D30
:1007D0004346013BFDD112483146FFF755FE012D3E
:1007E0000CD110223146684601F051FB694604F1F4
:1007F000100001F0A1FB684601F0E9FA013540F66E
:10080000FE339D42E3D1F023013BFDD12046FFF7AB
:10081000DDFE4FF47063013BFDD104B0BDE8F08113
:100820002C87FF1F9091000010B520210446FFF790
:10083000F9FE202100F0F0022046FFF75BFF0120C7
:10084000BDE8104001F0DCBE10B50446FFF7BEFE67
:10085000FFF766FEFFF7BAFE5A223A21FFF74AFF7A
:10086000322001F0CDFE02212046FFF7DBFE0321FE
:100870002046FFF7D7FE04212046FFF7D3FE0521CF
:100880002046FFF7CFFE06212046FFF7CBFE20468D
:10089000FFF77EFF0A2001F0B3FE2046FFF7C4FFFA
:1008A0000120BDE8104001F0ABBE10B5FF220446A8
:1008B0001421FFF71FFF2046FF221621FFF71AFF22
:1008C0002046FF221821BDE81040FFF713BF10B5E6
:1008D0002E210446FFF7A6FE40F01F02D2B22046AA
:1008E0002E21BDE81040FFF705BFFFFF437810B58C
:1008F00004464BB90121007901F030FE104800F0A8
:1009000083FE642001F07CFE2378ABB92046FFF71C
:100910009BFF218C2046FFF70BFF618C2046FFF7E1
:1009200020FF2046FFF7D1FE2046FFF7BEFF2046FE
:10093000FFF7CDFF012323700123637010BD00BFBB
:100940002C87FF1F10B5044B0184B3FBF2F24284E5
:10095000FFF7CCFF012010BD40420F00437870B577
:1009600004460BB9FFF7C2FFA3780BB10023A370B5
:1009700072B62046FFF7D4FD04F14006502111481D
:10098000FFF782FD0E23324631460E4800F078FE16
:1009900001F016FE0025E062206329466563A56329
:1009A000E5630E22304601F0FFFB1422294604F1D4
:1009B000500001F0F9FB2046FFF708FE0123A37069
:1009C00062B670BD2C87FF1F38B5837804460BB91B
:1009D000FFF7C4FF01F0F4FD236BA28CC01A824222
:1009E00002D902F045FFF5E772B62046FFF798FD01
:1009F00050212248FFF748FD04F1400211460E2322
:100A00001E4800F03DFE01F0DBFD256B451B204636
:100A1000FFF7DCFD236D0133236501F0D1FDE36AAF
:100A200094F84320E565C01A236B60652B4423636B
:100A300094F8423094F84A1094F84B0043EA0223A9
:100A4000A4F8583094F8452094F8443043EA02233F
:100A5000A4F85A3001F0B8F9626BB4F95830A4F830
:100A6000600013446363A26BB4F95A301344A36368
:100A7000E26BE36D1344E36362B638BD2C87FF1F5E
:100A800010B50446103001F0A2F9204610BDFFFF5A
:100A900038B5064D002404F170002844103C01F0E4
:100AA00096F914F1800FF6D138BD00BF0493FF1FF3
:100AB00010B5074C04F1200001F089F904F1100091
:100AC00001F085F92046BDE8104001F080B900BF73
:100AD000F891FF1F10B5054C04F1100001F077F9F3
:100AE0002046BDE8104001F072B900BFA093FF1F7F
:100AF00010B5044600F0FAFF204610BD10B50446BC
:100B0000006808B101F0B0FB204610BD2DE9F04FA0
:100B10008A4E8B4C336A2068012583F80051894B3B
:100B2000BBB01B680093FFF74FFF6068FFF74CFFF7
:100B3000854B864A1F681068854B57F82000196856
:100B40008842844808D1B26B82F88050D6F8882059
:100B500082F88050057017E0D2F800C07E4957F83F
:100B60002C700988D3F800E017FA81F171450BD198
:100B7000B16B81F80051D6F8881081F800511168E6
:100B800001311160002202701A68744D216801322F
:100B900002A81A6095E80C00FFF784FC95E80C00A9
:100BA0006168DDF808A0DDF80C90DDF81080BDF874
:100BB000147006A8FFF776FC664A069B1278009927
:100BC00001935FFA82FB0AA80A22079E089DBDF8DE
:100BD000244001F06FF9514603220EA801F0BDF93F
:100BE0004946032212A801F0B8F94146032216A88B
:100BF00001F0B3F939460A221AA801F048F9019B1D
:100C0000032219461EA801F0A8F93146032222A8A2
:100C100001F0A3F92946032226A801F09EF90A2231
:100C200021462AA801F033F94D4B4E492EA8BBF1BD
:100C3000000F08BF194601F00AF94B4932A801F02C
:100C400006F90AA936A801F06CF92C2136A801F0A2
:100C5000EBF90EA901F0D2F92C2101F0E5F912A966
:100C600001F0CCF92C2101F0DFF916A901F0C6F949
:100C70002C2101F0D9F91AA901F0C0F92C2101F0B9
:100C8000D3F91EA901F0BAF92C2101F0CDF922A95E
:100C900001F0B4F92C2101F0C7F926A901F0AEF951
:100CA0002C2101F0C1F92AA901F0A8F92C2101F0A9
:100CB000BBF92EA901F0A2F932A901F09FF9014672
:100CC0002A4800F05DFF36A801F081F832A801F053
:100CD0007EF82EA801F07BF82AA801F078F826A863
:100CE00001F075F822A801F072F81EA801F06FF863
:100CF0001AA801F06CF816A801F069F812A801F022
:100D000066F80EA801F063F80AA801F060F8184B25
:100D1000184A1B683693369B12689B1A094A13605F
:100D2000064B1B6A012283F8802042F6E0610139FC
:100D3000FDD183F800213BB0BDE8F08F2C9F00006F
:100D40002487FF1FF491FF1FC493FF1F9893FF1F79
:100D5000FC92FF1F9C93FF1F0093FF1F9C9E0000AF
:100D6000D69D0000D49D00003E9E00007887FF1FA6
:100D7000F893FF1F8493FF1F37B59DF8181000915B
:100D8000054600F069FF0446284600F019FF20449C
:100D900003B030BD00230E2210B5837004460370EB
:100DA0004370C370826041601946103001F04FF803
:100DB00001F006FCE06201F003FC2063204610BD58
:100DC00038B54FF4C87001F01BFC264C264D27485F
:100DD00027492378002BFCD02B78DB07F9D5036853
:100DE0000A689B1A0E2BF4D9224C234D0A2001F0DD
:100DF00007FC4FF4C87001F003FC4FF47A7240F620
:100E000048512068FFF79EFD1E2001F0F9FB4FF4CA
:100E10007A7240F648516068FFF794FD1E2001F099
:100E2000EFFB0121042001F099FB2B6A012483F8D8
:100E300000412146072001F091FBAB6B112083F8A4
:100E40000041214601F08AFBD5F88830204683F81E
:100E5000004101F0D5FB02F0AFFB10B102F06AFBDC
:100E6000F9E738BDDC94FF1FF494FF1FF893FF1FD0
:100E7000BC96FF1F2487FF1F2C9F00002DE9F8431D
:100E8000436804681C1BA41014BF23460123E41804
:100E90000646894602D2B4F1804F25D36FF0404414
:100EA000A00001F0DFF90746D6F800807568D9F890
:100EB0000030C8EB0505EF4218BF7B51AB0804D0EA
:100EC0002A464146384604F01BFB04353D44B8F140
:100ED000000F02D0404601F0C7F907EB84043760E9
:100EE0007560B460BDE8F883002CD9D12746DBE7F4
:100EF00038B543688568AB42024605D0096803B13E
:100F000019600433536038BDFFF7B8FF38BDFFFFE9
:100F10002DE9F3471C4E4D6833680C6873604FF43D
:100F20007A7317465C436B4394FBF0F493FBF0F544
:100F300004F04EFB0DF1080890FBF4F303FB1400E2
:100F4000284448F8040D30464146FFF7D1FF4FF0E2
:100F50000009B246DAF8003053F80960BE4209F1E0
:100F600004090DDA04F034FB90FBF4F303FB1400E6
:100F700006442E44414604480196FFF7B9FFE9E7CD
:100F800002B0BDE8F08700BFC493FF1F2DE9F04F0A
:100F9000C24F3B78A7B003F0FF04002B40F0E28182
:100FA00002F00AFB002840F3DD81BD4DBD4E4FF439
:100FB000FA7001F025FB2B680493DDF8108019AB63
:100FC000C4F13201181902F005FB0444312C0AD88F
:100FD0002B680393039BB268C8EB03039342EED3E1
:100FE000B04B01221A73B049B04E19A805F0F4FDB8
:100FF00003F046FF82468B460020AB4905F0ECFD2E
:1010000003F03EFF03F0BCFBA7498046002005F03B
:10101000E3FD03F035FF03F0B3FBA3498146002055
:1010200005F0DAFD03F02CFF03F0AAFB5946044655
:10103000504603F0A5FB9E4903F000FD9D4903F0D7
:10104000FDFC414603F0AEFD03F076F802F088FEA9
:1010500003F076FB306000230A223168914800F0EB
:10106000BFFD904800F0ACFD404603F065F84FF03E
:10107000020A02460B46CDF800A08A48FFF77CFE24
:10108000204603F059F8CDF800A002460B468548EB
:10109000FFF772FE484603F04FF8CDF800A00B466C
:1010A00002468048DFF868A2FFF766FE2146484600
:1010B00003F0BAFB03F09EFE2146CAF8000020466A
:1010C00003F0B4FB03F096FECAF80400404603F0B8
:1010D00091FE326851460446FFF71AFF764B774976
:1010E000642090FBF4F080B21880754B754C4FF083
:1010F000000905A8C3F8009000F0A9FE724909A8EC
:1011000000F0A5FE71490DA800F0A1FE0DA911A8DF
:1011100000F007FF2C2111A800F086FF6C4900F0B9
:101120006DFF6C4900F072FF05A900F067FF6A4986
:1011300000F06CFF2C2100F077FF684900F05EFFA3
:10114000644900F063FF05A900F058FF624900F010
:101150005DFF2C2100F068FF614900F04FFF5D4901
:1011600000F054FF09A900F049FF5B4900F04EFF71
:101170002C2100F059FF5B4900F048FF2C2100F0C2
:1011800053FF594900F03AFF524900F03FFF05A9CB
:1011900000F034FF504900F039FF2C2100F044FFEB
:1011A000524900F02BFF4B4900F030FF05A900F039
:1011B00025FF494900F02AFF2C2100F035FF4C495A
:1011C00000F01CFF434900F021FF09A900F016FFC1
:1011D000414900F01BFF2C2100F026FF454900F09B
:1011E00015FF2C2100F020FF434900F00FFF0146BE
:1011F00015A800F096FE15A92A4800F0C1FC15A814
:1012000000F0E5FD11A800F0E2FD0DA800F0DFFD03
:1012100009A800F0DCFD05A800F0D9FD2068FFF763
:101220009DFB6068FFF79AFB2068FFF7CDFB6068C5
:10123000FFF7CAFB01223A702B6815932F4B1599C3
:1012400019602B681193119B2D4D5B1A2D490B6072
:10125000C5F80090DFF8BC901649D9F82030404618
:1012600083F8802003F0EAFB0021804603F08EFD26
:10127000AA464D46002855D12349404603F09AFD21
:1012800000284FD12149404603F0D8FB4FF07C5154
:1012900003F0CAFA03F0D4FD23283DE0D893FF1FE2
:1012A000F893FF1F7887FF1FFF9D00002892FF1F04
:1012B0000000704200007A440093FF1F019E00006E
:1012C0009893FF1F2487FF1F049E0000079E0000C5
:1012D0000493FF1F169E0000149E00001493FF1F2E
:1012E0002493FF1F199E00004493FF1F5493FF1F78
:1012F0006493FF1F269E0000349E00008493FF1F0E
:10130000FC92FF1FF491FF1F398EE34C0000104246
:10131000F492FF1F2C9F0000024603D91349144882
:1013200000F09CFBDAF8002033689A42FAD31048A8
:1013300000F0DCFB0F4B20681A685A600E4B2A6ADB
:1013400000261E70012382F80031AA6B82F800315A
:10135000D5F8882082F80031FFF7A1F86068FFF720
:101360009EF83E7027B0BDE8F08F00BF0D0B000067
:10137000D093FF1FC493FF1F9C93FF1F2DE9FF47CE
:101380007E4E7F4C7F49DFF858827F4D06F1100773
:10139000304600F05CFD7D49384600F058FD22469D
:1013A0007B49002002F0D6FC08F1100A794940463A
:1013B00000F04DFD08F120097749504600F047FD47
:1013C0007649484600F043FD22467549002002F068
:1013D000C1FC3146684600F0A4FD5F21684600F07C
:1013E00023FE414600F00AFE0146284600F099FD22
:1013F000684600F0ECFC3146684600F092FD5F2143
:10140000684600F011FE514600F0F8FD014605F176
:10141000100000F086FD684600F0D9FC31466846B1
:1014200000F07FFD5F21684600F0FEFD494600F0B8
:10143000E5FD014605F1200000F073FD684600F06F
:10144000C6FC3146574E684600F06BFD3146684693
:1014500000F0DCFD014605F1300000F062FD684659
:1014600000F0B5FC3946684600F05BFD5F21684638
:1014700000F0DAFD414600F0C1FD014605F14000F3
:1014800000F04FFD684600F0A2FC3946684600F0C7
:1014900048FD5F21684600F0C7FD514600F0AEFDF3
:1014A000014605F1500000F03CFD684600F08FFC5D
:1014B0003946684600F035FD5F21684600F0B4FD0E
:1014C000494600F09BFD014605F1600000F029FD52
:1014D000684600F07CFC3946684600F022FD314643
:1014E000684600F093FD014605F1700000F019FD1B
:1014F0002D4D2E4E684600F06AFC22462C490020F5
:1015000002F028FC2B49284600F0A1FC28462A4D71
:101510002A49224602F01EFC14212846FFF73AFC15
:101520002846274D2246314602F014FC1521284654
:10153000FFF730FC22463146284602F00BFC2148DA
:1015400021490025802322460560037102F002FC38
:101550001E4B1B6800931E4B009A1A6001F030F876
:101560001C4B1D4918601D4822460560456085607A
:1015700002F0F0FB04B0BDE8F08700BFA093FF1FAE
:101580002087FF1F409E00000493FF1F459E000020
:10159000D50A00004B9E00004E9E0000519E0000A8
:1015A000B10A0000549E00008893FF1F810A0000CA
:1015B000910A0000589E00002C92FF1FCF1D0000D2
:1015C0009092FF1FD093FF1FF10A0000F893FF1FB6
:1015D0008493FF1FC093FF1FFD0A0000C493FF1FE9
:1015E000F891FF1FC38B1B0441BFC38BC1F30801DC
:1015F00003F47E43194358BFC1F30E01C183C38B6B
:101600009BB2C3827047FFFF436819685A6810B5E0
:101610000C6822430A600268154911601549D160BF
:1016200001F18041116114491160417A134A5C183B
:101630000A3194F8244053F8211002EBC404646882
:101640002160017A5C1803EB8101247EC96902EBF9
:10165000C40464682160817A581803EB810390F810
:1016600030005B6B02EBC0025268136010BD00BF1C
:1016700001401F000110003800001F802C9F000057
:101680002DE9F041002B00F0DC8004686E4EE56827
:10169000266015F0807F03F001056DD195B141B151
:1016A0004D1C0978012B18BF41F0004161632946A8
:1016B00006E090F82450012B18BF45F00045656303
:1016C0005E1E00E01E4690F8244044EA0424002EEA
:1016D0003ED031B10D46497815F8024B41EA042459
:1016E0002946456807682D7A022E05F1FF354FEA35
:1016F00005350CBF44F0805E44F0104EADB2C7F823
:1017000034E0023ED0F800E0DEF82C7017F0F00F65
:1017100014D013F0010FDEF838C005D012B182F8F2
:1017200000C00132013B09E03AB196464FEA2C284D
:101730000EF8028B82F801C07246023B07F4704734
:10174000AF42DFD8C3E70168CC6A14F0F00F02D1D2
:10175000002BF8D175E08C6BD90704D50AB1147051
:101760000132013BF4E72AB11146251201F8025B70
:1017700054700A46023BEBE795B141B14D1C097824
:10178000012B18BF41F000416163294606E090F843
:101790002450012B18BF45F0004565635E1E00E034
:1017A0001E4690F82470002E37D021B14F780C7867
:1017B000023144EA072744680568247A022E04F1BE
:1017C000FF344FEA04340CBF47F0805E47F0104E00
:1017D000A4B2C5F834E0023E0568D5F82CE01EF04E
:1017E000F00F10D013F0010FAD6B04D00AB11570DB
:1017F0000132013B07E02AB194460CF8025B2D123E
:1018000055706246023B0EF4704EA645E4D8CAE716
:101810000168CC6A14F0F00F02D1002BF8D110E06F
:10182000DC07896B04D50AB111700132013BF4E782
:101830002AB1144604F8021B091251702246023BD9
:10184000EBE7BDE8F08100BF00041F8070B5036BBB
:101850001A79304B1A70C36A1A792F4B1A70026BBF
:1018600012791A70826A0446002A3FD04368D96808
:101870008A4203D9521A8262012110E0C36A511EC2
:101880001868FFF7AFFE236BA16A1868FFF7AAFE7E
:10189000A16A002311F1FF3118BF0121A362E36A9D
:1018A0001B68186804F124029042226805D1D368AD
:1018B00094F8243043F000430EE0D06810F0804FDD
:1018C000186815BF1D681D680088007814BF0235B0
:1018D00001351D6040F000435363236B1A790F4BB1
:1018E0001A70A9B1E26A12791A7070BD03680C49C6
:1018F0001A63D962D96821F08041D960032380F846
:101900002530406B036811461B68BDE870401847DE
:1019100070BD00BF1F8000401C8000401B80004045
:1019200000000FFF08B50248FFF790FF08BD00BF99
:101930002C87FF1FEFF3108072B6B0FA80F04009D9
:10194000704700B162B67047F8B50C4E0C4F0025D9
:10195000FFF7F0FF346802466CB1636933600BB186
:101960009D6100E03B601046FFF7EBFF6577A368E1
:1019700020469847ECE7FFF7E4FFF8BDDC93FF1F34
:10198000E093FF1FFFF7E0BF15490B6830B513B9AF
:101990008360C36009E004681A68944207D2002596
:1019A000121B8360C560D8601A60086015E0026889
:1019B0001C689968121B026061B10C68A2420B4658
:1019C000F5D28160C968C160D860C168A21A886018
:1019D0001A6002E08160C36098600223037530BD25
:1019E000E493FF1F70B5164D2C680026BCB1236828
:1019F00013B1013B236012E0A26802B1D3602069F9
:101A00002A60036826751B68224600219847636890
:101A10001BB123602046FFF7B7FF2C68E6E7FFF70E
:101A200089FF084B00221C681A60FFF78AFF2CB15F
:101A3000A5682046FFF7A8FF2C46F8E770BD00BF59
:101A4000E493FF1FF493FF1F024A136801331360EE
:101A5000FFF7C8BFF893FF1F7047FFFF036830B55B
:101A600023B100249C600124DC6017E0194C23683A
:101A700043F40003236000BF174B01241C6003F5EF
:101A80008073164C036003689D683DB11033A34218
:101A90000360F8D900230360184630BD0468104B7A
:101AA000226023441B110F4D0322A2600E4A45F809
:101AB00023100179995444335A11920002F1604283
:101AC00002F56142012003F01F0300FA03F31360E3
:101AD00030BD00BF3C800440007003403F710340B4
:101AE000008FFCBF6487FF1F44E400E0016830B54D
:101AF000A1B10B4B0B441B1103F1440255110124FE
:101B000002F01F0204FA02F2064C44F82520064AAD
:101B1000064C42F8234000238B60036030BD00BFB9
:101B2000008FFCBF80E100E06487FF1F591A0000AE
:101B3000024B01221A60024B1B6818470C710340CC
:101B40006487FF1F024B01221A60024B5B68184733
:101B50001C7103406487FF1F024B01221A60024B75
:101B60009B6818472C7103406487FF1F024B0122BA
:101B70001A60024BDB6818473C7103406487FF1F03
:101B80002DE9F04100258C688AB0074688462E462C
:101B900094B12B46212201A9404600F04BFA3B6844
:101BA000202C22465B6828BF202201A93846154414
:101BB000A41A98470644EBE730460AB0BDE8F08126
:101BC00007B5064B1B88ADF80430036802225B683A
:101BD00001A9984703B05DF804FB00BF1C9F0000FB
:101BE00070B505468AB022B90368C9B21B68984728
:101BF0002FE0012A08BF0A2209B1212004E0302287
:101C00008DF82520212014E0B1FBF2F602FB16111D
:101C1000CCB2092994BF04F1300104F137010AACB8
:101C20000444C9B204F8241C314616B10138C0B2CC
:101C3000EAE733B10138C0B20AAB03442D2203F8FE
:101C4000242C2B6801A9C0F1220201445B682846BC
:101C500098470AB070BDFFFF2DE9F04F85B00746E9
:101C60001946104615461C469DF8386002F052FD94
:101C700008B14D4912E024F000484FF0FF324B4BC1
:101C80002846414602F046FD68B94FF0FF32474B07
:101C90002846414602F020FD28B945493846FEF75E
:101CA000E5FB804676E04FF06042424B28462146F5
:101CB00002F026FD08B14049F0E74FF060423F4B8B
:101CC0002846214602F0FEFC0028F4D10022002321
:101CD0002846214602F0F6FC20B104F100444FF002
:101CE000010800E0804636494FF0000900205FFA05
:101CF00089F39E4207D92AA3D3E9002302F070FAA0
:101D000009F10109F3E702460B462846214602F095
:101D1000B5F80D46044602F013FD434601468146E0
:101D20000A223846FFF75CFF80469EB3484602F021
:101D3000E1F90B4602462946204602F09DF80F2E97
:101D40004FF02E0328BF0F268DF800300DF101054E
:101D50003446013CE4B2FF2C15D00022194B02F0AE
:101D60003FFA8B46824602F0EBFCC0B200F1300332
:101D700005F8013B02F0CEF902460B4650465946A3
:101D800002F07AF8E5E73B68721C5B68D2B26946FC
:101D900038469847404605B0BDE8F08FAFF3008065
:101DA000000000A09999B93F1E9F0000FFFFEF7F40
:101DB000269F0000FFFFEF41229F0000FFFFEFC1C1
:101DC0000000E03F0000244041EA0020704710B5C9
:101DD0000446006803F0BEF8204610BD38B504463E
:101DE0000D460068013103F013FC10B184E82100B6
:101DF000012038BD43688B4210B5044606D2FFF778
:101E0000EDFF20B1A3680BB922681370012010BD4B
:101E1000F8B504460F46154622B9036803B11A7097
:101E200000230BE01146FFF7E5FF064640B92068A6
:101E300010B103F08FF8266000236360A36004E014
:101E4000A5603946206803F0EDFD2046F8BD38B5A1
:101E50000023044603604360836003730D4639B179
:101E6000084603F04DFE294602462046FFF7D0FF04
:101E7000204638BD38B5054608460C4603F040FEFE
:101E8000214602462846BDE83840FFF7C1BF10B5DD
:101E90000446002386B023606360A3602373084672
:101EA00001A903F04DF801A92046FFF7E3FF204602
:101EB00006B010BD10B5044600238AB023606360ED
:101EC000A3602373084601A900F0F0F901A9204698
:101ED000FFF7D0FF20460AB010BD38B505460068B0
:101EE0000C4660B16A688B689A4206D3096803F0B1
:101EF00099FDA368AB6000230AE003F02BF8236888
:101F00002B6063686B60A368AB6000232360636031
:101F1000A36038BD814203D08A680968FFF778BFA3
:101F2000704710B500230446036043608360037369
:101F3000FFF7F0FF204610BD884210B5044601D0DF
:101F4000FFF7CBFF204610BD10B5044611B1FFF7D7
:101F500091FF00E0A160204610BD10B504460023AB
:101F60008AB023606360A360237308466B46911CAC
:101F700000F0ACF901462046FFF7E6FF20460AB024
:101F800010BD2DE9F843036885688B4204460E4670
:101F9000904606D85A19914203D2C3EB0109012792
:101FA00000E00027B8F1000F17D04544294620462D
:101FB000FFF720FF88B1A06823684FB1424603EBCA
:101FC0000901184400F056F8236800225A5503E02E
:101FD0003146184403F026FDA5602046BDE8F8838D
:101FE00013B500238DF80410012201A904468DF8D1
:101FF0000530FFF7C6FF204602B010BD10B58A6855
:1020000009680446FFF7BDFF204610BD38B50546F8
:102010000C4639B1084603F073FD214602462846B6
:10202000FFF7AFFF284638BD10B50446FFF7D8FFCD
:10203000204610BD70B50E469AB191B185689D429B
:1020400002D800230B7070BD541EED1A0168AC421B
:1020500028BF2C4619442246304603F00FFE0023C9
:10206000335570BD08B5FEF7ABFEFEF78FFF01F0EC
:10207000FFFBFAE7844641EA000313F003036DD146
:10208000403A41D351F8043B40F8043B51F8043B3B
:1020900040F8043B51F8043B40F8043B51F8043B42
:1020A00040F8043B51F8043B40F8043B51F8043B32
:1020B00040F8043B51F8043B40F8043B51F8043B22
:1020C00040F8043B51F8043B40F8043B51F8043B12
:1020D00040F8043B51F8043B40F8043B51F8043B02
:1020E00040F8043B51F8043B40F8043B51F8043BF2
:1020F00040F8043B51F8043B40F8043B51F8043BE2
:1021000040F8043B403ABDD2303211D351F8043B81
:1021100040F8043B51F8043B40F8043B51F8043BC1
:1021200040F8043B51F8043B40F8043B103AEDD230
:102130000C3205D351F8043B40F8043B043AF9D281
:10214000043208D0D2071CBF11F8013B00F8013B54
:1021500001D30B8803806046704700BF082A13D361
:102160008B078DD010F003038AD0C3F10403D21A79
:10217000DB071CBF11F8013B00F8013B80D331F8AD
:10218000023B20F8023B7BE7043AD9D3013A11F82D
:10219000013B00F8013BF9D20B7803704B78437098
:1021A0008B7883706046704701B5EAB1102A17DB5F
:1021B00000F0070333B1C3F10803D21A013B00F862
:1021C000011BFBDCC9B241EA012141EA01418C4615
:1021D000D308013BE0E8021CFBDC12F0070203D04D
:1021E000013A00F8011BFBDC01BD00BF08B50B4D37
:1021F0002C462B68580301D500F044FB2368590591
:1022000001D501F0EBFB23681A0501D501F074FC40
:102210002368DB04EDD501F0FDFCEAE734800440DF
:1022200008B5FFF7E3FFFFFF014B10221A8070474C
:10223000002005407047FFFF094908B50B6868B1E9
:102240006A461844A2F58052904206D302F032FE4C
:102250000C2303604FF0FF3008BD0860184608BD2E
:102260007487FF1F02F06EBE02F074BE30B50346E5
:102270000020B3FBF2F402FB1433092B94BF30337C
:102280003733DBB20B5423460CB10130F1E70A18A7
:1022900023465470C41AA34206DACC5C1578CD5498
:1022A00002F801490133F5E7084630BD031E10B5B9
:1022B0000C4603DBBDE81040FFF7D8BF2D2001F826
:1022C000010B5842FFF7D2FF204610BD2DE9F04325
:1022D00081EAE17985B00F46A9EBE179014606462E
:1022E00015461C4602F070FD78B30021304602F01E
:1022F00043FD002814BF042003204845B4BFC0EBB1
:1023000009050025002F07DA60192023844202D036
:1023100004F8013BFAE7002530464FF07E5363F3A3
:102320001E00002102F028FD10B12D23237001347E
:1023300041234E226370E31C2270A27058192022A0
:1023400083423CD003F8012BFAE726F00048774996
:10235000404602F039FDA8BB4046744902F016FD24
:10236000804678BB0021304602F006FD002814BFED
:10237000042003204845B4BFC0EB09054546002FA3
:1023800007DA60192023844202D004F8013BFAE7FF
:1023900000250021304602F0EFFC10B12D23237000
:1023A0000134492323704E2346226370E31CA2703C
:1023B00058192022834202D003F8012BFAE70023A8
:1023C0000370B0E002AB01AA2946304602F062FD7C
:1023D000814665B9019B53B990F80090544B554A1A
:1023E000B9F1340F94BF9146994601230193019BA3
:1023F0005B429D42BCBFDFF83C916B424846B8BF90
:10240000019303F07DFB019B98428046C8BF00F119
:102410000108002B02D108F1010825E024DA1DB3E0
:102420002B44984205F102081ED9A946B9F1000FC4
:1024300007DD3046404902F001FB09F1FF3906464D
:10244000F4E7002DACBF691B294602AB03AA304656
:1024500002F020FD019B039A691CD21A8A4208BF30
:102460000133814608BF0193029808B108F10108C1
:10247000C8EB0703002B04EB080208DD1A442146D1
:1024800023442026994203D001F8016BFAE7234642
:1024900010B12D21197001330199002909D135B1ED
:1024A0001946302001F8020B2E2058700B462E25BD
:1024B00022E0FCDA002DFAD01D46302005F8020B90
:1024C0002E265E702B46C91A00255E1803D503F828
:1024D000010B0125F9E7002DE9D00196E7E7581C2B
:1024E00019F8011B1970824209D001990139019133
:1024F00009B9981C5D7003469A42F0D800E0134673
:10250000002F0DDA47447F42194620207A1A1A44D8
:10251000002A02DD01F8010BF8E7002FA8BFDB1944
:1025200000221A70204605B0BDE8F083FFFF7F7FD0
:10253000D49D0000D69D000000002041044B0549B9
:1025400000221A600A60044A106010221A60704764
:1025500014D0034004D0034000D00340212810B51C
:102560002BD8164A02EBC00301295B68144601D040
:1025700004290FD154F83020012082F880024FF452
:10258000A2721A601A6804290CBF42F0200222F0DD
:10259000200211E052F83000002280F8802211B9A8
:1025A0004FF4807208E0022902D140F2031203E0E6
:1025B000032908BF4FF481721A6010BD2C9F0000E0
:1025C00072B60C4B0C4A0D491B681268096862B65A
:1025D000490102D5322B88BF0132C3F58C33482024
:1025E00003F23F13B3FBF0F34FF47A7000FB0230B9
:1025F000704700BF18E000E0F893FF1F04ED00E013
:1026000038B50446FFF7DCFF054624B938BD013C68
:102610000AD005F57A75FFF7D3FF401BB0F57A7F36
:10262000F5D201F025F9F6E738BDFFFF214B4FF455
:10263000000210B51A604FF080721A604FF00072FD
:102640001A604FF080621A604FF000621A601A4BF5
:102650001A4A1B4C002048F6FF7118605960282365
:1026600013609360136193611362936213639363C6
:102670000922226004F58054043420606160A36064
:10268000236144F8042C04F5FE2420600D48016009
:102690000D490B608B600D4B1A6001F033F9192066
:1026A000FFF7AEFF00F086FE40F21310BDE81040C9
:1026B000FFF7A6BF08E100E0048003400C80034060
:1026C0000080034008800B400C800B4000800B40D2
:1026D000431E032B14D872B60A4951F8230068B17F
:1026E00070B4094C058834F81320466841F823601B
:1026F000521B24F8132062B670BC704762B6704754
:10270000002070475494FF1FAC96FF1F0138032828
:102710000BD872B6074B53F8203043B100205B68EA
:102720000130002BFBD162B670470020704718467D
:10273000F9E700BFA894FF1F30B472B62B4A137894
:102740001D0706D52A4B196A002936D0996A002937
:1027500041D053781C0706D5254B196C00293ED073
:10276000996C002939D09378190705D5204B196E3B
:10277000002936D0996E89B1D3781B0707D51C4B39
:10278000D3F880207AB3D3F8882011213AB162B609
:10279000184B00221A7030BC00F0AABE0D21154C57
:1027A000154D227843F8315003EBC1030830013A4C
:1027B0005860227062B630BC704704220D4C0F4D39
:1027C000217843F8325003EBC20308304A1E5860A8
:1027D000227062B6EFE70521E1E70921DFE7082271
:1027E000ECE70C22EAE71022E8E700BF64A0000053
:1027F0000080FF1FD194FF1FC800400088004000E8
:10280000431E032B1DD81B4A400140F0100030B47A
:10281000104472B6184CE25C032A1BD8DFE802F0C1
:102820000212151703220D88E25410F0080F14BF8E
:10283000C823882343EA054308310360416062B638
:1028400030BC704708300222EDE70522EBE7083084
:102850000422E8E7094A52F8230038B1084A52F83E
:102860002300416042F8231062B6E9E742F82310E2
:10287000034AF7E70080FF1FE094FF1FA894FF1FA3
:10288000B894FF1F2DE9F04FB54CB64E87B046E027
:10289000B54F4FEA930B07EBCB08013DD8F8041076
:1028A00003F00803EDB2A1F1080003F0FF02002BD2
:1028B00040F0108157F83B301B0C1FFA83FE21F8C3
:1028C00008EC002B00F0FD80A84B21F8062C41F805
:1028D000042C53F82520002A00F0DF82DFF8CCA278
:1028E0005AF825305860DFF8C8924AF8250039F8C0
:1028F00015309E4429F815E000F0DCFD002800F0BA
:10290000C5829B499B4B18F0080F00F1080018BFC7
:102910000B46C8F8040047F83B300823237025789D
:10292000EDB2690719D5944B1B78A3B193490A7886
:1029300002F0FF0322B1013BDBB20B7003B900BE12
:102940008F490A7802F0FF032AB1013BDBB20B701A
:10295000002B00F071820423237005F0080303F0BC
:10296000FF02002B00F0DC803378DBB21D098FD131
:102970009B087D4D55F8332005EBC301C2F383025C
:10298000013A49680C2A00F29880DFE802F08C8C4A
:102990009696969696964D96969607000868DFF856
:1029A000F4E14A68DFF80CB2764FCEF80420CEF896
:1029B000000082B240F281600021DFF8B49145F856
:1029C00033904FF0010C8242CBF800102961A961CD
:1029D00087F800C0DFF8909100F2F080B2F5D06F78
:1029E00080F08F83B2F5817F00F0218300F2A8820E
:1029F000802A00F06283822A40F02083BEF80430EF
:102A000003F07F03042B00F219835F4A5F489B00A9
:102A10001A440170417013789B0740F17A8480F862
:102A200000C04FF0020C4DE3DFF888B1DBF8003056
:102A300073B3DFF884A1534F554ABAF8001097F8E2
:102A400000E0107840298C4640F0020928BF4FF082
:102A5000400CBEF1000F8EF0010E87F800E0CCEBC9
:102A600001010CBF8827C82705EBC90E89B280F089
:102A7000010047EA0C47CEF80430AAF8001045F8E8
:102A8000397063441070002900F04581CBF80030A4
:102A9000404B1A88B2F5A06F0FD13F4A9978117058
:102AA00000225A7009E03B4A108842F2210290420B
:102AB00000F036812E4A45F83320384A012313703E
:102AC0002BE72B492B4B18F0080F18BF0B4647F884
:102AD0003B3022E700F00CFD3148324A50F8251017
:102AE000002900F013824B6812F805C040F8253029
:102AF00001F10803C8F80430BCF1030F05D8DFE882
:102B00000CF02C0229260223535518F0080F0A88CE
:102B10000CBF8823C82343EA024347F83B30FCE656
:102B2000E80700F18C81290600F10082AA0706D58A
:102B30001D4A0B4913780220DBB213700870EB06B4
:102B400002D5074B10221A7007B0BDE8F08F04239E
:102B50005355DAE705235355D7E703235355D4E7F5
:102B600080200740902007400080FF1F5494FF1FE3
:102B7000C800400088004000DC94FF1F6594FF1FE0
:102B8000E494FF1F6494FF1FC0200740D494FF1FEC
:102B9000D094FF1FC894FF1F98200740942007403F
:102BA000A894FF1FE094FF1F882007400094FF1F98
:102BB000AC96FF1FFC93FF1F1094FF1F42F22103EE
:102BC0009A4200F0358100F2D980B2F5086F00F02A
:102BD000B382B2F5106F40F03182B24AD9F820309A
:102BE0009EF8021011701A0600F14383AB6AAE4AD8
:102BF0001B0600F139832B6BAB4A180600F14E839C
:102C0000AB6BA94A190600F144832B6CA64A1B063C
:102C100000F13A83AB6CA44A180600F130832B6DA7
:102C2000A14A190600F16483AB6D9F4A1B0600F1AF
:102C30005A832B6E9C4A180600F15083AB6E9A4A59
:102C4000190600F146832B6F974A1B0600F13C835F
:102C5000AB6F954A180600F13283D5F88030924A5E
:102C6000190600F12683D5F888308F4A1B0600F13B
:102C70001A83D5F890308C4A180600F14483D5F8B1
:102C80009830894A190600F1388300230193874B55
:102C90000293874B0393874B0593DFF860A2864B23
:102CA000DFF85C920493029B186830B1D0F804807E
:102CB00000F01EFC40460028F8D1039B1868029BD8
:102CC0001A4600231360019B1A4600234AF822305B
:102CD00030B1D0F8048000F00BFC40460028F8D159
:102CE000039A049B114600220A60059A1B7811463C
:102CF000002241F8042B019A0591023B4FF000019C
:102D000029F81210032B00F23F81DFE813F08B014A
:102D100039018B013901BCF1400F18BF0023B5E622
:102D2000664A0F784878177050708F78C878977017
:102D3000D07010680F79177186284F798979917151
:102D4000577108BF5E4A5F4F04BF0F2111705E4A82
:102D500038781178002881F0010E41F0020182F8E4
:102D600000E00CBF8822C82245F8312005EBC101E4
:102D700080F00100002238704A609BE642F2212375
:102D80009A4240F0E781DFF87C91504B504A9EF820
:102D90000200D9F800E0C3F800E00191CDF808C0C6
:102DA00010700021029B03918A4689460846464AD4
:102DB00092F800E04EF0020C05EBCC08002BC8F8AE
:102DC00004000CBF8820C82040EA0A0A9DF804309D
:102DD00045F83CA08EF001003B701070DFF8C8C0D1
:102DE000DFF8E080DFF8E0A0002940F02E81B9F1A3
:102DF000400F1DD140F0020005EBC005039B6B6046
:102E0000019DDFF8A4C0002D40F036810D0445F08F
:102E100088084CF830809DF808503D7082F800E03A
:102E20000B44402904D100212A4ACBF800301180FC
:102E3000294A0123137040E600F0F6FC8BE51A4B9B
:102E4000254821491A614FF0020E80F800E0234F17
:102E50000A70234919609960224E234D234C9A61D0
:102E60000D213970FF213170DFF89CE0297022704C
:102E70001F4D204A8EF800109F27012406F8047C7D
:102E80005D600470DA6007B0BDE8F08F1A4A47F859
:102E90003B001378013313703FE543F82500DFF85A
:102EA0005CA020E5DC94FF1F0080FF1F5494FF1FEF
:102EB000A894FF1FB894FF1FE094FF1FB496FF1F54
:102EC0006594FF1F6494FF1FD094FF1FBC96FF1FE3
:102ED000F494FF1F1094FF1F94200740C020074068
:102EE0008800400088200740802007409820074045
:102EF0001494FF1F6894FF1FD194FF1F0094FF1FBD
:102F0000AC96FF1FF893FF1F8C200740535D032BE7
:102F100000F2CC8001A151F823F000BF1B29000072
:102F20001B2900007B2F0000752F0000BE49BF4BFE
:102F300080220D2008701A70AA077FF500AEF7E511
:102F400040F202339A4240F0FC80BEF8042002F0C6
:102F50007F02042A72D8BEF80230002B6ED1B2492B
:102F6000019392001144CDF808C00A7842F00202A1
:102F70000A7016E701235355CFE400235355CCE4E0
:102F8000049B4FF001021A70029A019B04320292D4
:102F9000039A04320392049A01330132042B019301
:102FA00004927FF480AEDFF8B492DFF8B4A299F80F
:102FB00000309F4A00218AF8001013701B0700F1AF
:102FC0000A8199F801309B4ADFF89882137018073C
:102FD0004FF000022A63AA6300F1E88099F80230FA
:102FE000954ADFF88082137019074FF000022A65B6
:102FF000AA6500F10381914A99F803301370002209
:103000002A67AA671A07DFF85C9200F1B8803B785C
:103010000293002283F001030193C5F89020C5F8C4
:103020009820BEE6049B4FF000021A70ACE7BEF891
:10303000042002F07F02042A40F291807A4B0F2292
:103040001A707F4A0123137037E540297FF6D2AE0C
:1030500040F002000CEBC002039B5360019AC2B126
:10306000784A9DF8085088F8005040398AF800E006
:1030700040334CF83020D7E69DF808303B700D0403
:10308000039B82F800E045F0C8050B444CF8305033
:10309000C7E69DF8083088F80030039B6A4A8AF832
:1030A00000E0403940334CF83020BDE618F0080FFE
:1030B0000CBF0223032353552FE464484FF0020C46
:1030C00001704170BEF80610614580F06181604A70
:1030D00092F800E04EF0020C05EBCC034029894643
:1030E00028BF4FF04009586000EB09030393002309
:1030F00001930123C9EB01014FEA094A0293C82059
:1031000062E6544B5868002898D0BEF80210BEF80A
:1031100004C003E00C33586800288FD01A888A4214
:10312000F8D15A886245F5D1090A03290CBF90F8F5
:1031300000C0B3F808C0C5E7474B44481B7803708C
:10314000C0E7B2F5A06F7FF479AF002301930123AC
:10315000029326E642F221339A42F6D06EE7BEF899
:103160000230002B7FF46AAF2F4901939200114483
:10317000CDF808C00A7822F002020A7011E600F0C9
:1031800099F9002800F0D08008302F4BC9F884004E
:10319000C9F8803000F08EF9002800F0BD800830BA
:1031A000284BC5F88C00C5F8883030E700F082F96C
:1031B000002800F0D6800830234BC8F84400C8F837
:1031C000403000F077F9002800F0C48008301D4B33
:1031D000E864AB6402E700F06DF9002800F0B3800A
:1031E0000830194B68622B6200F064F9002800F087
:1031F000A3800830134BE862AB62E2E600F05AF9B4
:10320000002800F0BD8008300F4BC8F86400C8F8F3
:10321000603000F04FF9002800F0AB800830094B17
:10322000E866AB66E7E600BFC020074080200740A5
:10323000C4200740C8200740CC200740D0200740CA
:1032400094200740C800400088004000D494FF1F2D
:10325000D094FF1F68A00000DC94FF1F64A0000052
:10326000D194FF1F0080FF1FD06A083800F040F99A
:10327000C1E4D9F82400083800F03AF9B6E4D06C7B
:10328000083800F035F9CAE4506C083800F030F91D
:10329000C0E4D06B083800F02BF9B6E4506B083866
:1032A00000F026F9ACE4D2F88C00083800F020F9E0
:1032B000DFE4D2F88400083800F01AF9D3E4D06FC4
:1032C000083800F015F9C8E4506F083800F010F91C
:1032D000BEE4D06E083800F00BF9B4E4506E083844
:1032E00000F006F9AAE4D06D083800F001F9A0E476
:1032F000506D083800F0FCF896E4D2F89C000838CD
:1033000000F0F6F8C1E4D2F89400083800F0F0F8C4
:10331000B5E44FF0020CD5E69AF80030C5F8880005
:1033200001338AF8003072E69AF80030C9F880005C
:1033300001338AF800302DE79AF80030A862013393
:103340008AF800303DE69AF80030286201338AF8A6
:10335000003049E79AF80030A86401338AF8003059
:103360003CE69AF80030C8F8400001338AF8003093
:1033700027E79AF80030A86601338AF800303AE669
:103380009AF80030C8F8600001338AF8003040E74E
:10339000BCF1400FE14628BF4FF0400900EB0903A4
:1033A0000393002301930123C9EB0C014FEA094A5F
:1033B0000293FCE4F8B500F093FC294B29482A4C11
:1033C0002A4F2B4DDFF8BCC0DFF8BCE0294E0022AD
:1033D0001A605A609A60DA601A615A619A61DA6119
:1033E0001A625A629A62DA621A635A639A63DA63F9
:1033F0001A645A649A64DA641A655A659A65DA65D9
:103400001A665A669A66DA661A675A679A67DA67B8
:10341000C3F880200168C3F8842041F48021016052
:10342000C3F307212170C3F30740134938701B0E03
:103430002B70FF238CF80030104D8EF800301048B0
:103440000B700123337084F8642070264FF40074ED
:10345000102207F82C3C2E70046081F8F820F8BD8B
:103460000080FF1F348004409C200740B0200740AC
:10347000B4200740942007401020074049E400E0B2
:1034800008E100E0802007408820074000F0E6B80F
:1034900000F076B800F04EB800F08EB800F096B9A3
:1034A00000F070B90846114600F0F0B8084600F088
:1034B0005DB9704710B572B60B480268B2FA82F176
:1034C0000B2902DD62B6002010BD4FF00043CB4057
:1034D00022EA0302026062B6044C48234B43E01820
:1034E0000022E250426010BD8887FF1FBC83FF1F8F
:1034F0000C4B4822C31AB3FBF2F30B2B11D80A4A28
:10350000127822B1094A12780AB1FFF715B972B6DA
:1035100007494FF0004222FA03F30A681A430A608F
:1035200062B67047BC83FF1FD194FF1FDC94FF1F5E
:103530008887FF1F10B5104C23686BB12068438843
:103540005A1C03441C7A03889A4212D3FFF7D0FF17
:10355000094B00221A600DE0084B1B7813B94FF09D
:10356000FF3010BD0320FFF7B3F820600028E5D13D
:10357000F5E74280204610BDF094FF1FDC94FF1F4A
:1035800010B50B4C236813B122686AB902E0094BED
:103590001B7813B94FF0FF3010BD0320FFF798F8E8
:1035A00020600028F0D1F5E753881344187A10BD45
:1035B000F094FF1FDC94FF1F044B9888044B1A689B
:1035C0001AB1138852889B1A18447047AC96FF1F93
:1035D000F094FF1F2DE9F84FDFF87890DFF878B00E
:1035E00080460E460027CA4686B39BF800306BB370
:1035F000D9F8003053B90320FFF76AF8CAF8000081
:1036000020B3038813B9FFF773FFF4E7DAF800502B
:103610002B46698833F8084B641AB44228BF3446F5
:10362000224619444046FEF725FD6B88A0442744F6
:10363000361B1C442B88A4B2A3426C80D4D82846E5
:10364000FFF756FF0023C9F80030CDE73846BDE844
:10365000F88F00BFF094FF1FDC94FF1F10B5094BDB
:103660001B786BB1084C206818B1FFF741FF0023AD
:1036700023600320FFF72CF810B1FFF739FFF8E7BC
:1036800010BD00BFDC94FF1FF094FF1F2DE9F84F21
:10369000314DDFF8D490012382460C462B700E4644
:1036A0004F46002E53D0D9F800303BBBDFF8B0B006
:1036B00048F60148294B1B7803F0FF010BB929702C
:1036C00015E00420FFF722F8072807D801232B7004
:1036D000FFF7F0FE386088B91F4B1870B8F1010889
:1036E00002D09BF8003033B11D4B01221A704FF00D
:1036F000FF30BDE8F88F00F0BBF8DBE7184B002186
:10370000197039684B88C3F14000B04228BF304679
:1037100003EB000E0B44A1F802E0361A07330AEB64
:103720000008C24504D01AF8010B03F8010FF8E7AE
:103730004B883F2B06D940230B800420FFF760F80D
:1037400000233B60074B05221A70C246A9E72E7082
:103750002046BDE8F88F00BFE594FF1FDC94FF1FF3
:10376000EC94FF1FE494FF1FE894FF1F07B502AB22
:10377000012103F8010D1846FFF788FF03B05DF83B
:1037800004FBFFFF38B50E4C0E4D012323702B6850
:103790007BB90D4B1B7813B90020207038BD042075
:1037A000FEF7B4FF0728F7D8FFF784FE286000284B
:1037B000F2D02B68588800232370C0F1400038BD38
:1037C000E594FF1FE894FF1FDC94FF1F2DE9F041F3
:1037D000114B1B78F3B1114F114B3C68114D012671
:1037E0001E7098464CB1002663882E7021462380B7
:1037F0000420FFF705F83E6009E0FFF75BFE014695
:1038000020B104202C70FEF7FBFF00E02E70002397
:1038100088F80030BDE8F081DC94FF1FE894FF1FBA
:10382000E594FF1FE494FF1F38B50E4B1B7803F09F
:10383000FF05ABB90C4C216831B14B880B800420DB
:10384000FEF7DEFF256038BDFFF734FE014620B1EC
:103850000420BDE83840FEF7D3BF044B01221A70A4
:1038600038BD00BFE594FF1FE894FF1FE494FF1FDD
:1038700038B51E4C2378002B36D101232370FFF777
:103880009BFE08B1FFF715FE00F098F808B100F0B4
:1038900035F800F021F908B100F031F800F0AAF98C
:1038A00008B100F02DF800232370EFF30583DBB996
:1038B000EFF3108272B60E4D286810B10D4C2178CE
:1038C00011B18AB962B638BD0123237043692B60F8
:1038D0000BB1996101E008490B6002B962B600259D
:1038E000457783689847257038BD00BFF594FF1F62
:1038F000EC93FF1FF093FF1FE893FF1F7047704783
:103900007047FFFF10B5204B2048214960221A70F4
:10391000E1225A701F4B204A1C78204B082C01D101
:10392000012402E00A2C03D119240460132005E0CD
:103930000C2C0CBF15243D24046012200860146078
:103940001860174B17491B78174A03B101230B6006
:103950001360164B164A1978164B012901D880219D
:103960000BE0042901D8842107E0082901D885212A
:1039700003E0102994BF86218721116019600E4B46
:1039800001221A7010BD00BF0040074008B003407C
:103990000CB003408C87FF1F08B00B400CB00B40ED
:1039A000F794FF1F20B0034020B00B408D87FF1F0E
:1039B00024B0034024B00B40F694FF1F054B187849
:1039C000054B1A78C0B2D3B2984238BF4030C01A03
:1039D000704700BF7E95FF1FFD94FF1FF0B534496F
:1039E0000B7913F0300F2FD072B68B7D03F0FF04EC
:1039F00023B9CB7940234B7462B625E062B62D48DB
:103A00002D4A037812782D4FDBB2D2B20546581CEE
:103A10004028CE7928BF00209042F6B21CBF3E5409
:103A20000346601E10F0FF04F1D1D9B22970244979
:103A3000096849B1934236BFC2F140029B1A9B18F4
:103A4000272BC4BF01230B70194AD178C9B20D06C8
:103A50001ED513791C061BD51A4B1B481D780378FD
:103A60001A4EEDB2DBB2AB420AD00133402B28BF75
:103A700000231479F45CE4B2D471147D072CF2D9DC
:103A8000DBB203700A4B1A79100644BF7C22DA704D
:103A900049060CD5064B1A79520608D50C4A002166
:103AA00011700C4A126802B111703C22DA70F0BD3C
:103AB00000A006407E95FF1FFD94FF1F3E95FF1F4F
:103AC000F894FF1F8495FF1F7F95FF1FFE94FF1F33
:103AD000FC94FF1F8095FF1F054B1878054B1A7843
:103AE000C0B2D3B2984238BF4030C01A704700BF4E
:103AF000F695FF1F8D95FF1FF0B534490B7913F034
:103B0000300F2FD072B68B7D03F0FF0423B9CB7931
:103B100040234B7462B625E062B62D482D4A0378E7
:103B200012782D4FDBB2D2B20546581C4028CE7910
:103B300028BF00209042F6B21CBF3E540346601ED0
:103B400010F0FF04F1D1D9B229702449096849B1B4
:103B5000934236BFC2F140029B1A9B18272BC4BF69
:103B600001230B70194AD178C9B20D061ED51379FD
:103B70001C061BD51A4B1B481D7803781A4EEDB254
:103B8000DBB2AB420AD00133282B28BF00231479C3
:103B9000F45CE4B2D471147D072CF2D9DBB203706B
:103BA0000A4B1A79100644BF7C22DA7049060CD5FC
:103BB000064B1A79520608D50C4A002111700C4A9E
:103BC000126802B111703C22DA70F0BD00B00640FC
:103BD000F695FF1F8D95FF1FB695FF1F8895FF1F58
:103BE000FC95FF1FF795FF1F8E95FF1F8C95FF1FFC
:103BF000F895FF1F054B1878054B1A78C0B2D3B261
:103C0000984238BF4030C01A704700BF6E96FF1F01
:103C10000596FF1F10B5284B1A79920620D5274923
:103C2000DA790B782648013300783F2BC8BF002390
:103C3000834218BF2348D2B21EBFC254DAB20A7000
:103C4000214A116861B1214A1278D2B2934236BF3B
:103C5000C2F140029B1A9B18272BC4BF01230B7093
:103C60001549CA78D2B2140616D50B79180613D5A1
:103C7000174B164C18782378DBB2984202D16C238C
:103C8000CB7009E00133282B28BF00231148C05C0A
:103C9000DBB2C0B2C871237051060CD5064B1A793D
:103CA000520608D50C4A002111700C4A126802B164
:103CB00011702C22DA7010BD00C006406E96FF1FF6
:103CC0000596FF1F2E96FF1F0096FF1F6F96FF1F82
:103CD0007496FF1F0696FF1F0496FF1F7096FF1F26
:103CE0001FB572B6154B70221A70154A412111701A
:103CF0000F2102F8011C80221A701A781206FCD5D6
:103D0000104B186862B6104B984298BF0A2301AC5A
:103D100098BF58430A222146FEF7A8FA0B4A00230F
:103D2000E15C21B101330A2B22F8021BF8D1084AC9
:103D300001335B00137004B010BD00BF00000240EF
:103D400007000240080002407F9698001888FF1F75
:103D50001688FF1F0B460146184601F095B800BFB4
:103D6000C1F30A522DE9F843A2F2FF36132E0B4697
:103D70000D460446884607461CDC002E3FDB3A4AC7
:103D800042FA06F901EA09020243864617D034A333
:103D9000D3E9002300F072F80022002300F0B0FC09
:103DA00020B1002D40DB28EA0905002738462946C6
:103DB000BDE8F883332E06DDB6F5806F2FD02046A0
:103DC0001946BDE8F883A2F213424FF0FF3929FAF1
:103DD00002F910EA090FF2D021A3D3E9002300F081
:103DE0004DF80022002300F08BFC0028DED0002DCF
:103DF00020DB454627EA090738462946D8E718A3B5
:103E0000D3E9002300F03AF80022002300F078FC08
:103E10000028CBD0002D18DB00273D46C6E7024620
:103E20000B4600F02BF8CCE74FF4801343FA06F66C
:103E3000B044B8E7142E10D00123C6F1340603FABB
:103E400006F6371928BF9844D3E725F00042074B00
:103E5000224318BF1D460027A8E705F10108C8E75F
:103E60009C7500883CE4377EFFFF0F000000F0BF28
:103E700081F0004102E000BF83F0004330B54FEA1B
:103E800041044FEA430594EA050F08BF90EA020F88
:103E90001FBF54EA000C55EA020C7FEA645C7FEA1B
:103EA000655C00F0E2804FEA5454D4EB5555B8BF3E
:103EB0006D420CDD2C4480EA020281EA030382EAAF
:103EC000000083EA010180EA020281EA0303362D41
:103ED00088BF30BD11F0004F4FEA01314FF4801C14
:103EE0004CEA113102D0404261EB410113F0004F26
:103EF0004FEA03334CEA133302D0524263EB4303DD
:103F000094EA050F00F0A780A4F10104D5F1200E7A
:103F10000DDB02FA0EFC22FA05F2801841F10001D5
:103F200003FA0EF2801843FA05F359410EE0A5F1A9
:103F300020050EF1200E012A03FA0EFC28BF4CF0DA
:103F4000020C43FA05F3C01851EBE37101F0004590
:103F500007D54FF0000EDCF1000C7EEB00006EEB9D
:103F60000101B1F5801F1BD3B1F5001F0CD3490827
:103F70005FEA30004FEA3C0C04F101044FEA44527E
:103F800012F5800F80F09A80BCF1004F08BF5FEA05
:103F9000500C50F1000041EB045141EA050130BDE5
:103FA0005FEA4C0C404141EB010111F4801FA4F188
:103FB0000104E9D191F0000F04BF01460020B1FADD
:103FC00081F308BF2033A3F10B03B3F120020CDA15
:103FD0000C3208DD02F1140CC2F10C0201FA0CF0F3
:103FE00021FA02F10CE002F11402D8BFC2F1200C58
:103FF00001FA02F120FA0CFCDCBF41EA0C0190400E
:10400000E41AA2BF01EB0451294330BD6FEA040456
:104010001F3C1CDA0C340EDC04F11404C4F1200241
:1040200020FA04F001FA02F340EA030021FA04F353
:1040300045EA030130BDC4F10C04C4F1200220FAAA
:1040400002F001FA04F340EA0300294630BD21FAE8
:1040500004F0294630BD94F0000F83F4801306BFAE
:1040600081F480110134013D4EE77FEA645C18BFA2
:104070007FEA655C29D094EA050F08BF90EA020F39
:1040800005D054EA000C04BF1946104630BD91EA31
:10409000030F1EBF0021002030BD5FEA545C05D134
:1040A0004000494128BF41F0004130BD14F5800473
:1040B0003CBF01F5801130BD01F0004545F0FE41E7
:1040C00041F470014FF0000030BD7FEA645C1ABF1C
:1040D000194610467FEA655C1CBF0B46024650EA53
:1040E000013406BF52EA033591EA030F41F400217F
:1040F00030BD00BF90F0000F04BF0021704730B505
:104100004FF4806404F132044FF000054FF00001D9
:1041100050E700BF90F0000F04BF0021704730B59A
:104120004FF4806404F1320410F0004548BF40426F
:104130004FF000013EE700BF42004FEAE2014FEAC4
:1041400031014FEA02701FBF12F07F4393F07F4F9F
:1041500081F06051704792F0000F14BF93F07F4FD1
:10416000704730B54FF4607401F0004521F0004114
:1041700020E700BF50EA010208BF704730B54FF09A
:1041800000050AE050EA010208BF704730B511F09F
:10419000004502D5404261EB41014FF4806404F1D7
:1041A00032045FEA915C3FF4DCAE4FF003025FEA59
:1041B000DC0C18BF03325FEADC0C18BF033202EBE1
:1041C000DC02C2F1200300FA03FC20FA02F001FA3B
:1041D00003FE40EA0E0021FA02F11444C1E600BFDA
:1041E00070B54FF0FF0C4CF4E06C1CEA11541DBF8D
:1041F0001CEA135594EA0C0F95EA0C0F00F0DEF858
:104200002C4481EA030621EA4C5123EA4C5350EA3C
:10421000013518BF52EA033541F4801143F480138D
:1042200038D0A0FB02CE4FF00005E1FB02E506F01E
:104230000042E0FB03E54FF00006E1FB03569CF073
:10424000000F18BF4EF0010EA4F1FF04B6F5007F79
:1042500064F5407404D25FEA4E0E6D4146EB0606EB
:1042600042EAC62141EA55514FEAC52040EA5E5074
:104270004FEACE2EB4F1FD0C88BFBCF5E06F1ED81E
:10428000BEF1004F08BF5FEA500E50F1000041EB55
:10429000045170BD06F0004646EA010140EA020002
:1042A00081EA0301B4EB5C04C2BFD4EB0C0541EA24
:1042B000045170BD41F480114FF0000E013C00F339
:1042C000AB8014F1360FDEBF002001F0004170BD5D
:1042D000C4F10004203C35DA0C341BDC04F1140476
:1042E000C4F1200500FA05F320FA04F001FA05F202
:1042F00040EA020001F0004221F0004110EBD370CF
:1043000021FA04F642EB06015EEA430E08BF20EAFA
:10431000D37070BDC4F10C04C4F1200500FA04F39D
:1043200020FA05F001FA04F240EA020001F000412F
:1043300010EBD37041F100015EEA430E08BF20EAA2
:10434000D37070BDC4F1200500FA05F24EEA020EEA
:1043500020FA04F301FA05F243EA020321FA04F019
:1043600001F0004121FA04F220EA020000EBD370D0
:104370005EEA430E08BF20EAD37070BD94F0000FD0
:104380000FD101F00046400041EB010111F4801F04
:1043900008BF013CF7D041EA060195F0000F18BFB5
:1043A000704703F00046520043EB030313F4801FF1
:1043B00008BF013DF7D043EA0603704794EA0C0FAB
:1043C0000CEA135518BF95EA0C0F0CD050EA4106C1
:1043D00018BF52EA4306D1D181EA030101F000413E
:1043E0004FF0000070BD50EA410606BF1046194666
:1043F00052EA430619D094EA0C0F02D150EA013672
:1044000013D195EA0C0F05D152EA03361CBF1046B2
:1044100019460AD181EA030101F0004141F0FE4151
:1044200041F470014FF0000070BD41F0FE4141F4D5
:10443000780170BD70B54FF0FF0C4CF4E06C1CEAD5
:1044400011541DBF1CEA135594EA0C0F95EA0C0F8A
:1044500000F0A7F8A4EB050481EA030E52EA033545
:104460004FEA013100F088804FEA03334FF0805566
:1044700045EA131343EA12634FEA022245EA111593
:1044800045EA10654FEA00260EF000419D4208BF44
:10449000964244F1FD0404F5407402D25B084FEAF1
:1044A0003202B61A65EB03055B084FEA32024FF49D
:1044B00080104FF4002CB6EB020E75EB030E22BFFA
:1044C000B61A754640EA0C005B084FEA3202B6EBBA
:1044D000020E75EB030E22BFB61A754640EA5C0069
:1044E0005B084FEA3202B6EB020E75EB030E22BFF9
:1044F000B61A754640EA9C005B084FEA3202B6EBFA
:10450000020E75EB030E22BFB61A754640EADC00B8
:1045100055EA060E18D04FEA051545EA16754FEA1A
:1045200006164FEAC30343EA52734FEAC2025FEA38
:104530001C1CC0D111F4801F0BD141EA00014FF0C7
:1045400000004FF0004CB6E711F4801F04BF014398
:104550000020B4F1FD0C88BFBCF5E06F3FF6AFAEB4
:10456000B5EB030C04BFB6EB020C5FEA500C50F144
:10457000000041EB045170BD0EF0004E4EEA1131C7
:1045800014EB5C04C2BFD4EB0C0541EA045170BDCE
:1045900041F480114FF0000E013C90E645EA060E12
:1045A0008DE60CEA135594EA0C0F08BF95EA0C0F40
:1045B0003FF43BAF94EA0C0F0AD150EA01347FF488
:1045C00034AF95EA0C0F7FF425AF104619462CE75F
:1045D00095EA0C0F06D152EA03353FF4FDAE1046C2
:1045E000194622E750EA410618BF52EA43067FF413
:1045F000C5AE50EA41047FF40DAF52EA43057FF4A3
:10460000EBAE12E74FF0FF3C06E000BF4FF0010CAD
:1046100002E000BF4FF0010C4DF804CD4FEA410C11
:104620007FEA6C5C4FEA430C18BF7FEA6C5C1BD0DE
:1046300001B050EA410C0CBF52EA430C91EA030F5F
:1046400002BF90EA020F0020704710F1000F91EABC
:10465000030F58BF994208BF90422CBFD8176FEA8A
:10466000E37040F0010070474FEA410C7FEA6C5C58
:1046700002D150EA013C07D14FEA430C7FEA6C5C5F
:10468000D6D152EA033CD3D05DF8040B704700BF8B
:104690008446104662468C461946634600E000BFD9
:1046A00001B5FFF7B7FF002848BF10F1000F01BDAB
:1046B0004DF808EDFFF7F4FF0CBF012000205DF876
:1046C00008FB00BF4DF808EDFFF7EAFF34BF0120FB
:1046D00000205DF808FB00BF4DF808EDFFF7E0FF94
:1046E00094BF012000205DF808FB00BF4DF808EDE5
:1046F000FFF7CEFF94BF012000205DF808FB00BF4C
:104700004DF808EDFFF7C4FF34BF012000205DF82D
:1047100008FB00BF4FEA410C7FEA6C5C02D150EA13
:10472000013C0AD14FEA430C7FEA6C5C02D152EAA9
:10473000033C02D14FF0000070474FF0010070477A
:104740004A0011D212F5001211D20DD56FF4787310
:10475000B3EB62520ED44FEAC12343F0004343EA65
:10476000505323FA02F070474FF00000704750EAB0
:10477000013002D14FF0FF3070474FF0000070471A
:104780004FEA4102B2F1E04324BFB3F5001CDCF173
:10479000FE5C0DD901F0004C4FEAC0024CEA5070AB
:1047A000B2F1004F40EB830008BF20F001007047DA
:1047B00011F0804F21D113F13872BCBF01F00040DD
:1047C000704741F480114FEA5252C2F11802C2F10F
:1047D000200C10FA0CF320FA02F018BF40F0010090
:1047E0004FEAC1234FEAD32303FA0CFC40EA0C0042
:1047F00023FA02F34FEA4303CCE77FEA625307D17F
:1048000050EA01331EBF4FF0FE4040F440007047B5
:1048100001F0004040F0FE4040F40000704700BF4F
:1048200080F0004002E000BF81F0004142001FBF65
:104830005FEA410392EA030F7FEA226C7FEA236C6E
:104840006AD04FEA1262D2EB1363C1BFD218414063
:1048500048404140B8BF5B42192B88BF704710F0F9
:10486000004F40F4000020F07F4018BF404211F09C
:10487000004F41F4000121F07F4118BF494292EA04
:10488000030F3FD0A2F1010241FA03FC10EB0C0030
:10489000C3F1200301FA03F100F0004302D54942BD
:1048A00060EB4000B0F5000F13D3B0F1807F06D36A
:1048B00040084FEA310102F10102FE2A51D2B1F162
:1048C000004F40EBC25008BF20F0010040EA030057
:1048D0007047490040EB000010F4000FA2F1010204
:1048E000EDD1B0FA80FCACF1080CB2EB0C0200FA8E
:1048F0000CF0AABF00EBC25052421843BCBFD040DC
:104900001843704792F0000F81F4000106BF80F455
:1049100000000132013BB5E74FEA41037FEA226C18
:1049200018BF7FEA236C21D092EA030F04D092F0E3
:10493000000F08BF0846704790EA010F1CBF002017
:10494000704712F07F4F04D1400028BF40F0004074
:10495000704712F100723CBF00F50000704700F094
:10496000004343F0FE4040F4000070477FEA2262BB
:1049700016BF08467FEA23630146420206BF5FEA8C
:10498000412390EA010F40F4800070474FF000038C
:1049900004E000BF10F0004348BF40425FEA000C53
:1049A00008BF704743F0964301464FF000001CE0FB
:1049B00050EA010208BF70474FF000030AE000BF51
:1049C00050EA010208BF704711F0004302D540428F
:1049D00061EB41015FEA010C02BF84460146002001
:1049E00043F0B64308BFA3F18053A3F50003BCFA1C
:1049F0008CF2083AA3EBC25310DB01FA02FC6344C9
:104A000000FA02FCC2F12002BCF1004F20FA02F2CF
:104A100043EB020008BF20F00100704702F12002C2
:104A200001FA02FCC2F1200250EA4C0021FA02F223
:104A300043EB020008BF20EADC7070474FF0FF0C28
:104A40001CEAD0521EBF1CEAD15392EA0C0F93EA23
:104A50000C0F6FD01A4480EA010C400218BF5FEAC5
:104A600041211ED04FF0006343EA501043EA511138
:104A7000A0FB01310CF00040B1F5000F3EBF490032
:104A800041EAD3715B0040EA010062F17F02FD2A36
:104A90001DD8B3F1004F40EBC25008BF20F0010019
:104AA000704790F0000F0CF0004C08BF49024CEA30
:104AB000502040EA51207F3AC2BFD2F1FF0340EAC2
:104AC000C250704740F400004FF00003013A5DDC33
:104AD00012F1190FDCBF00F000407047C2F1000274
:104AE000410021FA02F1C2F1200200FA02FC5FEA61
:104AF000310040F1000053EA4C0308BF20EADC70AB
:104B0000704792F0000F00F0004C02BF400010F41C
:104B1000000F013AF9D040EA0C0093F0000F01F0C9
:104B2000004C02BF490011F4000F013BF9D041EAEB
:104B30000C018FE70CEAD15392EA0C0F18BF93EAED
:104B40000C0F0AD030F0004C18BF31F0004CD8D117
:104B500080EA010000F00040704790F0000F17BF9E
:104B600090F0004F084691F0000F91F0004F14D0E4
:104B700092EA0C0F01D142020FD193EA0C0F03D13C
:104B80004B0218BF084608D180EA010000F000403F
:104B900040F0FE4040F40000704740F0FE4040F41A
:104BA000400070474FF0FF0C1CEAD0521EBF1CEAB9
:104BB000D15392EA0C0F93EA0C0F69D0A2EB0302D7
:104BC00080EA010C49024FEA402037D04FF0805371
:104BD00043EA111143EA10130CF000408B4238BF36
:104BE0005B0042F17D024FF4000C8B4224BF5B1A44
:104BF00040EA0C00B3EB510F24BFA3EB510340EA92
:104C00005C00B3EB910F24BFA3EB910340EA9C003F
:104C1000B3EBD10F24BFA3EBD10340EADC001B01AF
:104C200018BF5FEA1C1CE0D1FD2A3FF650AF8B4253
:104C300040EBC25008BF20F0010070470CF0004C60
:104C40004CEA50207F32C2BFD2F1FF0340EAC2508B
:104C5000704740F400004FF00003013A37E792F04C
:104C6000000F00F0004C02BF400010F4000F013AAA
:104C7000F9D040EA0C0093F0000F01F0004C02BFA5
:104C8000490011F4000F013BF9D041EA0C0195E70E
:104C90000CEAD15392EA0C0F08D142027FF47DAFA7
:104CA00093EA0C0F7FF470AF084676E793EA0C0F97
:104CB00004D14B023FF44CAF08466EE730F0004C95
:104CC00018BF31F0004CCAD130F000427FF45CAF25
:104CD00031F000437FF43CAF5FE700BF4FF0FF3C93
:104CE00006E000BF4FF0010C02E000BF4FF0010CE6
:104CF0004DF804CD4FEA40024FEA41037FEA226CAF
:104D000018BF7FEA236C11D001B052EA530C18BFD0
:104D100090EA010F58BFB2EB030088BFC81738BF35
:104D20006FEAE17018BF40F0010070477FEA226C23
:104D300002D15FEA402C05D17FEA236CE4D15FEA1F
:104D4000412CE1D05DF8040B704700BF8446084653
:104D50006146FFE70FB5FFF7C9FF002848BF10F114
:104D6000000F0FBD4DF808EDFFF7F4FF0CBF012059
:104D700000205DF808FB00BF4DF808EDFFF7EAFFE3
:104D800034BF012000205DF808FB00BF4DF808ED9E
:104D9000FFF7E0FF94BF012000205DF808FB00BF93
:104DA0004DF808EDFFF7D2FF94BF012000205DF819
:104DB00008FB00BF4DF808EDFFF7C8FF34BF012026
:104DC00000205DF808FB00BF4FEA40024FEA4103B4
:104DD0007FEA226C02D15FEA402C08D17FEA236C83
:104DE00002D15FEA412C02D14FF0000070474FF032
:104DF000010070474FEA4002B2F1FE4F0FD34FF06F
:104E00009E03B3EB12620DD94FEA002343F0004337
:104E100010F0004F23FA02F018BF404270474FF0E5
:104E20000000704712F1610F01D1420205D110F06C
:104E3000004008BF6FF0004070474FF0000070471F
:104E400042000ED2B2F1FE4F0BD34FF09E03B3EBF4
:104E5000126209D44FEA002343F0004323FA02F020
:104E600070474FF00000704712F1610F01D142020C
:104E700002D14FF0FF3070474FF00000704700BF85
:104E8000002101F097BE00BF13460A4601460220EA
:104E900001F02ABFF0B583B016461F460D46002428
:104EA000FFF74AF9009733462A46019401F07EFF46
:104EB00003B0F0BD014B1868704700BF588CFF1F4E
:104EC00070B50F4E0F4D761BB61018BF002405D0DD
:104ED000013455F8043B9847A642F9D10A4E0B4DD0
:104EE000761B05F0C7FAB61018BF002406D00134AF
:104EF00055F8043B9847A642F9D170BD70BD00BF7C
:104F000080A4000080A400008CA4000080A4000005
:104F1000931E222B10D80A2A10B506D000230C4667
:104F2000194401F093FE204610BD0028F6DA2D2327
:104F30000B7040420123F2E700200870704700BF69
:104F4000FFF7E6BF024B0146186800F00BB800BF40
:104F5000588CFF1F024B0146186801F0FFBF00BFCD
:104F6000588CFF1F2DE9F04F01F10B05162D83B072
:104F7000064640F29F8035F0070500F1BF80A94248
:104F800000F2BC8000F020FBB5F5FC7FC0F09C82F5
:104F90006B0A00F0BA80042B00F28381A80900F1AB
:104FA000390E4FEA4E033830C44F07EB8303A3F1A9
:104FB00008015C68A14207D1ACE0002A80F2AC8015
:104FC000E468A14200F0A680636823F003035A1B43
:104FD0000F2AF2DDB9493C6901F1080E744500F071
:104FE000B381636823F003035A1B0F2A00F39981EE
:104FF000002AC1F814E0C1F810E080F29E80B3F5F9
:10500000007F80F06781DB0803F1010C01229B1017
:1050100002FA03F34A6851F83C80C4F8088001EBB7
:10502000CC091A43A9F10803E3604A6041F83C4007
:10503000C8F80C40831001249C40944200F28A80FE
:10504000144206D120F003006400144200F1040071
:10505000FAD007EBC009CC468046DCF80C108C4532
:1050600007D173E1002A80F28181C9688C4500F084
:105070006D814B6823F003035A1B0F2AF2DD0C46A7
:10508000D1F80CC054F8088F4B1945F001054D605C
:1050900042F00101C8F80CC03046CCF808807B61B2
:1050A0003B61C3F80CE0C3F808E059609A5000F087
:1050B0008DFA1FE0102921D800F086FA102506236A
:1050C00002207E4F07EB8303A3F108025C68944241
:1050D00000F045816368E168A56823F00303234479
:1050E00030465A68E96042F001028D605A6000F073
:1050F0006DFA0834204603B0BDE8F08F00240C237D
:105100002046336003B0BDE8F08F80234FF0400E9F
:105110003F2049E770465DE72344E1685A68A56887
:1051200042F00102E96030468D605A6000F04EFAAC
:105130000834204603B0BDE8F08F234430465A6857
:1051400042F001025A6000F041FA0834204603B0F0
:10515000BDE8F08FBC68636823F00308A84504D35A
:10516000C5EB08030F2B00F38C80554BDFF86091E3
:105170001A68D9F8003001332A4404EB080A00F019
:10518000608102F580520F3222F47F6222F00F021A
:1051900011463046019200F033FCB0F1FF3F8346E8
:1051A000019A00F05881824500F2FC80454B196855
:1051B000DA451144196000F05381D9F80000DFF896
:1051C00010E101301BBFCAEB0B0A5144CEF800B00E
:1051D00019601BF0070100F01781C1F10800C1F54B
:1051E0008051834408315A44C2F30B02C2EB0109D7
:1051F00049463046019300F003FC431C019B00F03C
:105200003F81CBEB00024A4442F001021968C7F823
:1052100008B04944BC42CBF804201960DFF8A490E0
:1052200016D0B8F10F0F40F2FD806268A8F10C03B0
:1052300023F00703E01802F001024FF0050E1A43B5
:105240000F2B6260C0F804E0C0F808E000F21C8197
:105250001D4BBC681A68914288BF19601B4B1A68C5
:105260009142626888BF196022F003029542A2EB66
:10527000050301D80F2B04DC304600F0A7F9002409
:1052800038E7621943F0010345F0010565603046D7
:10529000BA60536000F09AF90834204603B0BDE8C4
:1052A000F08F142B71D9542B00F2A480280B00F13D
:1052B0006F0E4FEA4E036E3076E600BFC88DFF1FBB
:1052C0008096FF1F8496FF1F7C96FF1F7896FF1F16
:1052D000D491FF1F5A0A042A5ED9142A00F2B3801F
:1052E00002F15C0149005B3207EB810C57F8211099
:1052F000DFF8DC81ACF1080C8C4500F088804A684E
:1053000022F00302934202D289688C45F7D1D1F88A
:105310000CC07A68C4F80CC0A160CCF80840CC601E
:1053200088E6631942F0010745F0010565603046E3
:105330004B610B61C3F80CE0C3F808E05F609A5062
:10534000083400F043F9D5E64A6873E608F101082D
:1053500018F0030F0CF1080C7FF47FAE30E0DC682E
:10536000A34208BF02303FF435AEB3E60B440C460F
:105370005A68C96854F8085F42F001025A60304622
:10538000E9608D6000F022F9B4E603F15C0E03F1F0
:105390005B004FEA4E0307E69A0902F13901490022
:1053A0003832A1E7BC424A4B3FF400AF9C686268C8
:1053B00022F003025AE759F80839994540F08280F3
:1053C00010F0030F00F1FF30F5D17B6823EA0403EE
:1053D0007B6064009C423FF6BDAE002C3FF4BAAE49
:1053E0001C4240467FF435AE64001C4200F10400CC
:1053F000FAD02EE6B3F5AA7F18D8E80B00F1780EA4
:105400004FEA4E037730CFE54FF48051EBE60121B0
:10541000D8F80430921001FA02F21A43C8F80420B6
:10542000614677E70123CBF8043025E740F2545278
:10543000934220D8A80C00F17D0E4FEA4E037C3039
:10544000B2E51032A4E6542A26D81A0B02F16F01F5
:1054500049006E3248E7BC68626822F0030205E743
:10546000CAF30B0000287FF4A8AE4244BB6842F0A8
:1054700001025A60ECE6FE234FF07F0E7E2093E59A
:1054800001224FF00009C1E604F10801304601F0A5
:1054900065FDD9F80010DBE6B2F5AA7F05D8DA0B76
:1054A00002F17801490077321EE740F254518A42F6
:1054B00005D89A0C02F17D0149007C3214E7FE21E7
:1054C0007E2211E77B6884E7E808431C5B00F8E56F
:1054D000C88DFF1F82B049B15AB16BB113780B6010
:1054E0001278101C18BF012002B0704701A9002AD1
:1054F000F3D1104602B070476FF00100F4E700BF2F
:105500008842F0B50DD98B1898420AD28118002A2A
:1055100051D09A1A13F8014D01F8014D9342F9D177
:10552000F0BD0F2A48D941EA00039B0746D100F19C
:10553000100401F11003154653F8106C44F8106C78
:1055400053F80C6C44F80C6C53F8086C44F8086C75
:10555000103D53F8046C44F8046C0F2D03F1100354
:1055600004F11004E8D8A2F1100323F00F0302F0B5
:105570000F0E1033BEF1030F1944034421D91E1F2F
:105580000D467446043C55F8047B46F8047F032C12
:10559000F8D8AEF1040424F0030404342344214475
:1055A00002F0030262B1013B0A4411F8014B03F817
:1055B000014F8A42F9D1F0BD0346F3E70346F2E713
:1055C000F0BD7246EEE700BF704700BF704700BFF6
:1055D00010B40C4B0C4C19680C4AD1F8A830D1F817
:1055E000AC0004FB03F402FB0040A3FB02230344D2
:1055F000013243F10003C1E92A2323F0004010BC2B
:10560000704700BF588CFF1F2DF451582D7F954CCB
:10561000024B0A460146186800F002B8588CFF1F7A
:105620002DE9F04F174683B0002900F0C1800E46E7
:10563000814607F10B05FFF7C7FF56F804EC162D5E
:105640002EF00304A6F1080840D810221546AF42F8
:1056500041D8944275DAC94B996808EB0400884236
:10566000416800F0D98021F0010303445B68DB0747
:105670007DD51EF0010F35D039464846FFF772FC44
:105680000746E0B156F8043C23F001034344A0F17F
:1056900008029A4200F04481221F242A00F231813C
:1056A000132A00F2048103463246116819605168DA
:1056B000596092689A603146484601F04FFC48466E
:1056C000FFF784FF384603B0BDE8F08F25F00705EB
:1056D000002D2A46BBDA0C230020C9F8003003B0A5
:1056E000BDE8F08F56F8083CC3EB080ADAF804303E
:1056F00023F0030C04EB0C039342BDDB5746DAF8AE
:105700000C1057F8080F221F242AC160886000F28D
:105710001781132A40F212813168CAF808107168A3
:10572000CAF80C101B2A00F22B8108360AF110026D
:105730003168116071685160B16891603E461C46E5
:10574000D046631B0F2B1DD8D8F8043003F001039B
:1057500023434444C8F80430636843F001036360A2
:105760004846FFF733FF304603B0BDE8F08F21F025
:1057700003012144914221DBC36882680C46D36057
:105780009A60DEE7D8F8042008EB050102F0010278
:10579000154343F001020B44C8F804504A605A68AC
:1057A00042F0010208315A60484601F0D7FBD7E7C2
:1057B000114603B0BDE8F04FFFF7D4BB1EF0010F58
:1057C0007FF45AAF56F8083CC3EB080ADAF8043005
:1057D00023F0030C01EB0C0E96458BDBC36882684B
:1057E0005746D3609A6057F8081FDAF80C30CB6040
:1057F000221F242A996000F29980132A62D9336803
:10580000CAF808307368CAF80C301B2A00F2A0806E
:1058100008360AF1100356E021F0030BA34405F10A
:105820001000834559DA1EF0010F7FF425AF56F8BA
:10583000081CC1EB080ADAF8041021F0030CE34459
:1058400058453FF757AF5746DAF80C1057F8080F8E
:10585000221F242AC160886000F2B480132A40F21B
:10586000A5803168CAF808107168CAF80C101B2AA4
:1058700000F2AF8008360AF11002316811607168D9
:105880005160B16891600AEB0501C5EB0B0242F073
:10589000010299604A60DAF8043003F001031D4305
:1058A0004846CAF80450FFF791FE38465CE7336873
:1058B0000360736843601B2A27D800F1080306F1D0
:1058C0000802F2E63B4632681A6072685A60B268B3
:1058D0009A603E467446D04633E708EB0501C5EBB7
:1058E0000B0B4BF0010299604A6056F8043C03F040
:1058F00001031D43484646F8045CFFF767FE304647
:1059000032E73146FFF7FCFDD5E6B3688360F36804
:10591000C360242A28D000F1100306F11002C4E667
:1059200050F8043C23F003031C440AE73146384690
:105930007446D046FFF7E4FD3E4602E73A46F7E6F6
:10594000314638461C46D046FFF7DAFD3E46F8E6BB
:10595000B368CAF81030F368CAF81430242A1BD090
:1059600010360AF11803AEE73369036173694361C6
:1059700006F1180200F1180397E600BFC88DFF1F5B
:10598000B168CAF81010F168CAF81410242A0FD0B0
:1059900010360AF11802CBE63369CAF81830736979
:1059A000CAF81C3018360AF120038CE73A4664E73F
:1059B0003269CAF818207269CAF81C2018360AF130
:1059C0002002B5E6314638460193FFF799FD019B69
:1059D00059E7B168CAF81010F168CAF81410242AFF
:1059E00003D010360AF1180247E73269CAF81820C6
:1059F0007269CAF81C2018360AF120023DE700BF80
:105A000038B5074C0023054608462360FCF714FC14
:105A1000431C00D038BD2368002BFBD02B6038BD61
:105A2000C096FF1F80EA0102844612F0030F4FD197
:105A300011F0030F32D14DF8044D11F0040F51F85D
:105A4000043B0BD0A3F101329A4312F0803F04BF14
:105A50004CF8043B51F8043B16D100BF51F8044BFD
:105A6000A3F101329A4312F0803FA4F101320BD12D
:105A70004CF8043BA24312F0803F04BF51F8043BB2
:105A80004CF8044BEAD023460CF8013B13F0FF0F0F
:105A90004FEA3323F8D15DF8044B704711F0010F42
:105AA00006D011F8012B0CF8012B002A08BF704713
:105AB00011F0020FBFD031F8022B12F0FF0F16BF0A
:105AC0002CF8022B8CF8002012F47F4FB3D17047D2
:105AD00011F8012B0CF8012B002AF9D1704700BFF7
