:1000000000800020BD010000A11E00006D1E000048
:100010006D1E00006D1E00006D1E00006D1E0000B4
:100020006D1E00006D1E00006D1E0000A11E000070
:10003000A11E00006D1E0000F1150000B5160000A5
:10004000A11E0000A11E0000A11E0000A11E0000B4
:10005000A11E0000A11E0000A11E0000A11E0000A4
:10006000A11E0000A11E0000A11E0000A11E000094
:10007000A11E0000A11E0000A11E0000A11E000084
:10008000A11E0000A11E0000A11E0000A11E000074
:10009000A11E0000A11E0000A11E0000A11E000064
:1000A000A11E0000A11E0000A11E0000A11E000054
:1000B000A11E0000A11E0000A11E0000A11E000044
:1000C000A11E0000A11E0000A11E0000A11E000034
:1000D000A11E0000A11E0000A11E0000A11E000024
:1000E000A11E0000A11E0000A11E0000A11E000014
:1000F000A11E0000C9300000A11E0000E531000073
:10010000A11E000001330000A11E0000A11E00007E
:10011000A11E0000A11E0000A11E0000A11E0000E3
:10012000A11E0000A11E0000A11E0000A11E0000D3
:10013000A11E0000A11E0000A11E0000A11E0000C3
:10014000A11E0000A11E0000A11E0000A11E0000B3
:100150009D170000B1170000C5170000D917000057
:10016000A11E0000DD240000A11E0000A11E000051
:10017000A11E0000A11E0000A11E0000A11E000083
:10018000A11E0000A11E0000A11E0000A11E000073
:10019000A11E0000A11E0000A11E0000A11E000063
:1001A000A11E0000A11E0000A11E0000A11E000053
:1001B000A11E0000A11E0000A11E0000564B4CF223
:1001C000205210B51A804DF628121A8000BF00BFC9
:1001D00001F06AFE514B4FF010621A60504A9A606B
:1001E000504ADA60504A136813F4807301BF4F49D4
:1001F0000B604FF4A85313604D4B4E491A7810070B
:1002000042BF1A7842F008021A704B4B2A221A7029
:100210004A4A4B4B8B4204D252F8040F43F8040B6A
:10022000F8E7484B484A0021934202D243F8041BA6
:10023000FAE7464A4648002350F8231042F82310B4
:1002400001336F2BF8D1434B434A802103F8011B44
:100250009342FBD1414B3D4A1A60414B8A221A70AE
:10026000A3F5805324225A70A0221A709A7991071C
:10027000FCD59A79D206FCD43A4A937903F00C0360
:10028000082B384BF9D105221A7143225A719A79F9
:100290009406FCD533498A79324B5006FBD5324A55
:1002A0004FF0817111600521516020221A709A79F6
:1002B00002F00C020C2AFAD12C4B2D4A1A602D4B5D
:1002C0002D4A1A6000225A60072243F8042C2B4A58
:1002D000C3F80C2D62B601F0E5FF144B1B68DA077A
:1002E00005D5274801F066FF264B274A1A60274BA1
:1002F0001B785B0609D5234C234B22689A4204D114
:100300001F4801F057FF0023236004F053F901F068
:10031000D1FD01F0E7FCFEE70E20054030800440EF
:10032000823F04000100002B10D0034014D0034092
:1003300002D00740D891FF1F00E00740DC9A000080
:100340002087FF1FD891FF1F7896FF1F0082FF1F95
:100350000000000000E400E05FE400E008ED00E0E1
:1003600000500640004006404480044004800440A1
:10037000C010050014E000E03F190100000020203B
:10038000B78B6D5B1CE00340A5C3945A00F0074097
:10039000FFFFFFFFFFFFFFFFFFFFFFFFFFFFFFFF6D
:1003A000FFFFFFFFFFFFFFFFFFFFFFFFFFFFFFFF5D
:1003B000FFFFFFFFFFFFFFFFFFFFFFFFFFFFFFFF4D
:1003C000FFFFFFFFFFFFFFFFFFFFFFFFFFFFFFFF3D
:1003D000FFFFFFFFFFFFFFFFFFFFFFFFFFFFFFFF2D
:1003E000FFFFFFFFFFFFFFFFFFFFFFFFFFFFFFFF1D
:1003F000FFFFFFFFFFFFFFFFFFFFFFFFFFFFFFFF0D
:10040000FFFFFFFFFFFFFFFFFFFFFFFFDEF9FFFF23
:1004100010B5054C237833B9044B13B10448AFF33E
:1004200000800123237010BDD891FF1F0000000041
:10043000D89A0000084B10B51BB108490848AFF323
:1004400000800848036803B910BD074B002BFBD0A0
:10045000BDE81040184700BF00000000DC91FF1FFE
:10046000D89A0000D891FF1F0000000070B5044624
:1004700008460D4604F0A4FE23680246294620469D
:100480005B68BDE87040184703684FF00042DA62CD
:100490005963DA6A002AFCDA986BC0B2704700230D
:1004A00083707047F7B50D4602A901E90C00009B67
:1004B000A96A0A2B98BF164A044694BF52F8230033
:1004C0004FF07E5003F05AFE019B052B98BF114A56
:1004D0000746B5F9580094BF52F823604FF07E5696
:1004E00003F0F8FD394603F049FE2060B5F95A00E3
:1004F00003F0F0FD394603F041FE6060E86D03F063
:10050000E5FD314603F03AFEA060204603B0F0BDA1
:10051000009400002C940000C37830B5002B3FD12C
:10052000204BDA7AF2B172B6DA7AD40705D51E49D1
:10053000DA680C6822409A610A60DA7A194C9107ED
:1005400005D51A4922690D682A40E2610A60DA7A03
:10055000144C520705D5164962690D682A4022627B
:100560000A6062B61B68134AD968914207D01249E3
:100570001960DA6002F180421A61104A1A60027949
:100580000F4B53F83220012382F80031C37000BFB3
:1005900000BF00BF00BF00BF00BF00BF00BF00BF63
:1005A00030BD00BF2C87FF1F80E100E084E100E048
:1005B00088E100E00100023E01403F0000003F8072
:1005C00074950000C378F3B102790F4B53F83230C1
:1005D000012283F880200D4BDA7A92B1D10742BF15
:1005E0000B4A99691160DA7A920741BF074AD169CB
:1005F000084A1160DB7A5B0741BF044B1A6A064B5D
:100600001A600023C3707047749500002C87FF1F89
:1006100000E100E004E100E008E100E070B5124C08
:100620000E460546FFF778FF06F07F012046FFF7EC
:100630002BFF4FF41663013BFDD100212046FFF74D
:1006400023FF044600BF00BF00BF00BF00BF00BFC4
:1006500000BF00BF00BF2846FFF7B4FF4FF4F073A0
:10066000013BFDD1204670BD2C87FF1F38B50F21FF
:100670000546FFF7D3FF00EB800000EB800044004D
:10068000A4B22C84204603F021FD01464FF07E5099
:1006900003F028FEA862204638BD38B51B21044669
:1006A000FFF7BCFF1A2105462046FFF7B7FF0146BA
:1006B000284601F0C9F93223B0FBF3F080B2608420
:1006C00038BD38B51D210446FFF7A8FF1C2105469B
:1006D0002046FFF7A3FF0146284601F0B5F9322373
:1006E000B0FBF3F080B2A08438BDFFFFF8B50D4C2D
:1006F0000F4616460546FFF70FFF47F080012046DC
:10070000FFF7C2FE31462046FFF7BEFE4FF4F073FE
:10071000013BFDD12846FFF755FF4FF43463013B01
:10072000FDD1F8BD2C87FF1F312910B504464FF0CD
:10073000320005DD42F208039942A8BF194600E0E5
:100740000146B1FBF0F22046D2B20F21FFF7CEFFF7
:100750002046BDE81040FFF789BF01EB810138B5A5
:1007600001EB81014C00A4B2054604F0FE021A21FF
:10077000FFF7BCFF2846220A1B21FFF7B7FF2846D8
:10078000BDE83840FFF789BF2DE9FF41044602224A
:100790003921FFF7ABFF1D2213212046FFF7A6FFEB
:1007A0000A2001F069FD182213212046FFF79EFF61
:1007B0002046FFF7B1FEE2211748184FFFF764FE0D
:1007C00000254FF4B478EE5D4346013BFDD112485D
:1007D0003146FFF759FE012D0CD1102231466846F3
:1007E00001F095F9694604F1100001F0E5F9684659
:1007F00001F02DF9013540F6FE339D42E3D1F0239F
:10080000013BFDD12046FFF7DDFE4FF47063013B55
:10081000FDD104B0BDE8F0812C87FF1F00880000E7
:1008200010B520210446FFF7F9FE202100F0F00268
:100830002046FFF75BFF0120BDE8104001F01CBD22
:1008400010B50446FFF7BEFEFFF766FEFFF7BAFEDF
:100850005A223A21FFF74AFF322001F00DFD022112
:100860002046FFF7DBFE03212046FFF7D7FE0421D9
:100870002046FFF7D3FE05212046FFF7CFFE0621D5
:100880002046FFF7CBFE2046FFF77EFF0A2001F04F
:10089000F3FC2046FFF7C4FF0120BDE8104001F043
:1008A000EBBC10B5FF2204461421FFF71FFF2046C2
:1008B000FF221621FFF71AFF2046FF221821BDE86C
:1008C0001040FFF713BF10B52E210446FFF7A6FE18
:1008D00040F01F02D2B220462E21BDE81040FFF7A3
:1008E00005BFFFFF437810B504464BB901210079DD
:1008F00001F070FC104800F0BDFC642001F0BCFC6D
:100900002378ABB92046FFF79BFF218C2046FFF7E9
:100910000BFF618C2046FFF720FF2046FFF7D1FE3A
:100920002046FFF7BEFF2046FFF7CDFF01232370CF
:100930000123637010BD00BF2C87FF1F10B5044B4F
:100940000184B3FBF2F24284FFF7CCFF012010BD1B
:1009500040420F00437870B504460BB9FFF7C2FF61
:10096000A3780BB10023A37072B62046FFF7D4FD25
:1009700004F1400650211148FFF786FD0E23324650
:1009800031460E4800F0B2FC01F056FC0025E06252
:10099000206329466563A563E5630E22304601F0B6
:1009A00043FA1022294604F1500001F03DFA204696
:1009B000FFF708FE0123A37062B670BD2C87FF1FEE
:1009C00038B5837804460BB9FFF7C4FF01F034FC57
:1009D000236BA28CC01A824202D902F0BFFAF5E75B
:1009E00072B62046FFF798FD50211D48FFF74CFDD9
:1009F00004F1400211460E23194800F077FC01F083
:100A00001BFC256B451B2046FFF7DCFD236D0133E6
:100A1000236501F011FCE36A94F8432094F8451033
:100A2000E565C01A236B60652B44236394F842305C
:100A300043EA022294F8443043EA0123616B12B284
:100A4000A4F858200A446263A26B1BB2A4F85A307F
:100A50001344A363E36B1D44E56362B638BD00BF76
:100A60002C87FF1F10B50446103000F0F0FF204621
:100A700010BDFFFF38B5064D002404F15000284496
:100A8000103C00F0E4FF14F1600FF6D138BD00BF58
:100A9000D492FF1F10B5074C04F1200000F0D7FFDF
:100AA00004F1100000F0D3FF2046BDE8104000F034
:100AB000CEBF00BF4492FF1F10B5054C04F11000DB
:100AC00000F0C5FF2046BDE8104000F0C0BF00BFE9
:100AD0002492FF1F10B5044600F03EFE204610BDD4
:100AE0002DE9F04F614FDFF8A0B1614EDFF89C9126
:100AF000604CDFF89C81604DB1B001F09DFB3B681C
:100B0000C01ACBF8000033680193D9F82030206870
:100B10004FF0010A83F880A0FFF752FF6068FFF7EB
:100B20004FFF01F089FBD8F80030544A2168C01A01
:100B300030601368534406A8136095E80C00FFF773
:100B4000B1FC069B0393079B0293089B0493616887
:100B500095E80C0009A8FFF7A5FC0B9B01990593EC
:100B60000A220CA8099D0A9C00F0E4FF03990322C5
:100B700010A801F032F80299032214A801F02DF810
:100B80000499032218A801F028F8294603221CA87A
:100B900001F023F82146032220A801F01EF8059B4E
:100BA0000322194624A801F018F8354928A800F0B6
:100BB0008EFF0CA92CA800F0F4FF2C212CA801F02A
:100BC00073F810A901F05AF82C2101F06DF814A95E
:100BD00001F054F82C2101F067F818A901F04EF843
:100BE0002C2101F061F81CA901F048F82C2101F03A
:100BF0005BF820A901F042F82C2101F055F824A956
:100C000001F03CF828A901F039F801461D4800F030
:100C1000EDFD2CA800F01BFF28A800F018FF24A869
:100C200000F015FF20A800F012FF1CA800F00FFF35
:100C300018A800F00CFF14A800F009FF10A800F09D
:100C400006FF0CA800F003FFD9F820303A6883F8BB
:100C500000A1DBF8003013443B6001F0EDFAD8F856
:100C60000030C01A306031B0BDE8F08F9493FF1FA0
:100C70000892FF1F2487FF1F449400001892FF1F53
:100C80004C9400007887FF1F1C92FF1F7495000092
:100C90001492FF1F00230E2210B5837004460370C8
:100CA0004370C370826041601946103000F00FFF3E
:100CB00001F0C2FAE06201F0BFFA2063204610BDE5
:100CC00038B54FF4C87001F0D7FA1C4C1C4D1D48C4
:100CD0001D492378002BFCD02B789B07F9D00368A3
:100CE0000A689B1A182BF4D90A20184C01F0C4FA90
:100CF0004FF4C87001F0C0FA4FF47A7240F64851D0
:100D00002068FFF71BFE1E2001F0B6FA4FF47A723E
:100D100040F648516068FFF711FE1E2001F0ACFA62
:100D20000420012101F056FA012001F0A5FA01F09A
:100D3000B9FF10B101F074FFF9E738BD9794FF1FB8
:100D4000A894FF1FB493FF1F7096FF1F2487FF1FF7
:100D50002DE9F047A24D2B78A6B003F0FF04002B3D
:100D600040F03A8101F09EFF002840F335814FF4B6
:100D7000FA7001F081FA9B4B9B4F1A680492DDF8E0
:100D800010801E4619ABC4F13201181901F098FF0A
:100D90000444312C0AD833680393039BBA68C8EB28
:100DA00003039342EED3904B01221A738F49904C68
:100DB000DFF89482DFF8949219A805F06DFA03F039
:100DC000D9FB06460F460020884905F065FA03F076
:100DD000D1FB03F075F839468246304603F070F8CF
:100DE0008449854F854E03F0C9F9854903F0C6F95A
:100DF000514603F077FA02F017FD02F029FB03F0E9
:100E000017F838603968784800F05BFD764800F0E4
:100E10000DFD504602F008FD022302460093724881
:100E20000B4600F059FD704800F000FD754905A81B
:100E300000F04DFE744909A800F049FE73490DA861
:100E400000F045FE0DA911A800F0ABFE2C2111A861
:100E500000F02AFF6E4900F011FF6E4900F016FF06
:100E600005A900F00BFF6C4900F010FF2C2100F0E9
:100E70001BFF6A4900F002FF664900F007FF05A961
:100E800000F0FCFE644900F001FF2C2100F00CFF93
:100E9000634900F0F3FE5F4900F0F8FE09A900F095
:100EA000EDFE5D4900F0F2FE2C2100F0FDFE5D49F3
:100EB00000F0E4FE574900F0E9FE05A900F0DEFE6F
:100EC000554900F0E3FE2C2100F0EEFE564900F0FB
:100ED000D5FE504900F0DAFE05A900F0CFFE4E49DC
:100EE00000F0D4FE2C2100F0DFFE504900F0C6FED9
:100EF000484900F0CBFE09A900F0C0FE464900F0C9
:100F0000C5FE4B4900F0C2FE014615A800F049FE9F
:100F100015A9354800F06AFC15A800F098FD11A845
:100F200000F095FD0DA800F092FD09A800F08FFDDE
:100F300005A800F08CFD2068FFF70CFD6068FFF746
:100F400009FD2068FFF73CFD6068FFF739FD0123CC
:100F50002B7001F071F9374B3060186001F06CF9BB
:100F600033682749C01AC8F8000000235046C9F862
:100F7000003003F003F90021824603F0A7FAA8B974
:100F80002D49504603F0B6FA80B92C49504603F07B
:100F9000F5F84FF07C5102F0E7FF03F0CBFA23287D
:100FA000024603D92649274800F08EFBD9F80020D5
:100FB0003B689A42FAD3234800F0CEFB01F03CF99B
:100FC0003368C01AC8F800002068FFF768FA606844
:100FD000FFF765FA00232B7026B0BDE8F08700BF4D
:100FE000F491FF1FB493FF1F7887FF1F75940000D3
:100FF0002487FF1F000070422092FF1F9493FF1F61
:1010000000007A44779400007A9400007D940000F8
:10101000D492FF1F8C9400008A940000E492FF1F7A
:10102000F492FF1F0493FF1F1493FF1F2493FF1FCD
:101030004C9400001492FF1F398EE34C00001042C4
:10104000E10A00000C92FF1F1C92FF1F1892FF1F65
:101050002DE9FF47684F694C69496A4E6A4D07F1AF
:101060001008384600F033FD6849404600F02FFD77
:1010700022466749002002F0E3F906F1100A6549AB
:10108000304600F024FD06F120096349504600F087
:101090001EFD6249484600F01AFD224660490020C4
:1010A00002F0CEF93946684600F07BFD5F216846C4
:1010B00000F0FAFD314600F0E1FD0146284600F05F
:1010C00070FD684600F0C3FC3946684600F069FDD3
:1010D0005F21684600F0E8FD514600F0CFFD014673
:1010E00005F1100000F05DFD684600F0B0FC3946E7
:1010F000684600F056FD5F21684600F0D5FD494680
:1011000000F0BCFD014605F1200000F04AFD6846F4
:1011100000F09DFC4146684600F043FD5F216846B3
:1011200000F0C2FD314600F0A9FD014605F1300096
:1011300000F037FD684600F08AFC4146684600F042
:1011400030FD5F21684600F0AFFD514600F096FD8E
:10115000014605F1400000F024FD684600F077FCF0
:101160004146684600F01DFD5F21684600F09CFD89
:10117000494600F083FD014605F1500000F011FDE5
:10118000284D294E684600F062FC2246274900207F
:1011900002F056F92649284600F099FC2846254DCC
:1011A0002549224602F04CF914212846FFF772FD2A
:1011B0002846224D2246314602F042F915212846A2
:1011C000FFF768FD22463146284602F039F91C48EF
:1011D0001C490023224603608023037102F030F98A
:1011E00001F02AF8184B186001F026F8174B186028
:1011F00004B0BDE8F08700BF2492FF1F2087FF1FC7
:101200008F9400004492FF1FD492FF1F949400001B
:10121000B90A00009A9400009D940000A094000078
:10122000950A0000F891FF1F650A0000750A00008A
:10123000A39400007492FF1F4F1A00003493FF1F05
:101240000C92FF1FD50A00001492FF1F9493FF1FFA
:10125000C38B1B0441BFC38BC1F3080103F47E435E
:10126000194358BFC1F30E01C183C38B9BB2C38224
:101270007047FFFF436819685A6810B50C6822432D
:101280000A600268154911601549D16001F1804179
:10129000116114491160417A134A5C180A3194F8BB
:1012A000244053F8211002EBC40464682160017AE1
:1012B0005C1803EB8101247EC96902EBC4046468F5
:1012C0002160817A581803EB810390F830005B6B42
:1012D00002EBC0025268136010BD00BF01401F0046
:1012E0000110003800001F80749500002DE9F041C6
:1012F000002B00F0DC8004686E4EE568266015F077
:10130000807F03F001056DD195B141B14D1C097885
:10131000012B18BF41F000416163294606E090F8B7
:101320002450012B18BF45F0004565635E1E00E0A8
:101330001E4690F8244044EA0424002E3ED031B1E9
:101340000D46497815F8024B41EA042429464568C0
:1013500007682D7A022E05F1FF354FEA05350CBFDF
:1013600044F0805E44F0104EADB2C7F834E0023E67
:10137000D0F800E0DEF82C7017F0F00F14D013F066
:10138000010FDEF838C005D012B182F800C001327A
:10139000013B09E03AB196464FEA2C280EF8028B41
:1013A00082F801C07246023B07F47047AF42DFD8B3
:1013B000C3E70168CC6A14F0F00F02D1002BF8D11A
:1013C00075E08C6BD90704D50AB114700132013B6A
:1013D000F4E72AB11146251201F8025B54700A465F
:1013E000023BEBE795B141B14D1C0978012B18BFC9
:1013F00041F000416163294606E090F82450012B3A
:1014000018BF45F0004565635E1E00E01E4690F87B
:101410002470002E37D021B14F780C78023144EA85
:10142000072744680568247A022E04F1FF344FEA46
:1014300004340CBF47F0805E47F0104EA4B2C5F8EC
:1014400034E0023E0568D5F82CE01EF0F00F10D015
:1014500013F0010FAD6B04D00AB115700132013BDE
:1014600007E02AB194460CF8025B2D1255706246D3
:10147000023B0EF4704EA645E4D8CAE70168CC6A78
:1014800014F0F00F02D1002BF8D110E0DC07896BCB
:1014900004D50AB111700132013BF4E72AB11446B8
:1014A00004F8021B091251702246023BEBE7BDE82B
:1014B000F08100BF00041F8070B5036B1A79304BB8
:1014C0001A70C36A1A792F4B1A70026B12791A704C
:1014D000826A0446002A3FD04368D9688A4203D909
:1014E000521A8262012110E0C36A511E1868FFF788
:1014F000AFFE236BA16A1868FFF7AAFEA16A00235A
:1015000011F1FF3118BF0121A362E36A1B6818685B
:1015100004F124029042226805D1D36894F8243063
:1015200043F000430EE0D06810F0804F186815BFFC
:101530001D681D680088007814BF023501351D60E4
:1015400040F000435363236B1A790F4B1A70A9B113
:10155000E26A12791A7070BD03680C491A63D96285
:10156000D96821F08041D960032380F82530406B91
:10157000036811461B68BDE87040184770BD00BF86
:101580001F8000401C8000401B80004000000FFFB7
:1015900008B50248FFF790FF08BD00BF2C87FF1F6A
:1015A000EFF3108072B6B0FA80F04009704700B1D6
:1015B00062B67047F8B50C4E0C4F0025FFF7F0FFF0
:1015C000346802466CB1636933600BB19D6100E021
:1015D0003B601046FFF7EBFF6577A368204698470E
:1015E000ECE7FFF7E4FFF8BD9893FF1F9C93FF1F04
:1015F000FFF7E0BF15490B6830B513B98360C360CE
:1016000009E004681A68944207D20025121B83601F
:10161000C560D8601A60086015E002681C689968A7
:10162000121B026061B10C68A2420B46F5D28160C8
:10163000C968C160D860C168A21A88601A6002E0F7
:101640008160C36098600223037530BDA093FF1FC3
:1016500070B5164D2C680026BCB1236813B1013B50
:10166000236012E0A26802B1D36020692A60036897
:1016700026751B6822460021984763681BB12360CA
:101680002046FFF7B7FF2C68E6E7FFF789FF084B16
:1016900000221C681A60FFF78AFF2CB1A56820465B
:1016A000FFF7A8FF2C46F8E770BD00BFA093FF1F0F
:1016B000B093FF1F024A136801331360FFF7C8BFDE
:1016C000B493FF1F7047FFFF036830B523B10024B8
:1016D0009C600124DC6017E0194C236843F400038C
:1016E000236000BF174B01241C6003F58073164C68
:1016F000036003689D683DB11033A3420360F8D9CD
:1017000000230360184630BD0468104B2260234458
:101710001B110F4D0322A2600E4A45F823100179D8
:10172000995444335A11920002F1604202F5614229
:10173000012003F01F0300FA03F3136030BD00BF64
:101740003C800440007003403F710340008FFCBFA9
:101750006487FF1F44E400E0016830B5A1B10B4B82
:101760000B441B1103F144025511012402F01F0226
:1017700004FA02F2064C44F82520064A064C42F8C8
:10178000234000238B60036030BD00BF008FFCBF8F
:1017900080E100E06487FF1FC5160000024B0122B4
:1017A0001A60024B1B6818470C7103406487FF1FC7
:1017B000024B01221A60024B5B6818471C71034000
:1017C0006487FF1F024B01221A60024B9B68184777
:1017D0002C7103406487FF1F024B01221A60024BE9
:1017E000DB6818473C7103406487FF1F2DE9F04117
:1017F00000258C688AB0074688462E4694B12B4651
:10180000212201A9404600F055FA3B68202C2246CF
:101810005B6828BF202201A938461544A41A9847BE
:101820000644EBE730460AB0BDE8F08107B5064B49
:101830001B88ADF80430036802225B6801A9984751
:1018400003B05DF804FB00BF6095000070B505466D
:101850008AB022B90368C9B21B6898472FE0012AF1
:1018600008BF0A2209B1212004E030228DF825208A
:10187000212014E0B1FBF2F602FB1611CCB20929CB
:1018800094BF04F1300104F137010AAC0444C9B239
:1018900004F8241C314616B10138C0B2EAE733B16E
:1018A0000138C0B20AAB03442D2203F8242C2B6864
:1018B00001A9C0F1220201445B68284698470AB09A
:1018C00070BD0029BABF49422D2300230A22FFF729
:1018D000BDBFFFFFFFFFFFFF2DE9F04F85B00746BB
:1018E0001946104615461C469DF8386002F08AFAE3
:1018F00008B14D4912E024F000484FF0FF324B4B45
:101900002846414602F07EFA68B94FF0FF32474B55
:101910002846414602F058FA28B945493846FEF7AC
:10192000A5FD804676E04FF06042424B28462146B6
:1019300002F05EFA08B14049F0E74FF060423F4BD9
:101940002846214602F036FA0028F4D1002200236E
:101950002846214602F02EFA20B104F100444FF04F
:10196000010800E0804636494FF0000900205FFA88
:1019700089F39E4207D92AA3D3E9002301F0A8FFE7
:1019800009F10109F3E702460B462846214601F01A
:10199000EDFD0D46044602F073FA434601468146CA
:1019A0000A223846FFF752FF80469EB3484601F0B0
:1019B00019FF0B4602462946204601F0D5FD0F2EA1
:1019C0004FF02E0328BF0F268DF800300DF10105D2
:1019D0003446013CE4B2FF2C15D00022194B01F033
:1019E00077FF8B46824602F04BFAC0B200F130031B
:1019F00005F8013B01F006FF02460B4650465946EA
:101A000001F0B2FDE5E73B68721C5B68D2B2694643
:101A100038469847404605B0BDE8F08FAFF30080E8
:101A2000000000A09999B93F62950000FFFFEF7F89
:101A30006A950000FFFFEF4166950000FFFFEFC1D0
:101A40000000E03F0000244041EA0020704710B54C
:101A50000446006802F0F8FD204610BD38B5044683
:101A60000D460068013103F02DF910B184E8210022
:101A7000012038BD43688B4210B5044606D2FFF7FB
:101A8000EDFF20B1A3680BB922681370012010BDCF
:101A9000F8B504460F46154622B9036803B11A701B
:101AA00000230BE01146FFF7E5FF064640B920682A
:101AB00010B102F0C9FD266000236360A36004E05A
:101AC000A5603946206803F007FB2046F8BD38B50D
:101AD0000023044603604360836003730D4639B1FD
:101AE000084603F06DFB294602462046FFF7D0FF6B
:101AF000204638BD38B5054608460C4603F060FB65
:101B0000214602462846BDE83840FFF7C1BF10B560
:101B10000446002386B023606360A36023730846F5
:101B200001A902F087FD01A92046FFF7E3FF204647
:101B300006B010BD10B5044600238AB02360636070
:101B4000A3602373084601A900F0ECF901A920461F
:101B5000FFF7D0FF20460AB010BD38B50546006833
:101B60000C4660B16A688B689A4206D3096803F034
:101B7000B3FAA368AB6000230AE002F065FD2368B6
:101B80002B6063686B60A368AB60002323606360B5
:101B9000A36038BD814203D08A680968FFF778BF27
:101BA000704710B5002304460360436083600373ED
:101BB000FFF7F0FF204610BD884210B5044601D063
:101BC000FFF7CBFF204610BD10B5044611B1FFF75B
:101BD00091FF00E0A160204610BD10B5044600232F
:101BE0008AB023606360A360237308466B46911C30
:101BF00000F0A8F901462046FFF7E6FF20460AB0AC
:101C000010BD2DE9F843036885688B4204460E46F3
:101C1000904606D85A19914203D2C3EB0109012715
:101C200000E00027B8F1000F17D0454429462046B0
:101C3000FFF720FF88B1A06823684FB1424603EB4D
:101C40000901184400F056F8236800225A5503E0B1
:101C50003146184403F040FAA5602046BDE8F883F9
:101C600013B500238DF80410012201A904468DF854
:101C70000530FFF7C6FF204602B010BD10B58A68D8
:101C800009680446FFF7BDFF204610BD38B505467C
:101C90000C4639B1084603F093FA2146024628461D
:101CA000FFF7AFFF284638BD10B50446FFF7D8FF51
:101CB000204610BD70B50E469AB191B185689D421F
:101CC00002D800230B7070BD541EED1A0168AC429F
:101CD00028BF2C4619442246304603F02FFB002330
:101CE000335570BD08B5FEF7EBFFFFF731F801F093
:101CF00035F9FAE7844641EA000313F003036DD196
:101D0000403A41D351F8043B40F8043B51F8043BBE
:101D100040F8043B51F8043B40F8043B51F8043BC5
:101D200040F8043B51F8043B40F8043B51F8043BB5
:101D300040F8043B51F8043B40F8043B51F8043BA5
:101D400040F8043B51F8043B40F8043B51F8043B95
:101D500040F8043B51F8043B40F8043B51F8043B85
:101D600040F8043B51F8043B40F8043B51F8043B75
:101D700040F8043B51F8043B40F8043B51F8043B65
:101D800040F8043B403ABDD2303211D351F8043B05
:101D900040F8043B51F8043B40F8043B51F8043B45
:101DA00040F8043B51F8043B40F8043B103AEDD2B4
:101DB0000C3205D351F8043B40F8043B043AF9D205
:101DC000043208D0D2071CBF11F8013B00F8013BD8
:101DD00001D30B8803806046704700BF082A13D3E5
:101DE0008B078DD010F003038AD0C3F10403D21AFD
:101DF000DB071CBF11F8013B00F8013B80D331F831
:101E0000023B20F8023B7BE7043AD9D3013A11F8B0
:101E1000013B00F8013BF9D20B7803704B7843701B
:101E20008B7883706046704701B5EAB1102A17DBE2
:101E300000F0070333B1C3F10803D21A013B00F8E5
:101E4000011BFBDCC9B241EA012141EA01418C4698
:101E5000D308013BE0E8021CFBDC12F0070203D0D0
:101E6000013A00F8011BFBDC01BD00BF08B50B4DBA
:101E70002C462B68580301D500F030FB2368590528
:101E800001D501F021F923681A0501D501F0AAF95D
:101E90002368DB04EDD501F033FAEAE7348004402F
:101EA00008B5FFF7E3FFFFFF014B10221A807047D0
:101EB000002005407047FFFF094908B50B6868B16D
:101EC0006A461844A2F58052904206D302F06CFB99
:101ED0000C2303604FF0FF3008BD0860184608BDB2
:101EE0007487FF1F30B503460020B3FBF2F402FBFA
:101EF0001433092B94BF30333733DBB20B542346F2
:101F00000CB10130F1E70A1823465470C41AA342F9
:101F100006DACC5C1578CD5402F801490133F5E7B7
:101F2000084630BD031E10B50C4603DBBDE810406B
:101F3000FFF7D8BF2D2001F8010B5842FFF7D2FF61
:101F4000204610BD2DE9F04381EAE17985B00F46C6
:101F5000A9EBE1790146064615461C4602F0D4FA83
:101F600078B30021304602F0A7FA002814BF0420FD
:101F700003204845B4BFC0EB09050025002F07DA50
:101F800060192023844202D004F8013BFAE70025BF
:101F900030464FF07E5363F31E00002102F08CFAAE
:101FA00010B12D232370013441234E226370E31CB2
:101FB0002270A2705819202283423CD003F8012BD2
:101FC000FAE726F000487749404602F09DFAA8BBA0
:101FD0004046744902F07AFA804678BB00213046C8
:101FE00002F06AFA002814BF042003204845B4BF59
:101FF000C0EB09054546002F07DA6019202384420B
:1020000002D004F8013BFAE700250021304602F037
:1020100053FA10B12D2323700134492323704E232A
:1020200046226370E31CA27058192022834202D01A
:1020300003F8012BFAE700230370B0E002AB01AA1A
:102040002946304602F0A0FA814665B9019B53B992
:1020500090F80090544B554AB9F1340F94BF914613
:10206000994601230193019B5B429D42BCBFDFF86F
:102070003C916B424846B8BF019303F0A1F8019B25
:1020800098428046C8BF00F10108002B02D108F138
:10209000010825E024DA1DB32B44984205F102081B
:1020A0001ED9A946B9F1000F07DD3046404902F0BC
:1020B00065F809F1FF390646F4E7002DACBF691B4E
:1020C000294602AB03AA304602F05EFA019B039A4E
:1020D000691CD21A8A4208BF0133814608BF0193A6
:1020E000029808B108F10108C8EB0703002B04EBC4
:1020F000080208DD1A44214623442026994203D0D1
:1021000001F8016BFAE7234610B12D211970013354
:102110000199002909D135B11946302001F8020B87
:102120002E2058700B462E2522E0FCDA002DFAD026
:102130001D46302005F8020B2E265E702B46C91A6C
:1021400000255E1803D503F8010B0125F9E7002DE2
:10215000E9D00196E7E7581C19F8011B1970824273
:1021600009D001990139019109B9981C5D700346A4
:102170009A42F0D800E01346002F0DDA47447F4220
:10218000194620207A1A1A44002A02DD01F8010BB0
:10219000F8E7002FA8BFDB1900221A70204605B00F
:1021A000BDE8F083FFFF7F7F709500006E95000013
:1021B00000002041044B054900221A600A60044ACD
:1021C000106010221A60704714D0034004D00340FE
:1021D00000D00340212810B52BD8164A02EBC003CB
:1021E00001295B68144601D004290FD154F830202E
:1021F000012082F880024FF4A2721A601A68042942
:102200000CBF42F0200222F0200211E052F8300010
:10221000002280F8802211B94FF4807208E0022970
:1022200002D140F2031203E0032908BF4FF4817288
:102230001A6010BD7495000072B60C4B0C4A0D4923
:102240001B681268096862B6490102D5322B88BF43
:102250000132C3F58C33482003F23F13B3FBF0F394
:102260004FF47A7000FB0230704700BF18E000E0C6
:10227000B493FF1F04ED00E038B50446FFF7DCFF20
:10228000054624B938BD013C0AD005F57A75FFF73B
:10229000D3FF401BB0F57A7FF5D200F05FFEF6E782
:1022A00038BDFFFF214B4FF4000210B51A604FF00C
:1022B00080721A604FF000721A604FF080621A60EC
:1022C0004FF000621A601A4B1A4A1B4C002048F665
:1022D000FF71186059602823136093601361936144
:1022E00013629362136393630922226004F580549E
:1022F000043420606160A360236144F8042C04F579
:10230000FE2420600D4801600D490B608B600D4B71
:102310001A6000F06DFE3220FFF7AEFF00F0EAFB1E
:102320004FF4AF70BDE81040FFF7A6BF08E100E032
:10233000048003400C8003400080034008800B4071
:102340000C800B4000800B40F0B50C4C0C4E2378F9
:102350000C4D43F0020706EBC70283F00103506007
:102360002A782370002A14BFC820882082F0010236
:1023700040EA01412A7046F83710F0BD2094FF1F53
:102380000080FF1F9894FF1F431E032B10B510D829
:1023900072B6094A52F8230048B1416842F8231046
:1023A0000649048831F81320121B21F8132062B665
:1023B00010BD002010BD00BF1094FF1F6096FF1FCE
:1023C000013803280AD872B6054B53F82030002094
:1023D00013B101305B68FBE762B6704700207047BD
:1023E0006494FF1F70B472B6174C184901231A1970
:1023F00012F8012C12071DD59A00144E51F83250D4
:102400002DB906EB431308305860114B09E042F038
:10241000010251F832506DB906EBC2030830586022
:102420000C4B46F832300C4A1378013B137062B6FD
:1024300070BC70470133052BD9D162B6064B002220
:102440001A7070BC00F0CABBAC9600000080FF1F81
:1024500088004000C80040008E94FF1F431E032BDD
:1024600010B532D8194A400140F01000104472B63D
:10247000174AD45C032C0BD8DFE804F018040207D9
:10248000052414E00830022411E0083004240EE092
:102490001048114A50F8234014B940F8231002E0C4
:1024A00052F82300416042F823100DE00324D45475
:1024B00010F0080F01F108030A88436014BFC82315
:1024C000882343EA0243036062B610BD0080FF1F09
:1024D000CC93FF1F6494FF1F7494FF1F2DE9F74FE7
:1024E000A94B1C78E4B214F0040F1D461AD0A74B78
:1024F0001B78A3B1A64A117801F0FF0321B1013B7B
:10250000DBB2137003B900BEA24A117801F0FF03D9
:1025100029B1013BDBB213700BB900F0FBFC9A4A06
:102520000423137004F0080303F0FF02002B00F0F3
:102530007182994B994C1B78DBB21F094FEA9306C5
:1025400040F0EC8104EBC603596854F83630C3F30D
:102550008303013B0C2B00F2DD81DFE813F09A01CD
:102560009A01DB01DB01DB01DB01DB01DB01B901EE
:10257000DB01DB01DB010D000A68894D89484B68EE
:102580002A6001216B60DFF85082874B017092B2A4
:1025900040F2816044F8363082424FF00003C8F8C0
:1025A00000302361A36117D8B2F5D06F80F0278186
:1025B000B2F5817F00F0D88006D8802A00F0C18073
:1025C000822A00F0C28035E140F202339A4200F0E4
:1025D0000781B2F5A06F1AE042F22100824200F0BA
:1025E00055810CD8B2F5086F00F0A580B2F5106FD8
:1025F00040F02081654AA97811701E460AE042F237
:1026000021218A4200F00E8142F221339A4200F0E9
:1026100015810FE1A219136A1F0603D5506A083805
:1026200000F0DCFA0836802EF4D1DFF8B0915F4F6D
:102630000026CA4659F826004FEA860B30B1426898
:10264000009200F0CBFA009A1046F7E7584B594A2F
:102650004AF80B004BF803005BF8020040B14168F8
:102660000192009100F0BAFA0099019A0846F5E744
:10267000514B42F80B0023F816003B784F4A023BBF
:102680004BF80200032B07D8DFE803F00204020432
:10269000002300E001233B700136042E07F10107FF
:1026A000C8D1474B474E404F00221A704FF0010BE4
:1026B0009946454A0BEB06015A4411F8011C920059
:1026C00011F0080F11704FEA8B0A24D000F068FA5D
:1026D00038B104EB4B1208303C4B506044F83A30B0
:1026E00006E099F8002044F83A00013289F8002009
:1026F00000F056FA4AF0010230B104EBC201083092
:10270000486044F8327006E044F8320099F800203E
:10271000013289F800204AF002010BF1010B4AF066
:10272000030A0022BBF1050F44F8312044F83A2097
:10273000BFD1134683E0154B254E1B7833700B46F3
:1027400080E0234E337073707BE0AA8802F07F0232
:10275000042A6FD81E4E9200337073701D4B9B5C21
:102760009C076ED531706CE0AA8802F07F02042AC3
:1027700060D86B88002B5DD11649920011440A780D
:1027800022F0020239E000BF802007409794FF1F2B
:102790002194FF1F9994FF1F902007400080FF1F86
:1027A0008494FF1F9894FF1FC8004000CC93FF1F24
:1027B000BC93FF1F6494FF1F6096FF1F7494FF1F5C
:1027C0008E94FF1FAC96000030C8011088004000B6
:1027D0008F94FF1FC0200740B893FF1F1094FF1F66
:1027E000AA8802F07F02042A24D86B8813BBA5496B
:1027F000920011440A7842F002020A701FE06A88CF
:10280000A988A14B5E68AEB11888904208D158885B
:10281000884205D1120A032A0CBF33781B8911E0C4
:102820000C33EFE7994A1168994A1160994AA978DF
:10283000117004E0934B0F221A7027E000231E460C
:1028400000E00223EC889C4228BF1C46402C254611
:1028500028BF402530462946FFF776FD641B2E44ED
:1028600003D1402D12D1254603E0402C254628BF38
:10287000402530462946FFF767FD641B2E4401D1F1
:10288000402D03D1844BC8F800601C800122834B8B
:102890003FE0834B1A8842F221039A4214D1814AC5
:1028A0000023C85C98540133072BFAD17D4B1B6879
:1028B000862B08BF7C4B4FF0000108BF0F22084653
:1028C00008BF1A70FFF740FD784B44F8363021E01E
:1028D000774F3E68A6B1DFF8C081B8F80040402CC1
:1028E000254628BF402530462946FFF72DFD601BB1
:1028F00080B2A8F8000008B9402D00D170193860E6
:10290000674B1A88B2F5A06F04D100225A709A78EA
:10291000684B1A70614B01221A7077E004EBC60510
:10292000013F6A6803F00803A2F10800FFB203F058
:10293000FF0E002B36D000F051F95F485F4A50F887
:102940002710E9B14B6840F8273001F108036B60AC
:10295000D35D032B0BD8DFE803F002040608032342
:1029600004E0022302E0052300E00423D35515F020
:10297000080F0A8814BFC823882343EA024343E0B0
:10298000D35D032B07D8DFE803F0414102040023A5
:1029900006E0012304E015F0080F14BF032302230F
:1029A000D35533E054F836301B0C99B222F8081C8A
:1029B00023B3434B22F806EC42F804EC53F82720EB
:1029C000DFF82CE112B943F8270002E05EF8273067
:1029D00058603C4A4EF8270032F817300B4422F872
:1029E000173000F0DDF810B10830686006E0364AB4
:1029F00044F8360013780133137007E0334A2B4B49
:102A000015F0080F08BF134644F83630304A082343
:102A1000137065E5E0071ED520492C482D4C022394
:102A20000B702D4B1A702D4B186098602C48D86095
:102A30001A619A615C60134B0D2018702948FF23BE
:102A400003702B700274284A1370284B9F221A704F
:102A500001230B7012E0210604D50A4B0D221A70D7
:102A600080232B70A20705D51E4A1378DBB21370A2
:102A700002232B70E30644BF10232B7003B0BDE884
:102A8000F08F00BFC0200740B0960000B493FF1F36
:102A90007096FF1FA894FF1F8C94FF1F942007407F
:102AA0008494FF1F6896FF1F2194FF1FC8004000F9
:102AB000B893FF1F982007406494FF1FCC93FF1F1B
:102AC0001094FF1F6096FF1F8E94FF1F8800400028
:102AD00080200740D093FF1F2094FF1F0080FF1F1E
:102AE0002494FF1F882007408C2007408420074043
:102AF000BC93FF1F10B500F069FC0023194819466C
:102B00001950C4180833882B164A6160F8D1164949
:102B10000B6843F480230B60144BC2F30721197038
:102B2000C2F30741120E19751A76114AFF2313706A
:102B30000021137202F8703C0123137582F8801093
:102B400013710C4B70226FF450711A700B444FF4D8
:102B500000721A6003F1C04303F5C82310221A70F3
:102B600010BD00BF0080FF1F348004409C20074040
:102B70008020074049E400E000F0E6B800F076B8B5
:102B800000F04EB800F08EB800F096B900F070B9C1
:102B90000846114600F0F0B8084600F05DB97047ED
:102BA00010B572B60B480268B2FA82F10B2902DD49
:102BB00062B6002010BD4FF00043CB4022EA030272
:102BC000026062B6044C48234B43E0180022E250F6
:102BD000426010BD8887FF1FBC83FF1F0C4B48223B
:102BE000C31AB3FBF2F30B2B11D80A4A127822B1A5
:102BF000094A12780AB1FFF7F5BB72B607494FF0E0
:102C0000004222FA03F30A681A430A6062B6704768
:102C1000BC83FF1F8E94FF1F9794FF1F8887FF1FA1
:102C200010B5104C23686BB1206843885A1C0344CC
:102C30001C7A03889A4212D3FFF7D0FF094B002277
:102C40001A600DE0084B1B7813B94FF0FF3010BD30
:102C50000320FFF799FB20600028E5D1F5E74280CB
:102C6000204610BDA494FF1F9794FF1F10B50B4C76
:102C7000236813B122686AB902E0094B1B7813B9C3
:102C80004FF0FF3010BD0320FFF77EFB20600028CF
:102C9000F0D1F5E753881344187A10BDA494FF1FB0
:102CA0009794FF1F044B9888044B1A681AB1138835
:102CB00052889B1A184470476096FF1FA494FF1F08
:102CC0002DE9F84FDFF87890DFF878B080460E46AF
:102CD0000027CA4686B39BF800306BB3D9F80030A2
:102CE00053B90320FFF750FBCAF8000020B3038854
:102CF00013B9FFF773FFF4E7DAF800502B46698841
:102D000033F8084B641AB44228BF344622461944AB
:102D10004046FEF7EFFF6B88A0442744361B1C4457
:102D20002B88A4B2A3426C80D4D82846FFF756FF64
:102D30000023C9F80030CDE73846BDE8F88F00BF62
:102D4000A494FF1F9794FF1F10B5094B1B786BB11C
:102D5000084C206818B1FFF741FF002323600320CF
:102D6000FFF712FB10B1FFF739FFF8E710BD00BF06
:102D70009794FF1FA494FF1F2DE9F84F314DDFF802
:102D8000D490012382460C462B700E464F46002EEF
:102D900053D0D9F800303BBBDFF8B0B048F601485B
:102DA000294B1B7803F0FF010BB9297015E00420B3
:102DB000FFF706FB072807D801232B70FFF7F0FE6B
:102DC000386088B91F4B1870B8F1010802D09BF821
:102DD000003033B11D4B01221A704FF0FF30BDE8B7
:102DE000F88F00F0BBF8DBE7184B00211970396849
:102DF0004B88C3F14000B04228BF304603EB000EC1
:102E00000B44A1F802E0361A07330AEB0008C2456A
:102E100004D01AF8010B03F8010FF8E74B883F2B99
:102E200006D940230B800420FFF718FB00233B60EA
:102E3000074B05221A70C246A9E72E702046BDE84E
:102E4000F88F00BF9A94FF1F9794FF1FA094FF1F55
:102E50009994FF1F9C94FF1F07B502AB012103F853
:102E6000010D1846FFF788FF03B05DF804FBFFFF74
:102E700038B50E4C0E4D012323702B687BB90D4BDA
:102E80001B7813B90020207038BD0420FFF798FA92
:102E90000728F7D8FFF784FE28600028F2D02B68B7
:102EA000588800232370C0F1400038BD9A94FF1F5A
:102EB0009C94FF1F9794FF1F2DE9F041114B1B7845
:102EC000F3B1114F114B3C68114D01261E7098460D
:102ED0004CB1002663882E70214623800420FFF722
:102EE000BDFA3E6009E0FFF75BFE014620B1042019
:102EF0002C70FFF7B3FA00E02E70002388F8003042
:102F0000BDE8F0819794FF1F9C94FF1F9A94FF1FC8
:102F10009994FF1F38B50E4B1B7803F0FF05ABB932
:102F20000C4C216831B14B880B800420FFF796FAD6
:102F3000256038BDFFF734FE014620B10420BDE80E
:102F40003840FFF78BBA044B01221A7038BD00BF1E
:102F50009A94FF1F9C94FF1F9994FF1F38B51E4C35
:102F60002378002B36D101232370FFF79BFE08B195
:102F7000FFF715FE00F098F808B100F035F800F002
:102F800021F908B100F031F800F0AAF908B100F019
:102F90002DF800232370EFF30583DBB9EFF31082E4
:102FA00072B60E4D286810B10D4C217811B18AB956
:102FB00062B638BD0123237043692B600BB1996160
:102FC00001E008490B6002B962B6002545778368C5
:102FD0009847257038BD00BFA994FF1FA893FF1F15
:102FE000AC93FF1FA493FF1F704770477047FFFF0C
:102FF00010B5204B2048214960221A70E1225A70F6
:103000001F4B204A1C78204B082C01D1012402E0E0
:103010000A2C03D119240460132005E00C2C0CBFEA
:1030200015243D2404601220086014601860174BBA
:1030300017491B78174A03B101230B601360164B25
:10304000164A1978164B012901D880210BE0042972
:1030500001D8842107E0082901D8852103E010293F
:1030600094BF86218721116019600E4B01221A70CE
:1030700010BD00BF0040074008B003400CB0034043
:103080008C87FF1F08B00B400CB00B40AB94FF1FA8
:1030900020B0034020B00B408D87FF1F24B00340B9
:1030A00024B00B40AA94FF1F054B1878054B1A78E3
:1030B000C0B2D3B2984238BF4030C01A704700BF88
:1030C0003295FF1FB194FF1FF0B534490B7913F00F
:1030D000300F2FD072B68B7D03F0FF0423B9CB796C
:1030E00040234B7462B625E062B62D482D4A037822
:1030F00012782D4FDBB2D2B20546581C4028CE794B
:1031000028BF00209042F6B21CBF3E540346601E0A
:1031100010F0FF04F1D1D9B229702449096849B1EE
:10312000934236BFC2F140029B1A9B18272BC4BFA3
:1031300001230B70194AD178C9B20D061ED5137937
:103140001C061BD51A4B1B481D7803781A4EEDB28E
:10315000DBB2AB420AD00133402B28BF00231479E5
:10316000F45CE4B2D471147D072CF2D9DBB20370A5
:103170000A4B1A79100644BF7C22DA7049060CD536
:10318000064B1A79520608D50C4A002111700C4AD8
:10319000126802B111703C22DA70F0BD00A0064046
:1031A0003295FF1FB194FF1FF294FF1FAC94FF1FD5
:1031B0003895FF1F3395FF1FB294FF1FB094FF1F78
:1031C0003495FF1F054B1878054B1A78C0B2D3B25F
:1031D000984238BF4030C01A704700BFAA95FF1F01
:1031E0004195FF1FF0B534490B7913F0300F2FD004
:1031F00072B68B7D03F0FF0423B9CB7940234B7467
:1032000062B625E062B62D482D4A037812782D4F1C
:10321000DBB2D2B20546581C4028CE7928BF002028
:103220009042F6B21CBF3E540346601E10F0FF04ED
:10323000F1D1D9B229702449096849B1934236BF06
:10324000C2F140029B1A9B18272BC4BF01230B70AD
:10325000194AD178C9B20D061ED513791C061BD5A3
:103260001A4B1B481D7803781A4EEDB2DBB2AB4205
:103270000AD00133282B28BF00231479F45CE4B270
:10328000D471147D072CF2D9DBB203700A4B1A7982
:10329000100644BF7C22DA7049060CD5064B1A7919
:1032A000520608D50C4A002111700C4A126802B16E
:1032B00011703C22DA70F0BD00B00640AA95FF1FE5
:1032C0004195FF1F6A95FF1F3C95FF1FB095FF1F9B
:1032D000AB95FF1F4295FF1F4095FF1FAC95FF1F49
:1032E000054B1878054B1A78C0B2D3B2984238BF54
:1032F0004030C01A704700BF2296FF1FB995FF1FCC
:1033000010B5284B1A79920620D52749DA790B781F
:103310002648013300783F2BC8BF0023834218BFE3
:103320002348D2B21EBFC254DAB20A70214A1168D1
:1033300061B1214A1278D2B2934236BFC2F1400243
:103340009B1A9B18272BC4BF01230B701549CA7801
:10335000D2B2140616D50B79180613D5174B164C96
:1033600018782378DBB2984202D16C23CB7009E045
:103370000133282B28BF00231148C05CDBB2C0B248
:10338000C871237051060CD5064B1A79520608D520
:103390000C4A002111700C4A126802B111702C22E3
:1033A000DA7010BD00C006402296FF1FB995FF1FBE
:1033B000E295FF1FB495FF1F2396FF1F2896FF1F5E
:1033C000BA95FF1FB895FF1F2496FF1F1FB572B651
:1033D000154B70221A70154A412111700F2102F805
:1033E000011C80221A701A781206FCD5104B18683E
:1033F00062B6104B984298BF0A2301AC98BF58435D
:103400000A222146FEF76EFD0B4A0023E15C21B142
:1034100001330A2B22F8021BF8D1084A01335B0062
:10342000137004B010BD00BF00000240070002404E
:10343000080002407F9698001888FF1F1688FF1F1B
:103440000B460146184601F099B800BFFFFFFFFF89
:10345000C1F30A522DE9F843A2F2FF36132E0B46B0
:103460000D460446884607461CDC002E3FDB3A4AE0
:1034700042FA06F901EA09020243864617D034A34C
:10348000D3E9002300F072F80022002300F0B0FC22
:1034900020B1002D40DB28EA0905002738462946DF
:1034A000BDE8F883332E06DDB6F5806F2FD02046B9
:1034B0001946BDE8F883A2F213424FF0FF3929FA0A
:1034C00002F910EA090FF2D021A3D3E9002300F09A
:1034D0004DF80022002300F08BFC0028DED0002DE8
:1034E00020DB454627EA090738462946D8E718A3CE
:1034F000D3E9002300F03AF80022002300F078FC22
:103500000028CBD0002D18DB00273D46C6E7024639
:103510000B4600F02BF8CCE74FF4801343FA06F685
:10352000B044B8E7142E10D00123C6F1340603FAD4
:1035300006F6371928BF9844D3E725F00042074B19
:10354000224318BF1D460027A8E705F10108C8E778
:103550009C7500883CE4377EFFFF0F000000F0BF41
:1035600081F0004102E000BF83F0004330B54FEA34
:1035700041044FEA430594EA050F08BF90EA020FA1
:103580001FBF54EA000C55EA020C7FEA645C7FEA34
:10359000655C00F0E2804FEA5454D4EB5555B8BF57
:1035A0006D420CDD2C4480EA020281EA030382EAC8
:1035B000000083EA010180EA020281EA0303362D5A
:1035C00088BF30BD11F0004F4FEA01314FF4801C2D
:1035D0004CEA113102D0404261EB410113F0004F3F
:1035E0004FEA03334CEA133302D0524263EB4303F6
:1035F00094EA050F00F0A780A4F10104D5F1200E94
:103600000DDB02FA0EFC22FA05F2801841F10001EE
:1036100003FA0EF2801843FA05F359410EE0A5F1C2
:1036200020050EF1200E012A03FA0EFC28BF4CF0F3
:10363000020C43FA05F3C01851EBE37101F00045A9
:1036400007D54FF0000EDCF1000C7EEB00006EEBB6
:103650000101B1F5801F1BD3B1F5001F0CD3490840
:103660005FEA30004FEA3C0C04F101044FEA445297
:1036700012F5800F80F09A80BCF1004F08BF5FEA1E
:10368000500C50F1000041EB045141EA050130BDFE
:103690005FEA4C0C404141EB010111F4801FA4F1A1
:1036A0000104E9D191F0000F04BF01460020B1FAF6
:1036B00081F308BF2033A3F10B03B3F120020CDA2E
:1036C0000C3208DD02F1140CC2F10C0201FA0CF00C
:1036D00021FA02F10CE002F11402D8BFC2F1200C71
:1036E00001FA02F120FA0CFCDCBF41EA0C01904027
:1036F000E41AA2BF01EB0451294330BD6FEA040470
:103700001F3C1CDA0C340EDC04F11404C4F120025A
:1037100020FA04F001FA02F340EA030021FA04F36C
:1037200045EA030130BDC4F10C04C4F1200220FAC3
:1037300002F001FA04F340EA0300294630BD21FA01
:1037400004F0294630BD94F0000F83F4801306BFC7
:1037500081F480110134013D4EE77FEA645C18BFBB
:103760007FEA655C29D094EA050F08BF90EA020F52
:1037700005D054EA000C04BF1946104630BD91EA4A
:10378000030F1EBF0021002030BD5FEA545C05D14D
:103790004000494128BF41F0004130BD14F580048C
:1037A0003CBF01F5801130BD01F0004545F0FE4100
:1037B00041F470014FF0000030BD7FEA645C1ABF35
:1037C000194610467FEA655C1CBF0B46024650EA6C
:1037D000013406BF52EA033591EA030F41F4002198
:1037E00030BD00BF90F0000F04BF0021704730B51E
:1037F0004FF4806404F132044FF000054FF00001F3
:1038000050E700BF90F0000F04BF0021704730B5B3
:103810004FF4806404F1320410F0004548BF404288
:103820004FF000013EE700BF42004FEAE2014FEADD
:1038300031014FEA02701FBF12F07F4393F07F4FB8
:1038400081F06051704792F0000F14BF93F07F4FEA
:10385000704730B54FF4607401F0004521F000412D
:1038600020E700BF50EA010208BF704730B54FF0B3
:1038700000050AE050EA010208BF704730B511F0B8
:10388000004502D5404261EB41014FF4806404F1F0
:1038900032045FEA915C3FF4DCAE4FF003025FEA72
:1038A000DC0C18BF03325FEADC0C18BF033202EBFA
:1038B000DC02C2F1200300FA03FC20FA02F001FA54
:1038C00003FE40EA0E0021FA02F11444C1E600BFF3
:1038D00070B54FF0FF0C4CF4E06C1CEA11541DBFA6
:1038E0001CEA135594EA0C0F95EA0C0F00F0DEF871
:1038F0002C4481EA030621EA4C5123EA4C5350EA56
:10390000013518BF52EA033541F4801143F48013A6
:1039100038D0A0FB02CE4FF00005E1FB02E506F037
:103920000042E0FB03E54FF00006E1FB03569CF08C
:10393000000F18BF4EF0010EA4F1FF04B6F5007F92
:1039400064F5407404D25FEA4E0E6D4146EB060604
:1039500042EAC62141EA55514FEAC52040EA5E508D
:103960004FEACE2EB4F1FD0C88BFBCF5E06F1ED837
:10397000BEF1004F08BF5FEA500E50F1000041EB6E
:10398000045170BD06F0004646EA010140EA02001B
:1039900081EA0301B4EB5C04C2BFD4EB0C0541EA3D
:1039A000045170BD41F480114FF0000E013C00F352
:1039B000AB8014F1360FDEBF002001F0004170BD76
:1039C000C4F10004203C35DA0C341BDC04F114048F
:1039D000C4F1200500FA05F320FA04F001FA05F21B
:1039E00040EA020001F0004221F0004110EBD370E8
:1039F00021FA04F642EB06015EEA430E08BF20EA14
:103A0000D37070BDC4F10C04C4F1200500FA04F3B6
:103A100020FA05F001FA04F240EA020001F0004148
:103A200010EBD37041F100015EEA430E08BF20EABB
:103A3000D37070BDC4F1200500FA05F24EEA020E03
:103A400020FA04F301FA05F243EA020321FA04F032
:103A500001F0004121FA04F220EA020000EBD370E9
:103A60005EEA430E08BF20EAD37070BD94F0000FE9
:103A70000FD101F00046400041EB010111F4801F1D
:103A800008BF013CF7D041EA060195F0000F18BFCE
:103A9000704703F00046520043EB030313F4801F0A
:103AA00008BF013DF7D043EA0603704794EA0C0FC4
:103AB0000CEA135518BF95EA0C0F0CD050EA4106DA
:103AC00018BF52EA4306D1D181EA030101F0004157
:103AD0004FF0000070BD50EA410606BF104619467F
:103AE00052EA430619D094EA0C0F02D150EA01368B
:103AF00013D195EA0C0F05D152EA03361CBF1046CC
:103B000019460AD181EA030101F0004141F0FE416A
:103B100041F470014FF0000070BD41F0FE4141F4EE
:103B2000780170BD70B54FF0FF0C4CF4E06C1CEAEE
:103B300011541DBF1CEA135594EA0C0F95EA0C0FA3
:103B400000F0A7F8A4EB050481EA030E52EA03355E
:103B50004FEA013100F088804FEA03334FF080557F
:103B600045EA131343EA12634FEA022245EA1115AC
:103B700045EA10654FEA00260EF000419D4208BF5D
:103B8000964244F1FD0404F5407402D25B084FEA0A
:103B90003202B61A65EB03055B084FEA32024FF4B6
:103BA00080104FF4002CB6EB020E75EB030E22BF13
:103BB000B61A754640EA0C005B084FEA3202B6EBD3
:103BC000020E75EB030E22BFB61A754640EA5C0082
:103BD0005B084FEA3202B6EB020E75EB030E22BF12
:103BE000B61A754640EA9C005B084FEA3202B6EB13
:103BF000020E75EB030E22BFB61A754640EADC00D2
:103C000055EA060E18D04FEA051545EA16754FEA33
:103C100006164FEAC30343EA52734FEAC2025FEA51
:103C20001C1CC0D111F4801F0BD141EA00014FF0E0
:103C300000004FF0004CB6E711F4801F04BF0143B1
:103C40000020B4F1FD0C88BFBCF5E06F3FF6AFAECD
:103C5000B5EB030C04BFB6EB020C5FEA500C50F15D
:103C6000000041EB045170BD0EF0004E4EEA1131E0
:103C700014EB5C04C2BFD4EB0C0541EA045170BDE7
:103C800041F480114FF0000E013C90E645EA060E2B
:103C90008DE60CEA135594EA0C0F08BF95EA0C0F59
:103CA0003FF43BAF94EA0C0F0AD150EA01347FF4A1
:103CB00034AF95EA0C0F7FF425AF104619462CE778
:103CC00095EA0C0F06D152EA03353FF4FDAE1046DB
:103CD000194622E750EA410618BF52EA43067FF42C
:103CE000C5AE50EA41047FF40DAF52EA43057FF4BC
:103CF000EBAE12E74FF0FF3C06E000BF4FF0010CC7
:103D000002E000BF4FF0010C4DF804CD4FEA410C2A
:103D10007FEA6C5C4FEA430C18BF7FEA6C5C1BD0F7
:103D200001B050EA410C0CBF52EA430C91EA030F78
:103D300002BF90EA020F0020704710F1000F91EAD5
:103D4000030F58BF994208BF90422CBFD8176FEAA3
:103D5000E37040F0010070474FEA410C7FEA6C5C71
:103D600002D150EA013C07D14FEA430C7FEA6C5C78
:103D7000D6D152EA033CD3D05DF8040B704700BFA4
:103D80008446104662468C461946634600E000BFF2
:103D900001B5FFF7B7FF002848BF10F1000F01BDC4
:103DA0004DF808EDFFF7F4FF0CBF012000205DF88F
:103DB00008FB00BF4DF808EDFFF7EAFF34BF012014
:103DC00000205DF808FB00BF4DF808EDFFF7E0FFAD
:103DD00094BF012000205DF808FB00BF4DF808EDFE
:103DE000FFF7CEFF94BF012000205DF808FB00BF65
:103DF0004DF808EDFFF7C4FF34BF012000205DF847
:103E000008FB00BF4FEA410C7FEA6C5C02D150EA2C
:103E1000013C0AD14FEA430C7FEA6C5C02D152EAC2
:103E2000033C02D14FF0000070474FF00100704793
:103E30004FEA410212F5001215D211D56FF47873D2
:103E4000B3EB625212D94FEAC12343F0004343EA75
:103E5000505311F0004F23FA02F018BF4042704750
:103E60004FF00000704750EA013005D111F00040DA
:103E700008BF6FF0004070474FF00000704700BF70
:103E80004A0011D212F5001211D20DD56FF47873D9
:103E9000B3EB62520ED44FEAC12343F0004343EA2E
:103EA000505323FA02F070474FF00000704750EA79
:103EB000013002D14FF0FF3070474FF000007047E3
:103EC0004FEA4102B2F1E04324BFB3F5001CDCF13C
:103ED000FE5C0DD901F0004C4FEAC0024CEA507074
:103EE000B2F1004F40EB830008BF20F001007047A3
:103EF00011F0804F21D113F13872BCBF01F00040A6
:103F0000704741F480114FEA5252C2F11802C2F1D7
:103F1000200C10FA0CF320FA02F018BF40F0010058
:103F20004FEAC1234FEAD32303FA0CFC40EA0C000A
:103F300023FA02F34FEA4303CCE77FEA625307D147
:103F400050EA01331EBF4FF0FE4040F4400070477E
:103F500001F0004040F0FE4040F40000704700BF18
:103F600080F0004002E000BF81F0004142001FBF2E
:103F70005FEA410392EA030F7FEA226C7FEA236C37
:103F80006AD04FEA1262D2EB1363C1BFD21841402C
:103F900048404140B8BF5B42192B88BF704710F0C2
:103FA000004F40F4000020F07F4018BF404211F065
:103FB000004F41F4000121F07F4118BF494292EACD
:103FC000030F3FD0A2F1010241FA03FC10EB0C00F9
:103FD000C3F1200301FA03F100F0004302D5494286
:103FE00060EB4000B0F5000F13D3B0F1807F06D333
:103FF00040084FEA310102F10102FE2A51D2B1F12B
:10400000004F40EBC25008BF20F0010040EA03001F
:104010007047490040EB000010F4000FA2F10102CC
:10402000EDD1B0FA80FCACF1080CB2EB0C0200FA56
:104030000CF0AABF00EBC25052421843BCBFD040A4
:104040001843704792F0000F81F4000106BF80F41E
:1040500000000132013BB5E74FEA41037FEA226CE1
:1040600018BF7FEA236C21D092EA030F04D092F0AC
:10407000000F08BF0846704790EA010F1CBF0020E0
:10408000704712F07F4F04D1400028BF40F000403D
:10409000704712F100723CBF00F50000704700F05D
:1040A000004343F0FE4040F4000070477FEA226284
:1040B00016BF08467FEA23630146420206BF5FEA55
:1040C000412390EA010F40F4800070474FF0000355
:1040D00004E000BF10F0004348BF40425FEA000C1C
:1040E00008BF704743F0964301464FF000001CE0C4
:1040F00050EA010208BF70474FF000030AE000BF1A
:1041000050EA010208BF704711F0004302D5404257
:1041100061EB41015FEA010C02BF844601460020C9
:1041200043F0B64308BFA3F18053A3F50003BCFAE4
:104130008CF2083AA3EBC25310DB01FA02FC634491
:1041400000FA02FCC2F12002BCF1004F20FA02F298
:1041500043EB020008BF20F00100704702F120028B
:1041600001FA02FCC2F1200250EA4C0021FA02F2EC
:1041700043EB020008BF20EADC7070474FF0FF0CF1
:104180001CEAD0521EBF1CEAD15392EA0C0F93EAEC
:104190000C0F6FD01A4480EA010C400218BF5FEA8E
:1041A00041211ED04FF0006343EA501043EA511101
:1041B000A0FB01310CF00040B1F5000F3EBF4900FB
:1041C00041EAD3715B0040EA010062F17F02FD2AFF
:1041D0001DD8B3F1004F40EBC25008BF20F00100E2
:1041E000704790F0000F0CF0004C08BF49024CEAF9
:1041F000502040EA51207F3AC2BFD2F1FF0340EA8B
:10420000C250704740F400004FF00003013A5DDCFB
:1042100012F1190FDCBF00F000407047C2F100023C
:10422000410021FA02F1C2F1200200FA02FC5FEA29
:10423000310040F1000053EA4C0308BF20EADC7073
:10424000704792F0000F00F0004C02BF400010F4E5
:10425000000F013AF9D040EA0C0093F0000F01F092
:10426000004C02BF490011F4000F013BF9D041EAB4
:104270000C018FE70CEAD15392EA0C0F18BF93EAB6
:104280000C0F0AD030F0004C18BF31F0004CD8D1E0
:1042900080EA010000F00040704790F0000F17BF67
:1042A00090F0004F084691F0000F91F0004F14D0AD
:1042B00092EA0C0F01D142020FD193EA0C0F03D105
:1042C0004B0218BF084608D180EA010000F0004008
:1042D00040F0FE4040F40000704740F0FE4040F4E3
:1042E000400070474FF0FF0C1CEAD0521EBF1CEA82
:1042F000D15392EA0C0F93EA0C0F69D0A2EB0302A0
:1043000080EA010C49024FEA402037D04FF0805339
:1043100043EA111143EA10130CF000408B4238BFFE
:104320005B0042F17D024FF4000C8B4224BF5B1A0C
:1043300040EA0C00B3EB510F24BFA3EB510340EA5A
:104340005C00B3EB910F24BFA3EB910340EA9C0008
:10435000B3EBD10F24BFA3EBD10340EADC001B0178
:1043600018BF5FEA1C1CE0D1FD2A3FF650AF8B421C
:1043700040EBC25008BF20F0010070470CF0004C29
:104380004CEA50207F32C2BFD2F1FF0340EAC25054
:10439000704740F400004FF00003013A37E792F015
:1043A000000F00F0004C02BF400010F4000F013A73
:1043B000F9D040EA0C0093F0000F01F0004C02BF6E
:1043C000490011F4000F013BF9D041EA0C0195E7D7
:1043D0000CEAD15392EA0C0F08D142027FF47DAF70
:1043E00093EA0C0F7FF470AF084676E793EA0C0F60
:1043F00004D14B023FF44CAF08466EE730F0004C5E
:1044000018BF31F0004CCAD130F000427FF45CAFED
:1044100031F000437FF43CAF5FE700BF4FF0FF3C5B
:1044200006E000BF4FF0010C02E000BF4FF0010CAE
:104430004DF804CD4FEA40024FEA41037FEA226C77
:1044400018BF7FEA236C11D001B052EA530C18BF99
:1044500090EA010F58BFB2EB030088BFC81738BFFE
:104460006FEAE17018BF40F0010070477FEA226CEC
:1044700002D15FEA402C05D17FEA236CE4D15FEAE8
:10448000412CE1D05DF8040B704700BF844608461C
:104490006146FFE70FB5FFF7C9FF002848BF10F1DD
:1044A000000F0FBD4DF808EDFFF7F4FF0CBF012022
:1044B00000205DF808FB00BF4DF808EDFFF7EAFFAC
:1044C00034BF012000205DF808FB00BF4DF808ED67
:1044D000FFF7E0FF94BF012000205DF808FB00BF5C
:1044E0004DF808EDFFF7D2FF94BF012000205DF8E2
:1044F00008FB00BF4DF808EDFFF7C8FF34BF0120EF
:1045000000205DF808FB00BF4FEA40024FEA41037C
:104510007FEA226C02D15FEA402C08D17FEA236C4B
:1045200002D15FEA412C02D14FF0000070474FF0FA
:104530000100704742000ED2B2F1FE4F0BD34FF094
:104540009E03B3EB126209D44FEA002343F0004309
:1045500023FA02F070474FF00000704712F1610F2C
:1045600001D1420202D14FF0FF3070474FF00000FE
:10457000704700BF002101F07DBE00BF13460A4610
:104580000146022001F010BFF0B583B016461F4669
:104590000D460024FFF748F9009733462A46019458
:1045A00001F064FF03B0F0BD014B1868704700BF15
:1045B000588CFF1F70B50F4E0F4D761BB61018BFED
:1045C000002405D0013455F8043B9847A642F9D1A0
:1045D0000A4E0B4D761B05F071FAB61018BF002479
:1045E00006D0013455F8043B9847A642F9D170BD76
:1045F00070BD00BFC89A0000C89A0000D49A00009D
:10460000C89A0000931E222B10D80A2A10B506D093
:1046100000230C46194401F079FE204610BD002805
:10462000F6DA2D230B7040420123F2E700200870D8
:10463000704700BFFFF7E6BF024B0146186800F065
:104640000BB800BF588CFF1F024B0146186801F0E1
:10465000E5BF00BF588CFF1F2DE9F04F01F10B059E
:10466000162D83B0064640F29F8035F0070500F115
:10467000BF80A94200F2BC8000F020FBB5F5FC7FB2
:10468000C0F09C826B0A00F0BA80042B00F2838198
:10469000A80900F1390E4FEA4E033830C44F07EB3A
:1046A0008303A3F108015C68A14207D1ACE0002AB2
:1046B00080F2AC80E468A14200F0A680636823F039
:1046C00003035A1B0F2AF2DDB9493C6901F1080EB8
:1046D000744500F0B381636823F003035A1B0F2A6B
:1046E00000F39981002AC1F814E0C1F810E080F2CB
:1046F0009E80B3F5007F80F06781DB0803F1010C39
:1047000001229B1002FA03F34A6851F83C80C4F876
:10471000088001EBCC091A43A9F10803E3604A6061
:1047200041F83C40C8F80C40831001249C4094425E
:1047300000F28A80144206D120F003006400144283
:1047400000F10400FAD007EBC009CC468046DCF843
:104750000C108C4507D173E1002A80F28181C96871
:104760008C4500F06D814B6823F003035A1B0F2A20
:10477000F2DD0C46D1F80CC054F8088F4B1945F007
:1047800001054D6042F00101C8F80CC03046CCF87C
:1047900008807B613B61C3F80CE0C3F808E0596016
:1047A0009A5000F08DFA1FE0102921D800F086FA07
:1047B0001025062302207E4F07EB8303A3F1080296
:1047C0005C68944200F045816368E168A56823F065
:1047D0000303234430465A68E96042F001028D60C9
:1047E0005A6000F06DFA0834204603B0BDE8F08F3F
:1047F00000240C232046336003B0BDE8F08F8023F3
:104800004FF0400E3F2049E770465DE72344E168E2
:104810005A68A56842F00102E96030468D605A602E
:1048200000F04EFA0834204603B0BDE8F08F234470
:1048300030465A6842F001025A6000F041FA0834EA
:10484000204603B0BDE8F08FBC68636823F003081E
:10485000A84504D3C5EB08030F2B00F38C80554B00
:10486000DFF860911A68D9F8003001332A4404EB6C
:10487000080A00F0608102F580520F3222F47F6254
:1048800022F00F0211463046019200F013FCB0F105
:10489000FF3F8346019A00F05881824500F2FC8078
:1048A000454B1968DA451144196000F05381D9F875
:1048B0000000DFF810E101301BBFCAEB0B0A5144C6
:1048C000CEF800B019601BF0070100F01781C1F1AC
:1048D0000800C1F58051834408315A44C2F30B02E9
:1048E000C2EB010949463046019300F0E3FB431C4B
:1048F000019B00F03F81CBEB00024A4442F00102F1
:104900001968C7F808B04944BC42CBF804201960C4
:10491000DFF8A49016D0B8F10F0F40F2FD80626866
:10492000A8F10C0323F00703E01802F001024FF096
:10493000050E1A430F2B6260C0F804E0C0F808E0CF
:1049400000F21C811D4BBC681A68914288BF196037
:104950001B4B1A689142626888BF196022F00302FB
:104960009542A2EB050301D80F2B04DC304600F082
:10497000A7F9002438E7621943F0010345F0010567
:1049800065603046BA60536000F09AF908342046FA
:1049900003B0BDE8F08F142B71D9542B00F2A48022
:1049A000280B00F16F0E4FEA4E036E3076E600BF23
:1049B000C88DFF1F3496FF1F3896FF1F3096FF1FCC
:1049C0002C96FF1FD491FF1F5A0A042A5ED9142A7D
:1049D00000F2B38002F15C0149005B3207EB810C0D
:1049E00057F82110DFF8DC81ACF1080C8C4500F0A1
:1049F00088804A6822F00302934202D289688C457B
:104A0000F7D1D1F80CC07A68C4F80CC0A160CCF81A
:104A10000840CC6088E6631942F0010745F00105C3
:104A2000656030464B610B61C3F80CE0C3F808E0E9
:104A30005F609A50083400F043F9D5E64A6873E69F
:104A400008F1010818F0030F0CF1080C7FF47FAE99
:104A500030E0DC68A34208BF02303FF435AEB3E675
:104A60000B440C465A68C96854F8085F42F00102CA
:104A70005A603046E9608D6000F022F9B4E603F137
:104A80005C0E03F15B004FEA4E0307E69A0902F160
:104A9000390149003832A1E7BC424A4B3FF400AF2C
:104AA0009C68626822F003025AE759F80839994570
:104AB00040F0828010F0030F00F1FF30F5D17B68E9
:104AC00023EA04037B6064009C423FF6BDAE002CE9
:104AD0003FF4BAAE1C4240467FF435AE64001C423F
:104AE00000F10400FAD02EE6B3F5AA7F18D8E80B3F
:104AF00000F1780E4FEA4E037730CFE54FF4805146
:104B0000EBE60121D8F80430921001FA02F21A43C0
:104B1000C8F80420614677E70123CBF8043025E785
:104B200040F25452934220D8A80C00F17D0E4FEA77
:104B30004E037C30B2E51032A4E6542A26D81A0B74
:104B400002F16F0149006E3248E7BC68626822F0EA
:104B5000030205E7CAF30B0000287FF4A8AE424425
:104B6000BB6842F001025A60ECE6FE234FF07F0E74
:104B70007E2093E501224FF00009C1E604F108010F
:104B8000304601F04BFDD9F80010DBE6B2F5AA7F04
:104B900005D8DA0B02F17801490077321EE740F2BE
:104BA00054518A4205D89A0C02F17D0149007C32A9
:104BB00014E7FE217E2211E77B6884E7E808431CA6
:104BC0005B00F8E5C88DFF1F82B049B15AB16BB1E7
:104BD00013780B601278101C18BF012002B07047C8
:104BE00001A9002AF3D1104602B070476FF001000E
:104BF000F4E700BF8842F0B50DD98B1898420AD26D
:104C00008118002A51D09A1A13F8014D01F8014D6C
:104C10009342F9D1F0BD0F2A48D941EA00039B071E
:104C200046D100F1100401F11003154653F8106C41
:104C300044F8106C53F80C6C44F80C6C53F8086C86
:104C400044F8086C103D53F8046C44F8046C0F2DC4
:104C500003F1100304F11004E8D8A2F1100323F0CB
:104C60000F0302F00F0E1033BEF1030F194403447B
:104C700021D91E1F0D467446043C55F8047B46F8A6
:104C8000047F032CF8D8AEF1040424F003040434A8
:104C90002344214402F0030262B1013B0A4411F8AB
:104CA000014B03F8014F8A42F9D1F0BD0346F3E707
:104CB0000346F2E7F0BD7246EEE700BF704700BF63
:104CC000704700BF024B0A460146186800F002B860
:104CD000588CFF1F2DE9F04F174683B0002900F0D4
:104CE000C1800E46814607F10B05FFF7E7FF56F836
:104CF00004EC162D2EF00304A6F1080840D810226B
:104D00001546AF4241D8944275DAC94B996808EB11
:104D100004008842416800F0D98021F00103034477
:104D20005B68DB077DD51EF0010F35D0394648465C
:104D3000FFF792FC0746E0B156F8043C23F001036C
:104D40004344A0F108029A4200F04481221F242A21
:104D500000F23181132A00F20481034632461168C1
:104D600019605168596092689A603146484601F06E
:104D700055FC4846FFF7A4FF384603B0BDE8F08F66
:104D800025F00705002D2A46BBDA0C230020C9F8C0
:104D9000003003B0BDE8F08F56F8083CC3EB080ABA
:104DA000DAF8043023F0030C04EB0C039342BDDB70
:104DB0005746DAF80C1057F8080F221F242AC16052
:104DC000886000F21781132A40F212813168CAF814
:104DD00008107168CAF80C101B2A00F22B810836E3
:104DE0000AF110023168116071685160B168916018
:104DF0003E461C46D046631B0F2B1DD8D8F8043006
:104E000003F0010323434444C8F80430636843F0CB
:104E1000010363604846FFF753FF304603B0BDE827
:104E2000F08F21F003012144914221DBC3688268A5
:104E30000C46D3609A60DEE7D8F8042008EB050141
:104E400002F00102154343F001020B44C8F804507C
:104E50004A605A6842F0010208315A60484601F03F
:104E6000DDFBD7E7114603B0BDE8F04FFFF7F4BB19
:104E70001EF0010F7FF45AAF56F8083CC3EB080A46
:104E8000DAF8043023F0030C01EB0C0E96458BDBB3
:104E9000C36882685746D3609A6057F8081FDAF8EB
:104EA0000C30CB60221F242A996000F29980132ACB
:104EB00062D93368CAF808307368CAF80C301B2A04
:104EC00000F2A08008360AF1100356E021F0030B2F
:104ED000A34405F11000834559DA1EF0010F7FF459
:104EE00025AF56F8081CC1EB080ADAF8041021F0C7
:104EF000030CE34458453FF757AF5746DAF80C1018
:104F000057F8080F221F242AC160886000F2B4807D
:104F1000132A40F2A5803168CAF808107168CAF8EF
:104F20000C101B2A00F2AF8008360AF1100231681B
:104F3000116071685160B16891600AEB0501C5EBC1
:104F40000B0242F0010299604A60DAF8043003F083
:104F500001031D434846CAF80450FFF7B1FE384626
:104F60005CE733680360736843601B2A27D800F14D
:104F7000080306F10802F2E63B4632681A607268DE
:104F80005A60B2689A603E467446D04633E708EBF2
:104F90000501C5EB0B0B4BF0010299604A6056F816
:104FA000043C03F001031D43484646F8045CFFF748
:104FB00087FE304632E73146FFF71CFED5E6B36880
:104FC0008360F368C360242A28D000F1100306F13F
:104FD0001002C4E650F8043C23F003031C440AE723
:104FE000314638467446D046FFF704FE3E4602E797
:104FF0003A46F7E6314638461C46D046FFF7FAFDFA
:105000003E46F8E6B368CAF81030F368CAF81430C0
:10501000242A1BD010360AF11803AEE73369036166
:105020007369436106F1180200F1180397E600BFA7
:10503000C88DFF1FB168CAF81010F168CAF81410C3
:10504000242A0FD010360AF11802CBE63369CAF8C9
:1050500018307369CAF81C3018360AF120038CE73F
:105060003A4664E73269CAF818207269CAF81C2007
:1050700018360AF12002B5E6314638460193FFF7AB
:10508000B9FD019B59E7B168CAF81010F168CAF878
:105090001410242A03D010360AF1180247E73269A7
:1050A000CAF818207269CAF81C2018360AF12002C2
:1050B0003DE700BF38B5074C00230546084623608E
:1050C000FCF7FAFE431C00D038BD2368002BFBD050
:1050D0002B6038BD7496FF1F80EA0102844612F0EF
:1050E000030F4FD111F0030F32D14DF8044D11F0E1
:1050F000040F51F8043B0BD0A3F101329A4312F094
:10510000803F04BF4CF8043B51F8043B16D100BF6C
:1051100051F8044BA3F101329A4312F0803FA4F1FD
:1051200001320BD14CF8043BA24312F0803F04BF84
:1051300051F8043B4CF8044BEAD023460CF8013BF1
:1051400013F0FF0F4FEA3323F8D15DF8044B70479B
:1051500011F0010F06D011F8012B0CF8012B002AD9
:1051600008BF704711F0020FBFD031F8022B12F0C8
:10517000FF0F16BF2CF8022B8CF8002012F47F4F83
:10518000B3D1704711F8012B0CF8012B002AF9D18B
:10519000704700BFFFFFFFFFFFFFFFFFFFFFFFFFA5
:1051A000FFFFFFFFFFFFFFFFFFFFFFFFFFFFFFFF0F
:1051B000FFFFFFFFFFFFFFFFFFFFFFFFFFFFFFFFFF
:1051C00090F800F06DE9024520F007016FF0000C47
:1051D00010F0070491F820F040F049804FF00004EF
:1051E0006FF00700D1E9002391F840F000F10800CA
:1051F00082FA4CF2A4FA8CF283FA4CF3A2FA8CF302
:105200004BBBD1E9022382FA4CF200F10800A4FA68
:105210008CF283FA4CF3A2FA8CF3E3B9D1E90423BC
:1052200082FA4CF200F10800A4FA8CF283FA4CF3F3
:10523000A2FA8CF37BB9D1E9062301F1200182FAAD
:105240004CF200F10800A4FA8CF283FA4CF3A2FAB3
:105250008CF3002BC6D0002A04BF04301A4612BAC1
:10526000B2FA82F2FDE8024500EBD2007047D1E9C4
:10527000002304F00305C4F100004FEAC50514F053
:10528000040F91F840F00CFA05F562EA05021CBF24
:1052900063EA050362464FF00004A9E7002A41D003
:1052A00040EA010313F00303F0B425D1032A23D904
:1052B00004680D68AC421FD1043A35D0A4F1013521
:1052C00025EA040414F0803F31D1071D0D1D0DE0C7
:1052D00057F8043B0E68A3F10134B34224EA0304F7
:1052E0000AD1043A20D014F0803F23D1032A294662
:1052F000384605F10405EBD803780C789C4202F19E
:10530000FF320CD182B114B916E06AB17BB110F84A
:10531000013F11F8014FA34202F1FF32F5D0181BF3
:10532000F0BC7047104670471046F0BC70471846F6
:10533000F0BC70470020F3E72046F1E740EA0103A4
:105340009B0770B42BD1032A29D90C46034621466A
:1053500054F8046BA6F1013525EA060515F0803FE7
:1053600006D1043A032A43F8046B2146EFD8A2B1D0
:105370000C781C70013A013301313CB16AB111F86B
:10538000014B03F8014B013A002CF7D12AB11A4422
:10539000002103F8011B9A42FBD170BC7047034601
:1053A000E5E700BF2DE9F0410F46904602F0D2F844
:1053B00004460D46B8F1000F11D0C7F30A53C3F1EC
:1053C0006B03002B0BDD1B0503F17F55002405F556
:1053D000401522462B46FEF77BFABDE8F0812046B9
:1053E0002946BDE8F08100BF2DE9F04F1D46A1B070
:1053F0000023834628460E4607921C9301F0AAFD1F
:105400000024002382460068CDE90434FFF7D8FE6B
:105410001B9681463246144612F8017B2D2F00F26E
:10542000B180DFE807F017AFAFAFAFAFAFAFAF837B
:1054300083838383AFAFAFAFAFAFAFAFAFAFAFAF2C
:10544000AFAFAFAFAFAF83AFAFAFAFAFAFAFAFAF98
:10545000AF2DAF80079B4FF000094FF0000A53B10A
:1054600000230893079B1E60089B23B149460AF15D
:10547000004389469A464846514621B0BDE8F08F20
:1054800000230893621C1B926778002FE2D0302F14
:1054900014467BD000230A940993A7F13003092B0B
:1054A00000F2DB834FF00008204645464446082CB6
:1054B000C8BF08EB880805EB850300F1010007EB86
:1054C00043031B90C4BF07EB4807A7F130080778D8
:1054D000D8BFA3F13005A7F13003092B04F1010473
:1054E000E5D9DAF800104A46FFF7D8FE00B30020ED
:1054F0003B4681460746A246652B00F0B280452B0D
:1055000000F0AF800022002C52D118B9099A002A6D
:1055100000F0C7824FF000094FF0000A079B002BF4
:10552000A2D01B9E9EE701230893ABE71B9272E774
:105530001B9B03EB09021B9213F809300746A24696
:10554000A3F13002092A00F27182411C1346002A9D
:1055500000F06E8601290F4418BF001905D100F034
:1055600063BE4D00844200F0AE840134611E082900
:1055700005EB8501F5DD102CDCBF08EB88084FEA50
:105580004808EFE70023302F089383D16378582B26
:1055900000F04783782B00F0448301341B94277874
:1055A000302FFAD0002FB5D001230A94099374E765
:1055B000102CA2EB07032846A1460C93A8BF4FF07E
:1055C0001009FEF70FF9BAF1000F08BFA246B9F1B2
:1055D000090FCDE9040113DD494B03EBC90353E97E
:1055E0001223FEF775F9064640460F46FEF7FAF815
:1055F00002460B4630463946FDF7B8FFCDE90401B7
:105600000F2C00F385800C9B002B27D040F3F384F4
:105610000C9B162B00F37084394F07EBC307D7E9B7
:105620000001DDE90423FEF753F981468A4675E758
:105630001BA8344901F0B6FB00283FF40BAF1B9BBD
:105640003149013B1BA81B9301F0ACFB10B91B9B1C
:1056500001331B932D4B059300230493DDE9049A3A
:105660005CE7002C00F0D6811B9E731C1B937378A3
:105670002B2B00F0D3822D2B00F00B824FF0000C6F
:10568000A3F13002092A00F2C682302B05D11B9A01
:1056900001321B921378302BFAD0A3F13102082A81
:1056A0003FF630AF1B9A0D92511C303B1B910C936F
:1056B0005378A3F1300EBEF1090F0FD80C9A0131C7
:1056C0001B9102EB820203EB42020B78A3F1300E36
:1056D000BEF1090FA2F13002F1D90C920D9A891A8C
:1056E000082900F301840C9A44F61F618A42A8BF7E
:1056F0000A46BCF1000F3FF406AF524203E700BF79
:10570000A8990000189700001C9700000000F07F87
:105710000C9BC9EB04099944B9F1000F40F37A835B
:1057200019F00F010AD0B44B03EBC101D1E900011C
:10573000DDE90423FEF7CCF8CDE9040139F00F06CA
:1057400040F00682002309930095234652460A99A9
:10575000584601F071FC1090002800F0D9820C9A94
:105760000026002AC2F10003A8BF33460D9322EAA7
:10577000E2730C933746B246109C5846616801F0BC
:10578000EBFB8046002800F025832269023204F1F9
:105790000C0192000C30FCF7ADFADDE904341EA8D0
:1057A0001DA9CDE90A341A460190234600915846B6
:1057B00001F05CFF1C90002800F02F840121584666
:1057C00001F0D4FC0746002800F004831D9A002A4B
:1057D000C0F228810D9B0C9D9E1809981E9B87493D
:1057E000121A1A44013A8A42C3F1360380F2E78062
:1057F000891A1F29A3EB010300F31B8101228A40B0
:105800000F9200221192F4181D44099BA6423246C1
:105810001D44A8BF2246AA42A8BF2A46002A02DD8C
:10582000A41AAD1AB61A0D9BBBB139461A46584692
:1058300001F03EFD0746002800F0CC8201461C9A8C
:10584000584601F09DFC002800F0C4820E901C997F
:10585000584601F0A7FB0E9A1C92002C08DD224648
:105860001C99584601F074FD1C90002800F0D58367
:105870000C9B43B141460C9A584601F019FD8046F5
:10588000002800F0A782002D08DD41462A46584630
:1058900001F05EFD8046002800F09C82002E08DDAD
:1058A00039463246584601F053FD0746002800F0BD
:1058B000918242461C99584601F0C2FD824600285A
:1058C00000F088820026C368C66039460E9301F056
:1058D00097FDB042C0F2B88300F0078439465046C5
:1058E00001F020FF00224FF0804304460D46FEF7F2
:1058F0006BFA002868D00E9B002B00F0A280059B5D
:105900003F4D0F9699463E4B119300243D4E3E4B22
:105910004A4616409E4200F0D181099B33B3B6F14E
:10592000D46F23D8DDF844900F98494630A3D3E9CB
:105930000023FEF749FAB0B10F984946FEF7A0FAE6
:10594000002800F03583FDF74DFF0F9011910E9B5D
:10595000002B40F028830F9B1493119B03F100430D
:105960001593DDE9144505F1D6639D1BDDE90A01B8
:1059700001F0F0FD02460B4620462946FDF7A8FF40
:10598000DDE90A23FDF7F2FDCDE904010C46099B90
:1059900023B91C4B23409E4200F0DE811C995846DF
:1059A00001F000FB4146584601F0FCFA39465846E2
:1059B00001F0F8FA5146584601F0F4FADCE600220C
:1059C000119201220F921EE7104B20462946002219
:1059D000FDF77EFF0E9B0F901191002B54D101F12A
:1059E000004312901393059BDDE9124599468DE71C
:1059F0000000C0FFFFFFDF41A899000002FCFFFF8D
:105A00000000F03F0000F07F0000E07F0000E03F7A
:105A10004FF00109002842D1099B002B3FF41AAD39
:105A2000044621E60C9B0D9E9D1AD6E64FF0010917
:105A300062E5BD4CA41A012202FA04F111910F9201
:105A4000E1E6DDE90412002940F0C780C2F3130348
:105A50009146002B40F0C7800022B44B20462946D7
:105A6000FEF7A8F9002840F06283B14B2046294692
:105A70000022FDF72DFF01F100430F9018901191C6
:105A80001993DDE9184541E70F9A119BCDE91223DF
:105A9000A9E74FF0010CB31C1B93B378F0E5002489
:105AA000E2E5B9F1000F7FF4D5AC493B252B3FF679
:105AB000D1AC01A252F823F0315600005554000039
:105AC000555400005554000055540000F55B00008B
:105AD0005554000055540000555400005554000022
